{
  "contracts/libraries/Lines1.sol": {
    "Lines1": {
      "abi": [
        {
          "inputs": [],
          "name": "fortune_1",
          "outputs": [
            {
              "internalType": "string[2]",
              "name": "",
              "type": "string[2]"
            }
          ],
          "stateMutability": "pure",
          "type": "function"
        },
        {
          "inputs": [],
          "name": "fortune_10",
          "outputs": [
            {
              "internalType": "string[2]",
              "name": "",
              "type": "string[2]"
            }
          ],
          "stateMutability": "pure",
          "type": "function"
        },
        {
          "inputs": [],
          "name": "fortune_11",
          "outputs": [
            {
              "internalType": "string[2]",
              "name": "",
              "type": "string[2]"
            }
          ],
          "stateMutability": "pure",
          "type": "function"
        },
        {
          "inputs": [],
          "name": "fortune_12",
          "outputs": [
            {
              "internalType": "string[2]",
              "name": "",
              "type": "string[2]"
            }
          ],
          "stateMutability": "pure",
          "type": "function"
        },
        {
          "inputs": [],
          "name": "fortune_13",
          "outputs": [
            {
              "internalType": "string[2]",
              "name": "",
              "type": "string[2]"
            }
          ],
          "stateMutability": "pure",
          "type": "function"
        },
        {
          "inputs": [],
          "name": "fortune_14",
          "outputs": [
            {
              "internalType": "string[2]",
              "name": "",
              "type": "string[2]"
            }
          ],
          "stateMutability": "pure",
          "type": "function"
        },
        {
          "inputs": [],
          "name": "fortune_15",
          "outputs": [
            {
              "internalType": "string[2]",
              "name": "",
              "type": "string[2]"
            }
          ],
          "stateMutability": "pure",
          "type": "function"
        },
        {
          "inputs": [],
          "name": "fortune_16",
          "outputs": [
            {
              "internalType": "string[2]",
              "name": "",
              "type": "string[2]"
            }
          ],
          "stateMutability": "pure",
          "type": "function"
        },
        {
          "inputs": [],
          "name": "fortune_17",
          "outputs": [
            {
              "internalType": "string[2]",
              "name": "",
              "type": "string[2]"
            }
          ],
          "stateMutability": "pure",
          "type": "function"
        },
        {
          "inputs": [],
          "name": "fortune_18",
          "outputs": [
            {
              "internalType": "string[2]",
              "name": "",
              "type": "string[2]"
            }
          ],
          "stateMutability": "pure",
          "type": "function"
        },
        {
          "inputs": [],
          "name": "fortune_19",
          "outputs": [
            {
              "internalType": "string[2]",
              "name": "",
              "type": "string[2]"
            }
          ],
          "stateMutability": "pure",
          "type": "function"
        },
        {
          "inputs": [],
          "name": "fortune_2",
          "outputs": [
            {
              "internalType": "string[2]",
              "name": "",
              "type": "string[2]"
            }
          ],
          "stateMutability": "pure",
          "type": "function"
        },
        {
          "inputs": [],
          "name": "fortune_20",
          "outputs": [
            {
              "internalType": "string[2]",
              "name": "",
              "type": "string[2]"
            }
          ],
          "stateMutability": "pure",
          "type": "function"
        },
        {
          "inputs": [],
          "name": "fortune_3",
          "outputs": [
            {
              "internalType": "string[2]",
              "name": "",
              "type": "string[2]"
            }
          ],
          "stateMutability": "pure",
          "type": "function"
        },
        {
          "inputs": [],
          "name": "fortune_4",
          "outputs": [
            {
              "internalType": "string[2]",
              "name": "",
              "type": "string[2]"
            }
          ],
          "stateMutability": "pure",
          "type": "function"
        },
        {
          "inputs": [],
          "name": "fortune_5",
          "outputs": [
            {
              "internalType": "string[2]",
              "name": "",
              "type": "string[2]"
            }
          ],
          "stateMutability": "pure",
          "type": "function"
        },
        {
          "inputs": [],
          "name": "fortune_6",
          "outputs": [
            {
              "internalType": "string[2]",
              "name": "",
              "type": "string[2]"
            }
          ],
          "stateMutability": "pure",
          "type": "function"
        },
        {
          "inputs": [],
          "name": "fortune_7",
          "outputs": [
            {
              "internalType": "string[2]",
              "name": "",
              "type": "string[2]"
            }
          ],
          "stateMutability": "pure",
          "type": "function"
        },
        {
          "inputs": [],
          "name": "fortune_8",
          "outputs": [
            {
              "internalType": "string[2]",
              "name": "",
              "type": "string[2]"
            }
          ],
          "stateMutability": "pure",
          "type": "function"
        },
        {
          "inputs": [],
          "name": "fortune_9",
          "outputs": [
            {
              "internalType": "string[2]",
              "name": "",
              "type": "string[2]"
            }
          ],
          "stateMutability": "pure",
          "type": "function"
        },
        {
          "inputs": [
            {
              "internalType": "uint256",
              "name": "rand",
              "type": "uint256"
            }
          ],
          "name": "getFortuneLines",
          "outputs": [
            {
              "internalType": "string[2]",
              "name": "",
              "type": "string[2]"
            }
          ],
          "stateMutability": "pure",
          "type": "function"
        }
      ],
      "evm": {
        "bytecode": {
          "linkReferences": {},
          "object": "6112e3610053600b82828239805160001a607314610046577f4e487b7100000000000000000000000000000000000000000000000000000000600052600060045260246000fd5b30600052607381538281f3fe73000000000000000000000000000000000000000030146080604052600436106101415760003560e01c8063a0566948116100c2578063c090d57911610086578063c090d5791461031a578063d62c23d614610338578063e0a4588314610356578063e14df6a914610374578063e28de4de14610392578063f22aa21f146103b057610141565b8063a056694814610284578063a0963255146102a2578063a3fbfbdc146102c0578063a8a6d11a146102de578063b0553181146102fc57610141565b80632787ed39116101095780632787ed39146101dc5780634eb9e761146101fa57806366f5322d1461021857806392666ed91461023657806392d539831461025457610141565b806308656eaa1461014657806315108c1514610164578063190b42d9146101825780631f0f9ec7146101a05780631feda37a146101be575b600080fd5b61014e6103ce565b60405161015b91906111dd565b60405180910390f35b61016c61045a565b60405161017991906111dd565b60405180910390f35b61018a6104e6565b60405161019791906111dd565b60405180910390f35b6101a8610572565b6040516101b591906111dd565b60405180910390f35b6101c66105fe565b6040516101d391906111dd565b60405180910390f35b6101e461068a565b6040516101f191906111dd565b60405180910390f35b610202610716565b60405161020f91906111dd565b60405180910390f35b6102206107a2565b60405161022d91906111dd565b60405180910390f35b61023e61082e565b60405161024b91906111dd565b60405180910390f35b61026e600480360381019061026991906110f2565b6108ba565b60405161027b91906111dd565b60405180910390f35b61028c610ab2565b60405161029991906111dd565b60405180910390f35b6102aa610b3e565b6040516102b791906111dd565b60405180910390f35b6102c8610bca565b6040516102d591906111dd565b60405180910390f35b6102e6610c56565b6040516102f391906111dd565b60405180910390f35b610304610ce2565b60405161031191906111dd565b60405180910390f35b610322610d6e565b60405161032f91906111dd565b60405180910390f35b610340610dfa565b60405161034d91906111dd565b60405180910390f35b61035e610e86565b60405161036b91906111dd565b60405180910390f35b61037c610f12565b60405161038991906111dd565b60405180910390f35b61039a610f9e565b6040516103a791906111dd565b60405180910390f35b6103b861102a565b6040516103c591906111dd565b60405180910390f35b6103d66110b6565b60405180604001604052806040518060400160405280601781526020017f446f206e6f74207075727375652068617070696e65737300000000000000000081525081526020016040518060400160405280600c81526020017f2d206372656174652069742e0000000000000000000000000000000000000000815250815250905090565b6104626110b6565b60405180604001604052806040518060400160405280600f81526020017f54727920616e64206661696c202d20000000000000000000000000000000000081525081526020016040518060400160405280601681526020017f627574206e65766572206661696c20746f207472792e00000000000000000000815250815250905090565b6104ee6110b6565b60405180604001604052806040518060400160405280601981526020017f53746f7020736179696e672079657320746f207468696e67730000000000000081525081526020016040518060400160405280601681526020017f796f7520646f206e6f742077616e7420746f20646f2e00000000000000000000815250815250905090565b61057a6110b6565b60405180604001604052806040518060400160405280601881526020017f416c6c207468696e67732061726520646966666963756c74000000000000000081525081526020016040518060400160405280601581526020017f6265666f726520746865792061726520656173792e0000000000000000000000815250815250905090565b6106066110b6565b60405180604001604052806040518060400160405280600881526020017f43504720436c756200000000000000000000000000000000000000000000000081525081526020016040518060400160405280600c81526020017f746f20746865204d6f6f6e210000000000000000000000000000000000000000815250815250905090565b6106926110b6565b60405180604001604052806040518060400160405280601181526020017f457468657265756d20697320676f696e6700000000000000000000000000000081525081526020016040518060400160405280600681526020017f746f2032306b0000000000000000000000000000000000000000000000000000815250815250905090565b61071e6110b6565b60405180604001604052806040518060400160405280601a81526020017f596f757220726f616420746f20676c6f72792077696c6c20626500000000000081525081526020016040518060400160405280601781526020017f726f636b79202d206275742066756c6c66696c6c696e67000000000000000000815250815250905090565b6107aa6110b6565b60405180604001604052806040518060400160405280601881526020017f446f206e6f7420776f7272792061626f7574206d6f6e6579000000000000000081525081526020016040518060400160405280601681526020017f62657374207468696e67732061726520696e2045544800000000000000000000815250815250905090565b6108366110b6565b60405180604001604052806040518060400160405280601281526020017f426967206a6f75726e65797320626567696e000000000000000000000000000081525081526020016040518060400160405280601481526020017f7769746820612073696e676c6520737465702e20000000000000000000000000815250815250905090565b6108c26110b6565b60018214156108da576108d361068a565b9050610aad565b60028214156108f2576108eb610716565b9050610aad565b600382141561090a57610903610b3e565b9050610aad565b60048214156109225761091b6107a2565b9050610aad565b600582141561093a576109336103ce565b9050610aad565b60068214156109525761094b610572565b9050610aad565b600782141561096a57610963610f9e565b9050610aad565b60088214156109825761097b610f12565b9050610aad565b600982141561099a5761099361082e565b9050610aad565b600a8214156109b2576109ab6105fe565b9050610aad565b600b8214156109ca576109c3610d6e565b9050610aad565b600c8214156109e2576109db610c56565b9050610aad565b600d8214156109fa576109f3610e86565b9050610aad565b600e821415610a1257610a0b61102a565b9050610aad565b600f821415610a2a57610a23610ab2565b9050610aad565b6010821415610a4257610a3b61045a565b9050610aad565b6011821415610a5a57610a53610dfa565b9050610aad565b6012821415610a7257610a6b610bca565b9050610aad565b6013821415610a8a57610a83610ce2565b9050610aad565b6014821415610aa257610a9b6104e6565b9050610aad565b610aaa61068a565b90505b919050565b610aba6110b6565b60405180604001604052806040518060400160405280600c81526020017f537461792068756e6772792e000000000000000000000000000000000000000081525081526020016040518060400160405280600d81526020017f5374617920666f6f6c6973682e00000000000000000000000000000000000000815250815250905090565b610b466110b6565b60405180604001604052806040518060400160405280601581526020017f50617469656e636520697320796f757220616c6c79000000000000000000000081525081526020016040518060400160405280600d81526020017f446f206e6f7420776f7272792100000000000000000000000000000000000000815250815250905090565b610bd26110b6565b60405180604001604052806040518060400160405280600a81526020017f456d62726163652061200000000000000000000000000000000000000000000081525081526020016040518060400160405280600e81526020017f6e6577206e61727261746976652e000000000000000000000000000000000000815250815250905090565b610c5e6110b6565b60405180604001604052806040518060400160405280601381526020017f4c6974746c65206279206c6974746c65202d200000000000000000000000000081525081526020016040518060400160405280600f81526020017f6f6e652074726176656c73206661720000000000000000000000000000000000815250815250905090565b610cea6110b6565b60405180604001604052806040518060400160405280600b81526020017f476574206c6f737420696e00000000000000000000000000000000000000000081525081526020016040518060400160405280601481526020017f74686520726967687420646972656374696f6e2e000000000000000000000000815250815250905090565b610d766110b6565b60405180604001604052806040518060400160405280600e81526020017f53616c7420616e6420737567617200000000000000000000000000000000000081525081526020016040518060400160405280600e81526020017f6c6f6f6b207468652073616d652e000000000000000000000000000000000000815250815250905090565b610e026110b6565b60405180604001604052806040518060400160405280600a81526020017f53617920796573202d200000000000000000000000000000000000000000000081525081526020016040518060400160405280601381526020017f7468656e20666967757265206974206f75742e00000000000000000000000000815250815250905090565b610e8e6110b6565b60405180604001604052806040518060400160405280600d81526020017f4e6f7420616c6c2074686f73650000000000000000000000000000000000000081525081526020016040518060400160405280601481526020017f77686f2077616e64657220617265206c6f73742e000000000000000000000000815250815250905090565b610f1a6110b6565b60405180604001604052806040518060400160405280601681526020017f746f2067657420746865206672756974202d206f6e650000000000000000000081525081526020016040518060400160405280601481526020017f6d75737420636c696d622074686520747265652e000000000000000000000000815250815250905090565b610fa66110b6565b60405180604001604052806040518060400160405280601a81526020017f4665617220697320696e7465726573742070616964206f6e206100000000000081525081526020016040518060400160405280601581526020017f6465627420796f75206d6179206e6f74206f77652e0000000000000000000000815250815250905090565b6110326110b6565b60405180604001604052806040518060400160405280600c81526020017f596f752061726520796f7572000000000000000000000000000000000000000081525081526020016040518060400160405280600b81526020017f62657374207468696e672e000000000000000000000000000000000000000000815250815250905090565b60405180604001604052806002905b60608152602001906001900390816110c55790505090565b6000813590506110ec81611296565b92915050565b60006020828403121561110457600080fd5b6000611112848285016110dd565b91505092915050565b600061112783836111a4565b905092915050565b600061113a82611209565b611144818561122c565b935083602082028501611156856111ff565b8060005b858110156111925784840389528151611173858261111b565b945061117e8361121f565b925060208a0199505060018101905061115a565b50829750879550505050505092915050565b60006111af82611214565b6111b98185611237565b93506111c9818560208601611252565b6111d281611285565b840191505092915050565b600060208201905081810360008301526111f7818461112f565b905092915050565b6000819050919050565b600060029050919050565b600081519050919050565b6000602082019050919050565b600081905092915050565b600082825260208201905092915050565b6000819050919050565b60005b83811015611270578082015181840152602081019050611255565b8381111561127f576000848401525b50505050565b6000601f19601f8301169050919050565b61129f81611248565b81146112aa57600080fd5b5056fea264697066735822122052dddb5b179a6b77707dd34a6fbe0f449f3010224ecc5d9cb9bedd9f77ae17da64736f6c63430008020033",
          "opcodes": "PUSH2 0x12E3 PUSH2 0x53 PUSH1 0xB DUP3 DUP3 DUP3 CODECOPY DUP1 MLOAD PUSH1 0x0 BYTE PUSH1 0x73 EQ PUSH2 0x46 JUMPI PUSH32 0x4E487B7100000000000000000000000000000000000000000000000000000000 PUSH1 0x0 MSTORE PUSH1 0x0 PUSH1 0x4 MSTORE PUSH1 0x24 PUSH1 0x0 REVERT JUMPDEST ADDRESS PUSH1 0x0 MSTORE PUSH1 0x73 DUP2 MSTORE8 DUP3 DUP2 RETURN INVALID PUSH20 0x0 ADDRESS EQ PUSH1 0x80 PUSH1 0x40 MSTORE PUSH1 0x4 CALLDATASIZE LT PUSH2 0x141 JUMPI PUSH1 0x0 CALLDATALOAD PUSH1 0xE0 SHR DUP1 PUSH4 0xA0566948 GT PUSH2 0xC2 JUMPI DUP1 PUSH4 0xC090D579 GT PUSH2 0x86 JUMPI DUP1 PUSH4 0xC090D579 EQ PUSH2 0x31A JUMPI DUP1 PUSH4 0xD62C23D6 EQ PUSH2 0x338 JUMPI DUP1 PUSH4 0xE0A45883 EQ PUSH2 0x356 JUMPI DUP1 PUSH4 0xE14DF6A9 EQ PUSH2 0x374 JUMPI DUP1 PUSH4 0xE28DE4DE EQ PUSH2 0x392 JUMPI DUP1 PUSH4 0xF22AA21F EQ PUSH2 0x3B0 JUMPI PUSH2 0x141 JUMP JUMPDEST DUP1 PUSH4 0xA0566948 EQ PUSH2 0x284 JUMPI DUP1 PUSH4 0xA0963255 EQ PUSH2 0x2A2 JUMPI DUP1 PUSH4 0xA3FBFBDC EQ PUSH2 0x2C0 JUMPI DUP1 PUSH4 0xA8A6D11A EQ PUSH2 0x2DE JUMPI DUP1 PUSH4 0xB0553181 EQ PUSH2 0x2FC JUMPI PUSH2 0x141 JUMP JUMPDEST DUP1 PUSH4 0x2787ED39 GT PUSH2 0x109 JUMPI DUP1 PUSH4 0x2787ED39 EQ PUSH2 0x1DC JUMPI DUP1 PUSH4 0x4EB9E761 EQ PUSH2 0x1FA JUMPI DUP1 PUSH4 0x66F5322D EQ PUSH2 0x218 JUMPI DUP1 PUSH4 0x92666ED9 EQ PUSH2 0x236 JUMPI DUP1 PUSH4 0x92D53983 EQ PUSH2 0x254 JUMPI PUSH2 0x141 JUMP JUMPDEST DUP1 PUSH4 0x8656EAA EQ PUSH2 0x146 JUMPI DUP1 PUSH4 0x15108C15 EQ PUSH2 0x164 JUMPI DUP1 PUSH4 0x190B42D9 EQ PUSH2 0x182 JUMPI DUP1 PUSH4 0x1F0F9EC7 EQ PUSH2 0x1A0 JUMPI DUP1 PUSH4 0x1FEDA37A EQ PUSH2 0x1BE JUMPI JUMPDEST PUSH1 0x0 DUP1 REVERT JUMPDEST PUSH2 0x14E PUSH2 0x3CE JUMP JUMPDEST PUSH1 0x40 MLOAD PUSH2 0x15B SWAP2 SWAP1 PUSH2 0x11DD JUMP JUMPDEST PUSH1 0x40 MLOAD DUP1 SWAP2 SUB SWAP1 RETURN JUMPDEST PUSH2 0x16C PUSH2 0x45A JUMP JUMPDEST PUSH1 0x40 MLOAD PUSH2 0x179 SWAP2 SWAP1 PUSH2 0x11DD JUMP JUMPDEST PUSH1 0x40 MLOAD DUP1 SWAP2 SUB SWAP1 RETURN JUMPDEST PUSH2 0x18A PUSH2 0x4E6 JUMP JUMPDEST PUSH1 0x40 MLOAD PUSH2 0x197 SWAP2 SWAP1 PUSH2 0x11DD JUMP JUMPDEST PUSH1 0x40 MLOAD DUP1 SWAP2 SUB SWAP1 RETURN JUMPDEST PUSH2 0x1A8 PUSH2 0x572 JUMP JUMPDEST PUSH1 0x40 MLOAD PUSH2 0x1B5 SWAP2 SWAP1 PUSH2 0x11DD JUMP JUMPDEST PUSH1 0x40 MLOAD DUP1 SWAP2 SUB SWAP1 RETURN JUMPDEST PUSH2 0x1C6 PUSH2 0x5FE JUMP JUMPDEST PUSH1 0x40 MLOAD PUSH2 0x1D3 SWAP2 SWAP1 PUSH2 0x11DD JUMP JUMPDEST PUSH1 0x40 MLOAD DUP1 SWAP2 SUB SWAP1 RETURN JUMPDEST PUSH2 0x1E4 PUSH2 0x68A JUMP JUMPDEST PUSH1 0x40 MLOAD PUSH2 0x1F1 SWAP2 SWAP1 PUSH2 0x11DD JUMP JUMPDEST PUSH1 0x40 MLOAD DUP1 SWAP2 SUB SWAP1 RETURN JUMPDEST PUSH2 0x202 PUSH2 0x716 JUMP JUMPDEST PUSH1 0x40 MLOAD PUSH2 0x20F SWAP2 SWAP1 PUSH2 0x11DD JUMP JUMPDEST PUSH1 0x40 MLOAD DUP1 SWAP2 SUB SWAP1 RETURN JUMPDEST PUSH2 0x220 PUSH2 0x7A2 JUMP JUMPDEST PUSH1 0x40 MLOAD PUSH2 0x22D SWAP2 SWAP1 PUSH2 0x11DD JUMP JUMPDEST PUSH1 0x40 MLOAD DUP1 SWAP2 SUB SWAP1 RETURN JUMPDEST PUSH2 0x23E PUSH2 0x82E JUMP JUMPDEST PUSH1 0x40 MLOAD PUSH2 0x24B SWAP2 SWAP1 PUSH2 0x11DD JUMP JUMPDEST PUSH1 0x40 MLOAD DUP1 SWAP2 SUB SWAP1 RETURN JUMPDEST PUSH2 0x26E PUSH1 0x4 DUP1 CALLDATASIZE SUB DUP2 ADD SWAP1 PUSH2 0x269 SWAP2 SWAP1 PUSH2 0x10F2 JUMP JUMPDEST PUSH2 0x8BA JUMP JUMPDEST PUSH1 0x40 MLOAD PUSH2 0x27B SWAP2 SWAP1 PUSH2 0x11DD JUMP JUMPDEST PUSH1 0x40 MLOAD DUP1 SWAP2 SUB SWAP1 RETURN JUMPDEST PUSH2 0x28C PUSH2 0xAB2 JUMP JUMPDEST PUSH1 0x40 MLOAD PUSH2 0x299 SWAP2 SWAP1 PUSH2 0x11DD JUMP JUMPDEST PUSH1 0x40 MLOAD DUP1 SWAP2 SUB SWAP1 RETURN JUMPDEST PUSH2 0x2AA PUSH2 0xB3E JUMP JUMPDEST PUSH1 0x40 MLOAD PUSH2 0x2B7 SWAP2 SWAP1 PUSH2 0x11DD JUMP JUMPDEST PUSH1 0x40 MLOAD DUP1 SWAP2 SUB SWAP1 RETURN JUMPDEST PUSH2 0x2C8 PUSH2 0xBCA JUMP JUMPDEST PUSH1 0x40 MLOAD PUSH2 0x2D5 SWAP2 SWAP1 PUSH2 0x11DD JUMP JUMPDEST PUSH1 0x40 MLOAD DUP1 SWAP2 SUB SWAP1 RETURN JUMPDEST PUSH2 0x2E6 PUSH2 0xC56 JUMP JUMPDEST PUSH1 0x40 MLOAD PUSH2 0x2F3 SWAP2 SWAP1 PUSH2 0x11DD JUMP JUMPDEST PUSH1 0x40 MLOAD DUP1 SWAP2 SUB SWAP1 RETURN JUMPDEST PUSH2 0x304 PUSH2 0xCE2 JUMP JUMPDEST PUSH1 0x40 MLOAD PUSH2 0x311 SWAP2 SWAP1 PUSH2 0x11DD JUMP JUMPDEST PUSH1 0x40 MLOAD DUP1 SWAP2 SUB SWAP1 RETURN JUMPDEST PUSH2 0x322 PUSH2 0xD6E JUMP JUMPDEST PUSH1 0x40 MLOAD PUSH2 0x32F SWAP2 SWAP1 PUSH2 0x11DD JUMP JUMPDEST PUSH1 0x40 MLOAD DUP1 SWAP2 SUB SWAP1 RETURN JUMPDEST PUSH2 0x340 PUSH2 0xDFA JUMP JUMPDEST PUSH1 0x40 MLOAD PUSH2 0x34D SWAP2 SWAP1 PUSH2 0x11DD JUMP JUMPDEST PUSH1 0x40 MLOAD DUP1 SWAP2 SUB SWAP1 RETURN JUMPDEST PUSH2 0x35E PUSH2 0xE86 JUMP JUMPDEST PUSH1 0x40 MLOAD PUSH2 0x36B SWAP2 SWAP1 PUSH2 0x11DD JUMP JUMPDEST PUSH1 0x40 MLOAD DUP1 SWAP2 SUB SWAP1 RETURN JUMPDEST PUSH2 0x37C PUSH2 0xF12 JUMP JUMPDEST PUSH1 0x40 MLOAD PUSH2 0x389 SWAP2 SWAP1 PUSH2 0x11DD JUMP JUMPDEST PUSH1 0x40 MLOAD DUP1 SWAP2 SUB SWAP1 RETURN JUMPDEST PUSH2 0x39A PUSH2 0xF9E JUMP JUMPDEST PUSH1 0x40 MLOAD PUSH2 0x3A7 SWAP2 SWAP1 PUSH2 0x11DD JUMP JUMPDEST PUSH1 0x40 MLOAD DUP1 SWAP2 SUB SWAP1 RETURN JUMPDEST PUSH2 0x3B8 PUSH2 0x102A JUMP JUMPDEST PUSH1 0x40 MLOAD PUSH2 0x3C5 SWAP2 SWAP1 PUSH2 0x11DD JUMP JUMPDEST PUSH1 0x40 MLOAD DUP1 SWAP2 SUB SWAP1 RETURN JUMPDEST PUSH2 0x3D6 PUSH2 0x10B6 JUMP JUMPDEST PUSH1 0x40 MLOAD DUP1 PUSH1 0x40 ADD PUSH1 0x40 MSTORE DUP1 PUSH1 0x40 MLOAD DUP1 PUSH1 0x40 ADD PUSH1 0x40 MSTORE DUP1 PUSH1 0x17 DUP2 MSTORE PUSH1 0x20 ADD PUSH32 0x446F206E6F74207075727375652068617070696E657373000000000000000000 DUP2 MSTORE POP DUP2 MSTORE PUSH1 0x20 ADD PUSH1 0x40 MLOAD DUP1 PUSH1 0x40 ADD PUSH1 0x40 MSTORE DUP1 PUSH1 0xC DUP2 MSTORE PUSH1 0x20 ADD PUSH32 0x2D206372656174652069742E0000000000000000000000000000000000000000 DUP2 MSTORE POP DUP2 MSTORE POP SWAP1 POP SWAP1 JUMP JUMPDEST PUSH2 0x462 PUSH2 0x10B6 JUMP JUMPDEST PUSH1 0x40 MLOAD DUP1 PUSH1 0x40 ADD PUSH1 0x40 MSTORE DUP1 PUSH1 0x40 MLOAD DUP1 PUSH1 0x40 ADD PUSH1 0x40 MSTORE DUP1 PUSH1 0xF DUP2 MSTORE PUSH1 0x20 ADD PUSH32 0x54727920616E64206661696C202D200000000000000000000000000000000000 DUP2 MSTORE POP DUP2 MSTORE PUSH1 0x20 ADD PUSH1 0x40 MLOAD DUP1 PUSH1 0x40 ADD PUSH1 0x40 MSTORE DUP1 PUSH1 0x16 DUP2 MSTORE PUSH1 0x20 ADD PUSH32 0x627574206E65766572206661696C20746F207472792E00000000000000000000 DUP2 MSTORE POP DUP2 MSTORE POP SWAP1 POP SWAP1 JUMP JUMPDEST PUSH2 0x4EE PUSH2 0x10B6 JUMP JUMPDEST PUSH1 0x40 MLOAD DUP1 PUSH1 0x40 ADD PUSH1 0x40 MSTORE DUP1 PUSH1 0x40 MLOAD DUP1 PUSH1 0x40 ADD PUSH1 0x40 MSTORE DUP1 PUSH1 0x19 DUP2 MSTORE PUSH1 0x20 ADD PUSH32 0x53746F7020736179696E672079657320746F207468696E677300000000000000 DUP2 MSTORE POP DUP2 MSTORE PUSH1 0x20 ADD PUSH1 0x40 MLOAD DUP1 PUSH1 0x40 ADD PUSH1 0x40 MSTORE DUP1 PUSH1 0x16 DUP2 MSTORE PUSH1 0x20 ADD PUSH32 0x796F7520646F206E6F742077616E7420746F20646F2E00000000000000000000 DUP2 MSTORE POP DUP2 MSTORE POP SWAP1 POP SWAP1 JUMP JUMPDEST PUSH2 0x57A PUSH2 0x10B6 JUMP JUMPDEST PUSH1 0x40 MLOAD DUP1 PUSH1 0x40 ADD PUSH1 0x40 MSTORE DUP1 PUSH1 0x40 MLOAD DUP1 PUSH1 0x40 ADD PUSH1 0x40 MSTORE DUP1 PUSH1 0x18 DUP2 MSTORE PUSH1 0x20 ADD PUSH32 0x416C6C207468696E67732061726520646966666963756C740000000000000000 DUP2 MSTORE POP DUP2 MSTORE PUSH1 0x20 ADD PUSH1 0x40 MLOAD DUP1 PUSH1 0x40 ADD PUSH1 0x40 MSTORE DUP1 PUSH1 0x15 DUP2 MSTORE PUSH1 0x20 ADD PUSH32 0x6265666F726520746865792061726520656173792E0000000000000000000000 DUP2 MSTORE POP DUP2 MSTORE POP SWAP1 POP SWAP1 JUMP JUMPDEST PUSH2 0x606 PUSH2 0x10B6 JUMP JUMPDEST PUSH1 0x40 MLOAD DUP1 PUSH1 0x40 ADD PUSH1 0x40 MSTORE DUP1 PUSH1 0x40 MLOAD DUP1 PUSH1 0x40 ADD PUSH1 0x40 MSTORE DUP1 PUSH1 0x8 DUP2 MSTORE PUSH1 0x20 ADD PUSH32 0x43504720436C7562000000000000000000000000000000000000000000000000 DUP2 MSTORE POP DUP2 MSTORE PUSH1 0x20 ADD PUSH1 0x40 MLOAD DUP1 PUSH1 0x40 ADD PUSH1 0x40 MSTORE DUP1 PUSH1 0xC DUP2 MSTORE PUSH1 0x20 ADD PUSH32 0x746F20746865204D6F6F6E210000000000000000000000000000000000000000 DUP2 MSTORE POP DUP2 MSTORE POP SWAP1 POP SWAP1 JUMP JUMPDEST PUSH2 0x692 PUSH2 0x10B6 JUMP JUMPDEST PUSH1 0x40 MLOAD DUP1 PUSH1 0x40 ADD PUSH1 0x40 MSTORE DUP1 PUSH1 0x40 MLOAD DUP1 PUSH1 0x40 ADD PUSH1 0x40 MSTORE DUP1 PUSH1 0x11 DUP2 MSTORE PUSH1 0x20 ADD PUSH32 0x457468657265756D20697320676F696E67000000000000000000000000000000 DUP2 MSTORE POP DUP2 MSTORE PUSH1 0x20 ADD PUSH1 0x40 MLOAD DUP1 PUSH1 0x40 ADD PUSH1 0x40 MSTORE DUP1 PUSH1 0x6 DUP2 MSTORE PUSH1 0x20 ADD PUSH32 0x746F2032306B0000000000000000000000000000000000000000000000000000 DUP2 MSTORE POP DUP2 MSTORE POP SWAP1 POP SWAP1 JUMP JUMPDEST PUSH2 0x71E PUSH2 0x10B6 JUMP JUMPDEST PUSH1 0x40 MLOAD DUP1 PUSH1 0x40 ADD PUSH1 0x40 MSTORE DUP1 PUSH1 0x40 MLOAD DUP1 PUSH1 0x40 ADD PUSH1 0x40 MSTORE DUP1 PUSH1 0x1A DUP2 MSTORE PUSH1 0x20 ADD PUSH32 0x596F757220726F616420746F20676C6F72792077696C6C206265000000000000 DUP2 MSTORE POP DUP2 MSTORE PUSH1 0x20 ADD PUSH1 0x40 MLOAD DUP1 PUSH1 0x40 ADD PUSH1 0x40 MSTORE DUP1 PUSH1 0x17 DUP2 MSTORE PUSH1 0x20 ADD PUSH32 0x726F636B79202D206275742066756C6C66696C6C696E67000000000000000000 DUP2 MSTORE POP DUP2 MSTORE POP SWAP1 POP SWAP1 JUMP JUMPDEST PUSH2 0x7AA PUSH2 0x10B6 JUMP JUMPDEST PUSH1 0x40 MLOAD DUP1 PUSH1 0x40 ADD PUSH1 0x40 MSTORE DUP1 PUSH1 0x40 MLOAD DUP1 PUSH1 0x40 ADD PUSH1 0x40 MSTORE DUP1 PUSH1 0x18 DUP2 MSTORE PUSH1 0x20 ADD PUSH32 0x446F206E6F7420776F7272792061626F7574206D6F6E65790000000000000000 DUP2 MSTORE POP DUP2 MSTORE PUSH1 0x20 ADD PUSH1 0x40 MLOAD DUP1 PUSH1 0x40 ADD PUSH1 0x40 MSTORE DUP1 PUSH1 0x16 DUP2 MSTORE PUSH1 0x20 ADD PUSH32 0x62657374207468696E67732061726520696E2045544800000000000000000000 DUP2 MSTORE POP DUP2 MSTORE POP SWAP1 POP SWAP1 JUMP JUMPDEST PUSH2 0x836 PUSH2 0x10B6 JUMP JUMPDEST PUSH1 0x40 MLOAD DUP1 PUSH1 0x40 ADD PUSH1 0x40 MSTORE DUP1 PUSH1 0x40 MLOAD DUP1 PUSH1 0x40 ADD PUSH1 0x40 MSTORE DUP1 PUSH1 0x12 DUP2 MSTORE PUSH1 0x20 ADD PUSH32 0x426967206A6F75726E65797320626567696E0000000000000000000000000000 DUP2 MSTORE POP DUP2 MSTORE PUSH1 0x20 ADD PUSH1 0x40 MLOAD DUP1 PUSH1 0x40 ADD PUSH1 0x40 MSTORE DUP1 PUSH1 0x14 DUP2 MSTORE PUSH1 0x20 ADD PUSH32 0x7769746820612073696E676C6520737465702E20000000000000000000000000 DUP2 MSTORE POP DUP2 MSTORE POP SWAP1 POP SWAP1 JUMP JUMPDEST PUSH2 0x8C2 PUSH2 0x10B6 JUMP JUMPDEST PUSH1 0x1 DUP3 EQ ISZERO PUSH2 0x8DA JUMPI PUSH2 0x8D3 PUSH2 0x68A JUMP JUMPDEST SWAP1 POP PUSH2 0xAAD JUMP JUMPDEST PUSH1 0x2 DUP3 EQ ISZERO PUSH2 0x8F2 JUMPI PUSH2 0x8EB PUSH2 0x716 JUMP JUMPDEST SWAP1 POP PUSH2 0xAAD JUMP JUMPDEST PUSH1 0x3 DUP3 EQ ISZERO PUSH2 0x90A JUMPI PUSH2 0x903 PUSH2 0xB3E JUMP JUMPDEST SWAP1 POP PUSH2 0xAAD JUMP JUMPDEST PUSH1 0x4 DUP3 EQ ISZERO PUSH2 0x922 JUMPI PUSH2 0x91B PUSH2 0x7A2 JUMP JUMPDEST SWAP1 POP PUSH2 0xAAD JUMP JUMPDEST PUSH1 0x5 DUP3 EQ ISZERO PUSH2 0x93A JUMPI PUSH2 0x933 PUSH2 0x3CE JUMP JUMPDEST SWAP1 POP PUSH2 0xAAD JUMP JUMPDEST PUSH1 0x6 DUP3 EQ ISZERO PUSH2 0x952 JUMPI PUSH2 0x94B PUSH2 0x572 JUMP JUMPDEST SWAP1 POP PUSH2 0xAAD JUMP JUMPDEST PUSH1 0x7 DUP3 EQ ISZERO PUSH2 0x96A JUMPI PUSH2 0x963 PUSH2 0xF9E JUMP JUMPDEST SWAP1 POP PUSH2 0xAAD JUMP JUMPDEST PUSH1 0x8 DUP3 EQ ISZERO PUSH2 0x982 JUMPI PUSH2 0x97B PUSH2 0xF12 JUMP JUMPDEST SWAP1 POP PUSH2 0xAAD JUMP JUMPDEST PUSH1 0x9 DUP3 EQ ISZERO PUSH2 0x99A JUMPI PUSH2 0x993 PUSH2 0x82E JUMP JUMPDEST SWAP1 POP PUSH2 0xAAD JUMP JUMPDEST PUSH1 0xA DUP3 EQ ISZERO PUSH2 0x9B2 JUMPI PUSH2 0x9AB PUSH2 0x5FE JUMP JUMPDEST SWAP1 POP PUSH2 0xAAD JUMP JUMPDEST PUSH1 0xB DUP3 EQ ISZERO PUSH2 0x9CA JUMPI PUSH2 0x9C3 PUSH2 0xD6E JUMP JUMPDEST SWAP1 POP PUSH2 0xAAD JUMP JUMPDEST PUSH1 0xC DUP3 EQ ISZERO PUSH2 0x9E2 JUMPI PUSH2 0x9DB PUSH2 0xC56 JUMP JUMPDEST SWAP1 POP PUSH2 0xAAD JUMP JUMPDEST PUSH1 0xD DUP3 EQ ISZERO PUSH2 0x9FA JUMPI PUSH2 0x9F3 PUSH2 0xE86 JUMP JUMPDEST SWAP1 POP PUSH2 0xAAD JUMP JUMPDEST PUSH1 0xE DUP3 EQ ISZERO PUSH2 0xA12 JUMPI PUSH2 0xA0B PUSH2 0x102A JUMP JUMPDEST SWAP1 POP PUSH2 0xAAD JUMP JUMPDEST PUSH1 0xF DUP3 EQ ISZERO PUSH2 0xA2A JUMPI PUSH2 0xA23 PUSH2 0xAB2 JUMP JUMPDEST SWAP1 POP PUSH2 0xAAD JUMP JUMPDEST PUSH1 0x10 DUP3 EQ ISZERO PUSH2 0xA42 JUMPI PUSH2 0xA3B PUSH2 0x45A JUMP JUMPDEST SWAP1 POP PUSH2 0xAAD JUMP JUMPDEST PUSH1 0x11 DUP3 EQ ISZERO PUSH2 0xA5A JUMPI PUSH2 0xA53 PUSH2 0xDFA JUMP JUMPDEST SWAP1 POP PUSH2 0xAAD JUMP JUMPDEST PUSH1 0x12 DUP3 EQ ISZERO PUSH2 0xA72 JUMPI PUSH2 0xA6B PUSH2 0xBCA JUMP JUMPDEST SWAP1 POP PUSH2 0xAAD JUMP JUMPDEST PUSH1 0x13 DUP3 EQ ISZERO PUSH2 0xA8A JUMPI PUSH2 0xA83 PUSH2 0xCE2 JUMP JUMPDEST SWAP1 POP PUSH2 0xAAD JUMP JUMPDEST PUSH1 0x14 DUP3 EQ ISZERO PUSH2 0xAA2 JUMPI PUSH2 0xA9B PUSH2 0x4E6 JUMP JUMPDEST SWAP1 POP PUSH2 0xAAD JUMP JUMPDEST PUSH2 0xAAA PUSH2 0x68A JUMP JUMPDEST SWAP1 POP JUMPDEST SWAP2 SWAP1 POP JUMP JUMPDEST PUSH2 0xABA PUSH2 0x10B6 JUMP JUMPDEST PUSH1 0x40 MLOAD DUP1 PUSH1 0x40 ADD PUSH1 0x40 MSTORE DUP1 PUSH1 0x40 MLOAD DUP1 PUSH1 0x40 ADD PUSH1 0x40 MSTORE DUP1 PUSH1 0xC DUP2 MSTORE PUSH1 0x20 ADD PUSH32 0x537461792068756E6772792E0000000000000000000000000000000000000000 DUP2 MSTORE POP DUP2 MSTORE PUSH1 0x20 ADD PUSH1 0x40 MLOAD DUP1 PUSH1 0x40 ADD PUSH1 0x40 MSTORE DUP1 PUSH1 0xD DUP2 MSTORE PUSH1 0x20 ADD PUSH32 0x5374617920666F6F6C6973682E00000000000000000000000000000000000000 DUP2 MSTORE POP DUP2 MSTORE POP SWAP1 POP SWAP1 JUMP JUMPDEST PUSH2 0xB46 PUSH2 0x10B6 JUMP JUMPDEST PUSH1 0x40 MLOAD DUP1 PUSH1 0x40 ADD PUSH1 0x40 MSTORE DUP1 PUSH1 0x40 MLOAD DUP1 PUSH1 0x40 ADD PUSH1 0x40 MSTORE DUP1 PUSH1 0x15 DUP2 MSTORE PUSH1 0x20 ADD PUSH32 0x50617469656E636520697320796F757220616C6C790000000000000000000000 DUP2 MSTORE POP DUP2 MSTORE PUSH1 0x20 ADD PUSH1 0x40 MLOAD DUP1 PUSH1 0x40 ADD PUSH1 0x40 MSTORE DUP1 PUSH1 0xD DUP2 MSTORE PUSH1 0x20 ADD PUSH32 0x446F206E6F7420776F7272792100000000000000000000000000000000000000 DUP2 MSTORE POP DUP2 MSTORE POP SWAP1 POP SWAP1 JUMP JUMPDEST PUSH2 0xBD2 PUSH2 0x10B6 JUMP JUMPDEST PUSH1 0x40 MLOAD DUP1 PUSH1 0x40 ADD PUSH1 0x40 MSTORE DUP1 PUSH1 0x40 MLOAD DUP1 PUSH1 0x40 ADD PUSH1 0x40 MSTORE DUP1 PUSH1 0xA DUP2 MSTORE PUSH1 0x20 ADD PUSH32 0x456D627261636520612000000000000000000000000000000000000000000000 DUP2 MSTORE POP DUP2 MSTORE PUSH1 0x20 ADD PUSH1 0x40 MLOAD DUP1 PUSH1 0x40 ADD PUSH1 0x40 MSTORE DUP1 PUSH1 0xE DUP2 MSTORE PUSH1 0x20 ADD PUSH32 0x6E6577206E61727261746976652E000000000000000000000000000000000000 DUP2 MSTORE POP DUP2 MSTORE POP SWAP1 POP SWAP1 JUMP JUMPDEST PUSH2 0xC5E PUSH2 0x10B6 JUMP JUMPDEST PUSH1 0x40 MLOAD DUP1 PUSH1 0x40 ADD PUSH1 0x40 MSTORE DUP1 PUSH1 0x40 MLOAD DUP1 PUSH1 0x40 ADD PUSH1 0x40 MSTORE DUP1 PUSH1 0x13 DUP2 MSTORE PUSH1 0x20 ADD PUSH32 0x4C6974746C65206279206C6974746C65202D2000000000000000000000000000 DUP2 MSTORE POP DUP2 MSTORE PUSH1 0x20 ADD PUSH1 0x40 MLOAD DUP1 PUSH1 0x40 ADD PUSH1 0x40 MSTORE DUP1 PUSH1 0xF DUP2 MSTORE PUSH1 0x20 ADD PUSH32 0x6F6E652074726176656C73206661720000000000000000000000000000000000 DUP2 MSTORE POP DUP2 MSTORE POP SWAP1 POP SWAP1 JUMP JUMPDEST PUSH2 0xCEA PUSH2 0x10B6 JUMP JUMPDEST PUSH1 0x40 MLOAD DUP1 PUSH1 0x40 ADD PUSH1 0x40 MSTORE DUP1 PUSH1 0x40 MLOAD DUP1 PUSH1 0x40 ADD PUSH1 0x40 MSTORE DUP1 PUSH1 0xB DUP2 MSTORE PUSH1 0x20 ADD PUSH32 0x476574206C6F737420696E000000000000000000000000000000000000000000 DUP2 MSTORE POP DUP2 MSTORE PUSH1 0x20 ADD PUSH1 0x40 MLOAD DUP1 PUSH1 0x40 ADD PUSH1 0x40 MSTORE DUP1 PUSH1 0x14 DUP2 MSTORE PUSH1 0x20 ADD PUSH32 0x74686520726967687420646972656374696F6E2E000000000000000000000000 DUP2 MSTORE POP DUP2 MSTORE POP SWAP1 POP SWAP1 JUMP JUMPDEST PUSH2 0xD76 PUSH2 0x10B6 JUMP JUMPDEST PUSH1 0x40 MLOAD DUP1 PUSH1 0x40 ADD PUSH1 0x40 MSTORE DUP1 PUSH1 0x40 MLOAD DUP1 PUSH1 0x40 ADD PUSH1 0x40 MSTORE DUP1 PUSH1 0xE DUP2 MSTORE PUSH1 0x20 ADD PUSH32 0x53616C7420616E64207375676172000000000000000000000000000000000000 DUP2 MSTORE POP DUP2 MSTORE PUSH1 0x20 ADD PUSH1 0x40 MLOAD DUP1 PUSH1 0x40 ADD PUSH1 0x40 MSTORE DUP1 PUSH1 0xE DUP2 MSTORE PUSH1 0x20 ADD PUSH32 0x6C6F6F6B207468652073616D652E000000000000000000000000000000000000 DUP2 MSTORE POP DUP2 MSTORE POP SWAP1 POP SWAP1 JUMP JUMPDEST PUSH2 0xE02 PUSH2 0x10B6 JUMP JUMPDEST PUSH1 0x40 MLOAD DUP1 PUSH1 0x40 ADD PUSH1 0x40 MSTORE DUP1 PUSH1 0x40 MLOAD DUP1 PUSH1 0x40 ADD PUSH1 0x40 MSTORE DUP1 PUSH1 0xA DUP2 MSTORE PUSH1 0x20 ADD PUSH32 0x53617920796573202D2000000000000000000000000000000000000000000000 DUP2 MSTORE POP DUP2 MSTORE PUSH1 0x20 ADD PUSH1 0x40 MLOAD DUP1 PUSH1 0x40 ADD PUSH1 0x40 MSTORE DUP1 PUSH1 0x13 DUP2 MSTORE PUSH1 0x20 ADD PUSH32 0x7468656E20666967757265206974206F75742E00000000000000000000000000 DUP2 MSTORE POP DUP2 MSTORE POP SWAP1 POP SWAP1 JUMP JUMPDEST PUSH2 0xE8E PUSH2 0x10B6 JUMP JUMPDEST PUSH1 0x40 MLOAD DUP1 PUSH1 0x40 ADD PUSH1 0x40 MSTORE DUP1 PUSH1 0x40 MLOAD DUP1 PUSH1 0x40 ADD PUSH1 0x40 MSTORE DUP1 PUSH1 0xD DUP2 MSTORE PUSH1 0x20 ADD PUSH32 0x4E6F7420616C6C2074686F736500000000000000000000000000000000000000 DUP2 MSTORE POP DUP2 MSTORE PUSH1 0x20 ADD PUSH1 0x40 MLOAD DUP1 PUSH1 0x40 ADD PUSH1 0x40 MSTORE DUP1 PUSH1 0x14 DUP2 MSTORE PUSH1 0x20 ADD PUSH32 0x77686F2077616E64657220617265206C6F73742E000000000000000000000000 DUP2 MSTORE POP DUP2 MSTORE POP SWAP1 POP SWAP1 JUMP JUMPDEST PUSH2 0xF1A PUSH2 0x10B6 JUMP JUMPDEST PUSH1 0x40 MLOAD DUP1 PUSH1 0x40 ADD PUSH1 0x40 MSTORE DUP1 PUSH1 0x40 MLOAD DUP1 PUSH1 0x40 ADD PUSH1 0x40 MSTORE DUP1 PUSH1 0x16 DUP2 MSTORE PUSH1 0x20 ADD PUSH32 0x746F2067657420746865206672756974202D206F6E6500000000000000000000 DUP2 MSTORE POP DUP2 MSTORE PUSH1 0x20 ADD PUSH1 0x40 MLOAD DUP1 PUSH1 0x40 ADD PUSH1 0x40 MSTORE DUP1 PUSH1 0x14 DUP2 MSTORE PUSH1 0x20 ADD PUSH32 0x6D75737420636C696D622074686520747265652E000000000000000000000000 DUP2 MSTORE POP DUP2 MSTORE POP SWAP1 POP SWAP1 JUMP JUMPDEST PUSH2 0xFA6 PUSH2 0x10B6 JUMP JUMPDEST PUSH1 0x40 MLOAD DUP1 PUSH1 0x40 ADD PUSH1 0x40 MSTORE DUP1 PUSH1 0x40 MLOAD DUP1 PUSH1 0x40 ADD PUSH1 0x40 MSTORE DUP1 PUSH1 0x1A DUP2 MSTORE PUSH1 0x20 ADD PUSH32 0x4665617220697320696E7465726573742070616964206F6E2061000000000000 DUP2 MSTORE POP DUP2 MSTORE PUSH1 0x20 ADD PUSH1 0x40 MLOAD DUP1 PUSH1 0x40 ADD PUSH1 0x40 MSTORE DUP1 PUSH1 0x15 DUP2 MSTORE PUSH1 0x20 ADD PUSH32 0x6465627420796F75206D6179206E6F74206F77652E0000000000000000000000 DUP2 MSTORE POP DUP2 MSTORE POP SWAP1 POP SWAP1 JUMP JUMPDEST PUSH2 0x1032 PUSH2 0x10B6 JUMP JUMPDEST PUSH1 0x40 MLOAD DUP1 PUSH1 0x40 ADD PUSH1 0x40 MSTORE DUP1 PUSH1 0x40 MLOAD DUP1 PUSH1 0x40 ADD PUSH1 0x40 MSTORE DUP1 PUSH1 0xC DUP2 MSTORE PUSH1 0x20 ADD PUSH32 0x596F752061726520796F75720000000000000000000000000000000000000000 DUP2 MSTORE POP DUP2 MSTORE PUSH1 0x20 ADD PUSH1 0x40 MLOAD DUP1 PUSH1 0x40 ADD PUSH1 0x40 MSTORE DUP1 PUSH1 0xB DUP2 MSTORE PUSH1 0x20 ADD PUSH32 0x62657374207468696E672E000000000000000000000000000000000000000000 DUP2 MSTORE POP DUP2 MSTORE POP SWAP1 POP SWAP1 JUMP JUMPDEST PUSH1 0x40 MLOAD DUP1 PUSH1 0x40 ADD PUSH1 0x40 MSTORE DUP1 PUSH1 0x2 SWAP1 JUMPDEST PUSH1 0x60 DUP2 MSTORE PUSH1 0x20 ADD SWAP1 PUSH1 0x1 SWAP1 SUB SWAP1 DUP2 PUSH2 0x10C5 JUMPI SWAP1 POP POP SWAP1 JUMP JUMPDEST PUSH1 0x0 DUP2 CALLDATALOAD SWAP1 POP PUSH2 0x10EC DUP2 PUSH2 0x1296 JUMP JUMPDEST SWAP3 SWAP2 POP POP JUMP JUMPDEST PUSH1 0x0 PUSH1 0x20 DUP3 DUP5 SUB SLT ISZERO PUSH2 0x1104 JUMPI PUSH1 0x0 DUP1 REVERT JUMPDEST PUSH1 0x0 PUSH2 0x1112 DUP5 DUP3 DUP6 ADD PUSH2 0x10DD JUMP JUMPDEST SWAP2 POP POP SWAP3 SWAP2 POP POP JUMP JUMPDEST PUSH1 0x0 PUSH2 0x1127 DUP4 DUP4 PUSH2 0x11A4 JUMP JUMPDEST SWAP1 POP SWAP3 SWAP2 POP POP JUMP JUMPDEST PUSH1 0x0 PUSH2 0x113A DUP3 PUSH2 0x1209 JUMP JUMPDEST PUSH2 0x1144 DUP2 DUP6 PUSH2 0x122C JUMP JUMPDEST SWAP4 POP DUP4 PUSH1 0x20 DUP3 MUL DUP6 ADD PUSH2 0x1156 DUP6 PUSH2 0x11FF JUMP JUMPDEST DUP1 PUSH1 0x0 JUMPDEST DUP6 DUP2 LT ISZERO PUSH2 0x1192 JUMPI DUP5 DUP5 SUB DUP10 MSTORE DUP2 MLOAD PUSH2 0x1173 DUP6 DUP3 PUSH2 0x111B JUMP JUMPDEST SWAP5 POP PUSH2 0x117E DUP4 PUSH2 0x121F JUMP JUMPDEST SWAP3 POP PUSH1 0x20 DUP11 ADD SWAP10 POP POP PUSH1 0x1 DUP2 ADD SWAP1 POP PUSH2 0x115A JUMP JUMPDEST POP DUP3 SWAP8 POP DUP8 SWAP6 POP POP POP POP POP POP SWAP3 SWAP2 POP POP JUMP JUMPDEST PUSH1 0x0 PUSH2 0x11AF DUP3 PUSH2 0x1214 JUMP JUMPDEST PUSH2 0x11B9 DUP2 DUP6 PUSH2 0x1237 JUMP JUMPDEST SWAP4 POP PUSH2 0x11C9 DUP2 DUP6 PUSH1 0x20 DUP7 ADD PUSH2 0x1252 JUMP JUMPDEST PUSH2 0x11D2 DUP2 PUSH2 0x1285 JUMP JUMPDEST DUP5 ADD SWAP2 POP POP SWAP3 SWAP2 POP POP JUMP JUMPDEST PUSH1 0x0 PUSH1 0x20 DUP3 ADD SWAP1 POP DUP2 DUP2 SUB PUSH1 0x0 DUP4 ADD MSTORE PUSH2 0x11F7 DUP2 DUP5 PUSH2 0x112F JUMP JUMPDEST SWAP1 POP SWAP3 SWAP2 POP POP JUMP JUMPDEST PUSH1 0x0 DUP2 SWAP1 POP SWAP2 SWAP1 POP JUMP JUMPDEST PUSH1 0x0 PUSH1 0x2 SWAP1 POP SWAP2 SWAP1 POP JUMP JUMPDEST PUSH1 0x0 DUP2 MLOAD SWAP1 POP SWAP2 SWAP1 POP JUMP JUMPDEST PUSH1 0x0 PUSH1 0x20 DUP3 ADD SWAP1 POP SWAP2 SWAP1 POP JUMP JUMPDEST PUSH1 0x0 DUP2 SWAP1 POP SWAP3 SWAP2 POP POP JUMP JUMPDEST PUSH1 0x0 DUP3 DUP3 MSTORE PUSH1 0x20 DUP3 ADD SWAP1 POP SWAP3 SWAP2 POP POP JUMP JUMPDEST PUSH1 0x0 DUP2 SWAP1 POP SWAP2 SWAP1 POP JUMP JUMPDEST PUSH1 0x0 JUMPDEST DUP4 DUP2 LT ISZERO PUSH2 0x1270 JUMPI DUP1 DUP3 ADD MLOAD DUP2 DUP5 ADD MSTORE PUSH1 0x20 DUP2 ADD SWAP1 POP PUSH2 0x1255 JUMP JUMPDEST DUP4 DUP2 GT ISZERO PUSH2 0x127F JUMPI PUSH1 0x0 DUP5 DUP5 ADD MSTORE JUMPDEST POP POP POP POP JUMP JUMPDEST PUSH1 0x0 PUSH1 0x1F NOT PUSH1 0x1F DUP4 ADD AND SWAP1 POP SWAP2 SWAP1 POP JUMP JUMPDEST PUSH2 0x129F DUP2 PUSH2 0x1248 JUMP JUMPDEST DUP2 EQ PUSH2 0x12AA JUMPI PUSH1 0x0 DUP1 REVERT JUMPDEST POP JUMP INVALID LOG2 PUSH5 0x6970667358 0x22 SLT KECCAK256 MSTORE 0xDD 0xDB JUMPDEST OR SWAP11 PUSH12 0x77707DD34A6FBE0F449F3010 0x22 0x4E 0xCC 0x5D SWAP13 0xB9 0xBE 0xDD SWAP16 PUSH24 0xAE17DA64736F6C6343000802003300000000000000000000 "
        },
        "methodIdentifiers": {
          "fortune_1()": "2787ed39",
          "fortune_10()": "1feda37a",
          "fortune_11()": "c090d579",
          "fortune_12()": "a8a6d11a",
          "fortune_13()": "e0a45883",
          "fortune_14()": "f22aa21f",
          "fortune_15()": "a0566948",
          "fortune_16()": "15108c15",
          "fortune_17()": "d62c23d6",
          "fortune_18()": "a3fbfbdc",
          "fortune_19()": "b0553181",
          "fortune_2()": "4eb9e761",
          "fortune_20()": "190b42d9",
          "fortune_3()": "a0963255",
          "fortune_4()": "66f5322d",
          "fortune_5()": "08656eaa",
          "fortune_6()": "1f0f9ec7",
          "fortune_7()": "e28de4de",
          "fortune_8()": "e14df6a9",
          "fortune_9()": "92666ed9",
          "getFortuneLines(uint256)": "92d53983"
        }
      }
    }
  }
}