{
  "contracts/libraries/Lines3.sol": {
    "Lines3": {
      "abi": [
        {
          "inputs": [],
          "name": "fortune_41",
          "outputs": [
            {
              "internalType": "string[2]",
              "name": "",
              "type": "string[2]"
            }
          ],
          "stateMutability": "pure",
          "type": "function"
        },
        {
          "inputs": [],
          "name": "fortune_42",
          "outputs": [
            {
              "internalType": "string[2]",
              "name": "",
              "type": "string[2]"
            }
          ],
          "stateMutability": "pure",
          "type": "function"
        },
        {
          "inputs": [],
          "name": "fortune_43",
          "outputs": [
            {
              "internalType": "string[2]",
              "name": "",
              "type": "string[2]"
            }
          ],
          "stateMutability": "pure",
          "type": "function"
        },
        {
          "inputs": [],
          "name": "fortune_44",
          "outputs": [
            {
              "internalType": "string[2]",
              "name": "",
              "type": "string[2]"
            }
          ],
          "stateMutability": "pure",
          "type": "function"
        },
        {
          "inputs": [],
          "name": "fortune_45",
          "outputs": [
            {
              "internalType": "string[2]",
              "name": "",
              "type": "string[2]"
            }
          ],
          "stateMutability": "pure",
          "type": "function"
        },
        {
          "inputs": [],
          "name": "fortune_46",
          "outputs": [
            {
              "internalType": "string[2]",
              "name": "",
              "type": "string[2]"
            }
          ],
          "stateMutability": "pure",
          "type": "function"
        },
        {
          "inputs": [],
          "name": "fortune_47",
          "outputs": [
            {
              "internalType": "string[2]",
              "name": "",
              "type": "string[2]"
            }
          ],
          "stateMutability": "pure",
          "type": "function"
        },
        {
          "inputs": [],
          "name": "fortune_48",
          "outputs": [
            {
              "internalType": "string[2]",
              "name": "",
              "type": "string[2]"
            }
          ],
          "stateMutability": "pure",
          "type": "function"
        },
        {
          "inputs": [],
          "name": "fortune_49",
          "outputs": [
            {
              "internalType": "string[2]",
              "name": "",
              "type": "string[2]"
            }
          ],
          "stateMutability": "pure",
          "type": "function"
        },
        {
          "inputs": [],
          "name": "fortune_50",
          "outputs": [
            {
              "internalType": "string[2]",
              "name": "",
              "type": "string[2]"
            }
          ],
          "stateMutability": "pure",
          "type": "function"
        },
        {
          "inputs": [],
          "name": "fortune_51",
          "outputs": [
            {
              "internalType": "string[2]",
              "name": "",
              "type": "string[2]"
            }
          ],
          "stateMutability": "pure",
          "type": "function"
        },
        {
          "inputs": [],
          "name": "fortune_52",
          "outputs": [
            {
              "internalType": "string[2]",
              "name": "",
              "type": "string[2]"
            }
          ],
          "stateMutability": "pure",
          "type": "function"
        },
        {
          "inputs": [],
          "name": "fortune_53",
          "outputs": [
            {
              "internalType": "string[2]",
              "name": "",
              "type": "string[2]"
            }
          ],
          "stateMutability": "pure",
          "type": "function"
        },
        {
          "inputs": [],
          "name": "fortune_54",
          "outputs": [
            {
              "internalType": "string[2]",
              "name": "",
              "type": "string[2]"
            }
          ],
          "stateMutability": "pure",
          "type": "function"
        },
        {
          "inputs": [],
          "name": "fortune_55",
          "outputs": [
            {
              "internalType": "string[2]",
              "name": "",
              "type": "string[2]"
            }
          ],
          "stateMutability": "pure",
          "type": "function"
        },
        {
          "inputs": [],
          "name": "fortune_56",
          "outputs": [
            {
              "internalType": "string[2]",
              "name": "",
              "type": "string[2]"
            }
          ],
          "stateMutability": "pure",
          "type": "function"
        },
        {
          "inputs": [],
          "name": "fortune_57",
          "outputs": [
            {
              "internalType": "string[2]",
              "name": "",
              "type": "string[2]"
            }
          ],
          "stateMutability": "pure",
          "type": "function"
        },
        {
          "inputs": [],
          "name": "fortune_58",
          "outputs": [
            {
              "internalType": "string[2]",
              "name": "",
              "type": "string[2]"
            }
          ],
          "stateMutability": "pure",
          "type": "function"
        },
        {
          "inputs": [],
          "name": "fortune_59",
          "outputs": [
            {
              "internalType": "string[2]",
              "name": "",
              "type": "string[2]"
            }
          ],
          "stateMutability": "pure",
          "type": "function"
        },
        {
          "inputs": [],
          "name": "fortune_60",
          "outputs": [
            {
              "internalType": "string[2]",
              "name": "",
              "type": "string[2]"
            }
          ],
          "stateMutability": "pure",
          "type": "function"
        },
        {
          "inputs": [
            {
              "internalType": "uint256",
              "name": "rand",
              "type": "uint256"
            }
          ],
          "name": "getFortuneLines",
          "outputs": [
            {
              "internalType": "string[2]",
              "name": "",
              "type": "string[2]"
            }
          ],
          "stateMutability": "pure",
          "type": "function"
        }
      ],
      "evm": {
        "bytecode": {
          "linkReferences": {},
          "object": "6112e3610053600b82828239805160001a607314610046577f4e487b7100000000000000000000000000000000000000000000000000000000600052600060045260246000fd5b30600052607381538281f3fe73000000000000000000000000000000000000000030146080604052600436106101415760003560e01c806380072947116100c2578063b495443211610086578063b49544321461031a578063bfea1ed014610338578063d1284d6b14610356578063e5927e5e14610374578063e758044614610392578063ebe6fd99146103b057610141565b80638007294714610272578063820d2da6146102905780638ffdf455146102ae57806392d53983146102cc57806396c245c0146102fc57610141565b806335f647901161010957806335f64790146101dc57806345a3abf2146101fa578063683b30a0146102185780636dc873a0146102365780637cddacb01461025457610141565b806307c4404d146101465780630ff9877414610164578063103f16aa146101825780631db11aad146101a05780632aee20a9146101be575b600080fd5b61014e6103ce565b60405161015b91906111dd565b60405180910390f35b61016c61045a565b60405161017991906111dd565b60405180910390f35b61018a6104e6565b60405161019791906111dd565b60405180910390f35b6101a8610572565b6040516101b591906111dd565b60405180910390f35b6101c66105fe565b6040516101d391906111dd565b60405180910390f35b6101e461068a565b6040516101f191906111dd565b60405180910390f35b610202610716565b60405161020f91906111dd565b60405180910390f35b6102206107a2565b60405161022d91906111dd565b60405180910390f35b61023e61082e565b60405161024b91906111dd565b60405180910390f35b61025c6108ba565b60405161026991906111dd565b60405180910390f35b61027a610946565b60405161028791906111dd565b60405180910390f35b6102986109d2565b6040516102a591906111dd565b60405180910390f35b6102b6610a5e565b6040516102c391906111dd565b60405180910390f35b6102e660048036038101906102e191906110f2565b610aea565b6040516102f391906111dd565b60405180910390f35b610304610ce2565b60405161031191906111dd565b60405180910390f35b610322610d6e565b60405161032f91906111dd565b60405180910390f35b610340610dfa565b60405161034d91906111dd565b60405180910390f35b61035e610e86565b60405161036b91906111dd565b60405180910390f35b61037c610f12565b60405161038991906111dd565b60405180910390f35b61039a610f9e565b6040516103a791906111dd565b60405180910390f35b6103b861102a565b6040516103c591906111dd565b60405180910390f35b6103d66110b6565b60405180604001604052806040518060400160405280600e81526020017f57696e20796f7572206d696e642e00000000000000000000000000000000000081525081526020016040518060400160405280600e81526020017f57696e20796f7572206c6966652e000000000000000000000000000000000000815250815250905090565b6104626110b6565b60405180604001604052806040518060400160405280600d81526020017f426520626574746572206174200000000000000000000000000000000000000081525081526020016040518060400160405280600c81526020017f6265696e672077726f6e672e0000000000000000000000000000000000000000815250815250905090565b6104ee6110b6565b60405180604001604052806040518060400160405280600b81526020017f476f206f7574736964652000000000000000000000000000000000000000000081525081526020016040518060400160405280600981526020017f616e6420706c61792e0000000000000000000000000000000000000000000000815250815250905090565b61057a6110b6565b60405180604001604052806040518060400160405280600a81526020017f446f206669727374202d0000000000000000000000000000000000000000000081525081526020016040518060400160405280600c81526020017f54616c6b207365636f6e642e0000000000000000000000000000000000000000815250815250905090565b6106066110b6565b60405180604001604052806040518060400160405280600c81526020017f4775696c7420736572766573000000000000000000000000000000000000000081525081526020016040518060400160405280600b81526020017f6e6f20707572706f73652e000000000000000000000000000000000000000000815250815250905090565b6106926110b6565b60405180604001604052806040518060400160405280601381526020017f446f206e6f74206d616b65206120776973682e0000000000000000000000000081525081526020016040518060400160405280601081526020017f4d616b652061206465636973696f6e2e00000000000000000000000000000000815250815250905090565b61071e6110b6565b60405180604001604052806040518060400160405280601881526020017f4e6f626f6479206973206275696c74206c696b6520796f75000000000000000081525081526020016040518060400160405280601381526020017f796f752064657369676e20796f757273656c6600000000000000000000000000815250815250905090565b6107aa6110b6565b60405180604001604052806040518060400160405280600881526020017f596f75206b6e6f7700000000000000000000000000000000000000000000000081525081526020016040518060400160405280600b81526020017f7768617420746f20646f2e000000000000000000000000000000000000000000815250815250905090565b6108366110b6565b60405180604001604052806040518060400160405280600881526020017f47657420796f757200000000000000000000000000000000000000000000000081525081526020016040518060400160405280600981526020017f686f7065732075702e0000000000000000000000000000000000000000000000815250815250905090565b6108c26110b6565b60405180604001604052806040518060400160405280601881526020017f537461792067726163696f75732c20746865206265737420000000000000000081525081526020016040518060400160405280601481526020017f726576656e676520697320796f20706170657273000000000000000000000000815250815250905090565b61094e6110b6565b60405180604001604052806040518060400160405280601181526020017f446f20746865207468696e67207468617400000000000000000000000000000081525081526020016040518060400160405280601081526020017f73636172657320796f75206d6f73742e00000000000000000000000000000000815250815250905090565b6109da6110b6565b60405180604001604052806040518060400160405280600c81526020017f54616b65206e6f7468696e67000000000000000000000000000000000000000081525081526020016040518060400160405280600b81526020017f706572736f6e616c6c792e000000000000000000000000000000000000000000815250815250905090565b610a666110b6565b60405180604001604052806040518060400160405280600c81526020017f546865207472757468206973000000000000000000000000000000000000000081525081526020016040518060400160405280600e81526020017f6e6f7420636f6e667573696e672e000000000000000000000000000000000000815250815250905090565b610af26110b6565b6029821415610b0a57610b03610e86565b9050610cdd565b602a821415610b2257610b1b610ce2565b9050610cdd565b602b821415610b3a57610b33610dfa565b9050610cdd565b602c821415610b5257610b4b610716565b9050610cdd565b602d821415610b6a57610b63610f12565b9050610cdd565b602e821415610b8257610b7b61068a565b9050610cdd565b602f821415610b9a57610b93610946565b9050610cdd565b6030821415610bb257610bab61102a565b9050610cdd565b6031821415610bca57610bc36109d2565b9050610cdd565b6032821415610be257610bdb6103ce565b9050610cdd565b6033821415610bfa57610bf3610f9e565b9050610cdd565b6034821415610c1257610c0b6108ba565b9050610cdd565b6035821415610c2a57610c23610a5e565b9050610cdd565b6036821415610c4257610c3b6105fe565b9050610cdd565b6037821415610c5a57610c5361045a565b9050610cdd565b6038821415610c7257610c6b61082e565b9050610cdd565b6039821415610c8a57610c83610d6e565b9050610cdd565b603a821415610ca257610c9b6104e6565b9050610cdd565b603b821415610cba57610cb3610572565b9050610cdd565b603c821415610cd257610ccb6107a2565b9050610cdd565b610cda610e86565b90505b919050565b610cea6110b6565b60405180604001604052806040518060400160405280601881526020017f4966206974206d616b657320796f75206e6572766f75732d000000000000000081525081526020016040518060400160405280601781526020017f796f752061726520646f696e672069742072696768742e000000000000000000815250815250905090565b610d766110b6565b60405180604001604052806040518060400160405280601281526020017f596f7520646f206e6f74206e65656420746f000000000000000000000000000081525081526020016040518060400160405280601881526020017f666967757265206974206f7574207269676874206e6f772e0000000000000000815250815250905090565b610e026110b6565b60405180604001604052806040518060400160405280601881526020017f4c69666520776974686f757420647265616d696e67206973000000000000000081525081526020016040518060400160405280601781526020017f2061206c69666520776974686f7574206d65616e696e67000000000000000000815250815250905090565b610e8e6110b6565b60405180604001604052806040518060400160405280601981526020017f4a65616c6f757379206973206a757374206c6f766520616e640000000000000081525081526020016040518060400160405280601681526020017f68617465206174207468652073616d652074696d652e00000000000000000000815250815250905090565b610f1a6110b6565b60405180604001604052806040518060400160405280601881526020017f5265616c204773206d6f766520696e2073696c656e636520000000000000000081525081526020016040518060400160405280600d81526020017f6c696b65206c617361676e612e00000000000000000000000000000000000000815250815250905090565b610fa66110b6565b60405180604001604052806040518060400160405280600c81526020017f446f206e6f742074616b6520000000000000000000000000000000000000000081525081526020016040518060400160405280600981526020017f74686520626169742e0000000000000000000000000000000000000000000000815250815250905090565b6110326110b6565b60405180604001604052806040518060400160405280601081526020017f4265206c657373206d6f7665642062790000000000000000000000000000000081525081526020016040518060400160405280601681526020017f746865206f70696e696f6e206f66206f74686572732e00000000000000000000815250815250905090565b60405180604001604052806002905b60608152602001906001900390816110c55790505090565b6000813590506110ec81611296565b92915050565b60006020828403121561110457600080fd5b6000611112848285016110dd565b91505092915050565b600061112783836111a4565b905092915050565b600061113a82611209565b611144818561122c565b935083602082028501611156856111ff565b8060005b858110156111925784840389528151611173858261111b565b945061117e8361121f565b925060208a0199505060018101905061115a565b50829750879550505050505092915050565b60006111af82611214565b6111b98185611237565b93506111c9818560208601611252565b6111d281611285565b840191505092915050565b600060208201905081810360008301526111f7818461112f565b905092915050565b6000819050919050565b600060029050919050565b600081519050919050565b6000602082019050919050565b600081905092915050565b600082825260208201905092915050565b6000819050919050565b60005b83811015611270578082015181840152602081019050611255565b8381111561127f576000848401525b50505050565b6000601f19601f8301169050919050565b61129f81611248565b81146112aa57600080fd5b5056fea2646970667358221220dcc7c88605bea9c1b6488639877caeae1f5c54fe99a7f94741c3d388b03db28d64736f6c63430008020033",
          "opcodes": "PUSH2 0x12E3 PUSH2 0x53 PUSH1 0xB DUP3 DUP3 DUP3 CODECOPY DUP1 MLOAD PUSH1 0x0 BYTE PUSH1 0x73 EQ PUSH2 0x46 JUMPI PUSH32 0x4E487B7100000000000000000000000000000000000000000000000000000000 PUSH1 0x0 MSTORE PUSH1 0x0 PUSH1 0x4 MSTORE PUSH1 0x24 PUSH1 0x0 REVERT JUMPDEST ADDRESS PUSH1 0x0 MSTORE PUSH1 0x73 DUP2 MSTORE8 DUP3 DUP2 RETURN INVALID PUSH20 0x0 ADDRESS EQ PUSH1 0x80 PUSH1 0x40 MSTORE PUSH1 0x4 CALLDATASIZE LT PUSH2 0x141 JUMPI PUSH1 0x0 CALLDATALOAD PUSH1 0xE0 SHR DUP1 PUSH4 0x80072947 GT PUSH2 0xC2 JUMPI DUP1 PUSH4 0xB4954432 GT PUSH2 0x86 JUMPI DUP1 PUSH4 0xB4954432 EQ PUSH2 0x31A JUMPI DUP1 PUSH4 0xBFEA1ED0 EQ PUSH2 0x338 JUMPI DUP1 PUSH4 0xD1284D6B EQ PUSH2 0x356 JUMPI DUP1 PUSH4 0xE5927E5E EQ PUSH2 0x374 JUMPI DUP1 PUSH4 0xE7580446 EQ PUSH2 0x392 JUMPI DUP1 PUSH4 0xEBE6FD99 EQ PUSH2 0x3B0 JUMPI PUSH2 0x141 JUMP JUMPDEST DUP1 PUSH4 0x80072947 EQ PUSH2 0x272 JUMPI DUP1 PUSH4 0x820D2DA6 EQ PUSH2 0x290 JUMPI DUP1 PUSH4 0x8FFDF455 EQ PUSH2 0x2AE JUMPI DUP1 PUSH4 0x92D53983 EQ PUSH2 0x2CC JUMPI DUP1 PUSH4 0x96C245C0 EQ PUSH2 0x2FC JUMPI PUSH2 0x141 JUMP JUMPDEST DUP1 PUSH4 0x35F64790 GT PUSH2 0x109 JUMPI DUP1 PUSH4 0x35F64790 EQ PUSH2 0x1DC JUMPI DUP1 PUSH4 0x45A3ABF2 EQ PUSH2 0x1FA JUMPI DUP1 PUSH4 0x683B30A0 EQ PUSH2 0x218 JUMPI DUP1 PUSH4 0x6DC873A0 EQ PUSH2 0x236 JUMPI DUP1 PUSH4 0x7CDDACB0 EQ PUSH2 0x254 JUMPI PUSH2 0x141 JUMP JUMPDEST DUP1 PUSH4 0x7C4404D EQ PUSH2 0x146 JUMPI DUP1 PUSH4 0xFF98774 EQ PUSH2 0x164 JUMPI DUP1 PUSH4 0x103F16AA EQ PUSH2 0x182 JUMPI DUP1 PUSH4 0x1DB11AAD EQ PUSH2 0x1A0 JUMPI DUP1 PUSH4 0x2AEE20A9 EQ PUSH2 0x1BE JUMPI JUMPDEST PUSH1 0x0 DUP1 REVERT JUMPDEST PUSH2 0x14E PUSH2 0x3CE JUMP JUMPDEST PUSH1 0x40 MLOAD PUSH2 0x15B SWAP2 SWAP1 PUSH2 0x11DD JUMP JUMPDEST PUSH1 0x40 MLOAD DUP1 SWAP2 SUB SWAP1 RETURN JUMPDEST PUSH2 0x16C PUSH2 0x45A JUMP JUMPDEST PUSH1 0x40 MLOAD PUSH2 0x179 SWAP2 SWAP1 PUSH2 0x11DD JUMP JUMPDEST PUSH1 0x40 MLOAD DUP1 SWAP2 SUB SWAP1 RETURN JUMPDEST PUSH2 0x18A PUSH2 0x4E6 JUMP JUMPDEST PUSH1 0x40 MLOAD PUSH2 0x197 SWAP2 SWAP1 PUSH2 0x11DD JUMP JUMPDEST PUSH1 0x40 MLOAD DUP1 SWAP2 SUB SWAP1 RETURN JUMPDEST PUSH2 0x1A8 PUSH2 0x572 JUMP JUMPDEST PUSH1 0x40 MLOAD PUSH2 0x1B5 SWAP2 SWAP1 PUSH2 0x11DD JUMP JUMPDEST PUSH1 0x40 MLOAD DUP1 SWAP2 SUB SWAP1 RETURN JUMPDEST PUSH2 0x1C6 PUSH2 0x5FE JUMP JUMPDEST PUSH1 0x40 MLOAD PUSH2 0x1D3 SWAP2 SWAP1 PUSH2 0x11DD JUMP JUMPDEST PUSH1 0x40 MLOAD DUP1 SWAP2 SUB SWAP1 RETURN JUMPDEST PUSH2 0x1E4 PUSH2 0x68A JUMP JUMPDEST PUSH1 0x40 MLOAD PUSH2 0x1F1 SWAP2 SWAP1 PUSH2 0x11DD JUMP JUMPDEST PUSH1 0x40 MLOAD DUP1 SWAP2 SUB SWAP1 RETURN JUMPDEST PUSH2 0x202 PUSH2 0x716 JUMP JUMPDEST PUSH1 0x40 MLOAD PUSH2 0x20F SWAP2 SWAP1 PUSH2 0x11DD JUMP JUMPDEST PUSH1 0x40 MLOAD DUP1 SWAP2 SUB SWAP1 RETURN JUMPDEST PUSH2 0x220 PUSH2 0x7A2 JUMP JUMPDEST PUSH1 0x40 MLOAD PUSH2 0x22D SWAP2 SWAP1 PUSH2 0x11DD JUMP JUMPDEST PUSH1 0x40 MLOAD DUP1 SWAP2 SUB SWAP1 RETURN JUMPDEST PUSH2 0x23E PUSH2 0x82E JUMP JUMPDEST PUSH1 0x40 MLOAD PUSH2 0x24B SWAP2 SWAP1 PUSH2 0x11DD JUMP JUMPDEST PUSH1 0x40 MLOAD DUP1 SWAP2 SUB SWAP1 RETURN JUMPDEST PUSH2 0x25C PUSH2 0x8BA JUMP JUMPDEST PUSH1 0x40 MLOAD PUSH2 0x269 SWAP2 SWAP1 PUSH2 0x11DD JUMP JUMPDEST PUSH1 0x40 MLOAD DUP1 SWAP2 SUB SWAP1 RETURN JUMPDEST PUSH2 0x27A PUSH2 0x946 JUMP JUMPDEST PUSH1 0x40 MLOAD PUSH2 0x287 SWAP2 SWAP1 PUSH2 0x11DD JUMP JUMPDEST PUSH1 0x40 MLOAD DUP1 SWAP2 SUB SWAP1 RETURN JUMPDEST PUSH2 0x298 PUSH2 0x9D2 JUMP JUMPDEST PUSH1 0x40 MLOAD PUSH2 0x2A5 SWAP2 SWAP1 PUSH2 0x11DD JUMP JUMPDEST PUSH1 0x40 MLOAD DUP1 SWAP2 SUB SWAP1 RETURN JUMPDEST PUSH2 0x2B6 PUSH2 0xA5E JUMP JUMPDEST PUSH1 0x40 MLOAD PUSH2 0x2C3 SWAP2 SWAP1 PUSH2 0x11DD JUMP JUMPDEST PUSH1 0x40 MLOAD DUP1 SWAP2 SUB SWAP1 RETURN JUMPDEST PUSH2 0x2E6 PUSH1 0x4 DUP1 CALLDATASIZE SUB DUP2 ADD SWAP1 PUSH2 0x2E1 SWAP2 SWAP1 PUSH2 0x10F2 JUMP JUMPDEST PUSH2 0xAEA JUMP JUMPDEST PUSH1 0x40 MLOAD PUSH2 0x2F3 SWAP2 SWAP1 PUSH2 0x11DD JUMP JUMPDEST PUSH1 0x40 MLOAD DUP1 SWAP2 SUB SWAP1 RETURN JUMPDEST PUSH2 0x304 PUSH2 0xCE2 JUMP JUMPDEST PUSH1 0x40 MLOAD PUSH2 0x311 SWAP2 SWAP1 PUSH2 0x11DD JUMP JUMPDEST PUSH1 0x40 MLOAD DUP1 SWAP2 SUB SWAP1 RETURN JUMPDEST PUSH2 0x322 PUSH2 0xD6E JUMP JUMPDEST PUSH1 0x40 MLOAD PUSH2 0x32F SWAP2 SWAP1 PUSH2 0x11DD JUMP JUMPDEST PUSH1 0x40 MLOAD DUP1 SWAP2 SUB SWAP1 RETURN JUMPDEST PUSH2 0x340 PUSH2 0xDFA JUMP JUMPDEST PUSH1 0x40 MLOAD PUSH2 0x34D SWAP2 SWAP1 PUSH2 0x11DD JUMP JUMPDEST PUSH1 0x40 MLOAD DUP1 SWAP2 SUB SWAP1 RETURN JUMPDEST PUSH2 0x35E PUSH2 0xE86 JUMP JUMPDEST PUSH1 0x40 MLOAD PUSH2 0x36B SWAP2 SWAP1 PUSH2 0x11DD JUMP JUMPDEST PUSH1 0x40 MLOAD DUP1 SWAP2 SUB SWAP1 RETURN JUMPDEST PUSH2 0x37C PUSH2 0xF12 JUMP JUMPDEST PUSH1 0x40 MLOAD PUSH2 0x389 SWAP2 SWAP1 PUSH2 0x11DD JUMP JUMPDEST PUSH1 0x40 MLOAD DUP1 SWAP2 SUB SWAP1 RETURN JUMPDEST PUSH2 0x39A PUSH2 0xF9E JUMP JUMPDEST PUSH1 0x40 MLOAD PUSH2 0x3A7 SWAP2 SWAP1 PUSH2 0x11DD JUMP JUMPDEST PUSH1 0x40 MLOAD DUP1 SWAP2 SUB SWAP1 RETURN JUMPDEST PUSH2 0x3B8 PUSH2 0x102A JUMP JUMPDEST PUSH1 0x40 MLOAD PUSH2 0x3C5 SWAP2 SWAP1 PUSH2 0x11DD JUMP JUMPDEST PUSH1 0x40 MLOAD DUP1 SWAP2 SUB SWAP1 RETURN JUMPDEST PUSH2 0x3D6 PUSH2 0x10B6 JUMP JUMPDEST PUSH1 0x40 MLOAD DUP1 PUSH1 0x40 ADD PUSH1 0x40 MSTORE DUP1 PUSH1 0x40 MLOAD DUP1 PUSH1 0x40 ADD PUSH1 0x40 MSTORE DUP1 PUSH1 0xE DUP2 MSTORE PUSH1 0x20 ADD PUSH32 0x57696E20796F7572206D696E642E000000000000000000000000000000000000 DUP2 MSTORE POP DUP2 MSTORE PUSH1 0x20 ADD PUSH1 0x40 MLOAD DUP1 PUSH1 0x40 ADD PUSH1 0x40 MSTORE DUP1 PUSH1 0xE DUP2 MSTORE PUSH1 0x20 ADD PUSH32 0x57696E20796F7572206C6966652E000000000000000000000000000000000000 DUP2 MSTORE POP DUP2 MSTORE POP SWAP1 POP SWAP1 JUMP JUMPDEST PUSH2 0x462 PUSH2 0x10B6 JUMP JUMPDEST PUSH1 0x40 MLOAD DUP1 PUSH1 0x40 ADD PUSH1 0x40 MSTORE DUP1 PUSH1 0x40 MLOAD DUP1 PUSH1 0x40 ADD PUSH1 0x40 MSTORE DUP1 PUSH1 0xD DUP2 MSTORE PUSH1 0x20 ADD PUSH32 0x4265206265747465722061742000000000000000000000000000000000000000 DUP2 MSTORE POP DUP2 MSTORE PUSH1 0x20 ADD PUSH1 0x40 MLOAD DUP1 PUSH1 0x40 ADD PUSH1 0x40 MSTORE DUP1 PUSH1 0xC DUP2 MSTORE PUSH1 0x20 ADD PUSH32 0x6265696E672077726F6E672E0000000000000000000000000000000000000000 DUP2 MSTORE POP DUP2 MSTORE POP SWAP1 POP SWAP1 JUMP JUMPDEST PUSH2 0x4EE PUSH2 0x10B6 JUMP JUMPDEST PUSH1 0x40 MLOAD DUP1 PUSH1 0x40 ADD PUSH1 0x40 MSTORE DUP1 PUSH1 0x40 MLOAD DUP1 PUSH1 0x40 ADD PUSH1 0x40 MSTORE DUP1 PUSH1 0xB DUP2 MSTORE PUSH1 0x20 ADD PUSH32 0x476F206F75747369646520000000000000000000000000000000000000000000 DUP2 MSTORE POP DUP2 MSTORE PUSH1 0x20 ADD PUSH1 0x40 MLOAD DUP1 PUSH1 0x40 ADD PUSH1 0x40 MSTORE DUP1 PUSH1 0x9 DUP2 MSTORE PUSH1 0x20 ADD PUSH32 0x616E6420706C61792E0000000000000000000000000000000000000000000000 DUP2 MSTORE POP DUP2 MSTORE POP SWAP1 POP SWAP1 JUMP JUMPDEST PUSH2 0x57A PUSH2 0x10B6 JUMP JUMPDEST PUSH1 0x40 MLOAD DUP1 PUSH1 0x40 ADD PUSH1 0x40 MSTORE DUP1 PUSH1 0x40 MLOAD DUP1 PUSH1 0x40 ADD PUSH1 0x40 MSTORE DUP1 PUSH1 0xA DUP2 MSTORE PUSH1 0x20 ADD PUSH32 0x446F206669727374202D00000000000000000000000000000000000000000000 DUP2 MSTORE POP DUP2 MSTORE PUSH1 0x20 ADD PUSH1 0x40 MLOAD DUP1 PUSH1 0x40 ADD PUSH1 0x40 MSTORE DUP1 PUSH1 0xC DUP2 MSTORE PUSH1 0x20 ADD PUSH32 0x54616C6B207365636F6E642E0000000000000000000000000000000000000000 DUP2 MSTORE POP DUP2 MSTORE POP SWAP1 POP SWAP1 JUMP JUMPDEST PUSH2 0x606 PUSH2 0x10B6 JUMP JUMPDEST PUSH1 0x40 MLOAD DUP1 PUSH1 0x40 ADD PUSH1 0x40 MSTORE DUP1 PUSH1 0x40 MLOAD DUP1 PUSH1 0x40 ADD PUSH1 0x40 MSTORE DUP1 PUSH1 0xC DUP2 MSTORE PUSH1 0x20 ADD PUSH32 0x4775696C74207365727665730000000000000000000000000000000000000000 DUP2 MSTORE POP DUP2 MSTORE PUSH1 0x20 ADD PUSH1 0x40 MLOAD DUP1 PUSH1 0x40 ADD PUSH1 0x40 MSTORE DUP1 PUSH1 0xB DUP2 MSTORE PUSH1 0x20 ADD PUSH32 0x6E6F20707572706F73652E000000000000000000000000000000000000000000 DUP2 MSTORE POP DUP2 MSTORE POP SWAP1 POP SWAP1 JUMP JUMPDEST PUSH2 0x692 PUSH2 0x10B6 JUMP JUMPDEST PUSH1 0x40 MLOAD DUP1 PUSH1 0x40 ADD PUSH1 0x40 MSTORE DUP1 PUSH1 0x40 MLOAD DUP1 PUSH1 0x40 ADD PUSH1 0x40 MSTORE DUP1 PUSH1 0x13 DUP2 MSTORE PUSH1 0x20 ADD PUSH32 0x446F206E6F74206D616B65206120776973682E00000000000000000000000000 DUP2 MSTORE POP DUP2 MSTORE PUSH1 0x20 ADD PUSH1 0x40 MLOAD DUP1 PUSH1 0x40 ADD PUSH1 0x40 MSTORE DUP1 PUSH1 0x10 DUP2 MSTORE PUSH1 0x20 ADD PUSH32 0x4D616B652061206465636973696F6E2E00000000000000000000000000000000 DUP2 MSTORE POP DUP2 MSTORE POP SWAP1 POP SWAP1 JUMP JUMPDEST PUSH2 0x71E PUSH2 0x10B6 JUMP JUMPDEST PUSH1 0x40 MLOAD DUP1 PUSH1 0x40 ADD PUSH1 0x40 MSTORE DUP1 PUSH1 0x40 MLOAD DUP1 PUSH1 0x40 ADD PUSH1 0x40 MSTORE DUP1 PUSH1 0x18 DUP2 MSTORE PUSH1 0x20 ADD PUSH32 0x4E6F626F6479206973206275696C74206C696B6520796F750000000000000000 DUP2 MSTORE POP DUP2 MSTORE PUSH1 0x20 ADD PUSH1 0x40 MLOAD DUP1 PUSH1 0x40 ADD PUSH1 0x40 MSTORE DUP1 PUSH1 0x13 DUP2 MSTORE PUSH1 0x20 ADD PUSH32 0x796F752064657369676E20796F757273656C6600000000000000000000000000 DUP2 MSTORE POP DUP2 MSTORE POP SWAP1 POP SWAP1 JUMP JUMPDEST PUSH2 0x7AA PUSH2 0x10B6 JUMP JUMPDEST PUSH1 0x40 MLOAD DUP1 PUSH1 0x40 ADD PUSH1 0x40 MSTORE DUP1 PUSH1 0x40 MLOAD DUP1 PUSH1 0x40 ADD PUSH1 0x40 MSTORE DUP1 PUSH1 0x8 DUP2 MSTORE PUSH1 0x20 ADD PUSH32 0x596F75206B6E6F77000000000000000000000000000000000000000000000000 DUP2 MSTORE POP DUP2 MSTORE PUSH1 0x20 ADD PUSH1 0x40 MLOAD DUP1 PUSH1 0x40 ADD PUSH1 0x40 MSTORE DUP1 PUSH1 0xB DUP2 MSTORE PUSH1 0x20 ADD PUSH32 0x7768617420746F20646F2E000000000000000000000000000000000000000000 DUP2 MSTORE POP DUP2 MSTORE POP SWAP1 POP SWAP1 JUMP JUMPDEST PUSH2 0x836 PUSH2 0x10B6 JUMP JUMPDEST PUSH1 0x40 MLOAD DUP1 PUSH1 0x40 ADD PUSH1 0x40 MSTORE DUP1 PUSH1 0x40 MLOAD DUP1 PUSH1 0x40 ADD PUSH1 0x40 MSTORE DUP1 PUSH1 0x8 DUP2 MSTORE PUSH1 0x20 ADD PUSH32 0x47657420796F7572000000000000000000000000000000000000000000000000 DUP2 MSTORE POP DUP2 MSTORE PUSH1 0x20 ADD PUSH1 0x40 MLOAD DUP1 PUSH1 0x40 ADD PUSH1 0x40 MSTORE DUP1 PUSH1 0x9 DUP2 MSTORE PUSH1 0x20 ADD PUSH32 0x686F7065732075702E0000000000000000000000000000000000000000000000 DUP2 MSTORE POP DUP2 MSTORE POP SWAP1 POP SWAP1 JUMP JUMPDEST PUSH2 0x8C2 PUSH2 0x10B6 JUMP JUMPDEST PUSH1 0x40 MLOAD DUP1 PUSH1 0x40 ADD PUSH1 0x40 MSTORE DUP1 PUSH1 0x40 MLOAD DUP1 PUSH1 0x40 ADD PUSH1 0x40 MSTORE DUP1 PUSH1 0x18 DUP2 MSTORE PUSH1 0x20 ADD PUSH32 0x537461792067726163696F75732C207468652062657374200000000000000000 DUP2 MSTORE POP DUP2 MSTORE PUSH1 0x20 ADD PUSH1 0x40 MLOAD DUP1 PUSH1 0x40 ADD PUSH1 0x40 MSTORE DUP1 PUSH1 0x14 DUP2 MSTORE PUSH1 0x20 ADD PUSH32 0x726576656E676520697320796F20706170657273000000000000000000000000 DUP2 MSTORE POP DUP2 MSTORE POP SWAP1 POP SWAP1 JUMP JUMPDEST PUSH2 0x94E PUSH2 0x10B6 JUMP JUMPDEST PUSH1 0x40 MLOAD DUP1 PUSH1 0x40 ADD PUSH1 0x40 MSTORE DUP1 PUSH1 0x40 MLOAD DUP1 PUSH1 0x40 ADD PUSH1 0x40 MSTORE DUP1 PUSH1 0x11 DUP2 MSTORE PUSH1 0x20 ADD PUSH32 0x446F20746865207468696E672074686174000000000000000000000000000000 DUP2 MSTORE POP DUP2 MSTORE PUSH1 0x20 ADD PUSH1 0x40 MLOAD DUP1 PUSH1 0x40 ADD PUSH1 0x40 MSTORE DUP1 PUSH1 0x10 DUP2 MSTORE PUSH1 0x20 ADD PUSH32 0x73636172657320796F75206D6F73742E00000000000000000000000000000000 DUP2 MSTORE POP DUP2 MSTORE POP SWAP1 POP SWAP1 JUMP JUMPDEST PUSH2 0x9DA PUSH2 0x10B6 JUMP JUMPDEST PUSH1 0x40 MLOAD DUP1 PUSH1 0x40 ADD PUSH1 0x40 MSTORE DUP1 PUSH1 0x40 MLOAD DUP1 PUSH1 0x40 ADD PUSH1 0x40 MSTORE DUP1 PUSH1 0xC DUP2 MSTORE PUSH1 0x20 ADD PUSH32 0x54616B65206E6F7468696E670000000000000000000000000000000000000000 DUP2 MSTORE POP DUP2 MSTORE PUSH1 0x20 ADD PUSH1 0x40 MLOAD DUP1 PUSH1 0x40 ADD PUSH1 0x40 MSTORE DUP1 PUSH1 0xB DUP2 MSTORE PUSH1 0x20 ADD PUSH32 0x706572736F6E616C6C792E000000000000000000000000000000000000000000 DUP2 MSTORE POP DUP2 MSTORE POP SWAP1 POP SWAP1 JUMP JUMPDEST PUSH2 0xA66 PUSH2 0x10B6 JUMP JUMPDEST PUSH1 0x40 MLOAD DUP1 PUSH1 0x40 ADD PUSH1 0x40 MSTORE DUP1 PUSH1 0x40 MLOAD DUP1 PUSH1 0x40 ADD PUSH1 0x40 MSTORE DUP1 PUSH1 0xC DUP2 MSTORE PUSH1 0x20 ADD PUSH32 0x5468652074727574682069730000000000000000000000000000000000000000 DUP2 MSTORE POP DUP2 MSTORE PUSH1 0x20 ADD PUSH1 0x40 MLOAD DUP1 PUSH1 0x40 ADD PUSH1 0x40 MSTORE DUP1 PUSH1 0xE DUP2 MSTORE PUSH1 0x20 ADD PUSH32 0x6E6F7420636F6E667573696E672E000000000000000000000000000000000000 DUP2 MSTORE POP DUP2 MSTORE POP SWAP1 POP SWAP1 JUMP JUMPDEST PUSH2 0xAF2 PUSH2 0x10B6 JUMP JUMPDEST PUSH1 0x29 DUP3 EQ ISZERO PUSH2 0xB0A JUMPI PUSH2 0xB03 PUSH2 0xE86 JUMP JUMPDEST SWAP1 POP PUSH2 0xCDD JUMP JUMPDEST PUSH1 0x2A DUP3 EQ ISZERO PUSH2 0xB22 JUMPI PUSH2 0xB1B PUSH2 0xCE2 JUMP JUMPDEST SWAP1 POP PUSH2 0xCDD JUMP JUMPDEST PUSH1 0x2B DUP3 EQ ISZERO PUSH2 0xB3A JUMPI PUSH2 0xB33 PUSH2 0xDFA JUMP JUMPDEST SWAP1 POP PUSH2 0xCDD JUMP JUMPDEST PUSH1 0x2C DUP3 EQ ISZERO PUSH2 0xB52 JUMPI PUSH2 0xB4B PUSH2 0x716 JUMP JUMPDEST SWAP1 POP PUSH2 0xCDD JUMP JUMPDEST PUSH1 0x2D DUP3 EQ ISZERO PUSH2 0xB6A JUMPI PUSH2 0xB63 PUSH2 0xF12 JUMP JUMPDEST SWAP1 POP PUSH2 0xCDD JUMP JUMPDEST PUSH1 0x2E DUP3 EQ ISZERO PUSH2 0xB82 JUMPI PUSH2 0xB7B PUSH2 0x68A JUMP JUMPDEST SWAP1 POP PUSH2 0xCDD JUMP JUMPDEST PUSH1 0x2F DUP3 EQ ISZERO PUSH2 0xB9A JUMPI PUSH2 0xB93 PUSH2 0x946 JUMP JUMPDEST SWAP1 POP PUSH2 0xCDD JUMP JUMPDEST PUSH1 0x30 DUP3 EQ ISZERO PUSH2 0xBB2 JUMPI PUSH2 0xBAB PUSH2 0x102A JUMP JUMPDEST SWAP1 POP PUSH2 0xCDD JUMP JUMPDEST PUSH1 0x31 DUP3 EQ ISZERO PUSH2 0xBCA JUMPI PUSH2 0xBC3 PUSH2 0x9D2 JUMP JUMPDEST SWAP1 POP PUSH2 0xCDD JUMP JUMPDEST PUSH1 0x32 DUP3 EQ ISZERO PUSH2 0xBE2 JUMPI PUSH2 0xBDB PUSH2 0x3CE JUMP JUMPDEST SWAP1 POP PUSH2 0xCDD JUMP JUMPDEST PUSH1 0x33 DUP3 EQ ISZERO PUSH2 0xBFA JUMPI PUSH2 0xBF3 PUSH2 0xF9E JUMP JUMPDEST SWAP1 POP PUSH2 0xCDD JUMP JUMPDEST PUSH1 0x34 DUP3 EQ ISZERO PUSH2 0xC12 JUMPI PUSH2 0xC0B PUSH2 0x8BA JUMP JUMPDEST SWAP1 POP PUSH2 0xCDD JUMP JUMPDEST PUSH1 0x35 DUP3 EQ ISZERO PUSH2 0xC2A JUMPI PUSH2 0xC23 PUSH2 0xA5E JUMP JUMPDEST SWAP1 POP PUSH2 0xCDD JUMP JUMPDEST PUSH1 0x36 DUP3 EQ ISZERO PUSH2 0xC42 JUMPI PUSH2 0xC3B PUSH2 0x5FE JUMP JUMPDEST SWAP1 POP PUSH2 0xCDD JUMP JUMPDEST PUSH1 0x37 DUP3 EQ ISZERO PUSH2 0xC5A JUMPI PUSH2 0xC53 PUSH2 0x45A JUMP JUMPDEST SWAP1 POP PUSH2 0xCDD JUMP JUMPDEST PUSH1 0x38 DUP3 EQ ISZERO PUSH2 0xC72 JUMPI PUSH2 0xC6B PUSH2 0x82E JUMP JUMPDEST SWAP1 POP PUSH2 0xCDD JUMP JUMPDEST PUSH1 0x39 DUP3 EQ ISZERO PUSH2 0xC8A JUMPI PUSH2 0xC83 PUSH2 0xD6E JUMP JUMPDEST SWAP1 POP PUSH2 0xCDD JUMP JUMPDEST PUSH1 0x3A DUP3 EQ ISZERO PUSH2 0xCA2 JUMPI PUSH2 0xC9B PUSH2 0x4E6 JUMP JUMPDEST SWAP1 POP PUSH2 0xCDD JUMP JUMPDEST PUSH1 0x3B DUP3 EQ ISZERO PUSH2 0xCBA JUMPI PUSH2 0xCB3 PUSH2 0x572 JUMP JUMPDEST SWAP1 POP PUSH2 0xCDD JUMP JUMPDEST PUSH1 0x3C DUP3 EQ ISZERO PUSH2 0xCD2 JUMPI PUSH2 0xCCB PUSH2 0x7A2 JUMP JUMPDEST SWAP1 POP PUSH2 0xCDD JUMP JUMPDEST PUSH2 0xCDA PUSH2 0xE86 JUMP JUMPDEST SWAP1 POP JUMPDEST SWAP2 SWAP1 POP JUMP JUMPDEST PUSH2 0xCEA PUSH2 0x10B6 JUMP JUMPDEST PUSH1 0x40 MLOAD DUP1 PUSH1 0x40 ADD PUSH1 0x40 MSTORE DUP1 PUSH1 0x40 MLOAD DUP1 PUSH1 0x40 ADD PUSH1 0x40 MSTORE DUP1 PUSH1 0x18 DUP2 MSTORE PUSH1 0x20 ADD PUSH32 0x4966206974206D616B657320796F75206E6572766F75732D0000000000000000 DUP2 MSTORE POP DUP2 MSTORE PUSH1 0x20 ADD PUSH1 0x40 MLOAD DUP1 PUSH1 0x40 ADD PUSH1 0x40 MSTORE DUP1 PUSH1 0x17 DUP2 MSTORE PUSH1 0x20 ADD PUSH32 0x796F752061726520646F696E672069742072696768742E000000000000000000 DUP2 MSTORE POP DUP2 MSTORE POP SWAP1 POP SWAP1 JUMP JUMPDEST PUSH2 0xD76 PUSH2 0x10B6 JUMP JUMPDEST PUSH1 0x40 MLOAD DUP1 PUSH1 0x40 ADD PUSH1 0x40 MSTORE DUP1 PUSH1 0x40 MLOAD DUP1 PUSH1 0x40 ADD PUSH1 0x40 MSTORE DUP1 PUSH1 0x12 DUP2 MSTORE PUSH1 0x20 ADD PUSH32 0x596F7520646F206E6F74206E65656420746F0000000000000000000000000000 DUP2 MSTORE POP DUP2 MSTORE PUSH1 0x20 ADD PUSH1 0x40 MLOAD DUP1 PUSH1 0x40 ADD PUSH1 0x40 MSTORE DUP1 PUSH1 0x18 DUP2 MSTORE PUSH1 0x20 ADD PUSH32 0x666967757265206974206F7574207269676874206E6F772E0000000000000000 DUP2 MSTORE POP DUP2 MSTORE POP SWAP1 POP SWAP1 JUMP JUMPDEST PUSH2 0xE02 PUSH2 0x10B6 JUMP JUMPDEST PUSH1 0x40 MLOAD DUP1 PUSH1 0x40 ADD PUSH1 0x40 MSTORE DUP1 PUSH1 0x40 MLOAD DUP1 PUSH1 0x40 ADD PUSH1 0x40 MSTORE DUP1 PUSH1 0x18 DUP2 MSTORE PUSH1 0x20 ADD PUSH32 0x4C69666520776974686F757420647265616D696E672069730000000000000000 DUP2 MSTORE POP DUP2 MSTORE PUSH1 0x20 ADD PUSH1 0x40 MLOAD DUP1 PUSH1 0x40 ADD PUSH1 0x40 MSTORE DUP1 PUSH1 0x17 DUP2 MSTORE PUSH1 0x20 ADD PUSH32 0x2061206C69666520776974686F7574206D65616E696E67000000000000000000 DUP2 MSTORE POP DUP2 MSTORE POP SWAP1 POP SWAP1 JUMP JUMPDEST PUSH2 0xE8E PUSH2 0x10B6 JUMP JUMPDEST PUSH1 0x40 MLOAD DUP1 PUSH1 0x40 ADD PUSH1 0x40 MSTORE DUP1 PUSH1 0x40 MLOAD DUP1 PUSH1 0x40 ADD PUSH1 0x40 MSTORE DUP1 PUSH1 0x19 DUP2 MSTORE PUSH1 0x20 ADD PUSH32 0x4A65616C6F757379206973206A757374206C6F766520616E6400000000000000 DUP2 MSTORE POP DUP2 MSTORE PUSH1 0x20 ADD PUSH1 0x40 MLOAD DUP1 PUSH1 0x40 ADD PUSH1 0x40 MSTORE DUP1 PUSH1 0x16 DUP2 MSTORE PUSH1 0x20 ADD PUSH32 0x68617465206174207468652073616D652074696D652E00000000000000000000 DUP2 MSTORE POP DUP2 MSTORE POP SWAP1 POP SWAP1 JUMP JUMPDEST PUSH2 0xF1A PUSH2 0x10B6 JUMP JUMPDEST PUSH1 0x40 MLOAD DUP1 PUSH1 0x40 ADD PUSH1 0x40 MSTORE DUP1 PUSH1 0x40 MLOAD DUP1 PUSH1 0x40 ADD PUSH1 0x40 MSTORE DUP1 PUSH1 0x18 DUP2 MSTORE PUSH1 0x20 ADD PUSH32 0x5265616C204773206D6F766520696E2073696C656E6365200000000000000000 DUP2 MSTORE POP DUP2 MSTORE PUSH1 0x20 ADD PUSH1 0x40 MLOAD DUP1 PUSH1 0x40 ADD PUSH1 0x40 MSTORE DUP1 PUSH1 0xD DUP2 MSTORE PUSH1 0x20 ADD PUSH32 0x6C696B65206C617361676E612E00000000000000000000000000000000000000 DUP2 MSTORE POP DUP2 MSTORE POP SWAP1 POP SWAP1 JUMP JUMPDEST PUSH2 0xFA6 PUSH2 0x10B6 JUMP JUMPDEST PUSH1 0x40 MLOAD DUP1 PUSH1 0x40 ADD PUSH1 0x40 MSTORE DUP1 PUSH1 0x40 MLOAD DUP1 PUSH1 0x40 ADD PUSH1 0x40 MSTORE DUP1 PUSH1 0xC DUP2 MSTORE PUSH1 0x20 ADD PUSH32 0x446F206E6F742074616B65200000000000000000000000000000000000000000 DUP2 MSTORE POP DUP2 MSTORE PUSH1 0x20 ADD PUSH1 0x40 MLOAD DUP1 PUSH1 0x40 ADD PUSH1 0x40 MSTORE DUP1 PUSH1 0x9 DUP2 MSTORE PUSH1 0x20 ADD PUSH32 0x74686520626169742E0000000000000000000000000000000000000000000000 DUP2 MSTORE POP DUP2 MSTORE POP SWAP1 POP SWAP1 JUMP JUMPDEST PUSH2 0x1032 PUSH2 0x10B6 JUMP JUMPDEST PUSH1 0x40 MLOAD DUP1 PUSH1 0x40 ADD PUSH1 0x40 MSTORE DUP1 PUSH1 0x40 MLOAD DUP1 PUSH1 0x40 ADD PUSH1 0x40 MSTORE DUP1 PUSH1 0x10 DUP2 MSTORE PUSH1 0x20 ADD PUSH32 0x4265206C657373206D6F76656420627900000000000000000000000000000000 DUP2 MSTORE POP DUP2 MSTORE PUSH1 0x20 ADD PUSH1 0x40 MLOAD DUP1 PUSH1 0x40 ADD PUSH1 0x40 MSTORE DUP1 PUSH1 0x16 DUP2 MSTORE PUSH1 0x20 ADD PUSH32 0x746865206F70696E696F6E206F66206F74686572732E00000000000000000000 DUP2 MSTORE POP DUP2 MSTORE POP SWAP1 POP SWAP1 JUMP JUMPDEST PUSH1 0x40 MLOAD DUP1 PUSH1 0x40 ADD PUSH1 0x40 MSTORE DUP1 PUSH1 0x2 SWAP1 JUMPDEST PUSH1 0x60 DUP2 MSTORE PUSH1 0x20 ADD SWAP1 PUSH1 0x1 SWAP1 SUB SWAP1 DUP2 PUSH2 0x10C5 JUMPI SWAP1 POP POP SWAP1 JUMP JUMPDEST PUSH1 0x0 DUP2 CALLDATALOAD SWAP1 POP PUSH2 0x10EC DUP2 PUSH2 0x1296 JUMP JUMPDEST SWAP3 SWAP2 POP POP JUMP JUMPDEST PUSH1 0x0 PUSH1 0x20 DUP3 DUP5 SUB SLT ISZERO PUSH2 0x1104 JUMPI PUSH1 0x0 DUP1 REVERT JUMPDEST PUSH1 0x0 PUSH2 0x1112 DUP5 DUP3 DUP6 ADD PUSH2 0x10DD JUMP JUMPDEST SWAP2 POP POP SWAP3 SWAP2 POP POP JUMP JUMPDEST PUSH1 0x0 PUSH2 0x1127 DUP4 DUP4 PUSH2 0x11A4 JUMP JUMPDEST SWAP1 POP SWAP3 SWAP2 POP POP JUMP JUMPDEST PUSH1 0x0 PUSH2 0x113A DUP3 PUSH2 0x1209 JUMP JUMPDEST PUSH2 0x1144 DUP2 DUP6 PUSH2 0x122C JUMP JUMPDEST SWAP4 POP DUP4 PUSH1 0x20 DUP3 MUL DUP6 ADD PUSH2 0x1156 DUP6 PUSH2 0x11FF JUMP JUMPDEST DUP1 PUSH1 0x0 JUMPDEST DUP6 DUP2 LT ISZERO PUSH2 0x1192 JUMPI DUP5 DUP5 SUB DUP10 MSTORE DUP2 MLOAD PUSH2 0x1173 DUP6 DUP3 PUSH2 0x111B JUMP JUMPDEST SWAP5 POP PUSH2 0x117E DUP4 PUSH2 0x121F JUMP JUMPDEST SWAP3 POP PUSH1 0x20 DUP11 ADD SWAP10 POP POP PUSH1 0x1 DUP2 ADD SWAP1 POP PUSH2 0x115A JUMP JUMPDEST POP DUP3 SWAP8 POP DUP8 SWAP6 POP POP POP POP POP POP SWAP3 SWAP2 POP POP JUMP JUMPDEST PUSH1 0x0 PUSH2 0x11AF DUP3 PUSH2 0x1214 JUMP JUMPDEST PUSH2 0x11B9 DUP2 DUP6 PUSH2 0x1237 JUMP JUMPDEST SWAP4 POP PUSH2 0x11C9 DUP2 DUP6 PUSH1 0x20 DUP7 ADD PUSH2 0x1252 JUMP JUMPDEST PUSH2 0x11D2 DUP2 PUSH2 0x1285 JUMP JUMPDEST DUP5 ADD SWAP2 POP POP SWAP3 SWAP2 POP POP JUMP JUMPDEST PUSH1 0x0 PUSH1 0x20 DUP3 ADD SWAP1 POP DUP2 DUP2 SUB PUSH1 0x0 DUP4 ADD MSTORE PUSH2 0x11F7 DUP2 DUP5 PUSH2 0x112F JUMP JUMPDEST SWAP1 POP SWAP3 SWAP2 POP POP JUMP JUMPDEST PUSH1 0x0 DUP2 SWAP1 POP SWAP2 SWAP1 POP JUMP JUMPDEST PUSH1 0x0 PUSH1 0x2 SWAP1 POP SWAP2 SWAP1 POP JUMP JUMPDEST PUSH1 0x0 DUP2 MLOAD SWAP1 POP SWAP2 SWAP1 POP JUMP JUMPDEST PUSH1 0x0 PUSH1 0x20 DUP3 ADD SWAP1 POP SWAP2 SWAP1 POP JUMP JUMPDEST PUSH1 0x0 DUP2 SWAP1 POP SWAP3 SWAP2 POP POP JUMP JUMPDEST PUSH1 0x0 DUP3 DUP3 MSTORE PUSH1 0x20 DUP3 ADD SWAP1 POP SWAP3 SWAP2 POP POP JUMP JUMPDEST PUSH1 0x0 DUP2 SWAP1 POP SWAP2 SWAP1 POP JUMP JUMPDEST PUSH1 0x0 JUMPDEST DUP4 DUP2 LT ISZERO PUSH2 0x1270 JUMPI DUP1 DUP3 ADD MLOAD DUP2 DUP5 ADD MSTORE PUSH1 0x20 DUP2 ADD SWAP1 POP PUSH2 0x1255 JUMP JUMPDEST DUP4 DUP2 GT ISZERO PUSH2 0x127F JUMPI PUSH1 0x0 DUP5 DUP5 ADD MSTORE JUMPDEST POP POP POP POP JUMP JUMPDEST PUSH1 0x0 PUSH1 0x1F NOT PUSH1 0x1F DUP4 ADD AND SWAP1 POP SWAP2 SWAP1 POP JUMP JUMPDEST PUSH2 0x129F DUP2 PUSH2 0x1248 JUMP JUMPDEST DUP2 EQ PUSH2 0x12AA JUMPI PUSH1 0x0 DUP1 REVERT JUMPDEST POP JUMP INVALID LOG2 PUSH5 0x6970667358 0x22 SLT KECCAK256 0xDC 0xC7 0xC8 DUP7 SDIV 0xBE 0xA9 0xC1 0xB6 0x48 DUP7 CODECOPY DUP8 PUSH29 0xAEAE1F5C54FE99A7F94741C3D388B03DB28D64736F6C63430008020033 "
        },
        "methodIdentifiers": {
          "fortune_41()": "d1284d6b",
          "fortune_42()": "96c245c0",
          "fortune_43()": "bfea1ed0",
          "fortune_44()": "45a3abf2",
          "fortune_45()": "e5927e5e",
          "fortune_46()": "35f64790",
          "fortune_47()": "80072947",
          "fortune_48()": "ebe6fd99",
          "fortune_49()": "820d2da6",
          "fortune_50()": "07c4404d",
          "fortune_51()": "e7580446",
          "fortune_52()": "7cddacb0",
          "fortune_53()": "8ffdf455",
          "fortune_54()": "2aee20a9",
          "fortune_55()": "0ff98774",
          "fortune_56()": "6dc873a0",
          "fortune_57()": "b4954432",
          "fortune_58()": "103f16aa",
          "fortune_59()": "1db11aad",
          "fortune_60()": "683b30a0",
          "getFortuneLines(uint256)": "92d53983"
        }
      }
    }
  }
}