{
  "contracts/libraries/Lines2.sol": {
    "Lines2": {
      "abi": [
        {
          "inputs": [],
          "name": "fortune_21",
          "outputs": [
            {
              "internalType": "string[2]",
              "name": "",
              "type": "string[2]"
            }
          ],
          "stateMutability": "pure",
          "type": "function"
        },
        {
          "inputs": [],
          "name": "fortune_22",
          "outputs": [
            {
              "internalType": "string[2]",
              "name": "",
              "type": "string[2]"
            }
          ],
          "stateMutability": "pure",
          "type": "function"
        },
        {
          "inputs": [],
          "name": "fortune_23",
          "outputs": [
            {
              "internalType": "string[2]",
              "name": "",
              "type": "string[2]"
            }
          ],
          "stateMutability": "pure",
          "type": "function"
        },
        {
          "inputs": [],
          "name": "fortune_24",
          "outputs": [
            {
              "internalType": "string[2]",
              "name": "",
              "type": "string[2]"
            }
          ],
          "stateMutability": "pure",
          "type": "function"
        },
        {
          "inputs": [],
          "name": "fortune_25",
          "outputs": [
            {
              "internalType": "string[2]",
              "name": "",
              "type": "string[2]"
            }
          ],
          "stateMutability": "pure",
          "type": "function"
        },
        {
          "inputs": [],
          "name": "fortune_26",
          "outputs": [
            {
              "internalType": "string[2]",
              "name": "",
              "type": "string[2]"
            }
          ],
          "stateMutability": "pure",
          "type": "function"
        },
        {
          "inputs": [],
          "name": "fortune_27",
          "outputs": [
            {
              "internalType": "string[2]",
              "name": "",
              "type": "string[2]"
            }
          ],
          "stateMutability": "pure",
          "type": "function"
        },
        {
          "inputs": [],
          "name": "fortune_28",
          "outputs": [
            {
              "internalType": "string[2]",
              "name": "",
              "type": "string[2]"
            }
          ],
          "stateMutability": "pure",
          "type": "function"
        },
        {
          "inputs": [],
          "name": "fortune_29",
          "outputs": [
            {
              "internalType": "string[2]",
              "name": "",
              "type": "string[2]"
            }
          ],
          "stateMutability": "pure",
          "type": "function"
        },
        {
          "inputs": [],
          "name": "fortune_30",
          "outputs": [
            {
              "internalType": "string[2]",
              "name": "",
              "type": "string[2]"
            }
          ],
          "stateMutability": "pure",
          "type": "function"
        },
        {
          "inputs": [],
          "name": "fortune_31",
          "outputs": [
            {
              "internalType": "string[2]",
              "name": "",
              "type": "string[2]"
            }
          ],
          "stateMutability": "pure",
          "type": "function"
        },
        {
          "inputs": [],
          "name": "fortune_32",
          "outputs": [
            {
              "internalType": "string[2]",
              "name": "",
              "type": "string[2]"
            }
          ],
          "stateMutability": "pure",
          "type": "function"
        },
        {
          "inputs": [],
          "name": "fortune_33",
          "outputs": [
            {
              "internalType": "string[2]",
              "name": "",
              "type": "string[2]"
            }
          ],
          "stateMutability": "pure",
          "type": "function"
        },
        {
          "inputs": [],
          "name": "fortune_34",
          "outputs": [
            {
              "internalType": "string[2]",
              "name": "",
              "type": "string[2]"
            }
          ],
          "stateMutability": "pure",
          "type": "function"
        },
        {
          "inputs": [],
          "name": "fortune_35",
          "outputs": [
            {
              "internalType": "string[2]",
              "name": "",
              "type": "string[2]"
            }
          ],
          "stateMutability": "pure",
          "type": "function"
        },
        {
          "inputs": [],
          "name": "fortune_36",
          "outputs": [
            {
              "internalType": "string[2]",
              "name": "",
              "type": "string[2]"
            }
          ],
          "stateMutability": "pure",
          "type": "function"
        },
        {
          "inputs": [],
          "name": "fortune_37",
          "outputs": [
            {
              "internalType": "string[2]",
              "name": "",
              "type": "string[2]"
            }
          ],
          "stateMutability": "pure",
          "type": "function"
        },
        {
          "inputs": [],
          "name": "fortune_38",
          "outputs": [
            {
              "internalType": "string[2]",
              "name": "",
              "type": "string[2]"
            }
          ],
          "stateMutability": "pure",
          "type": "function"
        },
        {
          "inputs": [],
          "name": "fortune_39",
          "outputs": [
            {
              "internalType": "string[2]",
              "name": "",
              "type": "string[2]"
            }
          ],
          "stateMutability": "pure",
          "type": "function"
        },
        {
          "inputs": [],
          "name": "fortune_40",
          "outputs": [
            {
              "internalType": "string[2]",
              "name": "",
              "type": "string[2]"
            }
          ],
          "stateMutability": "pure",
          "type": "function"
        },
        {
          "inputs": [
            {
              "internalType": "uint256",
              "name": "rand",
              "type": "uint256"
            }
          ],
          "name": "getFortuneLines",
          "outputs": [
            {
              "internalType": "string[2]",
              "name": "",
              "type": "string[2]"
            }
          ],
          "stateMutability": "pure",
          "type": "function"
        }
      ],
      "evm": {
        "bytecode": {
          "linkReferences": {},
          "object": "6112e3610053600b82828239805160001a607314610046577f4e487b7100000000000000000000000000000000000000000000000000000000600052600060045260246000fd5b30600052607381538281f3fe73000000000000000000000000000000000000000030146080604052600436106101415760003560e01c8063a21427b4116100c2578063d623840411610086578063d62384041461031a578063e86cfeb514610338578063ec9b5fd514610356578063f720326714610374578063fb88935914610392578063ff8f16d3146103b057610141565b8063a21427b414610284578063a282a995146102a2578063b6163b24146102c0578063bb6de950146102de578063c9d84ad7146102fc57610141565b80635b7b2739116101095780635b7b2739146101dc578063653b33e2146101fa5780637b68b8d51461021857806392d5398314610236578063a1c4e0f31461026657610141565b80631cfc6a7f146101465780632dc06ac91461016457806338a7460c146101825780634430a71f146101a057806353640c05146101be575b600080fd5b61014e6103ce565b60405161015b91906111dd565b60405180910390f35b61016c61045a565b60405161017991906111dd565b60405180910390f35b61018a6104e6565b60405161019791906111dd565b60405180910390f35b6101a8610572565b6040516101b591906111dd565b60405180910390f35b6101c66105fe565b6040516101d391906111dd565b60405180910390f35b6101e461068a565b6040516101f191906111dd565b60405180910390f35b610202610716565b60405161020f91906111dd565b60405180910390f35b6102206107a2565b60405161022d91906111dd565b60405180910390f35b610250600480360381019061024b91906110f2565b61082e565b60405161025d91906111dd565b60405180910390f35b61026e610a26565b60405161027b91906111dd565b60405180910390f35b61028c610ab2565b60405161029991906111dd565b60405180910390f35b6102aa610b3e565b6040516102b791906111dd565b60405180910390f35b6102c8610bca565b6040516102d591906111dd565b60405180910390f35b6102e6610c56565b6040516102f391906111dd565b60405180910390f35b610304610ce2565b60405161031191906111dd565b60405180910390f35b610322610d6e565b60405161032f91906111dd565b60405180910390f35b610340610dfa565b60405161034d91906111dd565b60405180910390f35b61035e610e86565b60405161036b91906111dd565b60405180910390f35b61037c610f12565b60405161038991906111dd565b60405180910390f35b61039a610f9e565b6040516103a791906111dd565b60405180910390f35b6103b861102a565b6040516103c591906111dd565b60405180910390f35b6103d66110b6565b60405180604001604052806040518060400160405280601281526020017f4974206973206e6f7420796f7572206a6f62000000000000000000000000000081525081526020016040518060400160405280600e81526020017f746f206669782070656f706c652e000000000000000000000000000000000000815250815250905090565b6104626110b6565b60405180604001604052806040518060400160405280600881526020017f596f75206172652000000000000000000000000000000000000000000000000081525081526020016040518060400160405280600d81526020017f676f6e6e61206d616b6520697400000000000000000000000000000000000000815250815250905090565b6104ee6110b6565b60405180604001604052806040518060400160405280600e81526020017f547275737420746865207761697400000000000000000000000000000000000081525081526020016040518060400160405280601281526020017f456e6a6f79206e6f74206b6e6f77696e672e0000000000000000000000000000815250815250905090565b61057a6110b6565b60405180604001604052806040518060400160405280600d81526020017f456e74657220756e6b6e6f776e0000000000000000000000000000000000000081525081526020016040518060400160405280600a81526020017f7465727269746f72792e00000000000000000000000000000000000000000000815250815250905090565b6106066110b6565b60405180604001604052806040518060400160405280600b81526020017f4769766520416c7068612000000000000000000000000000000000000000000081525081526020016040518060400160405280600a81526020017f47657420416c7068612000000000000000000000000000000000000000000000815250815250905090565b6106926110b6565b60405180604001604052806040518060400160405280600b81526020017f54616b65206e6f20666f7200000000000000000000000000000000000000000081525081526020016040518060400160405280600a81526020017f616e20616e737765722e00000000000000000000000000000000000000000000815250815250905090565b61071e6110b6565b60405180604001604052806040518060400160405280600e81526020017f54686520666c697070656e696e6700000000000000000000000000000000000081525081526020016040518060400160405280600981526020017f697320636f6d696e670000000000000000000000000000000000000000000000815250815250905090565b6107aa6110b6565b60405180604001604052806040518060400160405280600b81526020017f5468652073696c656e636500000000000000000000000000000000000000000081525081526020016040518060400160405280600f81526020017f737065616b7320766f6c756d65732e0000000000000000000000000000000000815250815250905090565b6108366110b6565b601582141561084e57610847610f9e565b9050610a21565b60168214156108665761085f610716565b9050610a21565b601782141561087e57610877610c56565b9050610a21565b60188214156108965761088f610e86565b9050610a21565b60198214156108ae576108a761045a565b9050610a21565b601a8214156108c6576108bf610bca565b9050610a21565b601b8214156108de576108d76105fe565b9050610a21565b601c8214156108f6576108ef610dfa565b9050610a21565b601d82141561090e57610907610ce2565b9050610a21565b601e8214156109265761091f6104e6565b9050610a21565b601f82141561093e576109376103ce565b9050610a21565b60208214156109565761094f610a26565b9050610a21565b602182141561096e57610967610ab2565b9050610a21565b60228214156109865761097f610d6e565b9050610a21565b602382141561099e5761099761102a565b9050610a21565b60248214156109b6576109af61068a565b9050610a21565b60258214156109ce576109c7610f12565b9050610a21565b60268214156109e6576109df610572565b9050610a21565b60278214156109fe576109f7610b3e565b9050610a21565b6028821415610a1657610a0f6107a2565b9050610a21565b610a1e610f9e565b90505b919050565b610a2e6110b6565b60405180604001604052806040518060400160405280600c81526020017f4d616b652070656f706c6520000000000000000000000000000000000000000081525081526020016040518060400160405280600881526020017f73656520796f752e000000000000000000000000000000000000000000000000815250815250905090565b610aba6110b6565b60405180604001604052806040518060400160405280600881526020017f54617020696e746f00000000000000000000000000000000000000000000000081525081526020016040518060400160405280600b81526020017f796f7572206d616769632e000000000000000000000000000000000000000000815250815250905090565b610b466110b6565b60405180604001604052806040518060400160405280601181526020017f412077696e6e657220646f6573206e6f7400000000000000000000000000000081525081526020016040518060400160405280601281526020017f71756974206f6e207468656d73656c7665730000000000000000000000000000815250815250905090565b610bd26110b6565b60405180604001604052806040518060400160405280600881526020017f427579206d6f726500000000000000000000000000000000000000000000000081525081526020016040518060400160405280600481526020017f4e46547300000000000000000000000000000000000000000000000000000000815250815250905090565b610c5e6110b6565b60405180604001604052806040518060400160405280600a81526020017f77656e206c616d626f3f0000000000000000000000000000000000000000000081525081526020016040518060400160405280600481526020017f736f6f6e00000000000000000000000000000000000000000000000000000000815250815250905090565b610cea6110b6565b60405180604001604052806040518060400160405280601281526020017f5265636f676e697a6520796f757273656c66000000000000000000000000000081525081526020016040518060400160405280600b81526020017f20696e206f74686572732e000000000000000000000000000000000000000000815250815250905090565b610d766110b6565b60405180604001604052806040518060400160405280601281526020017f45766572797468696e672074686174206973000000000000000000000000000081525081526020016040518060400160405280601281526020017f776173206669727374206120647265616d2e0000000000000000000000000000815250815250905090565b610e026110b6565b60405180604001604052806040518060400160405280600e81526020017f546865206675747572652069732000000000000000000000000000000000000081525081526020016040518060400160405280600b81526020017f6d756c74692d636861696e000000000000000000000000000000000000000000815250815250905090565b610e8e6110b6565b60405180604001604052806040518060400160405280600f81526020017f49207365652041697264726f707320000000000000000000000000000000000081525081526020016040518060400160405280600e81526020017f696e20796f757220667574757265000000000000000000000000000000000000815250815250905090565b610f1a6110b6565b60405180604001604052806040518060400160405280600e81526020017f546f20626520666f756e64202d2000000000000000000000000000000000000081525081526020016040518060400160405280600c81526020017f73746f7020686964696e672e0000000000000000000000000000000000000000815250815250905090565b610fa66110b6565b60405180604001604052806040518060400160405280600481526020017f417274200000000000000000000000000000000000000000000000000000000081525081526020016040518060400160405280600a81526020017f6973207574696c69747900000000000000000000000000000000000000000000815250815250905090565b6110326110b6565b60405180604001604052806040518060400160405280600e81526020017f4b65657020796f7572206e65787400000000000000000000000000000000000081525081526020016040518060400160405280600b81526020017f6d6f76652071756965742e000000000000000000000000000000000000000000815250815250905090565b60405180604001604052806002905b60608152602001906001900390816110c55790505090565b6000813590506110ec81611296565b92915050565b60006020828403121561110457600080fd5b6000611112848285016110dd565b91505092915050565b600061112783836111a4565b905092915050565b600061113a82611209565b611144818561122c565b935083602082028501611156856111ff565b8060005b858110156111925784840389528151611173858261111b565b945061117e8361121f565b925060208a0199505060018101905061115a565b50829750879550505050505092915050565b60006111af82611214565b6111b98185611237565b93506111c9818560208601611252565b6111d281611285565b840191505092915050565b600060208201905081810360008301526111f7818461112f565b905092915050565b6000819050919050565b600060029050919050565b600081519050919050565b6000602082019050919050565b600081905092915050565b600082825260208201905092915050565b6000819050919050565b60005b83811015611270578082015181840152602081019050611255565b8381111561127f576000848401525b50505050565b6000601f19601f8301169050919050565b61129f81611248565b81146112aa57600080fd5b5056fea26469706673582212204d1728c6cdc007f7962c2cb35ed18575aacbf8287f3c61a1b17c1343c2c5812a64736f6c63430008020033",
          "opcodes": "PUSH2 0x12E3 PUSH2 0x53 PUSH1 0xB DUP3 DUP3 DUP3 CODECOPY DUP1 MLOAD PUSH1 0x0 BYTE PUSH1 0x73 EQ PUSH2 0x46 JUMPI PUSH32 0x4E487B7100000000000000000000000000000000000000000000000000000000 PUSH1 0x0 MSTORE PUSH1 0x0 PUSH1 0x4 MSTORE PUSH1 0x24 PUSH1 0x0 REVERT JUMPDEST ADDRESS PUSH1 0x0 MSTORE PUSH1 0x73 DUP2 MSTORE8 DUP3 DUP2 RETURN INVALID PUSH20 0x0 ADDRESS EQ PUSH1 0x80 PUSH1 0x40 MSTORE PUSH1 0x4 CALLDATASIZE LT PUSH2 0x141 JUMPI PUSH1 0x0 CALLDATALOAD PUSH1 0xE0 SHR DUP1 PUSH4 0xA21427B4 GT PUSH2 0xC2 JUMPI DUP1 PUSH4 0xD6238404 GT PUSH2 0x86 JUMPI DUP1 PUSH4 0xD6238404 EQ PUSH2 0x31A JUMPI DUP1 PUSH4 0xE86CFEB5 EQ PUSH2 0x338 JUMPI DUP1 PUSH4 0xEC9B5FD5 EQ PUSH2 0x356 JUMPI DUP1 PUSH4 0xF7203267 EQ PUSH2 0x374 JUMPI DUP1 PUSH4 0xFB889359 EQ PUSH2 0x392 JUMPI DUP1 PUSH4 0xFF8F16D3 EQ PUSH2 0x3B0 JUMPI PUSH2 0x141 JUMP JUMPDEST DUP1 PUSH4 0xA21427B4 EQ PUSH2 0x284 JUMPI DUP1 PUSH4 0xA282A995 EQ PUSH2 0x2A2 JUMPI DUP1 PUSH4 0xB6163B24 EQ PUSH2 0x2C0 JUMPI DUP1 PUSH4 0xBB6DE950 EQ PUSH2 0x2DE JUMPI DUP1 PUSH4 0xC9D84AD7 EQ PUSH2 0x2FC JUMPI PUSH2 0x141 JUMP JUMPDEST DUP1 PUSH4 0x5B7B2739 GT PUSH2 0x109 JUMPI DUP1 PUSH4 0x5B7B2739 EQ PUSH2 0x1DC JUMPI DUP1 PUSH4 0x653B33E2 EQ PUSH2 0x1FA JUMPI DUP1 PUSH4 0x7B68B8D5 EQ PUSH2 0x218 JUMPI DUP1 PUSH4 0x92D53983 EQ PUSH2 0x236 JUMPI DUP1 PUSH4 0xA1C4E0F3 EQ PUSH2 0x266 JUMPI PUSH2 0x141 JUMP JUMPDEST DUP1 PUSH4 0x1CFC6A7F EQ PUSH2 0x146 JUMPI DUP1 PUSH4 0x2DC06AC9 EQ PUSH2 0x164 JUMPI DUP1 PUSH4 0x38A7460C EQ PUSH2 0x182 JUMPI DUP1 PUSH4 0x4430A71F EQ PUSH2 0x1A0 JUMPI DUP1 PUSH4 0x53640C05 EQ PUSH2 0x1BE JUMPI JUMPDEST PUSH1 0x0 DUP1 REVERT JUMPDEST PUSH2 0x14E PUSH2 0x3CE JUMP JUMPDEST PUSH1 0x40 MLOAD PUSH2 0x15B SWAP2 SWAP1 PUSH2 0x11DD JUMP JUMPDEST PUSH1 0x40 MLOAD DUP1 SWAP2 SUB SWAP1 RETURN JUMPDEST PUSH2 0x16C PUSH2 0x45A JUMP JUMPDEST PUSH1 0x40 MLOAD PUSH2 0x179 SWAP2 SWAP1 PUSH2 0x11DD JUMP JUMPDEST PUSH1 0x40 MLOAD DUP1 SWAP2 SUB SWAP1 RETURN JUMPDEST PUSH2 0x18A PUSH2 0x4E6 JUMP JUMPDEST PUSH1 0x40 MLOAD PUSH2 0x197 SWAP2 SWAP1 PUSH2 0x11DD JUMP JUMPDEST PUSH1 0x40 MLOAD DUP1 SWAP2 SUB SWAP1 RETURN JUMPDEST PUSH2 0x1A8 PUSH2 0x572 JUMP JUMPDEST PUSH1 0x40 MLOAD PUSH2 0x1B5 SWAP2 SWAP1 PUSH2 0x11DD JUMP JUMPDEST PUSH1 0x40 MLOAD DUP1 SWAP2 SUB SWAP1 RETURN JUMPDEST PUSH2 0x1C6 PUSH2 0x5FE JUMP JUMPDEST PUSH1 0x40 MLOAD PUSH2 0x1D3 SWAP2 SWAP1 PUSH2 0x11DD JUMP JUMPDEST PUSH1 0x40 MLOAD DUP1 SWAP2 SUB SWAP1 RETURN JUMPDEST PUSH2 0x1E4 PUSH2 0x68A JUMP JUMPDEST PUSH1 0x40 MLOAD PUSH2 0x1F1 SWAP2 SWAP1 PUSH2 0x11DD JUMP JUMPDEST PUSH1 0x40 MLOAD DUP1 SWAP2 SUB SWAP1 RETURN JUMPDEST PUSH2 0x202 PUSH2 0x716 JUMP JUMPDEST PUSH1 0x40 MLOAD PUSH2 0x20F SWAP2 SWAP1 PUSH2 0x11DD JUMP JUMPDEST PUSH1 0x40 MLOAD DUP1 SWAP2 SUB SWAP1 RETURN JUMPDEST PUSH2 0x220 PUSH2 0x7A2 JUMP JUMPDEST PUSH1 0x40 MLOAD PUSH2 0x22D SWAP2 SWAP1 PUSH2 0x11DD JUMP JUMPDEST PUSH1 0x40 MLOAD DUP1 SWAP2 SUB SWAP1 RETURN JUMPDEST PUSH2 0x250 PUSH1 0x4 DUP1 CALLDATASIZE SUB DUP2 ADD SWAP1 PUSH2 0x24B SWAP2 SWAP1 PUSH2 0x10F2 JUMP JUMPDEST PUSH2 0x82E JUMP JUMPDEST PUSH1 0x40 MLOAD PUSH2 0x25D SWAP2 SWAP1 PUSH2 0x11DD JUMP JUMPDEST PUSH1 0x40 MLOAD DUP1 SWAP2 SUB SWAP1 RETURN JUMPDEST PUSH2 0x26E PUSH2 0xA26 JUMP JUMPDEST PUSH1 0x40 MLOAD PUSH2 0x27B SWAP2 SWAP1 PUSH2 0x11DD JUMP JUMPDEST PUSH1 0x40 MLOAD DUP1 SWAP2 SUB SWAP1 RETURN JUMPDEST PUSH2 0x28C PUSH2 0xAB2 JUMP JUMPDEST PUSH1 0x40 MLOAD PUSH2 0x299 SWAP2 SWAP1 PUSH2 0x11DD JUMP JUMPDEST PUSH1 0x40 MLOAD DUP1 SWAP2 SUB SWAP1 RETURN JUMPDEST PUSH2 0x2AA PUSH2 0xB3E JUMP JUMPDEST PUSH1 0x40 MLOAD PUSH2 0x2B7 SWAP2 SWAP1 PUSH2 0x11DD JUMP JUMPDEST PUSH1 0x40 MLOAD DUP1 SWAP2 SUB SWAP1 RETURN JUMPDEST PUSH2 0x2C8 PUSH2 0xBCA JUMP JUMPDEST PUSH1 0x40 MLOAD PUSH2 0x2D5 SWAP2 SWAP1 PUSH2 0x11DD JUMP JUMPDEST PUSH1 0x40 MLOAD DUP1 SWAP2 SUB SWAP1 RETURN JUMPDEST PUSH2 0x2E6 PUSH2 0xC56 JUMP JUMPDEST PUSH1 0x40 MLOAD PUSH2 0x2F3 SWAP2 SWAP1 PUSH2 0x11DD JUMP JUMPDEST PUSH1 0x40 MLOAD DUP1 SWAP2 SUB SWAP1 RETURN JUMPDEST PUSH2 0x304 PUSH2 0xCE2 JUMP JUMPDEST PUSH1 0x40 MLOAD PUSH2 0x311 SWAP2 SWAP1 PUSH2 0x11DD JUMP JUMPDEST PUSH1 0x40 MLOAD DUP1 SWAP2 SUB SWAP1 RETURN JUMPDEST PUSH2 0x322 PUSH2 0xD6E JUMP JUMPDEST PUSH1 0x40 MLOAD PUSH2 0x32F SWAP2 SWAP1 PUSH2 0x11DD JUMP JUMPDEST PUSH1 0x40 MLOAD DUP1 SWAP2 SUB SWAP1 RETURN JUMPDEST PUSH2 0x340 PUSH2 0xDFA JUMP JUMPDEST PUSH1 0x40 MLOAD PUSH2 0x34D SWAP2 SWAP1 PUSH2 0x11DD JUMP JUMPDEST PUSH1 0x40 MLOAD DUP1 SWAP2 SUB SWAP1 RETURN JUMPDEST PUSH2 0x35E PUSH2 0xE86 JUMP JUMPDEST PUSH1 0x40 MLOAD PUSH2 0x36B SWAP2 SWAP1 PUSH2 0x11DD JUMP JUMPDEST PUSH1 0x40 MLOAD DUP1 SWAP2 SUB SWAP1 RETURN JUMPDEST PUSH2 0x37C PUSH2 0xF12 JUMP JUMPDEST PUSH1 0x40 MLOAD PUSH2 0x389 SWAP2 SWAP1 PUSH2 0x11DD JUMP JUMPDEST PUSH1 0x40 MLOAD DUP1 SWAP2 SUB SWAP1 RETURN JUMPDEST PUSH2 0x39A PUSH2 0xF9E JUMP JUMPDEST PUSH1 0x40 MLOAD PUSH2 0x3A7 SWAP2 SWAP1 PUSH2 0x11DD JUMP JUMPDEST PUSH1 0x40 MLOAD DUP1 SWAP2 SUB SWAP1 RETURN JUMPDEST PUSH2 0x3B8 PUSH2 0x102A JUMP JUMPDEST PUSH1 0x40 MLOAD PUSH2 0x3C5 SWAP2 SWAP1 PUSH2 0x11DD JUMP JUMPDEST PUSH1 0x40 MLOAD DUP1 SWAP2 SUB SWAP1 RETURN JUMPDEST PUSH2 0x3D6 PUSH2 0x10B6 JUMP JUMPDEST PUSH1 0x40 MLOAD DUP1 PUSH1 0x40 ADD PUSH1 0x40 MSTORE DUP1 PUSH1 0x40 MLOAD DUP1 PUSH1 0x40 ADD PUSH1 0x40 MSTORE DUP1 PUSH1 0x12 DUP2 MSTORE PUSH1 0x20 ADD PUSH32 0x4974206973206E6F7420796F7572206A6F620000000000000000000000000000 DUP2 MSTORE POP DUP2 MSTORE PUSH1 0x20 ADD PUSH1 0x40 MLOAD DUP1 PUSH1 0x40 ADD PUSH1 0x40 MSTORE DUP1 PUSH1 0xE DUP2 MSTORE PUSH1 0x20 ADD PUSH32 0x746F206669782070656F706C652E000000000000000000000000000000000000 DUP2 MSTORE POP DUP2 MSTORE POP SWAP1 POP SWAP1 JUMP JUMPDEST PUSH2 0x462 PUSH2 0x10B6 JUMP JUMPDEST PUSH1 0x40 MLOAD DUP1 PUSH1 0x40 ADD PUSH1 0x40 MSTORE DUP1 PUSH1 0x40 MLOAD DUP1 PUSH1 0x40 ADD PUSH1 0x40 MSTORE DUP1 PUSH1 0x8 DUP2 MSTORE PUSH1 0x20 ADD PUSH32 0x596F752061726520000000000000000000000000000000000000000000000000 DUP2 MSTORE POP DUP2 MSTORE PUSH1 0x20 ADD PUSH1 0x40 MLOAD DUP1 PUSH1 0x40 ADD PUSH1 0x40 MSTORE DUP1 PUSH1 0xD DUP2 MSTORE PUSH1 0x20 ADD PUSH32 0x676F6E6E61206D616B6520697400000000000000000000000000000000000000 DUP2 MSTORE POP DUP2 MSTORE POP SWAP1 POP SWAP1 JUMP JUMPDEST PUSH2 0x4EE PUSH2 0x10B6 JUMP JUMPDEST PUSH1 0x40 MLOAD DUP1 PUSH1 0x40 ADD PUSH1 0x40 MSTORE DUP1 PUSH1 0x40 MLOAD DUP1 PUSH1 0x40 ADD PUSH1 0x40 MSTORE DUP1 PUSH1 0xE DUP2 MSTORE PUSH1 0x20 ADD PUSH32 0x5472757374207468652077616974000000000000000000000000000000000000 DUP2 MSTORE POP DUP2 MSTORE PUSH1 0x20 ADD PUSH1 0x40 MLOAD DUP1 PUSH1 0x40 ADD PUSH1 0x40 MSTORE DUP1 PUSH1 0x12 DUP2 MSTORE PUSH1 0x20 ADD PUSH32 0x456E6A6F79206E6F74206B6E6F77696E672E0000000000000000000000000000 DUP2 MSTORE POP DUP2 MSTORE POP SWAP1 POP SWAP1 JUMP JUMPDEST PUSH2 0x57A PUSH2 0x10B6 JUMP JUMPDEST PUSH1 0x40 MLOAD DUP1 PUSH1 0x40 ADD PUSH1 0x40 MSTORE DUP1 PUSH1 0x40 MLOAD DUP1 PUSH1 0x40 ADD PUSH1 0x40 MSTORE DUP1 PUSH1 0xD DUP2 MSTORE PUSH1 0x20 ADD PUSH32 0x456E74657220756E6B6E6F776E00000000000000000000000000000000000000 DUP2 MSTORE POP DUP2 MSTORE PUSH1 0x20 ADD PUSH1 0x40 MLOAD DUP1 PUSH1 0x40 ADD PUSH1 0x40 MSTORE DUP1 PUSH1 0xA DUP2 MSTORE PUSH1 0x20 ADD PUSH32 0x7465727269746F72792E00000000000000000000000000000000000000000000 DUP2 MSTORE POP DUP2 MSTORE POP SWAP1 POP SWAP1 JUMP JUMPDEST PUSH2 0x606 PUSH2 0x10B6 JUMP JUMPDEST PUSH1 0x40 MLOAD DUP1 PUSH1 0x40 ADD PUSH1 0x40 MSTORE DUP1 PUSH1 0x40 MLOAD DUP1 PUSH1 0x40 ADD PUSH1 0x40 MSTORE DUP1 PUSH1 0xB DUP2 MSTORE PUSH1 0x20 ADD PUSH32 0x4769766520416C70686120000000000000000000000000000000000000000000 DUP2 MSTORE POP DUP2 MSTORE PUSH1 0x20 ADD PUSH1 0x40 MLOAD DUP1 PUSH1 0x40 ADD PUSH1 0x40 MSTORE DUP1 PUSH1 0xA DUP2 MSTORE PUSH1 0x20 ADD PUSH32 0x47657420416C7068612000000000000000000000000000000000000000000000 DUP2 MSTORE POP DUP2 MSTORE POP SWAP1 POP SWAP1 JUMP JUMPDEST PUSH2 0x692 PUSH2 0x10B6 JUMP JUMPDEST PUSH1 0x40 MLOAD DUP1 PUSH1 0x40 ADD PUSH1 0x40 MSTORE DUP1 PUSH1 0x40 MLOAD DUP1 PUSH1 0x40 ADD PUSH1 0x40 MSTORE DUP1 PUSH1 0xB DUP2 MSTORE PUSH1 0x20 ADD PUSH32 0x54616B65206E6F20666F72000000000000000000000000000000000000000000 DUP2 MSTORE POP DUP2 MSTORE PUSH1 0x20 ADD PUSH1 0x40 MLOAD DUP1 PUSH1 0x40 ADD PUSH1 0x40 MSTORE DUP1 PUSH1 0xA DUP2 MSTORE PUSH1 0x20 ADD PUSH32 0x616E20616E737765722E00000000000000000000000000000000000000000000 DUP2 MSTORE POP DUP2 MSTORE POP SWAP1 POP SWAP1 JUMP JUMPDEST PUSH2 0x71E PUSH2 0x10B6 JUMP JUMPDEST PUSH1 0x40 MLOAD DUP1 PUSH1 0x40 ADD PUSH1 0x40 MSTORE DUP1 PUSH1 0x40 MLOAD DUP1 PUSH1 0x40 ADD PUSH1 0x40 MSTORE DUP1 PUSH1 0xE DUP2 MSTORE PUSH1 0x20 ADD PUSH32 0x54686520666C697070656E696E67000000000000000000000000000000000000 DUP2 MSTORE POP DUP2 MSTORE PUSH1 0x20 ADD PUSH1 0x40 MLOAD DUP1 PUSH1 0x40 ADD PUSH1 0x40 MSTORE DUP1 PUSH1 0x9 DUP2 MSTORE PUSH1 0x20 ADD PUSH32 0x697320636F6D696E670000000000000000000000000000000000000000000000 DUP2 MSTORE POP DUP2 MSTORE POP SWAP1 POP SWAP1 JUMP JUMPDEST PUSH2 0x7AA PUSH2 0x10B6 JUMP JUMPDEST PUSH1 0x40 MLOAD DUP1 PUSH1 0x40 ADD PUSH1 0x40 MSTORE DUP1 PUSH1 0x40 MLOAD DUP1 PUSH1 0x40 ADD PUSH1 0x40 MSTORE DUP1 PUSH1 0xB DUP2 MSTORE PUSH1 0x20 ADD PUSH32 0x5468652073696C656E6365000000000000000000000000000000000000000000 DUP2 MSTORE POP DUP2 MSTORE PUSH1 0x20 ADD PUSH1 0x40 MLOAD DUP1 PUSH1 0x40 ADD PUSH1 0x40 MSTORE DUP1 PUSH1 0xF DUP2 MSTORE PUSH1 0x20 ADD PUSH32 0x737065616B7320766F6C756D65732E0000000000000000000000000000000000 DUP2 MSTORE POP DUP2 MSTORE POP SWAP1 POP SWAP1 JUMP JUMPDEST PUSH2 0x836 PUSH2 0x10B6 JUMP JUMPDEST PUSH1 0x15 DUP3 EQ ISZERO PUSH2 0x84E JUMPI PUSH2 0x847 PUSH2 0xF9E JUMP JUMPDEST SWAP1 POP PUSH2 0xA21 JUMP JUMPDEST PUSH1 0x16 DUP3 EQ ISZERO PUSH2 0x866 JUMPI PUSH2 0x85F PUSH2 0x716 JUMP JUMPDEST SWAP1 POP PUSH2 0xA21 JUMP JUMPDEST PUSH1 0x17 DUP3 EQ ISZERO PUSH2 0x87E JUMPI PUSH2 0x877 PUSH2 0xC56 JUMP JUMPDEST SWAP1 POP PUSH2 0xA21 JUMP JUMPDEST PUSH1 0x18 DUP3 EQ ISZERO PUSH2 0x896 JUMPI PUSH2 0x88F PUSH2 0xE86 JUMP JUMPDEST SWAP1 POP PUSH2 0xA21 JUMP JUMPDEST PUSH1 0x19 DUP3 EQ ISZERO PUSH2 0x8AE JUMPI PUSH2 0x8A7 PUSH2 0x45A JUMP JUMPDEST SWAP1 POP PUSH2 0xA21 JUMP JUMPDEST PUSH1 0x1A DUP3 EQ ISZERO PUSH2 0x8C6 JUMPI PUSH2 0x8BF PUSH2 0xBCA JUMP JUMPDEST SWAP1 POP PUSH2 0xA21 JUMP JUMPDEST PUSH1 0x1B DUP3 EQ ISZERO PUSH2 0x8DE JUMPI PUSH2 0x8D7 PUSH2 0x5FE JUMP JUMPDEST SWAP1 POP PUSH2 0xA21 JUMP JUMPDEST PUSH1 0x1C DUP3 EQ ISZERO PUSH2 0x8F6 JUMPI PUSH2 0x8EF PUSH2 0xDFA JUMP JUMPDEST SWAP1 POP PUSH2 0xA21 JUMP JUMPDEST PUSH1 0x1D DUP3 EQ ISZERO PUSH2 0x90E JUMPI PUSH2 0x907 PUSH2 0xCE2 JUMP JUMPDEST SWAP1 POP PUSH2 0xA21 JUMP JUMPDEST PUSH1 0x1E DUP3 EQ ISZERO PUSH2 0x926 JUMPI PUSH2 0x91F PUSH2 0x4E6 JUMP JUMPDEST SWAP1 POP PUSH2 0xA21 JUMP JUMPDEST PUSH1 0x1F DUP3 EQ ISZERO PUSH2 0x93E JUMPI PUSH2 0x937 PUSH2 0x3CE JUMP JUMPDEST SWAP1 POP PUSH2 0xA21 JUMP JUMPDEST PUSH1 0x20 DUP3 EQ ISZERO PUSH2 0x956 JUMPI PUSH2 0x94F PUSH2 0xA26 JUMP JUMPDEST SWAP1 POP PUSH2 0xA21 JUMP JUMPDEST PUSH1 0x21 DUP3 EQ ISZERO PUSH2 0x96E JUMPI PUSH2 0x967 PUSH2 0xAB2 JUMP JUMPDEST SWAP1 POP PUSH2 0xA21 JUMP JUMPDEST PUSH1 0x22 DUP3 EQ ISZERO PUSH2 0x986 JUMPI PUSH2 0x97F PUSH2 0xD6E JUMP JUMPDEST SWAP1 POP PUSH2 0xA21 JUMP JUMPDEST PUSH1 0x23 DUP3 EQ ISZERO PUSH2 0x99E JUMPI PUSH2 0x997 PUSH2 0x102A JUMP JUMPDEST SWAP1 POP PUSH2 0xA21 JUMP JUMPDEST PUSH1 0x24 DUP3 EQ ISZERO PUSH2 0x9B6 JUMPI PUSH2 0x9AF PUSH2 0x68A JUMP JUMPDEST SWAP1 POP PUSH2 0xA21 JUMP JUMPDEST PUSH1 0x25 DUP3 EQ ISZERO PUSH2 0x9CE JUMPI PUSH2 0x9C7 PUSH2 0xF12 JUMP JUMPDEST SWAP1 POP PUSH2 0xA21 JUMP JUMPDEST PUSH1 0x26 DUP3 EQ ISZERO PUSH2 0x9E6 JUMPI PUSH2 0x9DF PUSH2 0x572 JUMP JUMPDEST SWAP1 POP PUSH2 0xA21 JUMP JUMPDEST PUSH1 0x27 DUP3 EQ ISZERO PUSH2 0x9FE JUMPI PUSH2 0x9F7 PUSH2 0xB3E JUMP JUMPDEST SWAP1 POP PUSH2 0xA21 JUMP JUMPDEST PUSH1 0x28 DUP3 EQ ISZERO PUSH2 0xA16 JUMPI PUSH2 0xA0F PUSH2 0x7A2 JUMP JUMPDEST SWAP1 POP PUSH2 0xA21 JUMP JUMPDEST PUSH2 0xA1E PUSH2 0xF9E JUMP JUMPDEST SWAP1 POP JUMPDEST SWAP2 SWAP1 POP JUMP JUMPDEST PUSH2 0xA2E PUSH2 0x10B6 JUMP JUMPDEST PUSH1 0x40 MLOAD DUP1 PUSH1 0x40 ADD PUSH1 0x40 MSTORE DUP1 PUSH1 0x40 MLOAD DUP1 PUSH1 0x40 ADD PUSH1 0x40 MSTORE DUP1 PUSH1 0xC DUP2 MSTORE PUSH1 0x20 ADD PUSH32 0x4D616B652070656F706C65200000000000000000000000000000000000000000 DUP2 MSTORE POP DUP2 MSTORE PUSH1 0x20 ADD PUSH1 0x40 MLOAD DUP1 PUSH1 0x40 ADD PUSH1 0x40 MSTORE DUP1 PUSH1 0x8 DUP2 MSTORE PUSH1 0x20 ADD PUSH32 0x73656520796F752E000000000000000000000000000000000000000000000000 DUP2 MSTORE POP DUP2 MSTORE POP SWAP1 POP SWAP1 JUMP JUMPDEST PUSH2 0xABA PUSH2 0x10B6 JUMP JUMPDEST PUSH1 0x40 MLOAD DUP1 PUSH1 0x40 ADD PUSH1 0x40 MSTORE DUP1 PUSH1 0x40 MLOAD DUP1 PUSH1 0x40 ADD PUSH1 0x40 MSTORE DUP1 PUSH1 0x8 DUP2 MSTORE PUSH1 0x20 ADD PUSH32 0x54617020696E746F000000000000000000000000000000000000000000000000 DUP2 MSTORE POP DUP2 MSTORE PUSH1 0x20 ADD PUSH1 0x40 MLOAD DUP1 PUSH1 0x40 ADD PUSH1 0x40 MSTORE DUP1 PUSH1 0xB DUP2 MSTORE PUSH1 0x20 ADD PUSH32 0x796F7572206D616769632E000000000000000000000000000000000000000000 DUP2 MSTORE POP DUP2 MSTORE POP SWAP1 POP SWAP1 JUMP JUMPDEST PUSH2 0xB46 PUSH2 0x10B6 JUMP JUMPDEST PUSH1 0x40 MLOAD DUP1 PUSH1 0x40 ADD PUSH1 0x40 MSTORE DUP1 PUSH1 0x40 MLOAD DUP1 PUSH1 0x40 ADD PUSH1 0x40 MSTORE DUP1 PUSH1 0x11 DUP2 MSTORE PUSH1 0x20 ADD PUSH32 0x412077696E6E657220646F6573206E6F74000000000000000000000000000000 DUP2 MSTORE POP DUP2 MSTORE PUSH1 0x20 ADD PUSH1 0x40 MLOAD DUP1 PUSH1 0x40 ADD PUSH1 0x40 MSTORE DUP1 PUSH1 0x12 DUP2 MSTORE PUSH1 0x20 ADD PUSH32 0x71756974206F6E207468656D73656C7665730000000000000000000000000000 DUP2 MSTORE POP DUP2 MSTORE POP SWAP1 POP SWAP1 JUMP JUMPDEST PUSH2 0xBD2 PUSH2 0x10B6 JUMP JUMPDEST PUSH1 0x40 MLOAD DUP1 PUSH1 0x40 ADD PUSH1 0x40 MSTORE DUP1 PUSH1 0x40 MLOAD DUP1 PUSH1 0x40 ADD PUSH1 0x40 MSTORE DUP1 PUSH1 0x8 DUP2 MSTORE PUSH1 0x20 ADD PUSH32 0x427579206D6F7265000000000000000000000000000000000000000000000000 DUP2 MSTORE POP DUP2 MSTORE PUSH1 0x20 ADD PUSH1 0x40 MLOAD DUP1 PUSH1 0x40 ADD PUSH1 0x40 MSTORE DUP1 PUSH1 0x4 DUP2 MSTORE PUSH1 0x20 ADD PUSH32 0x4E46547300000000000000000000000000000000000000000000000000000000 DUP2 MSTORE POP DUP2 MSTORE POP SWAP1 POP SWAP1 JUMP JUMPDEST PUSH2 0xC5E PUSH2 0x10B6 JUMP JUMPDEST PUSH1 0x40 MLOAD DUP1 PUSH1 0x40 ADD PUSH1 0x40 MSTORE DUP1 PUSH1 0x40 MLOAD DUP1 PUSH1 0x40 ADD PUSH1 0x40 MSTORE DUP1 PUSH1 0xA DUP2 MSTORE PUSH1 0x20 ADD PUSH32 0x77656E206C616D626F3F00000000000000000000000000000000000000000000 DUP2 MSTORE POP DUP2 MSTORE PUSH1 0x20 ADD PUSH1 0x40 MLOAD DUP1 PUSH1 0x40 ADD PUSH1 0x40 MSTORE DUP1 PUSH1 0x4 DUP2 MSTORE PUSH1 0x20 ADD PUSH32 0x736F6F6E00000000000000000000000000000000000000000000000000000000 DUP2 MSTORE POP DUP2 MSTORE POP SWAP1 POP SWAP1 JUMP JUMPDEST PUSH2 0xCEA PUSH2 0x10B6 JUMP JUMPDEST PUSH1 0x40 MLOAD DUP1 PUSH1 0x40 ADD PUSH1 0x40 MSTORE DUP1 PUSH1 0x40 MLOAD DUP1 PUSH1 0x40 ADD PUSH1 0x40 MSTORE DUP1 PUSH1 0x12 DUP2 MSTORE PUSH1 0x20 ADD PUSH32 0x5265636F676E697A6520796F757273656C660000000000000000000000000000 DUP2 MSTORE POP DUP2 MSTORE PUSH1 0x20 ADD PUSH1 0x40 MLOAD DUP1 PUSH1 0x40 ADD PUSH1 0x40 MSTORE DUP1 PUSH1 0xB DUP2 MSTORE PUSH1 0x20 ADD PUSH32 0x20696E206F74686572732E000000000000000000000000000000000000000000 DUP2 MSTORE POP DUP2 MSTORE POP SWAP1 POP SWAP1 JUMP JUMPDEST PUSH2 0xD76 PUSH2 0x10B6 JUMP JUMPDEST PUSH1 0x40 MLOAD DUP1 PUSH1 0x40 ADD PUSH1 0x40 MSTORE DUP1 PUSH1 0x40 MLOAD DUP1 PUSH1 0x40 ADD PUSH1 0x40 MSTORE DUP1 PUSH1 0x12 DUP2 MSTORE PUSH1 0x20 ADD PUSH32 0x45766572797468696E6720746861742069730000000000000000000000000000 DUP2 MSTORE POP DUP2 MSTORE PUSH1 0x20 ADD PUSH1 0x40 MLOAD DUP1 PUSH1 0x40 ADD PUSH1 0x40 MSTORE DUP1 PUSH1 0x12 DUP2 MSTORE PUSH1 0x20 ADD PUSH32 0x776173206669727374206120647265616D2E0000000000000000000000000000 DUP2 MSTORE POP DUP2 MSTORE POP SWAP1 POP SWAP1 JUMP JUMPDEST PUSH2 0xE02 PUSH2 0x10B6 JUMP JUMPDEST PUSH1 0x40 MLOAD DUP1 PUSH1 0x40 ADD PUSH1 0x40 MSTORE DUP1 PUSH1 0x40 MLOAD DUP1 PUSH1 0x40 ADD PUSH1 0x40 MSTORE DUP1 PUSH1 0xE DUP2 MSTORE PUSH1 0x20 ADD PUSH32 0x5468652066757475726520697320000000000000000000000000000000000000 DUP2 MSTORE POP DUP2 MSTORE PUSH1 0x20 ADD PUSH1 0x40 MLOAD DUP1 PUSH1 0x40 ADD PUSH1 0x40 MSTORE DUP1 PUSH1 0xB DUP2 MSTORE PUSH1 0x20 ADD PUSH32 0x6D756C74692D636861696E000000000000000000000000000000000000000000 DUP2 MSTORE POP DUP2 MSTORE POP SWAP1 POP SWAP1 JUMP JUMPDEST PUSH2 0xE8E PUSH2 0x10B6 JUMP JUMPDEST PUSH1 0x40 MLOAD DUP1 PUSH1 0x40 ADD PUSH1 0x40 MSTORE DUP1 PUSH1 0x40 MLOAD DUP1 PUSH1 0x40 ADD PUSH1 0x40 MSTORE DUP1 PUSH1 0xF DUP2 MSTORE PUSH1 0x20 ADD PUSH32 0x49207365652041697264726F7073200000000000000000000000000000000000 DUP2 MSTORE POP DUP2 MSTORE PUSH1 0x20 ADD PUSH1 0x40 MLOAD DUP1 PUSH1 0x40 ADD PUSH1 0x40 MSTORE DUP1 PUSH1 0xE DUP2 MSTORE PUSH1 0x20 ADD PUSH32 0x696E20796F757220667574757265000000000000000000000000000000000000 DUP2 MSTORE POP DUP2 MSTORE POP SWAP1 POP SWAP1 JUMP JUMPDEST PUSH2 0xF1A PUSH2 0x10B6 JUMP JUMPDEST PUSH1 0x40 MLOAD DUP1 PUSH1 0x40 ADD PUSH1 0x40 MSTORE DUP1 PUSH1 0x40 MLOAD DUP1 PUSH1 0x40 ADD PUSH1 0x40 MSTORE DUP1 PUSH1 0xE DUP2 MSTORE PUSH1 0x20 ADD PUSH32 0x546F20626520666F756E64202D20000000000000000000000000000000000000 DUP2 MSTORE POP DUP2 MSTORE PUSH1 0x20 ADD PUSH1 0x40 MLOAD DUP1 PUSH1 0x40 ADD PUSH1 0x40 MSTORE DUP1 PUSH1 0xC DUP2 MSTORE PUSH1 0x20 ADD PUSH32 0x73746F7020686964696E672E0000000000000000000000000000000000000000 DUP2 MSTORE POP DUP2 MSTORE POP SWAP1 POP SWAP1 JUMP JUMPDEST PUSH2 0xFA6 PUSH2 0x10B6 JUMP JUMPDEST PUSH1 0x40 MLOAD DUP1 PUSH1 0x40 ADD PUSH1 0x40 MSTORE DUP1 PUSH1 0x40 MLOAD DUP1 PUSH1 0x40 ADD PUSH1 0x40 MSTORE DUP1 PUSH1 0x4 DUP2 MSTORE PUSH1 0x20 ADD PUSH32 0x4172742000000000000000000000000000000000000000000000000000000000 DUP2 MSTORE POP DUP2 MSTORE PUSH1 0x20 ADD PUSH1 0x40 MLOAD DUP1 PUSH1 0x40 ADD PUSH1 0x40 MSTORE DUP1 PUSH1 0xA DUP2 MSTORE PUSH1 0x20 ADD PUSH32 0x6973207574696C69747900000000000000000000000000000000000000000000 DUP2 MSTORE POP DUP2 MSTORE POP SWAP1 POP SWAP1 JUMP JUMPDEST PUSH2 0x1032 PUSH2 0x10B6 JUMP JUMPDEST PUSH1 0x40 MLOAD DUP1 PUSH1 0x40 ADD PUSH1 0x40 MSTORE DUP1 PUSH1 0x40 MLOAD DUP1 PUSH1 0x40 ADD PUSH1 0x40 MSTORE DUP1 PUSH1 0xE DUP2 MSTORE PUSH1 0x20 ADD PUSH32 0x4B65657020796F7572206E657874000000000000000000000000000000000000 DUP2 MSTORE POP DUP2 MSTORE PUSH1 0x20 ADD PUSH1 0x40 MLOAD DUP1 PUSH1 0x40 ADD PUSH1 0x40 MSTORE DUP1 PUSH1 0xB DUP2 MSTORE PUSH1 0x20 ADD PUSH32 0x6D6F76652071756965742E000000000000000000000000000000000000000000 DUP2 MSTORE POP DUP2 MSTORE POP SWAP1 POP SWAP1 JUMP JUMPDEST PUSH1 0x40 MLOAD DUP1 PUSH1 0x40 ADD PUSH1 0x40 MSTORE DUP1 PUSH1 0x2 SWAP1 JUMPDEST PUSH1 0x60 DUP2 MSTORE PUSH1 0x20 ADD SWAP1 PUSH1 0x1 SWAP1 SUB SWAP1 DUP2 PUSH2 0x10C5 JUMPI SWAP1 POP POP SWAP1 JUMP JUMPDEST PUSH1 0x0 DUP2 CALLDATALOAD SWAP1 POP PUSH2 0x10EC DUP2 PUSH2 0x1296 JUMP JUMPDEST SWAP3 SWAP2 POP POP JUMP JUMPDEST PUSH1 0x0 PUSH1 0x20 DUP3 DUP5 SUB SLT ISZERO PUSH2 0x1104 JUMPI PUSH1 0x0 DUP1 REVERT JUMPDEST PUSH1 0x0 PUSH2 0x1112 DUP5 DUP3 DUP6 ADD PUSH2 0x10DD JUMP JUMPDEST SWAP2 POP POP SWAP3 SWAP2 POP POP JUMP JUMPDEST PUSH1 0x0 PUSH2 0x1127 DUP4 DUP4 PUSH2 0x11A4 JUMP JUMPDEST SWAP1 POP SWAP3 SWAP2 POP POP JUMP JUMPDEST PUSH1 0x0 PUSH2 0x113A DUP3 PUSH2 0x1209 JUMP JUMPDEST PUSH2 0x1144 DUP2 DUP6 PUSH2 0x122C JUMP JUMPDEST SWAP4 POP DUP4 PUSH1 0x20 DUP3 MUL DUP6 ADD PUSH2 0x1156 DUP6 PUSH2 0x11FF JUMP JUMPDEST DUP1 PUSH1 0x0 JUMPDEST DUP6 DUP2 LT ISZERO PUSH2 0x1192 JUMPI DUP5 DUP5 SUB DUP10 MSTORE DUP2 MLOAD PUSH2 0x1173 DUP6 DUP3 PUSH2 0x111B JUMP JUMPDEST SWAP5 POP PUSH2 0x117E DUP4 PUSH2 0x121F JUMP JUMPDEST SWAP3 POP PUSH1 0x20 DUP11 ADD SWAP10 POP POP PUSH1 0x1 DUP2 ADD SWAP1 POP PUSH2 0x115A JUMP JUMPDEST POP DUP3 SWAP8 POP DUP8 SWAP6 POP POP POP POP POP POP SWAP3 SWAP2 POP POP JUMP JUMPDEST PUSH1 0x0 PUSH2 0x11AF DUP3 PUSH2 0x1214 JUMP JUMPDEST PUSH2 0x11B9 DUP2 DUP6 PUSH2 0x1237 JUMP JUMPDEST SWAP4 POP PUSH2 0x11C9 DUP2 DUP6 PUSH1 0x20 DUP7 ADD PUSH2 0x1252 JUMP JUMPDEST PUSH2 0x11D2 DUP2 PUSH2 0x1285 JUMP JUMPDEST DUP5 ADD SWAP2 POP POP SWAP3 SWAP2 POP POP JUMP JUMPDEST PUSH1 0x0 PUSH1 0x20 DUP3 ADD SWAP1 POP DUP2 DUP2 SUB PUSH1 0x0 DUP4 ADD MSTORE PUSH2 0x11F7 DUP2 DUP5 PUSH2 0x112F JUMP JUMPDEST SWAP1 POP SWAP3 SWAP2 POP POP JUMP JUMPDEST PUSH1 0x0 DUP2 SWAP1 POP SWAP2 SWAP1 POP JUMP JUMPDEST PUSH1 0x0 PUSH1 0x2 SWAP1 POP SWAP2 SWAP1 POP JUMP JUMPDEST PUSH1 0x0 DUP2 MLOAD SWAP1 POP SWAP2 SWAP1 POP JUMP JUMPDEST PUSH1 0x0 PUSH1 0x20 DUP3 ADD SWAP1 POP SWAP2 SWAP1 POP JUMP JUMPDEST PUSH1 0x0 DUP2 SWAP1 POP SWAP3 SWAP2 POP POP JUMP JUMPDEST PUSH1 0x0 DUP3 DUP3 MSTORE PUSH1 0x20 DUP3 ADD SWAP1 POP SWAP3 SWAP2 POP POP JUMP JUMPDEST PUSH1 0x0 DUP2 SWAP1 POP SWAP2 SWAP1 POP JUMP JUMPDEST PUSH1 0x0 JUMPDEST DUP4 DUP2 LT ISZERO PUSH2 0x1270 JUMPI DUP1 DUP3 ADD MLOAD DUP2 DUP5 ADD MSTORE PUSH1 0x20 DUP2 ADD SWAP1 POP PUSH2 0x1255 JUMP JUMPDEST DUP4 DUP2 GT ISZERO PUSH2 0x127F JUMPI PUSH1 0x0 DUP5 DUP5 ADD MSTORE JUMPDEST POP POP POP POP JUMP JUMPDEST PUSH1 0x0 PUSH1 0x1F NOT PUSH1 0x1F DUP4 ADD AND SWAP1 POP SWAP2 SWAP1 POP JUMP JUMPDEST PUSH2 0x129F DUP2 PUSH2 0x1248 JUMP JUMPDEST DUP2 EQ PUSH2 0x12AA JUMPI PUSH1 0x0 DUP1 REVERT JUMPDEST POP JUMP INVALID LOG2 PUSH5 0x6970667358 0x22 SLT KECCAK256 0x4D OR 0x28 0xC6 0xCD 0xC0 SMOD 0xF7 SWAP7 0x2C 0x2C 0xB3 0x5E 0xD1 DUP6 PUSH22 0xAACBF8287F3C61A1B17C1343C2C5812A64736F6C6343 STOP ADDMOD MUL STOP CALLER "
        },
        "methodIdentifiers": {
          "fortune_21()": "fb889359",
          "fortune_22()": "653b33e2",
          "fortune_23()": "bb6de950",
          "fortune_24()": "ec9b5fd5",
          "fortune_25()": "2dc06ac9",
          "fortune_26()": "b6163b24",
          "fortune_27()": "53640c05",
          "fortune_28()": "e86cfeb5",
          "fortune_29()": "c9d84ad7",
          "fortune_30()": "38a7460c",
          "fortune_31()": "1cfc6a7f",
          "fortune_32()": "a1c4e0f3",
          "fortune_33()": "a21427b4",
          "fortune_34()": "d6238404",
          "fortune_35()": "ff8f16d3",
          "fortune_36()": "5b7b2739",
          "fortune_37()": "f7203267",
          "fortune_38()": "4430a71f",
          "fortune_39()": "a282a995",
          "fortune_40()": "7b68b8d5",
          "getFortuneLines(uint256)": "92d53983"
        }
      }
    }
  }
}