{
  "contracts/CookyDescriptor.sol": {
    "CookyDescriptor": {
      "abi": [
        {
          "inputs": [],
          "name": "MAX",
          "outputs": [
            {
              "internalType": "uint256",
              "name": "",
              "type": "uint256"
            }
          ],
          "stateMutability": "view",
          "type": "function"
        },
        {
          "inputs": [],
          "name": "OFFSET",
          "outputs": [
            {
              "internalType": "uint256",
              "name": "",
              "type": "uint256"
            }
          ],
          "stateMutability": "view",
          "type": "function"
        },
        {
          "inputs": [],
          "name": "SCALE",
          "outputs": [
            {
              "internalType": "uint256",
              "name": "",
              "type": "uint256"
            }
          ],
          "stateMutability": "view",
          "type": "function"
        },
        {
          "inputs": [],
          "name": "SCALIFIER",
          "outputs": [
            {
              "internalType": "uint256",
              "name": "",
              "type": "uint256"
            }
          ],
          "stateMutability": "view",
          "type": "function"
        },
        {
          "inputs": [
            {
              "internalType": "uint256",
              "name": "tokenId",
              "type": "uint256"
            },
            {
              "internalType": "uint256",
              "name": "tseed",
              "type": "uint256"
            },
            {
              "internalType": "uint256",
              "name": "cseed",
              "type": "uint256"
            }
          ],
          "name": "_buildFortuneCooky",
          "outputs": [
            {
              "internalType": "string",
              "name": "",
              "type": "string"
            }
          ],
          "stateMutability": "view",
          "type": "function"
        },
        {
          "inputs": [
            {
              "internalType": "uint256",
              "name": "tokenId",
              "type": "uint256"
            },
            {
              "internalType": "uint256",
              "name": "tseed",
              "type": "uint256"
            },
            {
              "internalType": "uint256",
              "name": "cseed",
              "type": "uint256"
            }
          ],
          "name": "_getFortune",
          "outputs": [
            {
              "internalType": "string[2]",
              "name": "",
              "type": "string[2]"
            }
          ],
          "stateMutability": "pure",
          "type": "function"
        }
      ],
      "evm": {
        "bytecode": {
          "linkReferences": {
            "contracts/libraries/Lines1.sol": {
              "Lines1": [
                {
                  "length": 20,
                  "start": 4346
                }
              ]
            },
            "contracts/libraries/Lines2.sol": {
              "Lines2": [
                {
                  "length": 20,
                  "start": 4196
                }
              ]
            },
            "contracts/libraries/Lines3.sol": {
              "Lines3": [
                {
                  "length": 20,
                  "start": 4038
                }
              ]
            }
          },
          "object": "60806040526040518061014001604052806040518060400160405280600781526020017f236633656363620000000000000000000000000000000000000000000000000081525081526020016040518060400160405280600781526020017f236666643339390000000000000000000000000000000000000000000000000081525081526020016040518060400160405280600781526020017f236163636365340000000000000000000000000000000000000000000000000081525081526020016040518060400160405280600781526020017f236234626364370000000000000000000000000000000000000000000000000081525081526020016040518060400160405280600781526020017f236362616632650000000000000000000000000000000000000000000000000081525081526020016040518060400160405280600781526020017f236639386530300000000000000000000000000000000000000000000000000081525081526020016040518060400160405280600781526020017f233364383662630000000000000000000000000000000000000000000000000081525081526020016040518060400160405280600781526020017f233536363861320000000000000000000000000000000000000000000000000081525081526020016040518060400160405280600781526020017f236336633363320000000000000000000000000000000000000000000000000081525081526020016040518060400160405280600781526020017f2362356230616600000000000000000000000000000000000000000000000000815250815250600090600a6200026e92919062000759565b506040518061014001604052806040518060400160405280600781526020017f236633656363620000000000000000000000000000000000000000000000000081525081526020016040518060400160405280600781526020017f236666643339390000000000000000000000000000000000000000000000000081525081526020016040518060400160405280600781526020017f236163636365340000000000000000000000000000000000000000000000000081525081526020016040518060400160405280600781526020017f236234626364370000000000000000000000000000000000000000000000000081525081526020016040518060400160405280600781526020017f236362616632650000000000000000000000000000000000000000000000000081525081526020016040518060400160405280600781526020017f236639386530300000000000000000000000000000000000000000000000000081525081526020016040518060400160405280600781526020017f233364383662630000000000000000000000000000000000000000000000000081525081526020016040518060400160405280600781526020017f233536363861320000000000000000000000000000000000000000000000000081525081526020016040518060400160405280600781526020017f236336633363320000000000000000000000000000000000000000000000000081525081526020016040518060400160405280600781526020017f2362356230616600000000000000000000000000000000000000000000000000815250815250600190600a620004d992919062000759565b506040518061014001604052806040518060400160405280600781526020017f236633656363620000000000000000000000000000000000000000000000000081525081526020016040518060400160405280600781526020017f236666643339390000000000000000000000000000000000000000000000000081525081526020016040518060400160405280600781526020017f236163636365340000000000000000000000000000000000000000000000000081525081526020016040518060400160405280600781526020017f236234626364370000000000000000000000000000000000000000000000000081525081526020016040518060400160405280600781526020017f236362616632650000000000000000000000000000000000000000000000000081525081526020016040518060400160405280600781526020017f236639386530300000000000000000000000000000000000000000000000000081525081526020016040518060400160405280600781526020017f233364383662630000000000000000000000000000000000000000000000000081525081526020016040518060400160405280600781526020017f233536363861320000000000000000000000000000000000000000000000000081525081526020016040518060400160405280600781526020017f236336633363320000000000000000000000000000000000000000000000000081525081526020016040518060400160405280600781526020017f2362356230616600000000000000000000000000000000000000000000000000815250815250600290600a6200074492919062000759565b503480156200075257600080fd5b5062000943565b828054828255906000526020600020908101928215620007ad579160200282015b82811115620007ac5782518290805190602001906200079b929190620007c0565b50916020019190600101906200077a565b5b509050620007bc919062000851565b5090565b828054620007ce90620008de565b90600052602060002090601f016020900481019282620007f257600085556200083e565b82601f106200080d57805160ff19168380011785556200083e565b828001600101855582156200083e579182015b828111156200083d57825182559160200191906001019062000820565b5b5090506200084d919062000879565b5090565b5b808211156200087557600081816200086b919062000898565b5060010162000852565b5090565b5b80821115620008945760008160009055506001016200087a565b5090565b508054620008a690620008de565b6000825580601f10620008ba5750620008db565b601f016020900490600052602060002090810190620008da919062000879565b5b50565b60006002820490506001821680620008f757607f821691505b602082108114156200090e576200090d62000914565b5b50919050565b7f4e487b7100000000000000000000000000000000000000000000000000000000600052602260045260246000fd5b61442680620009536000396000f3fe608060405234801561001057600080fd5b50600436106100625760003560e01c80630a5063d61461006757806379dccf8c14610097578063ce665dd8146100c7578063d49d5181146100e5578063eced552614610103578063f4ab1a9314610121575b600080fd5b610081600480360381019061007c9190610dc3565b61013f565b60405161008e9190611403565b60405180910390f35b6100b160048036038101906100ac9190610dc3565b6105ec565b6040516100be91906113e1565b60405180910390f35b6100cf61083e565b6040516100dc9190611440565b60405180910390f35b6100ed610843565b6040516100fa9190611440565b60405180910390f35b61010b610854565b6040516101189190611440565b60405180910390f35b61012961085a565b6040516101369190611440565b60405180910390f35b60606000600a8461015091906118ab565b90506000600a60648661016391906118ab565b61016d9190611592565b9050600060646103e88761018191906118ab565b61018b9190611592565b9050600061019a8888886105ec565b90506000610224826000600281106101db577f4e487b7100000000000000000000000000000000000000000000000000000000600052603260045260246000fd5b60200201518360016002811061021a577f4e487b7100000000000000000000000000000000000000000000000000000000600052603260045260246000fd5b6020020151610878565b9050600082600060028110610262577f4e487b7100000000000000000000000000000000000000000000000000000000600052603260045260246000fd5b6020020151836001600281106102a1577f4e487b7100000000000000000000000000000000000000000000000000000000600052603260045260246000fd5b60200201516040516020016102b79291906111d4565b604051602081830303815290604052905060006102d26108a4565b9050600061054560008981548110610313577f4e487b7100000000000000000000000000000000000000000000000000000000600052603260045260246000fd5b906000526020600020018054610328906117ff565b80601f0160208091040260200160405190810160405280929190818152602001828054610354906117ff565b80156103a15780601f10610376576101008083540402835291602001916103a1565b820191906000526020600020905b81548152906001019060200180831161038457829003601f168201915b5050505050600189815481106103e0577f4e487b7100000000000000000000000000000000000000000000000000000000600052603260045260246000fd5b9060005260206000200180546103f5906117ff565b80601f0160208091040260200160405190810160405280929190818152602001828054610421906117ff565b801561046e5780601f106104435761010080835404028352916020019161046e565b820191906000526020600020905b81548152906001019060200180831161045157829003601f168201915b5050505050600289815481106104ad577f4e487b7100000000000000000000000000000000000000000000000000000000600052603260045260246000fd5b9060005260206000200180546104c2906117ff565b80601f01602080910402602001604051908101604052809291908181526020018280546104ee906117ff565b801561053b5780601f106105105761010080835404028352916020019161053b565b820191906000526020600020905b81548152906001019060200180831161051e57829003601f168201915b50505050506108c9565b9050600081838660405160200161055e93929190611351565b604051602081830303815290604052905060006105b761057d8f6108f8565b86610587426108f8565b61059086610aa5565b6040516020016105a394939291906112ba565b604051602081830303815290604052610aa5565b9050806040516020016105ca919061132f565b6040516020818303038152906040529a50505050505050505050509392505050565b6105f4610c63565b600082846106029190611616565b9050600061060f826108f8565b610618866108f8565b610621866108f8565b61062a896108f8565b60405160200161063d9493929190611398565b6040516020818303038152906040528051906020012060001c90506000603c8261066791906118ab565b9050602981106107075773__$311a33a4f51c500c1d2e264737fc097d09$__6392d53983826040518263ffffffff1660e01b81526004016106a89190611425565b60006040518083038186803b1580156106c057600080fd5b505af41580156106d4573d6000803e3d6000fd5b505050506040513d6000823e3d601f19601f820116820180604052508101906106fd9190610d82565b9350505050610837565b601581106107a55773__$77ea751b95ae1ac05badc06e400d40c7e5$__6392d53983826040518263ffffffff1660e01b81526004016107469190611425565b60006040518083038186803b15801561075e57600080fd5b505af4158015610772573d6000803e3d6000fd5b505050506040513d6000823e3d601f19601f8201168201806040525081019061079b9190610d82565b9350505050610837565b73__$0fe5f6d2ef39da8ee0eae391d881aaf10c$__6392d53983826040518263ffffffff1660e01b81526004016107dc9190611425565b60006040518083038186803b1580156107f457600080fd5b505af4158015610808573d6000803e3d6000fd5b505050506040513d6000823e3d601f19601f820116820180604052508101906108319190610d82565b93505050505b9392505050565b606481565b60016000610851919061178e565b81565b6103e781565b6103e76001600061086b919061178e565b6108759190611592565b81565b6060828260405160200161088d929190611260565b604051602081830303815290604052905092915050565b60606040516020016108b5906112a5565b604051602081830303815290604052905090565b60608383836040516020016108e093929190611203565b60405160208183030381529060405290509392505050565b60606000821415610940576040518060400160405280600181526020017f30000000000000000000000000000000000000000000000000000000000000008152509050610aa0565b600082905060005b6000821461097257808061095b90611862565b915050600a8261096b9190611592565b9150610948565b60008167ffffffffffffffff8111156109b4577f4e487b7100000000000000000000000000000000000000000000000000000000600052604160045260246000fd5b6040519080825280601f01601f1916602001820160405280156109e65781602001600182028036833780820191505090505b5090505b60008514610a99576001826109ff919061178e565b9150600a85610a0e91906118ab565b6030610a1a919061153c565b60f81b818381518110610a56577f4e487b7100000000000000000000000000000000000000000000000000000000600052603260045260246000fd5b60200101907effffffffffffffffffffffffffffffffffffffffffffffffffffffffffffff1916908160001a905350600a85610a929190611592565b94506109ea565b8093505050505b919050565b60606000825190506000811415610ace5760405180602001604052806000815250915050610c5e565b60006003600283610adf919061153c565b610ae99190611592565b6004610af59190611734565b90506000602082610b06919061153c565b67ffffffffffffffff811115610b45577f4e487b7100000000000000000000000000000000000000000000000000000000600052604160045260246000fd5b6040519080825280601f01601f191660200182016040528015610b775781602001600182028036833780820191505090505b50905060006040518060600160405280604081526020016143b1604091399050600181016020830160005b86811015610c1b5760038101905062ffffff818a015116603f8160121c168401518060081b905060ff603f83600c1c1686015116810190508060081b905060ff603f8360061c1686015116810190508060081b905060ff603f831686015116810190508060e01b90508084526004840193505050610ba2565b506003860660018114610c355760028114610c4557610c50565b613d3d60f01b6002830352610c50565b603d60f81b60018303525b508484525050819450505050505b919050565b60405180604001604052806002905b6060815260200190600190039081610c725790505090565b6000610c9d610c9884611480565b61145b565b9050808260005b85811015610cd45781518501610cba8882610d43565b845260208401935060208301925050600181019050610ca4565b5050509392505050565b6000610cf1610cec846114a6565b61145b565b905082815260208101848484011115610d0957600080fd5b610d148482856117cc565b509392505050565b600082601f830112610d2d57600080fd5b6002610d3a848285610c8a565b91505092915050565b600082601f830112610d5457600080fd5b8151610d64848260208601610cde565b91505092915050565b600081359050610d7c81614399565b92915050565b600060208284031215610d9457600080fd5b600082015167ffffffffffffffff811115610dae57600080fd5b610dba84828501610d1c565b91505092915050565b600080600060608486031215610dd857600080fd5b6000610de686828701610d6d565b9350506020610df786828701610d6d565b9250506040610e0886828701610d6d565b9150509250925092565b6000610e1e8383610e9b565b905092915050565b6000610e31826114e1565b610e3b8185611504565b935083602082028501610e4d856114d7565b8060005b85811015610e895784840389528151610e6a8582610e12565b9450610e75836114f7565b925060208a01995050600181019050610e51565b50829750879550505050505092915050565b6000610ea6826114ec565b610eb0818561150f565b9350610ec08185602086016117cc565b610ec981611998565b840191505092915050565b6000610edf826114ec565b610ee98185611520565b9350610ef98185602086016117cc565b610f0281611998565b840191505092915050565b6000610f18826114ec565b610f228185611531565b9350610f328185602086016117cc565b80840191505092915050565b6000610f4b605383611531565b9150610f56826119b6565b605382019050919050565b6000610f6e601383611531565b9150610f7982611a2b565b601382019050919050565b6000610f91608783611531565b9150610f9c82611a54565b608782019050919050565b6000610fb460a383611531565b9150610fbf82611b15565b60a382019050919050565b6000610fd7605d83611531565b9150610fe282611bfc565b605d82019050919050565b6000610ffa602983611531565b915061100582611c71565b602982019050919050565b600061101d600183611531565b915061102882611cc0565b600182019050919050565b6000611040608883611531565b915061104b82611ce9565b608882019050919050565b6000611063600283611531565b915061106e82611daa565b600282019050919050565b6000611086600783611531565b915061109182611dd3565b600782019050919050565b60006110aa611c6083611531565b91506110b582611dfc565b611c6082019050919050565b60006110ce607383611531565b91506110d98261408c565b607382019050919050565b60006110f1601983611531565b91506110fc82614127565b601982019050919050565b6000611114601d83611531565b915061111f82614150565b601d82019050919050565b600061113760eb83611531565b915061114282614179565b60eb82019050919050565b600061115a606483611531565b9150611165826142ac565b606482019050919050565b600061117d600683611531565b915061118882614347565b600682019050919050565b60006111a0600e83611531565b91506111ab82614370565b600e82019050919050565b6111bf816117c2565b82525050565b6111ce816117c2565b82525050565b60006111e08285610f0d565b91506111eb82611010565b91506111f78284610f0d565b91508190509392505050565b600061120e82610fa7565b915061121a8286610f0d565b915061122582611033565b91506112318285610f0d565b915061123c82610f84565b91506112488284610f0d565b9150611253826110c1565b9150819050949350505050565b600061126b82610fca565b91506112778285610f0d565b91506112828261114d565b915061128e8284610f0d565b915061129982611079565b91508190509392505050565b60006112b08261109c565b9150819050919050565b60006112c5826110e4565b91506112d18287610f0d565b91506112dc82610f61565b91506112e88286610f0d565b91506112f382610f3e565b91506112ff8285610f0d565b915061130a82610fed565b91506113168284610f0d565b915061132182611056565b915081905095945050505050565b600061133a82611107565b91506113468284610f0d565b915081905092915050565b600061135c8261112a565b91506113688286610f0d565b91506113748285610f0d565b91506113808284610f0d565b915061138b82611170565b9150819050949350505050565b60006113a382611193565b91506113af8287610f0d565b91506113bb8286610f0d565b91506113c78285610f0d565b91506113d38284610f0d565b915081905095945050505050565b600060208201905081810360008301526113fb8184610e26565b905092915050565b6000602082019050818103600083015261141d8184610ed4565b905092915050565b600060208201905061143a60008301846111c5565b92915050565b600060208201905061145560008301846111b6565b92915050565b6000611465611476565b90506114718282611831565b919050565b6000604051905090565b600067ffffffffffffffff82111561149b5761149a611969565b5b602082029050919050565b600067ffffffffffffffff8211156114c1576114c0611969565b5b6114ca82611998565b9050602081019050919050565b6000819050919050565b600060029050919050565b600081519050919050565b6000602082019050919050565b600081905092915050565b600082825260208201905092915050565b600082825260208201905092915050565b600081905092915050565b6000611547826117c2565b9150611552836117c2565b9250827fffffffffffffffffffffffffffffffffffffffffffffffffffffffffffffffff03821115611587576115866118dc565b5b828201905092915050565b600061159d826117c2565b91506115a8836117c2565b9250826115b8576115b761190b565b5b828204905092915050565b6000808291508390505b600185111561160d578086048111156115e9576115e86118dc565b5b60018516156115f85780820291505b8081029050611606856119a9565b94506115cd565b94509492505050565b6000611621826117c2565b915061162c836117c2565b92506116597fffffffffffffffffffffffffffffffffffffffffffffffffffffffffffffffff8484611661565b905092915050565b600082611671576001905061172d565b8161167f576000905061172d565b8160018114611695576002811461169f576116ce565b600191505061172d565b60ff8411156116b1576116b06118dc565b5b8360020a9150848211156116c8576116c76118dc565b5b5061172d565b5060208310610133831016604e8410600b84101617156117035782820a9050838111156116fe576116fd6118dc565b5b61172d565b61171084848460016115c3565b92509050818404811115611727576117266118dc565b5b81810290505b9392505050565b600061173f826117c2565b915061174a836117c2565b9250817fffffffffffffffffffffffffffffffffffffffffffffffffffffffffffffffff0483118215151615611783576117826118dc565b5b828202905092915050565b6000611799826117c2565b91506117a4836117c2565b9250828210156117b7576117b66118dc565b5b828203905092915050565b6000819050919050565b60005b838110156117ea5780820151818401526020810190506117cf565b838111156117f9576000848401525b50505050565b6000600282049050600182168061181757607f821691505b6020821081141561182b5761182a61193a565b5b50919050565b61183a82611998565b810181811067ffffffffffffffff8211171561185957611858611969565b5b80604052505050565b600061186d826117c2565b91507fffffffffffffffffffffffffffffffffffffffffffffffffffffffffffffffff8214156118a05761189f6118dc565b5b600182019050919050565b60006118b6826117c2565b91506118c1836117c2565b9250826118d1576118d061190b565b5b828206905092915050565b7f4e487b7100000000000000000000000000000000000000000000000000000000600052601160045260246000fd5b7f4e487b7100000000000000000000000000000000000000000000000000000000600052601260045260246000fd5b7f4e487b7100000000000000000000000000000000000000000000000000000000600052602260045260246000fd5b7f4e487b7100000000000000000000000000000000000000000000000000000000600052604160045260246000fd5b6000601f19601f8301169050919050565b60008160011c9050919050565b7f222c202261747472696275746573223a205b7b22646973706c61795f7479706560008201527f223a202264617465222c202274726169745f74797065223a2022466f7274756e60208201527f652044617465222c202276616c7565223a202200000000000000000000000000604082015250565b7f222c20226465736372697074696f6e223a202200000000000000000000000000600082015250565b7f273e3c616e696d617465206174747269627574654e616d653d276f666673657460008201527f27206475723d27353073272076616c7565733d27302e33303b302e383b302e3360208201527f302720726570656174436f756e743d27696e646566696e697465272f3e3c2f7360408201527f746f703e3c73746f70206f66667365743d273127207374796c653d2773746f7060608201527f2d636f6c6f723a00000000000000000000000000000000000000000000000000608082015250565b7f3c72616469616c4772616469656e742069643d2761272063783d27323030272060008201527f63793d272d3130302720723d273239302e30323527206772616469656e74547260208201527f616e73666f726d3d276d6174726978283120302030202d31203020373629272060408201527f6772616469656e74556e6974733d277573657253706163654f6e557365273e3c60608201527f73746f70206f66667365743d272e3227207374796c653d2773746f702d636f6c60808201527f6f723a000000000000000000000000000000000000000000000000000000000060a082015250565b7f3c7465787420783d273438252720793d2735302527207472616e73666f726d3d60008201527f27726f74617465282d33292720646f6d696e616e742d626173656c696e653d2760208201527f6d6964646c652720746578742d616e63686f723d276d6964646c65273e000000604082015250565b7f227d5d2c2022696d616765223a2022646174613a696d6167652f7376672b786d60008201527f6c3b6261736536342c0000000000000000000000000000000000000000000000602082015250565b7f2000000000000000000000000000000000000000000000000000000000000000600082015250565b7f273e3c616e696d617465206174747269627574654e616d653d276f666673657460008201527f27206475723d27353073272076616c7565733d27302e30313b302e343b302e3060208201527f312720726570656174436f756e743d27696e646566696e697465272f3e3c2f7360408201527f746f703e3c73746f70206f66667365743d272e3827207374796c653d2773746f60608201527f702d636f6c6f723a000000000000000000000000000000000000000000000000608082015250565b7f227d000000000000000000000000000000000000000000000000000000000000600082015250565b7f3c2f746578743e00000000000000000000000000000000000000000000000000600082015250565b7f3c706174682066696c6c3d2775726c282361292720643d274d3020306834303060008201527f7634303048307a272f3e3c7061746820643d274d3338322e313238203233352e60208201527f3832367332352e3031332d322e38353920362e3032332d32322e36313563302060408201527f302d34312e3235392d33342e3131332d37302e3238332d35342e32362d31322e60608201527f3335362d382e3537362d31332e3334322d31322e35372d31362e3833362d313460808201527f2e3636366c2e3038352e323534732d2e30342d312e3337382d312e383134203160a08201527f342e313637632d322e3331352032302e3237332d31302e3533322033372e343460c08201527f322d32302e3933382036342e3231332d362e3133332031352e3737372d31332e60e08201527f3130332032392e3632322d31332e3130332032392e363232732d2e37373220326101008201527f2e32353720312e36303520332e31353863322e3337372e3920362e3838322e306101208201527f393720362e3838322e3039377337302e3531322d362e333539203131302e35316101408201527f362d32302e343436272066696c6c3d2723646538373236272066696c6c2d72756101608201527f6c653d276576656e6f646427207374726f6b653d2723646538373236272073746101808201527f726f6b652d77696474683d272e3634342720766563746f726e61746f723a6c616101a08201527f7965724e616d653d27436f6f6b696520522e272f3e3c672066696c6c2d72756c6101c08201527f653d276576656e6f646427207374726f6b652d77696474683d272e36343427206101e08201527f766563746f726e61746f723a6c617965724e616d653d275269676874204643276102008201527f3e3c7061746820643d274d3236362e3434203235352e3830377333332e3035366102208201527f2d31382e3233372033372e3637362d32312e30373863392e3137342d352e36336102408201527f382031392e3533312d31362e3437382033382e3635312d31372e3832352031336102608201527f2e3938332d2e3938352034342e35363520372e3239332035302e3735392031326102808201527f2e3430382030203020322e38323420322e3834392d392e31353420362e37312d6102a08201527f31312e393820332e3836312d33342e37313720382e3730342d35302e303835206102c08201527f31312e3837392d31382e353420332e3832392d34332e38323520362e3738312d6102e08201527f35372e32363520372e3831352d392e3636312e3734342d31302e36322e3035356103008201527f2d31302e36322e303535272066696c6c3d272366376235353827206f706163696103208201527f74793d272e363827207374726f6b653d2723663762353538272f3e3c706174686103408201527f20643d274d3331392e323034203233392e383338632d31392e31333520372e376103608201527f37382d32342e36333520312e3130342d32342e36333520312e3130342d31362e6103808201527f3431382d33352e3731372031352e3939342d38362e3933312031352e3939342d6103a08201527f38362e3933312d322e3236312d312e3931342d392e3535362d31302e3333362d6103c08201527f392e3535362d31302e333336732d312e3538312032322e3239322d392e3230336103e08201527f2034322e333533632d362e3833362031372e3939312d31322e3131372033352e6104008201527f3733372d32352e3533352036342e393031203020302d332e3420342e323135206104208201527f312e3720352e343834203020302034312e3533392d332e3235392037312e33356104408201527f2d392e3330322032392e3536352d352e3939322034362e3930352d31322e32316104608201527f352034362e3930352d31322e3231352031352e3335372d332e383620362e34326104808201527f352d31362e31363520362e3432352d31362e3136352d392e30322031332e33336104a08201527f332d32322e3933362031312e3032332d32322e3933362031312e3032332d33326104c08201527f2e3936312d312e3438322d35302e3438392031302e3039392d35302e343839206104e08201527f31302e303939272066696c6c3d272361623664343027206f7061636974793d276105008201527f2e35333127207374726f6b653d2723616236643430272f3e3c2f673e3c7061746105208201527f6820643d274d3338362e313031203231312e343033732d31342e39383420312e6105408201527f3734322d33392e30392d31372e313136632d31322e3139332d392e3533382d336105608201527f392e3437342d33312e3934332d34362e3138322d35302e383936203020302d316105808201527f2e3838362d312e36353420362e34383520362e373820372e32393120372e33346105a08201527f372032342e3731372031382e3235312033352e38352032372e303635613138366105c08201527f32302e3236342031383632302e3236342030203020312034322e3931332033346105e08201527f2e313038272066696c6c3d2723666165626365272066696c6c2d72756c653d276106008201527f6576656e6f646427206f7061636974793d272e35303627207374726f6b653d276106208201527f2366616562636527207374726f6b652d77696474683d272e36343427207665636106408201527f746f726e61746f723a6c617965724e616d653d274f66662077686974652066636106608201527f272f3e3c6720766563746f726e61746f723a6c617965724e616d653d2752696d6106808201527f207269676874206663272066696c6c2d72756c653d276576656e6f64642720736106a08201527f74726f6b652d77696474683d272e363434273e3c7061746820643d274d3239386106c08201527f2e303632203134322e383132632d2e3638322e3132352d312e3530392e3434356106e08201527f2d322e34363820312e303633203020302d33322e3333362032362e3934382d336107008201527f362e3430362033302e3231392d2e3138382e31352d32362e3831332032372e316107208201527f393220362e3539332038312e3437372e3032392d2e3130372031372e36322d346107408201527f302e3337342032352e3934362d36362e353320382e3430382d32362e343135206107608201527f392e3231312d34352e323620392e3231312d34352e3236732d2e3832392d312e6107808201527f3334312d322e3837362d2e3936395a272066696c6c3d272366376235353827206107a08201527f6f7061636974793d272e38323627207374726f6b653d2723663762353538272f6107c08201527f3e3c7061746820643d274d3235362e3433203138342e30373163352e3237312d6107e08201527f372e3830372034302e3231382d33372e3031322034302e3231382d33372e30316108008201527f32732d312e3132362032332e3833332d31312e3034322034342e383338632d316108208201527f302e3334332032312e3930372d32302e3635322035342e3332382d32302e36356108408201527f322035342e333238732d382e3331322d31352e3236362d31312e3034342d32386108608201527f2e343836632d322e3733312d31332e32322d322e3034372d32372e33373620326108808201527f2e3533392d33332e373139272066696c6c3d272362343738346327206f7061636108a08201527f6974793d272e37313527207374726f6b653d2723623437383463272f3e3c2f676108c08201527f3e3c672066696c6c2d72756c653d276576656e6f646427207374726f6b653d276108e08201527f2362633562303827207374726f6b652d77696474683d272e36343427207665636109008201527f746f726e61746f723a6c617965724e616d653d2744657461696c732052273e3c6109208201527f7061746820643d274d3332332e3938203136372e303131732d312e30343620356109408201527f2e3234352d362e38303520362e3137326d31322e3333372d2e353673312e36326109608201527f3820322e38322d312e373420352e3231316d33312e31352031372e35313673316109808201527f2e39343120342e3230342d352e33303920382e31366d31312e3239362d342e326109a08201527f3836732e32363620342e3634352d342e35333920362e3238376d372e3932382d6109c08201527f332e33313573322e30303420342e3837322d322e34383520382e3335356d2d376109e08201527f302e3134392032352e33373873352e3738352d312e30353520352e3731382035610a008201527f2e303632272066696c6c3d276e6f6e65272f3e3c7061746820643d274d333332610a208201527f2e323132203139332e34373663302d2e3434332e3239332d2e3830332e363533610a408201527f2d2e3830332e3336312030202e3635332e33362e3635332e3830332030202e34610a608201527f34332d2e3239322e3830332d2e3635332e3830332d2e333620302d2e3635332d610a808201527f2e33362d2e3635332d2e3830335a6d31382e3239382d332e39313763302d2e35610aa08201527f39322e3237352d312e3037322e3631342d312e3037322e33342030202e363134610ac08201527f2e34382e36313420312e3037322030202e3539312d2e32373420312e3037312d610ae08201527f2e36313420312e3037312d2e33333920302d2e3631342d2e34382d2e3631342d610b008201527f312e3037315a6d2d31312e3630382d372e35383263302d2e3638342e3331322d610b208201527f312e3233382e3639382d312e3233382e3338362030202e3639382e3535342e36610b408201527f393820312e3233382030202e3638332d2e33313220312e3233372d2e36393820610b608201527f312e3233372d2e33383620302d2e3639382d2e3535342d2e3639382d312e3233610b808201527f375a6d2d32302e3433362d2e36353563302d2e3933322e3339392d312e363837610ba08201527f2e3839312d312e363837732e3839312e3735352e38393120312e363837633020610bc08201527f2e3933312d2e33393920312e3638362d2e38393120312e363836732d2e383931610be08201527f2d2e3735352d2e3839312d312e3638365a6d2d33352e3535322035392e353637610c008201527f63302d312e3337362e3434322d322e3439322e3938382d322e3439322e353435610c208201527f2030202e39383720312e3131362e39383720322e343932203020312e3337372d610c408201527f2e34343220322e3439322d2e39383720322e3439322d2e35343620302d2e3938610c608201527f382d312e3131352d2e3938382d322e3439325a6d2d32332e3731382e36383763610c808201527f302d312e3030332e34362d312e38313620312e3032382d312e3831362e353637610ca08201527f203020312e3032372e38313320312e30323720312e383136203020312e303033610cc08201527f2d2e343620312e3831362d312e30323720312e3831362d2e35363820302d312e610ce08201527f3032382d2e3831332d312e3032382d312e3831365a6d31362e3837342d31392e610d008201527f35363863302d2e3735362e3038362d312e3336392e3139322d312e3336392e31610d208201527f30362030202e3139322e3631332e31393220312e3336392030202e3735372d2e610d408201527f30383620312e33372d2e31393220312e33372d2e31303620302d2e3139322d2e610d608201527f3631332d2e3139322d312e33375a272066696c6c3d272362633562303827206f610d808201527f7061636974793d272e353331272f3e3c2f673e3c7061746820643d276d31322e610da08201527f343239203231372e3934372d322e35303920322e313635632d31382e34362031610dc08201527f382e38393220372e3238352032312e34363220372e3238352032312e34363220610de08201527f32322e36383620352e3731322036352e3733342031312e3534372038332e3235610e008201527f2031332e3435392033322e35313320332e3535312033322e35312d2e38333920610e208201527f33322e35312d2e3833396c2e3037372d2e3431332d33372e3034362d3130382e610e408201527f3239342d2e3139362d2e323233732d322e32352d312e3539352d392e31333520610e608201527f372e3133316c312e3531342d312e3936374c392e3932203232302e3131322720610e808201527f66696c6c3d2723646538373236272066696c6c2d72756c653d276576656e6f64610ea08201527f6427207374726f6b653d272364653837323627207374726f6b652d7769647468610ec08201527f3d272e3634342720766563746f726e61746f723a6c617965724e616d653d2743610ee08201527f6f6f6b6965204c2e272f3e3c672066696c6c2d72756c653d276576656e6f6464610f008201527f27207374726f6b652d77696474683d272e3634342720766563746f726e61746f610f208201527f723a6c617965724e616d653d274c656674204643273e3c7061746820643d274d610f408201527f37312e3934203232382e393833632d32362e37362d31332e3631392d34362e38610f608201527f332d312e3533322d34362e38332d312e3533327333362e39303620352e383433610f808201527f2035372e3332362032352e353232633020302032372e36393120342e38313320610fa08201527f34302e36363920332e3636342031322e3533392d312e3131312031312e303132610fc08201527f2d322e35362031312e3031322d322e3536732d33352e35312d362e34362d3632610fe08201527f2e3330312d32352e313134272066696c6c3d272366376235353827206f7061636110008201527f6974793d272e37313527207374726f6b653d2723663762353538272f3e3c70616110208201527f746820643d274d38382e333937203235332e3639394332372e3533203230372e6110408201527f30313620332e333037203233342e37373920342e3236203233352e33632e32346110608201527f372e3133352d2e34323320332e3739352031342e38303920372e3334362032326110808201527f2e34323820352e32332036392e3536372031312e3037372036392e35363720316110a08201527f312e303737272066696c6c3d272361623664343027206f7061636974793d272e6110c08201527f35323527207374726f6b653d2723623437383463272f3e3c2f673e3c706174686110e08201527f20643d274d31302e383735203231392e3131356334362e3238332d342e3035206111008201527f38322e3239362d37332e35342038322e3239362d37332e3534682e3034386c2d6111208201527f38322e3333352037332e353632272066696c6c3d2723666165626365272066696111408201527f6c6c2d72756c653d276576656e6f646427206f7061636974793d272e353036276111608201527f207374726f6b653d272366616562636527207374726f6b652d77696474683d276111808201527f2e3634342720766563746f726e61746f723a6c617965724e616d653d274f66666111a08201527f207768697465206663204c272f3e3c672066696c6c2d72756c653d276576656e6111c08201527f6f646427207374726f6b652d77696474683d272e3634342720766563746f726e6111e08201527f61746f723a6c617965724e616d653d274c2066632072696d273e3c70617468206112008201527f643d276d3130392e343732203135342e3837362d2e3039352d2e323033632d336112208201527f302e3532382d32362e3838362d392e31392031312e3036332d392e31392031316112408201527f2e30363373382e39382031372e3230352031362e32392034352e30333963342e6112608201527f3830352031382e32393220362e3532322032302e323520372e3432312032362e6112808201527f3835372030203020382e3833312034322e3130392031392e3132382d352e33306112a08201527f366c362e3734342d34302e353333632e3537362d31342e3634372d34302e34356112c08201527f382d33362e3930372d34302e3435382d33362e393037272066696c6c3d2723666112e08201527f376235353827206f7061636974793d272e38333327207374726f6b653d2723666113008201527f3762353538272f3e3c7061746820643d274d3134362e373735203138382e34306113208201527f38732d322e3734372032352e3737362d372e3134342033382e373832632d342e6113408201527f3539352031332e3538382d352e3430382031392e3335312d352e3430382031396113608201527f2e333531732d352e3932392d32302e3531332d31332e3434332d34352e3835316113808201527f632d372e3236332d32342e3439312d32302e3837372d35302e3339352d32302e6113a08201527f3837372d35302e33393573392e393520372e3733392032332e3838362031382e6113c08201527f3933396331302e36363920382e3537342032322e3938362031392e31373420326113e08201527f322e3938362031392e3137345a272066696c6c3d272362343738346327206f706114008201527f61636974793d272e37313527207374726f6b653d2723623437383463272f3e3c6114208201527f2f673e3c672066696c6c2d72756c653d276576656e6f646427207374726f6b656114408201527f3d272362633562303827207374726f6b652d77696474683d272e3634342720766114608201527f6563746f726e61746f723a6c617965724e616d653d2744657461696c73204c2e6114808201527f273e3c7061746820643d274d3131302e343033203232352e35313673382e35396114a08201527f3620362e3838362e3735322031352e3537366d2d33352e3530382d35392e32336114c08201527f34732d2e3131332d372e3739342d31302e3434382d362e3635334d34312e35356114e08201527f203231312e323438732d332e31382d352e3131332d392e3835312d352e3339386115008201527f6d2d362e3231352031352e313731732d322e3032342d342e3931382d372e38336115208201527f352d342e3334366d38372e39362031322e3173332e3738392e34393620312e376115408201527f303920342e393334272066696c6c3d276e6f6e65272f3e3c7061746820643d276115608201527f4d3130322e323736203234382e30353663302d2e3735332e3535362d312e33366115808201527f3320312e3234332d312e33363373312e3234342e363120312e32343420312e336115a08201527f36336330202e3735342d2e35353720312e3336342d312e32343420312e3336346115c08201527f2d2e36383720302d312e3234332d2e36312d312e3234332d312e3336345a6d2d6115e08201527f34372e3933342d36332e34363363302d312e3036362e3439392d312e393320316116008201527f2e3131352d312e393373312e3131352e38363420312e31313520312e393363306116208201527f20312e3036362d2e3520312e39332d312e31313520312e39332d2e36313620306116408201527f2d312e3131352d2e3836342d312e3131352d312e39335a6d2d392e38383920386116608201527f2e37303163302d312e3137352e33332d322e3132382e3733362d322e3132382e6116808201527f3430372030202e3733362e3935332e37333620322e313238203020312e3137356116a08201527f2d2e333320322e3132372d2e37333620322e3132372d2e34303720302d2e37336116c08201527f362d2e3935322d2e3733362d322e3132375a6d35312e3035322033372e3730386116e08201527f63302d312e3039322e3339362d312e3937372e3838352d312e393737732e38386117008201527f352e3838352e38383520312e3937372d2e33393620312e3937372d2e383835206117208201527f312e3937372d2e3838352d2e3838352d2e3838352d312e3937375a6d2d342e346117408201527f30342031332e37313963302d312e31352e3239392d322e3038322e3636372d326117608201527f2e3038322e3336382030202e3636362e3933322e36363620322e303832732d2e6117808201527f32393820322e3038322d2e36363620322e303832632d2e33363820302d2e36366117a08201527f372d2e3933322d2e3636372d322e3038325a4d32352e3831203233302e3033386117c08201527f63302d2e3934362e3331382d312e3731332e3731312d312e3731332e333933206117e08201527f30202e37312e3736372e373120312e3731332030202e3934362d2e33313720316118008201527f2e3731332d2e373120312e3731332d2e33393320302d2e3731312d2e3736372d6118208201527f2e3731312d312e3731335a6d39302e3331332031342e37333463302d2e3936356118408201527f2e3337352d312e3734372e3833382d312e3734372e3436322030202e3833382e6118608201527f3738322e38333820312e3734372030202e3936352d2e33373620312e3734372d6118808201527f2e38333820312e3734372d2e34363320302d2e3833382d2e3738322d2e3833386118a08201527f2d312e3734375a6d362e3933322d37372e39303763302d2e3331342e3732342d6118c08201527f2e35363820312e3631362d2e3536382e383932203020312e3631352e323534206118e08201527f312e3631352e3536382030202e3331342d2e3732332e3536382d312e3631352e6119008201527f353638732d312e3631362d2e3235342d312e3631362d2e3536385a6d2d362e386119208201527f32382033332e36323963302d312e3135382e31332d322e3039382e3238392d326119408201527f2e3039382e31362030202e32392e39342e323920322e303938203020312e31356119608201527f392d2e313320322e3039382d2e323920322e3039382d2e31353920302d2e32386119808201527f392d2e3933392d2e3238392d322e3039385a6d382e3533312032362e313737636119a08201527f302d2e3633382e3136332d312e3135342e3336332d312e3135342e32303120306119c08201527f202e3336332e3531362e33363320312e3135342030202e3633372d2e313632206119e08201527f312e3135332d2e33363320312e3135332d2e3220302d2e3336332d2e3531362d611a008201527f2e3336332d312e3135335a6d2d32362e3130342d37312e33303563302d2e3338611a208201527f382e3039372d2e3730332e3231362d2e373033732e3231352e3331352e323135611a408201527f2e3730336330202e3338392d2e3039362e3730342d2e3231352e3730342d2e31611a608201527f3220302d2e3231362d2e3331352d2e3231362d2e3730345a6d2d32372e343332611a808201527f2037332e36343263302d2e3935382e34372d312e37333420312e30352d312e37611aa08201527f33342e3538203020312e30352e37373620312e303520312e3733342030202e39611ac08201527f35372d2e343720312e3733342d312e303520312e3733342d2e353820302d312e611ae08201527f30352d2e3737372d312e30352d312e3733345a272066696c6c3d272362633562611b008201527f303827206f7061636974793d272e363031272f3e3c2f673e3c7061746820643d611b208201527f274d3239322e323733203137332e333936632d31332e3534392d352e3036322d611b408201527f3137362e3639372031312e3935332d3137362e3639372031312e3935336c3133611b608201527f2e3037312034322e3137366331322e3430322d332e363035203134372e373332611b808201527f2d31332e353536203134372e3733322d31332e35353673372e3636382d31372e611ba08201527f3039332031312e3430352d32362e38383463332e3733382d392e37393220342e611bc08201527f3535322d31332e35363720342e3535322d31332e353637272066696c6c3d2723611be08201527f666666272066696c6c2d72756c653d276576656e6f646427207374726f6b653d611c008201527f272366336631663927207374726f6b652d77696474683d272e36343427207665611c208201527f63746f726e61746f723a6c617965724e616d653d274643205061706572272f3e611c4082015250565b7f273e3c616e696d617465206174747269627574654e616d653d276f666673657460008201527f27206475723d27353073272076616c7565733d27302e36383b313b302e36382760208201527f20726570656174436f756e743d27696e646566696e697465272f3e3c2f73746f60408201527f703e3c2f72616469616c4772616469656e743e00000000000000000000000000606082015250565b7f7b226e616d65223a2022466f7274756e6520436f6f6b79202300000000000000600082015250565b7f646174613a6170706c69636174696f6e2f6a736f6e3b6261736536342c000000600082015250565b7f3c737667207374726f6b652d6d697465726c696d69743d27313027207374796c60008201527f653d2766696c6c2d72756c653a6e6f6e7a65726f3b636c69702d72756c653a6560208201527f76656e6f64643b7374726f6b652d6c696e656361703a726f756e643b7374726f60408201527f6b652d6c696e656a6f696e3a726f756e64272076696577426f783d273020302060608201527f343030203430302720786d6c3a73706163653d2770726573657276652720786d60808201527f6c6e733d27687474703a2f2f7777772e77332e6f72672f323030302f7376672760a08201527f20786d6c6e733a766563746f726e61746f723d27687474703a2f2f766563746f60c08201527f726e61746f722e696f273e00000000000000000000000000000000000000000060e082015250565b7f3c2f746578743e3c7465787420783d273438252720793d27353425272074726160008201527f6e73666f726d3d27726f74617465282d33292720646f6d696e616e742d62617360208201527f656c696e653d276d6964646c652720746578742d616e63686f723d276d69646460408201527f6c65273e00000000000000000000000000000000000000000000000000000000606082015250565b7f3c2f7376673e0000000000000000000000000000000000000000000000000000600082015250565b7f4e414e5550414e44415f4c414253000000000000000000000000000000000000600082015250565b6143a2816117c2565b81146143ad57600080fd5b5056fe4142434445464748494a4b4c4d4e4f505152535455565758595a6162636465666768696a6b6c6d6e6f707172737475767778797a303132333435363738392b2fa26469706673582212208bbf5a1020fb074464cd533335f2d6ec856b32b785e6a8b914e80c52e00ceae764736f6c63430008020033",
          "opcodes": "PUSH1 0x80 PUSH1 0x40 MSTORE PUSH1 0x40 MLOAD DUP1 PUSH2 0x140 ADD PUSH1 0x40 MSTORE DUP1 PUSH1 0x40 MLOAD DUP1 PUSH1 0x40 ADD PUSH1 0x40 MSTORE DUP1 PUSH1 0x7 DUP2 MSTORE PUSH1 0x20 ADD PUSH32 0x2366336563636200000000000000000000000000000000000000000000000000 DUP2 MSTORE POP DUP2 MSTORE PUSH1 0x20 ADD PUSH1 0x40 MLOAD DUP1 PUSH1 0x40 ADD PUSH1 0x40 MSTORE DUP1 PUSH1 0x7 DUP2 MSTORE PUSH1 0x20 ADD PUSH32 0x2366666433393900000000000000000000000000000000000000000000000000 DUP2 MSTORE POP DUP2 MSTORE PUSH1 0x20 ADD PUSH1 0x40 MLOAD DUP1 PUSH1 0x40 ADD PUSH1 0x40 MSTORE DUP1 PUSH1 0x7 DUP2 MSTORE PUSH1 0x20 ADD PUSH32 0x2361636363653400000000000000000000000000000000000000000000000000 DUP2 MSTORE POP DUP2 MSTORE PUSH1 0x20 ADD PUSH1 0x40 MLOAD DUP1 PUSH1 0x40 ADD PUSH1 0x40 MSTORE DUP1 PUSH1 0x7 DUP2 MSTORE PUSH1 0x20 ADD PUSH32 0x2362346263643700000000000000000000000000000000000000000000000000 DUP2 MSTORE POP DUP2 MSTORE PUSH1 0x20 ADD PUSH1 0x40 MLOAD DUP1 PUSH1 0x40 ADD PUSH1 0x40 MSTORE DUP1 PUSH1 0x7 DUP2 MSTORE PUSH1 0x20 ADD PUSH32 0x2363626166326500000000000000000000000000000000000000000000000000 DUP2 MSTORE POP DUP2 MSTORE PUSH1 0x20 ADD PUSH1 0x40 MLOAD DUP1 PUSH1 0x40 ADD PUSH1 0x40 MSTORE DUP1 PUSH1 0x7 DUP2 MSTORE PUSH1 0x20 ADD PUSH32 0x2366393865303000000000000000000000000000000000000000000000000000 DUP2 MSTORE POP DUP2 MSTORE PUSH1 0x20 ADD PUSH1 0x40 MLOAD DUP1 PUSH1 0x40 ADD PUSH1 0x40 MSTORE DUP1 PUSH1 0x7 DUP2 MSTORE PUSH1 0x20 ADD PUSH32 0x2333643836626300000000000000000000000000000000000000000000000000 DUP2 MSTORE POP DUP2 MSTORE PUSH1 0x20 ADD PUSH1 0x40 MLOAD DUP1 PUSH1 0x40 ADD PUSH1 0x40 MSTORE DUP1 PUSH1 0x7 DUP2 MSTORE PUSH1 0x20 ADD PUSH32 0x2335363638613200000000000000000000000000000000000000000000000000 DUP2 MSTORE POP DUP2 MSTORE PUSH1 0x20 ADD PUSH1 0x40 MLOAD DUP1 PUSH1 0x40 ADD PUSH1 0x40 MSTORE DUP1 PUSH1 0x7 DUP2 MSTORE PUSH1 0x20 ADD PUSH32 0x2363366333633200000000000000000000000000000000000000000000000000 DUP2 MSTORE POP DUP2 MSTORE PUSH1 0x20 ADD PUSH1 0x40 MLOAD DUP1 PUSH1 0x40 ADD PUSH1 0x40 MSTORE DUP1 PUSH1 0x7 DUP2 MSTORE PUSH1 0x20 ADD PUSH32 0x2362356230616600000000000000000000000000000000000000000000000000 DUP2 MSTORE POP DUP2 MSTORE POP PUSH1 0x0 SWAP1 PUSH1 0xA PUSH3 0x26E SWAP3 SWAP2 SWAP1 PUSH3 0x759 JUMP JUMPDEST POP PUSH1 0x40 MLOAD DUP1 PUSH2 0x140 ADD PUSH1 0x40 MSTORE DUP1 PUSH1 0x40 MLOAD DUP1 PUSH1 0x40 ADD PUSH1 0x40 MSTORE DUP1 PUSH1 0x7 DUP2 MSTORE PUSH1 0x20 ADD PUSH32 0x2366336563636200000000000000000000000000000000000000000000000000 DUP2 MSTORE POP DUP2 MSTORE PUSH1 0x20 ADD PUSH1 0x40 MLOAD DUP1 PUSH1 0x40 ADD PUSH1 0x40 MSTORE DUP1 PUSH1 0x7 DUP2 MSTORE PUSH1 0x20 ADD PUSH32 0x2366666433393900000000000000000000000000000000000000000000000000 DUP2 MSTORE POP DUP2 MSTORE PUSH1 0x20 ADD PUSH1 0x40 MLOAD DUP1 PUSH1 0x40 ADD PUSH1 0x40 MSTORE DUP1 PUSH1 0x7 DUP2 MSTORE PUSH1 0x20 ADD PUSH32 0x2361636363653400000000000000000000000000000000000000000000000000 DUP2 MSTORE POP DUP2 MSTORE PUSH1 0x20 ADD PUSH1 0x40 MLOAD DUP1 PUSH1 0x40 ADD PUSH1 0x40 MSTORE DUP1 PUSH1 0x7 DUP2 MSTORE PUSH1 0x20 ADD PUSH32 0x2362346263643700000000000000000000000000000000000000000000000000 DUP2 MSTORE POP DUP2 MSTORE PUSH1 0x20 ADD PUSH1 0x40 MLOAD DUP1 PUSH1 0x40 ADD PUSH1 0x40 MSTORE DUP1 PUSH1 0x7 DUP2 MSTORE PUSH1 0x20 ADD PUSH32 0x2363626166326500000000000000000000000000000000000000000000000000 DUP2 MSTORE POP DUP2 MSTORE PUSH1 0x20 ADD PUSH1 0x40 MLOAD DUP1 PUSH1 0x40 ADD PUSH1 0x40 MSTORE DUP1 PUSH1 0x7 DUP2 MSTORE PUSH1 0x20 ADD PUSH32 0x2366393865303000000000000000000000000000000000000000000000000000 DUP2 MSTORE POP DUP2 MSTORE PUSH1 0x20 ADD PUSH1 0x40 MLOAD DUP1 PUSH1 0x40 ADD PUSH1 0x40 MSTORE DUP1 PUSH1 0x7 DUP2 MSTORE PUSH1 0x20 ADD PUSH32 0x2333643836626300000000000000000000000000000000000000000000000000 DUP2 MSTORE POP DUP2 MSTORE PUSH1 0x20 ADD PUSH1 0x40 MLOAD DUP1 PUSH1 0x40 ADD PUSH1 0x40 MSTORE DUP1 PUSH1 0x7 DUP2 MSTORE PUSH1 0x20 ADD PUSH32 0x2335363638613200000000000000000000000000000000000000000000000000 DUP2 MSTORE POP DUP2 MSTORE PUSH1 0x20 ADD PUSH1 0x40 MLOAD DUP1 PUSH1 0x40 ADD PUSH1 0x40 MSTORE DUP1 PUSH1 0x7 DUP2 MSTORE PUSH1 0x20 ADD PUSH32 0x2363366333633200000000000000000000000000000000000000000000000000 DUP2 MSTORE POP DUP2 MSTORE PUSH1 0x20 ADD PUSH1 0x40 MLOAD DUP1 PUSH1 0x40 ADD PUSH1 0x40 MSTORE DUP1 PUSH1 0x7 DUP2 MSTORE PUSH1 0x20 ADD PUSH32 0x2362356230616600000000000000000000000000000000000000000000000000 DUP2 MSTORE POP DUP2 MSTORE POP PUSH1 0x1 SWAP1 PUSH1 0xA PUSH3 0x4D9 SWAP3 SWAP2 SWAP1 PUSH3 0x759 JUMP JUMPDEST POP PUSH1 0x40 MLOAD DUP1 PUSH2 0x140 ADD PUSH1 0x40 MSTORE DUP1 PUSH1 0x40 MLOAD DUP1 PUSH1 0x40 ADD PUSH1 0x40 MSTORE DUP1 PUSH1 0x7 DUP2 MSTORE PUSH1 0x20 ADD PUSH32 0x2366336563636200000000000000000000000000000000000000000000000000 DUP2 MSTORE POP DUP2 MSTORE PUSH1 0x20 ADD PUSH1 0x40 MLOAD DUP1 PUSH1 0x40 ADD PUSH1 0x40 MSTORE DUP1 PUSH1 0x7 DUP2 MSTORE PUSH1 0x20 ADD PUSH32 0x2366666433393900000000000000000000000000000000000000000000000000 DUP2 MSTORE POP DUP2 MSTORE PUSH1 0x20 ADD PUSH1 0x40 MLOAD DUP1 PUSH1 0x40 ADD PUSH1 0x40 MSTORE DUP1 PUSH1 0x7 DUP2 MSTORE PUSH1 0x20 ADD PUSH32 0x2361636363653400000000000000000000000000000000000000000000000000 DUP2 MSTORE POP DUP2 MSTORE PUSH1 0x20 ADD PUSH1 0x40 MLOAD DUP1 PUSH1 0x40 ADD PUSH1 0x40 MSTORE DUP1 PUSH1 0x7 DUP2 MSTORE PUSH1 0x20 ADD PUSH32 0x2362346263643700000000000000000000000000000000000000000000000000 DUP2 MSTORE POP DUP2 MSTORE PUSH1 0x20 ADD PUSH1 0x40 MLOAD DUP1 PUSH1 0x40 ADD PUSH1 0x40 MSTORE DUP1 PUSH1 0x7 DUP2 MSTORE PUSH1 0x20 ADD PUSH32 0x2363626166326500000000000000000000000000000000000000000000000000 DUP2 MSTORE POP DUP2 MSTORE PUSH1 0x20 ADD PUSH1 0x40 MLOAD DUP1 PUSH1 0x40 ADD PUSH1 0x40 MSTORE DUP1 PUSH1 0x7 DUP2 MSTORE PUSH1 0x20 ADD PUSH32 0x2366393865303000000000000000000000000000000000000000000000000000 DUP2 MSTORE POP DUP2 MSTORE PUSH1 0x20 ADD PUSH1 0x40 MLOAD DUP1 PUSH1 0x40 ADD PUSH1 0x40 MSTORE DUP1 PUSH1 0x7 DUP2 MSTORE PUSH1 0x20 ADD PUSH32 0x2333643836626300000000000000000000000000000000000000000000000000 DUP2 MSTORE POP DUP2 MSTORE PUSH1 0x20 ADD PUSH1 0x40 MLOAD DUP1 PUSH1 0x40 ADD PUSH1 0x40 MSTORE DUP1 PUSH1 0x7 DUP2 MSTORE PUSH1 0x20 ADD PUSH32 0x2335363638613200000000000000000000000000000000000000000000000000 DUP2 MSTORE POP DUP2 MSTORE PUSH1 0x20 ADD PUSH1 0x40 MLOAD DUP1 PUSH1 0x40 ADD PUSH1 0x40 MSTORE DUP1 PUSH1 0x7 DUP2 MSTORE PUSH1 0x20 ADD PUSH32 0x2363366333633200000000000000000000000000000000000000000000000000 DUP2 MSTORE POP DUP2 MSTORE PUSH1 0x20 ADD PUSH1 0x40 MLOAD DUP1 PUSH1 0x40 ADD PUSH1 0x40 MSTORE DUP1 PUSH1 0x7 DUP2 MSTORE PUSH1 0x20 ADD PUSH32 0x2362356230616600000000000000000000000000000000000000000000000000 DUP2 MSTORE POP DUP2 MSTORE POP PUSH1 0x2 SWAP1 PUSH1 0xA PUSH3 0x744 SWAP3 SWAP2 SWAP1 PUSH3 0x759 JUMP JUMPDEST POP CALLVALUE DUP1 ISZERO PUSH3 0x752 JUMPI PUSH1 0x0 DUP1 REVERT JUMPDEST POP PUSH3 0x943 JUMP JUMPDEST DUP3 DUP1 SLOAD DUP3 DUP3 SSTORE SWAP1 PUSH1 0x0 MSTORE PUSH1 0x20 PUSH1 0x0 KECCAK256 SWAP1 DUP2 ADD SWAP3 DUP3 ISZERO PUSH3 0x7AD JUMPI SWAP2 PUSH1 0x20 MUL DUP3 ADD JUMPDEST DUP3 DUP2 GT ISZERO PUSH3 0x7AC JUMPI DUP3 MLOAD DUP3 SWAP1 DUP1 MLOAD SWAP1 PUSH1 0x20 ADD SWAP1 PUSH3 0x79B SWAP3 SWAP2 SWAP1 PUSH3 0x7C0 JUMP JUMPDEST POP SWAP2 PUSH1 0x20 ADD SWAP2 SWAP1 PUSH1 0x1 ADD SWAP1 PUSH3 0x77A JUMP JUMPDEST JUMPDEST POP SWAP1 POP PUSH3 0x7BC SWAP2 SWAP1 PUSH3 0x851 JUMP JUMPDEST POP SWAP1 JUMP JUMPDEST DUP3 DUP1 SLOAD PUSH3 0x7CE SWAP1 PUSH3 0x8DE JUMP JUMPDEST SWAP1 PUSH1 0x0 MSTORE PUSH1 0x20 PUSH1 0x0 KECCAK256 SWAP1 PUSH1 0x1F ADD PUSH1 0x20 SWAP1 DIV DUP2 ADD SWAP3 DUP3 PUSH3 0x7F2 JUMPI PUSH1 0x0 DUP6 SSTORE PUSH3 0x83E JUMP JUMPDEST DUP3 PUSH1 0x1F LT PUSH3 0x80D JUMPI DUP1 MLOAD PUSH1 0xFF NOT AND DUP4 DUP1 ADD OR DUP6 SSTORE PUSH3 0x83E JUMP JUMPDEST DUP3 DUP1 ADD PUSH1 0x1 ADD DUP6 SSTORE DUP3 ISZERO PUSH3 0x83E JUMPI SWAP2 DUP3 ADD JUMPDEST DUP3 DUP2 GT ISZERO PUSH3 0x83D JUMPI DUP3 MLOAD DUP3 SSTORE SWAP2 PUSH1 0x20 ADD SWAP2 SWAP1 PUSH1 0x1 ADD SWAP1 PUSH3 0x820 JUMP JUMPDEST JUMPDEST POP SWAP1 POP PUSH3 0x84D SWAP2 SWAP1 PUSH3 0x879 JUMP JUMPDEST POP SWAP1 JUMP JUMPDEST JUMPDEST DUP1 DUP3 GT ISZERO PUSH3 0x875 JUMPI PUSH1 0x0 DUP2 DUP2 PUSH3 0x86B SWAP2 SWAP1 PUSH3 0x898 JUMP JUMPDEST POP PUSH1 0x1 ADD PUSH3 0x852 JUMP JUMPDEST POP SWAP1 JUMP JUMPDEST JUMPDEST DUP1 DUP3 GT ISZERO PUSH3 0x894 JUMPI PUSH1 0x0 DUP2 PUSH1 0x0 SWAP1 SSTORE POP PUSH1 0x1 ADD PUSH3 0x87A JUMP JUMPDEST POP SWAP1 JUMP JUMPDEST POP DUP1 SLOAD PUSH3 0x8A6 SWAP1 PUSH3 0x8DE JUMP JUMPDEST PUSH1 0x0 DUP3 SSTORE DUP1 PUSH1 0x1F LT PUSH3 0x8BA JUMPI POP PUSH3 0x8DB JUMP JUMPDEST PUSH1 0x1F ADD PUSH1 0x20 SWAP1 DIV SWAP1 PUSH1 0x0 MSTORE PUSH1 0x20 PUSH1 0x0 KECCAK256 SWAP1 DUP2 ADD SWAP1 PUSH3 0x8DA SWAP2 SWAP1 PUSH3 0x879 JUMP JUMPDEST JUMPDEST POP JUMP JUMPDEST PUSH1 0x0 PUSH1 0x2 DUP3 DIV SWAP1 POP PUSH1 0x1 DUP3 AND DUP1 PUSH3 0x8F7 JUMPI PUSH1 0x7F DUP3 AND SWAP2 POP JUMPDEST PUSH1 0x20 DUP3 LT DUP2 EQ ISZERO PUSH3 0x90E JUMPI PUSH3 0x90D PUSH3 0x914 JUMP JUMPDEST JUMPDEST POP SWAP2 SWAP1 POP JUMP JUMPDEST PUSH32 0x4E487B7100000000000000000000000000000000000000000000000000000000 PUSH1 0x0 MSTORE PUSH1 0x22 PUSH1 0x4 MSTORE PUSH1 0x24 PUSH1 0x0 REVERT JUMPDEST PUSH2 0x4426 DUP1 PUSH3 0x953 PUSH1 0x0 CODECOPY PUSH1 0x0 RETURN INVALID PUSH1 0x80 PUSH1 0x40 MSTORE CALLVALUE DUP1 ISZERO PUSH2 0x10 JUMPI PUSH1 0x0 DUP1 REVERT JUMPDEST POP PUSH1 0x4 CALLDATASIZE LT PUSH2 0x62 JUMPI PUSH1 0x0 CALLDATALOAD PUSH1 0xE0 SHR DUP1 PUSH4 0xA5063D6 EQ PUSH2 0x67 JUMPI DUP1 PUSH4 0x79DCCF8C EQ PUSH2 0x97 JUMPI DUP1 PUSH4 0xCE665DD8 EQ PUSH2 0xC7 JUMPI DUP1 PUSH4 0xD49D5181 EQ PUSH2 0xE5 JUMPI DUP1 PUSH4 0xECED5526 EQ PUSH2 0x103 JUMPI DUP1 PUSH4 0xF4AB1A93 EQ PUSH2 0x121 JUMPI JUMPDEST PUSH1 0x0 DUP1 REVERT JUMPDEST PUSH2 0x81 PUSH1 0x4 DUP1 CALLDATASIZE SUB DUP2 ADD SWAP1 PUSH2 0x7C SWAP2 SWAP1 PUSH2 0xDC3 JUMP JUMPDEST PUSH2 0x13F JUMP JUMPDEST PUSH1 0x40 MLOAD PUSH2 0x8E SWAP2 SWAP1 PUSH2 0x1403 JUMP JUMPDEST PUSH1 0x40 MLOAD DUP1 SWAP2 SUB SWAP1 RETURN JUMPDEST PUSH2 0xB1 PUSH1 0x4 DUP1 CALLDATASIZE SUB DUP2 ADD SWAP1 PUSH2 0xAC SWAP2 SWAP1 PUSH2 0xDC3 JUMP JUMPDEST PUSH2 0x5EC JUMP JUMPDEST PUSH1 0x40 MLOAD PUSH2 0xBE SWAP2 SWAP1 PUSH2 0x13E1 JUMP JUMPDEST PUSH1 0x40 MLOAD DUP1 SWAP2 SUB SWAP1 RETURN JUMPDEST PUSH2 0xCF PUSH2 0x83E JUMP JUMPDEST PUSH1 0x40 MLOAD PUSH2 0xDC SWAP2 SWAP1 PUSH2 0x1440 JUMP JUMPDEST PUSH1 0x40 MLOAD DUP1 SWAP2 SUB SWAP1 RETURN JUMPDEST PUSH2 0xED PUSH2 0x843 JUMP JUMPDEST PUSH1 0x40 MLOAD PUSH2 0xFA SWAP2 SWAP1 PUSH2 0x1440 JUMP JUMPDEST PUSH1 0x40 MLOAD DUP1 SWAP2 SUB SWAP1 RETURN JUMPDEST PUSH2 0x10B PUSH2 0x854 JUMP JUMPDEST PUSH1 0x40 MLOAD PUSH2 0x118 SWAP2 SWAP1 PUSH2 0x1440 JUMP JUMPDEST PUSH1 0x40 MLOAD DUP1 SWAP2 SUB SWAP1 RETURN JUMPDEST PUSH2 0x129 PUSH2 0x85A JUMP JUMPDEST PUSH1 0x40 MLOAD PUSH2 0x136 SWAP2 SWAP1 PUSH2 0x1440 JUMP JUMPDEST PUSH1 0x40 MLOAD DUP1 SWAP2 SUB SWAP1 RETURN JUMPDEST PUSH1 0x60 PUSH1 0x0 PUSH1 0xA DUP5 PUSH2 0x150 SWAP2 SWAP1 PUSH2 0x18AB JUMP JUMPDEST SWAP1 POP PUSH1 0x0 PUSH1 0xA PUSH1 0x64 DUP7 PUSH2 0x163 SWAP2 SWAP1 PUSH2 0x18AB JUMP JUMPDEST PUSH2 0x16D SWAP2 SWAP1 PUSH2 0x1592 JUMP JUMPDEST SWAP1 POP PUSH1 0x0 PUSH1 0x64 PUSH2 0x3E8 DUP8 PUSH2 0x181 SWAP2 SWAP1 PUSH2 0x18AB JUMP JUMPDEST PUSH2 0x18B SWAP2 SWAP1 PUSH2 0x1592 JUMP JUMPDEST SWAP1 POP PUSH1 0x0 PUSH2 0x19A DUP9 DUP9 DUP9 PUSH2 0x5EC JUMP JUMPDEST SWAP1 POP PUSH1 0x0 PUSH2 0x224 DUP3 PUSH1 0x0 PUSH1 0x2 DUP2 LT PUSH2 0x1DB JUMPI PUSH32 0x4E487B7100000000000000000000000000000000000000000000000000000000 PUSH1 0x0 MSTORE PUSH1 0x32 PUSH1 0x4 MSTORE PUSH1 0x24 PUSH1 0x0 REVERT JUMPDEST PUSH1 0x20 MUL ADD MLOAD DUP4 PUSH1 0x1 PUSH1 0x2 DUP2 LT PUSH2 0x21A JUMPI PUSH32 0x4E487B7100000000000000000000000000000000000000000000000000000000 PUSH1 0x0 MSTORE PUSH1 0x32 PUSH1 0x4 MSTORE PUSH1 0x24 PUSH1 0x0 REVERT JUMPDEST PUSH1 0x20 MUL ADD MLOAD PUSH2 0x878 JUMP JUMPDEST SWAP1 POP PUSH1 0x0 DUP3 PUSH1 0x0 PUSH1 0x2 DUP2 LT PUSH2 0x262 JUMPI PUSH32 0x4E487B7100000000000000000000000000000000000000000000000000000000 PUSH1 0x0 MSTORE PUSH1 0x32 PUSH1 0x4 MSTORE PUSH1 0x24 PUSH1 0x0 REVERT JUMPDEST PUSH1 0x20 MUL ADD MLOAD DUP4 PUSH1 0x1 PUSH1 0x2 DUP2 LT PUSH2 0x2A1 JUMPI PUSH32 0x4E487B7100000000000000000000000000000000000000000000000000000000 PUSH1 0x0 MSTORE PUSH1 0x32 PUSH1 0x4 MSTORE PUSH1 0x24 PUSH1 0x0 REVERT JUMPDEST PUSH1 0x20 MUL ADD MLOAD PUSH1 0x40 MLOAD PUSH1 0x20 ADD PUSH2 0x2B7 SWAP3 SWAP2 SWAP1 PUSH2 0x11D4 JUMP JUMPDEST PUSH1 0x40 MLOAD PUSH1 0x20 DUP2 DUP4 SUB SUB DUP2 MSTORE SWAP1 PUSH1 0x40 MSTORE SWAP1 POP PUSH1 0x0 PUSH2 0x2D2 PUSH2 0x8A4 JUMP JUMPDEST SWAP1 POP PUSH1 0x0 PUSH2 0x545 PUSH1 0x0 DUP10 DUP2 SLOAD DUP2 LT PUSH2 0x313 JUMPI PUSH32 0x4E487B7100000000000000000000000000000000000000000000000000000000 PUSH1 0x0 MSTORE PUSH1 0x32 PUSH1 0x4 MSTORE PUSH1 0x24 PUSH1 0x0 REVERT JUMPDEST SWAP1 PUSH1 0x0 MSTORE PUSH1 0x20 PUSH1 0x0 KECCAK256 ADD DUP1 SLOAD PUSH2 0x328 SWAP1 PUSH2 0x17FF JUMP JUMPDEST DUP1 PUSH1 0x1F ADD PUSH1 0x20 DUP1 SWAP2 DIV MUL PUSH1 0x20 ADD PUSH1 0x40 MLOAD SWAP1 DUP2 ADD PUSH1 0x40 MSTORE DUP1 SWAP3 SWAP2 SWAP1 DUP2 DUP2 MSTORE PUSH1 0x20 ADD DUP3 DUP1 SLOAD PUSH2 0x354 SWAP1 PUSH2 0x17FF JUMP JUMPDEST DUP1 ISZERO PUSH2 0x3A1 JUMPI DUP1 PUSH1 0x1F LT PUSH2 0x376 JUMPI PUSH2 0x100 DUP1 DUP4 SLOAD DIV MUL DUP4 MSTORE SWAP2 PUSH1 0x20 ADD SWAP2 PUSH2 0x3A1 JUMP JUMPDEST DUP3 ADD SWAP2 SWAP1 PUSH1 0x0 MSTORE PUSH1 0x20 PUSH1 0x0 KECCAK256 SWAP1 JUMPDEST DUP2 SLOAD DUP2 MSTORE SWAP1 PUSH1 0x1 ADD SWAP1 PUSH1 0x20 ADD DUP1 DUP4 GT PUSH2 0x384 JUMPI DUP3 SWAP1 SUB PUSH1 0x1F AND DUP3 ADD SWAP2 JUMPDEST POP POP POP POP POP PUSH1 0x1 DUP10 DUP2 SLOAD DUP2 LT PUSH2 0x3E0 JUMPI PUSH32 0x4E487B7100000000000000000000000000000000000000000000000000000000 PUSH1 0x0 MSTORE PUSH1 0x32 PUSH1 0x4 MSTORE PUSH1 0x24 PUSH1 0x0 REVERT JUMPDEST SWAP1 PUSH1 0x0 MSTORE PUSH1 0x20 PUSH1 0x0 KECCAK256 ADD DUP1 SLOAD PUSH2 0x3F5 SWAP1 PUSH2 0x17FF JUMP JUMPDEST DUP1 PUSH1 0x1F ADD PUSH1 0x20 DUP1 SWAP2 DIV MUL PUSH1 0x20 ADD PUSH1 0x40 MLOAD SWAP1 DUP2 ADD PUSH1 0x40 MSTORE DUP1 SWAP3 SWAP2 SWAP1 DUP2 DUP2 MSTORE PUSH1 0x20 ADD DUP3 DUP1 SLOAD PUSH2 0x421 SWAP1 PUSH2 0x17FF JUMP JUMPDEST DUP1 ISZERO PUSH2 0x46E JUMPI DUP1 PUSH1 0x1F LT PUSH2 0x443 JUMPI PUSH2 0x100 DUP1 DUP4 SLOAD DIV MUL DUP4 MSTORE SWAP2 PUSH1 0x20 ADD SWAP2 PUSH2 0x46E JUMP JUMPDEST DUP3 ADD SWAP2 SWAP1 PUSH1 0x0 MSTORE PUSH1 0x20 PUSH1 0x0 KECCAK256 SWAP1 JUMPDEST DUP2 SLOAD DUP2 MSTORE SWAP1 PUSH1 0x1 ADD SWAP1 PUSH1 0x20 ADD DUP1 DUP4 GT PUSH2 0x451 JUMPI DUP3 SWAP1 SUB PUSH1 0x1F AND DUP3 ADD SWAP2 JUMPDEST POP POP POP POP POP PUSH1 0x2 DUP10 DUP2 SLOAD DUP2 LT PUSH2 0x4AD JUMPI PUSH32 0x4E487B7100000000000000000000000000000000000000000000000000000000 PUSH1 0x0 MSTORE PUSH1 0x32 PUSH1 0x4 MSTORE PUSH1 0x24 PUSH1 0x0 REVERT JUMPDEST SWAP1 PUSH1 0x0 MSTORE PUSH1 0x20 PUSH1 0x0 KECCAK256 ADD DUP1 SLOAD PUSH2 0x4C2 SWAP1 PUSH2 0x17FF JUMP JUMPDEST DUP1 PUSH1 0x1F ADD PUSH1 0x20 DUP1 SWAP2 DIV MUL PUSH1 0x20 ADD PUSH1 0x40 MLOAD SWAP1 DUP2 ADD PUSH1 0x40 MSTORE DUP1 SWAP3 SWAP2 SWAP1 DUP2 DUP2 MSTORE PUSH1 0x20 ADD DUP3 DUP1 SLOAD PUSH2 0x4EE SWAP1 PUSH2 0x17FF JUMP JUMPDEST DUP1 ISZERO PUSH2 0x53B JUMPI DUP1 PUSH1 0x1F LT PUSH2 0x510 JUMPI PUSH2 0x100 DUP1 DUP4 SLOAD DIV MUL DUP4 MSTORE SWAP2 PUSH1 0x20 ADD SWAP2 PUSH2 0x53B JUMP JUMPDEST DUP3 ADD SWAP2 SWAP1 PUSH1 0x0 MSTORE PUSH1 0x20 PUSH1 0x0 KECCAK256 SWAP1 JUMPDEST DUP2 SLOAD DUP2 MSTORE SWAP1 PUSH1 0x1 ADD SWAP1 PUSH1 0x20 ADD DUP1 DUP4 GT PUSH2 0x51E JUMPI DUP3 SWAP1 SUB PUSH1 0x1F AND DUP3 ADD SWAP2 JUMPDEST POP POP POP POP POP PUSH2 0x8C9 JUMP JUMPDEST SWAP1 POP PUSH1 0x0 DUP2 DUP4 DUP7 PUSH1 0x40 MLOAD PUSH1 0x20 ADD PUSH2 0x55E SWAP4 SWAP3 SWAP2 SWAP1 PUSH2 0x1351 JUMP JUMPDEST PUSH1 0x40 MLOAD PUSH1 0x20 DUP2 DUP4 SUB SUB DUP2 MSTORE SWAP1 PUSH1 0x40 MSTORE SWAP1 POP PUSH1 0x0 PUSH2 0x5B7 PUSH2 0x57D DUP16 PUSH2 0x8F8 JUMP JUMPDEST DUP7 PUSH2 0x587 TIMESTAMP PUSH2 0x8F8 JUMP JUMPDEST PUSH2 0x590 DUP7 PUSH2 0xAA5 JUMP JUMPDEST PUSH1 0x40 MLOAD PUSH1 0x20 ADD PUSH2 0x5A3 SWAP5 SWAP4 SWAP3 SWAP2 SWAP1 PUSH2 0x12BA JUMP JUMPDEST PUSH1 0x40 MLOAD PUSH1 0x20 DUP2 DUP4 SUB SUB DUP2 MSTORE SWAP1 PUSH1 0x40 MSTORE PUSH2 0xAA5 JUMP JUMPDEST SWAP1 POP DUP1 PUSH1 0x40 MLOAD PUSH1 0x20 ADD PUSH2 0x5CA SWAP2 SWAP1 PUSH2 0x132F JUMP JUMPDEST PUSH1 0x40 MLOAD PUSH1 0x20 DUP2 DUP4 SUB SUB DUP2 MSTORE SWAP1 PUSH1 0x40 MSTORE SWAP11 POP POP POP POP POP POP POP POP POP POP POP SWAP4 SWAP3 POP POP POP JUMP JUMPDEST PUSH2 0x5F4 PUSH2 0xC63 JUMP JUMPDEST PUSH1 0x0 DUP3 DUP5 PUSH2 0x602 SWAP2 SWAP1 PUSH2 0x1616 JUMP JUMPDEST SWAP1 POP PUSH1 0x0 PUSH2 0x60F DUP3 PUSH2 0x8F8 JUMP JUMPDEST PUSH2 0x618 DUP7 PUSH2 0x8F8 JUMP JUMPDEST PUSH2 0x621 DUP7 PUSH2 0x8F8 JUMP JUMPDEST PUSH2 0x62A DUP10 PUSH2 0x8F8 JUMP JUMPDEST PUSH1 0x40 MLOAD PUSH1 0x20 ADD PUSH2 0x63D SWAP5 SWAP4 SWAP3 SWAP2 SWAP1 PUSH2 0x1398 JUMP JUMPDEST PUSH1 0x40 MLOAD PUSH1 0x20 DUP2 DUP4 SUB SUB DUP2 MSTORE SWAP1 PUSH1 0x40 MSTORE DUP1 MLOAD SWAP1 PUSH1 0x20 ADD KECCAK256 PUSH1 0x0 SHR SWAP1 POP PUSH1 0x0 PUSH1 0x3C DUP3 PUSH2 0x667 SWAP2 SWAP1 PUSH2 0x18AB JUMP JUMPDEST SWAP1 POP PUSH1 0x29 DUP2 LT PUSH2 0x707 JUMPI PUSH20 0x0 PUSH4 0x92D53983 DUP3 PUSH1 0x40 MLOAD DUP3 PUSH4 0xFFFFFFFF AND PUSH1 0xE0 SHL DUP2 MSTORE PUSH1 0x4 ADD PUSH2 0x6A8 SWAP2 SWAP1 PUSH2 0x1425 JUMP JUMPDEST PUSH1 0x0 PUSH1 0x40 MLOAD DUP1 DUP4 SUB DUP2 DUP7 DUP1 EXTCODESIZE ISZERO DUP1 ISZERO PUSH2 0x6C0 JUMPI PUSH1 0x0 DUP1 REVERT JUMPDEST POP GAS DELEGATECALL ISZERO DUP1 ISZERO PUSH2 0x6D4 JUMPI RETURNDATASIZE PUSH1 0x0 DUP1 RETURNDATACOPY RETURNDATASIZE PUSH1 0x0 REVERT JUMPDEST POP POP POP POP PUSH1 0x40 MLOAD RETURNDATASIZE PUSH1 0x0 DUP3 RETURNDATACOPY RETURNDATASIZE PUSH1 0x1F NOT PUSH1 0x1F DUP3 ADD AND DUP3 ADD DUP1 PUSH1 0x40 MSTORE POP DUP2 ADD SWAP1 PUSH2 0x6FD SWAP2 SWAP1 PUSH2 0xD82 JUMP JUMPDEST SWAP4 POP POP POP POP PUSH2 0x837 JUMP JUMPDEST PUSH1 0x15 DUP2 LT PUSH2 0x7A5 JUMPI PUSH20 0x0 PUSH4 0x92D53983 DUP3 PUSH1 0x40 MLOAD DUP3 PUSH4 0xFFFFFFFF AND PUSH1 0xE0 SHL DUP2 MSTORE PUSH1 0x4 ADD PUSH2 0x746 SWAP2 SWAP1 PUSH2 0x1425 JUMP JUMPDEST PUSH1 0x0 PUSH1 0x40 MLOAD DUP1 DUP4 SUB DUP2 DUP7 DUP1 EXTCODESIZE ISZERO DUP1 ISZERO PUSH2 0x75E JUMPI PUSH1 0x0 DUP1 REVERT JUMPDEST POP GAS DELEGATECALL ISZERO DUP1 ISZERO PUSH2 0x772 JUMPI RETURNDATASIZE PUSH1 0x0 DUP1 RETURNDATACOPY RETURNDATASIZE PUSH1 0x0 REVERT JUMPDEST POP POP POP POP PUSH1 0x40 MLOAD RETURNDATASIZE PUSH1 0x0 DUP3 RETURNDATACOPY RETURNDATASIZE PUSH1 0x1F NOT PUSH1 0x1F DUP3 ADD AND DUP3 ADD DUP1 PUSH1 0x40 MSTORE POP DUP2 ADD SWAP1 PUSH2 0x79B SWAP2 SWAP1 PUSH2 0xD82 JUMP JUMPDEST SWAP4 POP POP POP POP PUSH2 0x837 JUMP JUMPDEST PUSH20 0x0 PUSH4 0x92D53983 DUP3 PUSH1 0x40 MLOAD DUP3 PUSH4 0xFFFFFFFF AND PUSH1 0xE0 SHL DUP2 MSTORE PUSH1 0x4 ADD PUSH2 0x7DC SWAP2 SWAP1 PUSH2 0x1425 JUMP JUMPDEST PUSH1 0x0 PUSH1 0x40 MLOAD DUP1 DUP4 SUB DUP2 DUP7 DUP1 EXTCODESIZE ISZERO DUP1 ISZERO PUSH2 0x7F4 JUMPI PUSH1 0x0 DUP1 REVERT JUMPDEST POP GAS DELEGATECALL ISZERO DUP1 ISZERO PUSH2 0x808 JUMPI RETURNDATASIZE PUSH1 0x0 DUP1 RETURNDATACOPY RETURNDATASIZE PUSH1 0x0 REVERT JUMPDEST POP POP POP POP PUSH1 0x40 MLOAD RETURNDATASIZE PUSH1 0x0 DUP3 RETURNDATACOPY RETURNDATASIZE PUSH1 0x1F NOT PUSH1 0x1F DUP3 ADD AND DUP3 ADD DUP1 PUSH1 0x40 MSTORE POP DUP2 ADD SWAP1 PUSH2 0x831 SWAP2 SWAP1 PUSH2 0xD82 JUMP JUMPDEST SWAP4 POP POP POP POP JUMPDEST SWAP4 SWAP3 POP POP POP JUMP JUMPDEST PUSH1 0x64 DUP2 JUMP JUMPDEST PUSH1 0x1 PUSH1 0x0 PUSH2 0x851 SWAP2 SWAP1 PUSH2 0x178E JUMP JUMPDEST DUP2 JUMP JUMPDEST PUSH2 0x3E7 DUP2 JUMP JUMPDEST PUSH2 0x3E7 PUSH1 0x1 PUSH1 0x0 PUSH2 0x86B SWAP2 SWAP1 PUSH2 0x178E JUMP JUMPDEST PUSH2 0x875 SWAP2 SWAP1 PUSH2 0x1592 JUMP JUMPDEST DUP2 JUMP JUMPDEST PUSH1 0x60 DUP3 DUP3 PUSH1 0x40 MLOAD PUSH1 0x20 ADD PUSH2 0x88D SWAP3 SWAP2 SWAP1 PUSH2 0x1260 JUMP JUMPDEST PUSH1 0x40 MLOAD PUSH1 0x20 DUP2 DUP4 SUB SUB DUP2 MSTORE SWAP1 PUSH1 0x40 MSTORE SWAP1 POP SWAP3 SWAP2 POP POP JUMP JUMPDEST PUSH1 0x60 PUSH1 0x40 MLOAD PUSH1 0x20 ADD PUSH2 0x8B5 SWAP1 PUSH2 0x12A5 JUMP JUMPDEST PUSH1 0x40 MLOAD PUSH1 0x20 DUP2 DUP4 SUB SUB DUP2 MSTORE SWAP1 PUSH1 0x40 MSTORE SWAP1 POP SWAP1 JUMP JUMPDEST PUSH1 0x60 DUP4 DUP4 DUP4 PUSH1 0x40 MLOAD PUSH1 0x20 ADD PUSH2 0x8E0 SWAP4 SWAP3 SWAP2 SWAP1 PUSH2 0x1203 JUMP JUMPDEST PUSH1 0x40 MLOAD PUSH1 0x20 DUP2 DUP4 SUB SUB DUP2 MSTORE SWAP1 PUSH1 0x40 MSTORE SWAP1 POP SWAP4 SWAP3 POP POP POP JUMP JUMPDEST PUSH1 0x60 PUSH1 0x0 DUP3 EQ ISZERO PUSH2 0x940 JUMPI PUSH1 0x40 MLOAD DUP1 PUSH1 0x40 ADD PUSH1 0x40 MSTORE DUP1 PUSH1 0x1 DUP2 MSTORE PUSH1 0x20 ADD PUSH32 0x3000000000000000000000000000000000000000000000000000000000000000 DUP2 MSTORE POP SWAP1 POP PUSH2 0xAA0 JUMP JUMPDEST PUSH1 0x0 DUP3 SWAP1 POP PUSH1 0x0 JUMPDEST PUSH1 0x0 DUP3 EQ PUSH2 0x972 JUMPI DUP1 DUP1 PUSH2 0x95B SWAP1 PUSH2 0x1862 JUMP JUMPDEST SWAP2 POP POP PUSH1 0xA DUP3 PUSH2 0x96B SWAP2 SWAP1 PUSH2 0x1592 JUMP JUMPDEST SWAP2 POP PUSH2 0x948 JUMP JUMPDEST PUSH1 0x0 DUP2 PUSH8 0xFFFFFFFFFFFFFFFF DUP2 GT ISZERO PUSH2 0x9B4 JUMPI PUSH32 0x4E487B7100000000000000000000000000000000000000000000000000000000 PUSH1 0x0 MSTORE PUSH1 0x41 PUSH1 0x4 MSTORE PUSH1 0x24 PUSH1 0x0 REVERT JUMPDEST PUSH1 0x40 MLOAD SWAP1 DUP1 DUP3 MSTORE DUP1 PUSH1 0x1F ADD PUSH1 0x1F NOT AND PUSH1 0x20 ADD DUP3 ADD PUSH1 0x40 MSTORE DUP1 ISZERO PUSH2 0x9E6 JUMPI DUP2 PUSH1 0x20 ADD PUSH1 0x1 DUP3 MUL DUP1 CALLDATASIZE DUP4 CALLDATACOPY DUP1 DUP3 ADD SWAP2 POP POP SWAP1 POP JUMPDEST POP SWAP1 POP JUMPDEST PUSH1 0x0 DUP6 EQ PUSH2 0xA99 JUMPI PUSH1 0x1 DUP3 PUSH2 0x9FF SWAP2 SWAP1 PUSH2 0x178E JUMP JUMPDEST SWAP2 POP PUSH1 0xA DUP6 PUSH2 0xA0E SWAP2 SWAP1 PUSH2 0x18AB JUMP JUMPDEST PUSH1 0x30 PUSH2 0xA1A SWAP2 SWAP1 PUSH2 0x153C JUMP JUMPDEST PUSH1 0xF8 SHL DUP2 DUP4 DUP2 MLOAD DUP2 LT PUSH2 0xA56 JUMPI PUSH32 0x4E487B7100000000000000000000000000000000000000000000000000000000 PUSH1 0x0 MSTORE PUSH1 0x32 PUSH1 0x4 MSTORE PUSH1 0x24 PUSH1 0x0 REVERT JUMPDEST PUSH1 0x20 ADD ADD SWAP1 PUSH31 0xFFFFFFFFFFFFFFFFFFFFFFFFFFFFFFFFFFFFFFFFFFFFFFFFFFFFFFFFFFFFFF NOT AND SWAP1 DUP2 PUSH1 0x0 BYTE SWAP1 MSTORE8 POP PUSH1 0xA DUP6 PUSH2 0xA92 SWAP2 SWAP1 PUSH2 0x1592 JUMP JUMPDEST SWAP5 POP PUSH2 0x9EA JUMP JUMPDEST DUP1 SWAP4 POP POP POP POP JUMPDEST SWAP2 SWAP1 POP JUMP JUMPDEST PUSH1 0x60 PUSH1 0x0 DUP3 MLOAD SWAP1 POP PUSH1 0x0 DUP2 EQ ISZERO PUSH2 0xACE JUMPI PUSH1 0x40 MLOAD DUP1 PUSH1 0x20 ADD PUSH1 0x40 MSTORE DUP1 PUSH1 0x0 DUP2 MSTORE POP SWAP2 POP POP PUSH2 0xC5E JUMP JUMPDEST PUSH1 0x0 PUSH1 0x3 PUSH1 0x2 DUP4 PUSH2 0xADF SWAP2 SWAP1 PUSH2 0x153C JUMP JUMPDEST PUSH2 0xAE9 SWAP2 SWAP1 PUSH2 0x1592 JUMP JUMPDEST PUSH1 0x4 PUSH2 0xAF5 SWAP2 SWAP1 PUSH2 0x1734 JUMP JUMPDEST SWAP1 POP PUSH1 0x0 PUSH1 0x20 DUP3 PUSH2 0xB06 SWAP2 SWAP1 PUSH2 0x153C JUMP JUMPDEST PUSH8 0xFFFFFFFFFFFFFFFF DUP2 GT ISZERO PUSH2 0xB45 JUMPI PUSH32 0x4E487B7100000000000000000000000000000000000000000000000000000000 PUSH1 0x0 MSTORE PUSH1 0x41 PUSH1 0x4 MSTORE PUSH1 0x24 PUSH1 0x0 REVERT JUMPDEST PUSH1 0x40 MLOAD SWAP1 DUP1 DUP3 MSTORE DUP1 PUSH1 0x1F ADD PUSH1 0x1F NOT AND PUSH1 0x20 ADD DUP3 ADD PUSH1 0x40 MSTORE DUP1 ISZERO PUSH2 0xB77 JUMPI DUP2 PUSH1 0x20 ADD PUSH1 0x1 DUP3 MUL DUP1 CALLDATASIZE DUP4 CALLDATACOPY DUP1 DUP3 ADD SWAP2 POP POP SWAP1 POP JUMPDEST POP SWAP1 POP PUSH1 0x0 PUSH1 0x40 MLOAD DUP1 PUSH1 0x60 ADD PUSH1 0x40 MSTORE DUP1 PUSH1 0x40 DUP2 MSTORE PUSH1 0x20 ADD PUSH2 0x43B1 PUSH1 0x40 SWAP2 CODECOPY SWAP1 POP PUSH1 0x1 DUP2 ADD PUSH1 0x20 DUP4 ADD PUSH1 0x0 JUMPDEST DUP7 DUP2 LT ISZERO PUSH2 0xC1B JUMPI PUSH1 0x3 DUP2 ADD SWAP1 POP PUSH3 0xFFFFFF DUP2 DUP11 ADD MLOAD AND PUSH1 0x3F DUP2 PUSH1 0x12 SHR AND DUP5 ADD MLOAD DUP1 PUSH1 0x8 SHL SWAP1 POP PUSH1 0xFF PUSH1 0x3F DUP4 PUSH1 0xC SHR AND DUP7 ADD MLOAD AND DUP2 ADD SWAP1 POP DUP1 PUSH1 0x8 SHL SWAP1 POP PUSH1 0xFF PUSH1 0x3F DUP4 PUSH1 0x6 SHR AND DUP7 ADD MLOAD AND DUP2 ADD SWAP1 POP DUP1 PUSH1 0x8 SHL SWAP1 POP PUSH1 0xFF PUSH1 0x3F DUP4 AND DUP7 ADD MLOAD AND DUP2 ADD SWAP1 POP DUP1 PUSH1 0xE0 SHL SWAP1 POP DUP1 DUP5 MSTORE PUSH1 0x4 DUP5 ADD SWAP4 POP POP POP PUSH2 0xBA2 JUMP JUMPDEST POP PUSH1 0x3 DUP7 MOD PUSH1 0x1 DUP2 EQ PUSH2 0xC35 JUMPI PUSH1 0x2 DUP2 EQ PUSH2 0xC45 JUMPI PUSH2 0xC50 JUMP JUMPDEST PUSH2 0x3D3D PUSH1 0xF0 SHL PUSH1 0x2 DUP4 SUB MSTORE PUSH2 0xC50 JUMP JUMPDEST PUSH1 0x3D PUSH1 0xF8 SHL PUSH1 0x1 DUP4 SUB MSTORE JUMPDEST POP DUP5 DUP5 MSTORE POP POP DUP2 SWAP5 POP POP POP POP POP JUMPDEST SWAP2 SWAP1 POP JUMP JUMPDEST PUSH1 0x40 MLOAD DUP1 PUSH1 0x40 ADD PUSH1 0x40 MSTORE DUP1 PUSH1 0x2 SWAP1 JUMPDEST PUSH1 0x60 DUP2 MSTORE PUSH1 0x20 ADD SWAP1 PUSH1 0x1 SWAP1 SUB SWAP1 DUP2 PUSH2 0xC72 JUMPI SWAP1 POP POP SWAP1 JUMP JUMPDEST PUSH1 0x0 PUSH2 0xC9D PUSH2 0xC98 DUP5 PUSH2 0x1480 JUMP JUMPDEST PUSH2 0x145B JUMP JUMPDEST SWAP1 POP DUP1 DUP3 PUSH1 0x0 JUMPDEST DUP6 DUP2 LT ISZERO PUSH2 0xCD4 JUMPI DUP2 MLOAD DUP6 ADD PUSH2 0xCBA DUP9 DUP3 PUSH2 0xD43 JUMP JUMPDEST DUP5 MSTORE PUSH1 0x20 DUP5 ADD SWAP4 POP PUSH1 0x20 DUP4 ADD SWAP3 POP POP PUSH1 0x1 DUP2 ADD SWAP1 POP PUSH2 0xCA4 JUMP JUMPDEST POP POP POP SWAP4 SWAP3 POP POP POP JUMP JUMPDEST PUSH1 0x0 PUSH2 0xCF1 PUSH2 0xCEC DUP5 PUSH2 0x14A6 JUMP JUMPDEST PUSH2 0x145B JUMP JUMPDEST SWAP1 POP DUP3 DUP2 MSTORE PUSH1 0x20 DUP2 ADD DUP5 DUP5 DUP5 ADD GT ISZERO PUSH2 0xD09 JUMPI PUSH1 0x0 DUP1 REVERT JUMPDEST PUSH2 0xD14 DUP5 DUP3 DUP6 PUSH2 0x17CC JUMP JUMPDEST POP SWAP4 SWAP3 POP POP POP JUMP JUMPDEST PUSH1 0x0 DUP3 PUSH1 0x1F DUP4 ADD SLT PUSH2 0xD2D JUMPI PUSH1 0x0 DUP1 REVERT JUMPDEST PUSH1 0x2 PUSH2 0xD3A DUP5 DUP3 DUP6 PUSH2 0xC8A JUMP JUMPDEST SWAP2 POP POP SWAP3 SWAP2 POP POP JUMP JUMPDEST PUSH1 0x0 DUP3 PUSH1 0x1F DUP4 ADD SLT PUSH2 0xD54 JUMPI PUSH1 0x0 DUP1 REVERT JUMPDEST DUP2 MLOAD PUSH2 0xD64 DUP5 DUP3 PUSH1 0x20 DUP7 ADD PUSH2 0xCDE JUMP JUMPDEST SWAP2 POP POP SWAP3 SWAP2 POP POP JUMP JUMPDEST PUSH1 0x0 DUP2 CALLDATALOAD SWAP1 POP PUSH2 0xD7C DUP2 PUSH2 0x4399 JUMP JUMPDEST SWAP3 SWAP2 POP POP JUMP JUMPDEST PUSH1 0x0 PUSH1 0x20 DUP3 DUP5 SUB SLT ISZERO PUSH2 0xD94 JUMPI PUSH1 0x0 DUP1 REVERT JUMPDEST PUSH1 0x0 DUP3 ADD MLOAD PUSH8 0xFFFFFFFFFFFFFFFF DUP2 GT ISZERO PUSH2 0xDAE JUMPI PUSH1 0x0 DUP1 REVERT JUMPDEST PUSH2 0xDBA DUP5 DUP3 DUP6 ADD PUSH2 0xD1C JUMP JUMPDEST SWAP2 POP POP SWAP3 SWAP2 POP POP JUMP JUMPDEST PUSH1 0x0 DUP1 PUSH1 0x0 PUSH1 0x60 DUP5 DUP7 SUB SLT ISZERO PUSH2 0xDD8 JUMPI PUSH1 0x0 DUP1 REVERT JUMPDEST PUSH1 0x0 PUSH2 0xDE6 DUP7 DUP3 DUP8 ADD PUSH2 0xD6D JUMP JUMPDEST SWAP4 POP POP PUSH1 0x20 PUSH2 0xDF7 DUP7 DUP3 DUP8 ADD PUSH2 0xD6D JUMP JUMPDEST SWAP3 POP POP PUSH1 0x40 PUSH2 0xE08 DUP7 DUP3 DUP8 ADD PUSH2 0xD6D JUMP JUMPDEST SWAP2 POP POP SWAP3 POP SWAP3 POP SWAP3 JUMP JUMPDEST PUSH1 0x0 PUSH2 0xE1E DUP4 DUP4 PUSH2 0xE9B JUMP JUMPDEST SWAP1 POP SWAP3 SWAP2 POP POP JUMP JUMPDEST PUSH1 0x0 PUSH2 0xE31 DUP3 PUSH2 0x14E1 JUMP JUMPDEST PUSH2 0xE3B DUP2 DUP6 PUSH2 0x1504 JUMP JUMPDEST SWAP4 POP DUP4 PUSH1 0x20 DUP3 MUL DUP6 ADD PUSH2 0xE4D DUP6 PUSH2 0x14D7 JUMP JUMPDEST DUP1 PUSH1 0x0 JUMPDEST DUP6 DUP2 LT ISZERO PUSH2 0xE89 JUMPI DUP5 DUP5 SUB DUP10 MSTORE DUP2 MLOAD PUSH2 0xE6A DUP6 DUP3 PUSH2 0xE12 JUMP JUMPDEST SWAP5 POP PUSH2 0xE75 DUP4 PUSH2 0x14F7 JUMP JUMPDEST SWAP3 POP PUSH1 0x20 DUP11 ADD SWAP10 POP POP PUSH1 0x1 DUP2 ADD SWAP1 POP PUSH2 0xE51 JUMP JUMPDEST POP DUP3 SWAP8 POP DUP8 SWAP6 POP POP POP POP POP POP SWAP3 SWAP2 POP POP JUMP JUMPDEST PUSH1 0x0 PUSH2 0xEA6 DUP3 PUSH2 0x14EC JUMP JUMPDEST PUSH2 0xEB0 DUP2 DUP6 PUSH2 0x150F JUMP JUMPDEST SWAP4 POP PUSH2 0xEC0 DUP2 DUP6 PUSH1 0x20 DUP7 ADD PUSH2 0x17CC JUMP JUMPDEST PUSH2 0xEC9 DUP2 PUSH2 0x1998 JUMP JUMPDEST DUP5 ADD SWAP2 POP POP SWAP3 SWAP2 POP POP JUMP JUMPDEST PUSH1 0x0 PUSH2 0xEDF DUP3 PUSH2 0x14EC JUMP JUMPDEST PUSH2 0xEE9 DUP2 DUP6 PUSH2 0x1520 JUMP JUMPDEST SWAP4 POP PUSH2 0xEF9 DUP2 DUP6 PUSH1 0x20 DUP7 ADD PUSH2 0x17CC JUMP JUMPDEST PUSH2 0xF02 DUP2 PUSH2 0x1998 JUMP JUMPDEST DUP5 ADD SWAP2 POP POP SWAP3 SWAP2 POP POP JUMP JUMPDEST PUSH1 0x0 PUSH2 0xF18 DUP3 PUSH2 0x14EC JUMP JUMPDEST PUSH2 0xF22 DUP2 DUP6 PUSH2 0x1531 JUMP JUMPDEST SWAP4 POP PUSH2 0xF32 DUP2 DUP6 PUSH1 0x20 DUP7 ADD PUSH2 0x17CC JUMP JUMPDEST DUP1 DUP5 ADD SWAP2 POP POP SWAP3 SWAP2 POP POP JUMP JUMPDEST PUSH1 0x0 PUSH2 0xF4B PUSH1 0x53 DUP4 PUSH2 0x1531 JUMP JUMPDEST SWAP2 POP PUSH2 0xF56 DUP3 PUSH2 0x19B6 JUMP JUMPDEST PUSH1 0x53 DUP3 ADD SWAP1 POP SWAP2 SWAP1 POP JUMP JUMPDEST PUSH1 0x0 PUSH2 0xF6E PUSH1 0x13 DUP4 PUSH2 0x1531 JUMP JUMPDEST SWAP2 POP PUSH2 0xF79 DUP3 PUSH2 0x1A2B JUMP JUMPDEST PUSH1 0x13 DUP3 ADD SWAP1 POP SWAP2 SWAP1 POP JUMP JUMPDEST PUSH1 0x0 PUSH2 0xF91 PUSH1 0x87 DUP4 PUSH2 0x1531 JUMP JUMPDEST SWAP2 POP PUSH2 0xF9C DUP3 PUSH2 0x1A54 JUMP JUMPDEST PUSH1 0x87 DUP3 ADD SWAP1 POP SWAP2 SWAP1 POP JUMP JUMPDEST PUSH1 0x0 PUSH2 0xFB4 PUSH1 0xA3 DUP4 PUSH2 0x1531 JUMP JUMPDEST SWAP2 POP PUSH2 0xFBF DUP3 PUSH2 0x1B15 JUMP JUMPDEST PUSH1 0xA3 DUP3 ADD SWAP1 POP SWAP2 SWAP1 POP JUMP JUMPDEST PUSH1 0x0 PUSH2 0xFD7 PUSH1 0x5D DUP4 PUSH2 0x1531 JUMP JUMPDEST SWAP2 POP PUSH2 0xFE2 DUP3 PUSH2 0x1BFC JUMP JUMPDEST PUSH1 0x5D DUP3 ADD SWAP1 POP SWAP2 SWAP1 POP JUMP JUMPDEST PUSH1 0x0 PUSH2 0xFFA PUSH1 0x29 DUP4 PUSH2 0x1531 JUMP JUMPDEST SWAP2 POP PUSH2 0x1005 DUP3 PUSH2 0x1C71 JUMP JUMPDEST PUSH1 0x29 DUP3 ADD SWAP1 POP SWAP2 SWAP1 POP JUMP JUMPDEST PUSH1 0x0 PUSH2 0x101D PUSH1 0x1 DUP4 PUSH2 0x1531 JUMP JUMPDEST SWAP2 POP PUSH2 0x1028 DUP3 PUSH2 0x1CC0 JUMP JUMPDEST PUSH1 0x1 DUP3 ADD SWAP1 POP SWAP2 SWAP1 POP JUMP JUMPDEST PUSH1 0x0 PUSH2 0x1040 PUSH1 0x88 DUP4 PUSH2 0x1531 JUMP JUMPDEST SWAP2 POP PUSH2 0x104B DUP3 PUSH2 0x1CE9 JUMP JUMPDEST PUSH1 0x88 DUP3 ADD SWAP1 POP SWAP2 SWAP1 POP JUMP JUMPDEST PUSH1 0x0 PUSH2 0x1063 PUSH1 0x2 DUP4 PUSH2 0x1531 JUMP JUMPDEST SWAP2 POP PUSH2 0x106E DUP3 PUSH2 0x1DAA JUMP JUMPDEST PUSH1 0x2 DUP3 ADD SWAP1 POP SWAP2 SWAP1 POP JUMP JUMPDEST PUSH1 0x0 PUSH2 0x1086 PUSH1 0x7 DUP4 PUSH2 0x1531 JUMP JUMPDEST SWAP2 POP PUSH2 0x1091 DUP3 PUSH2 0x1DD3 JUMP JUMPDEST PUSH1 0x7 DUP3 ADD SWAP1 POP SWAP2 SWAP1 POP JUMP JUMPDEST PUSH1 0x0 PUSH2 0x10AA PUSH2 0x1C60 DUP4 PUSH2 0x1531 JUMP JUMPDEST SWAP2 POP PUSH2 0x10B5 DUP3 PUSH2 0x1DFC JUMP JUMPDEST PUSH2 0x1C60 DUP3 ADD SWAP1 POP SWAP2 SWAP1 POP JUMP JUMPDEST PUSH1 0x0 PUSH2 0x10CE PUSH1 0x73 DUP4 PUSH2 0x1531 JUMP JUMPDEST SWAP2 POP PUSH2 0x10D9 DUP3 PUSH2 0x408C JUMP JUMPDEST PUSH1 0x73 DUP3 ADD SWAP1 POP SWAP2 SWAP1 POP JUMP JUMPDEST PUSH1 0x0 PUSH2 0x10F1 PUSH1 0x19 DUP4 PUSH2 0x1531 JUMP JUMPDEST SWAP2 POP PUSH2 0x10FC DUP3 PUSH2 0x4127 JUMP JUMPDEST PUSH1 0x19 DUP3 ADD SWAP1 POP SWAP2 SWAP1 POP JUMP JUMPDEST PUSH1 0x0 PUSH2 0x1114 PUSH1 0x1D DUP4 PUSH2 0x1531 JUMP JUMPDEST SWAP2 POP PUSH2 0x111F DUP3 PUSH2 0x4150 JUMP JUMPDEST PUSH1 0x1D DUP3 ADD SWAP1 POP SWAP2 SWAP1 POP JUMP JUMPDEST PUSH1 0x0 PUSH2 0x1137 PUSH1 0xEB DUP4 PUSH2 0x1531 JUMP JUMPDEST SWAP2 POP PUSH2 0x1142 DUP3 PUSH2 0x4179 JUMP JUMPDEST PUSH1 0xEB DUP3 ADD SWAP1 POP SWAP2 SWAP1 POP JUMP JUMPDEST PUSH1 0x0 PUSH2 0x115A PUSH1 0x64 DUP4 PUSH2 0x1531 JUMP JUMPDEST SWAP2 POP PUSH2 0x1165 DUP3 PUSH2 0x42AC JUMP JUMPDEST PUSH1 0x64 DUP3 ADD SWAP1 POP SWAP2 SWAP1 POP JUMP JUMPDEST PUSH1 0x0 PUSH2 0x117D PUSH1 0x6 DUP4 PUSH2 0x1531 JUMP JUMPDEST SWAP2 POP PUSH2 0x1188 DUP3 PUSH2 0x4347 JUMP JUMPDEST PUSH1 0x6 DUP3 ADD SWAP1 POP SWAP2 SWAP1 POP JUMP JUMPDEST PUSH1 0x0 PUSH2 0x11A0 PUSH1 0xE DUP4 PUSH2 0x1531 JUMP JUMPDEST SWAP2 POP PUSH2 0x11AB DUP3 PUSH2 0x4370 JUMP JUMPDEST PUSH1 0xE DUP3 ADD SWAP1 POP SWAP2 SWAP1 POP JUMP JUMPDEST PUSH2 0x11BF DUP2 PUSH2 0x17C2 JUMP JUMPDEST DUP3 MSTORE POP POP JUMP JUMPDEST PUSH2 0x11CE DUP2 PUSH2 0x17C2 JUMP JUMPDEST DUP3 MSTORE POP POP JUMP JUMPDEST PUSH1 0x0 PUSH2 0x11E0 DUP3 DUP6 PUSH2 0xF0D JUMP JUMPDEST SWAP2 POP PUSH2 0x11EB DUP3 PUSH2 0x1010 JUMP JUMPDEST SWAP2 POP PUSH2 0x11F7 DUP3 DUP5 PUSH2 0xF0D JUMP JUMPDEST SWAP2 POP DUP2 SWAP1 POP SWAP4 SWAP3 POP POP POP JUMP JUMPDEST PUSH1 0x0 PUSH2 0x120E DUP3 PUSH2 0xFA7 JUMP JUMPDEST SWAP2 POP PUSH2 0x121A DUP3 DUP7 PUSH2 0xF0D JUMP JUMPDEST SWAP2 POP PUSH2 0x1225 DUP3 PUSH2 0x1033 JUMP JUMPDEST SWAP2 POP PUSH2 0x1231 DUP3 DUP6 PUSH2 0xF0D JUMP JUMPDEST SWAP2 POP PUSH2 0x123C DUP3 PUSH2 0xF84 JUMP JUMPDEST SWAP2 POP PUSH2 0x1248 DUP3 DUP5 PUSH2 0xF0D JUMP JUMPDEST SWAP2 POP PUSH2 0x1253 DUP3 PUSH2 0x10C1 JUMP JUMPDEST SWAP2 POP DUP2 SWAP1 POP SWAP5 SWAP4 POP POP POP POP JUMP JUMPDEST PUSH1 0x0 PUSH2 0x126B DUP3 PUSH2 0xFCA JUMP JUMPDEST SWAP2 POP PUSH2 0x1277 DUP3 DUP6 PUSH2 0xF0D JUMP JUMPDEST SWAP2 POP PUSH2 0x1282 DUP3 PUSH2 0x114D JUMP JUMPDEST SWAP2 POP PUSH2 0x128E DUP3 DUP5 PUSH2 0xF0D JUMP JUMPDEST SWAP2 POP PUSH2 0x1299 DUP3 PUSH2 0x1079 JUMP JUMPDEST SWAP2 POP DUP2 SWAP1 POP SWAP4 SWAP3 POP POP POP JUMP JUMPDEST PUSH1 0x0 PUSH2 0x12B0 DUP3 PUSH2 0x109C JUMP JUMPDEST SWAP2 POP DUP2 SWAP1 POP SWAP2 SWAP1 POP JUMP JUMPDEST PUSH1 0x0 PUSH2 0x12C5 DUP3 PUSH2 0x10E4 JUMP JUMPDEST SWAP2 POP PUSH2 0x12D1 DUP3 DUP8 PUSH2 0xF0D JUMP JUMPDEST SWAP2 POP PUSH2 0x12DC DUP3 PUSH2 0xF61 JUMP JUMPDEST SWAP2 POP PUSH2 0x12E8 DUP3 DUP7 PUSH2 0xF0D JUMP JUMPDEST SWAP2 POP PUSH2 0x12F3 DUP3 PUSH2 0xF3E JUMP JUMPDEST SWAP2 POP PUSH2 0x12FF DUP3 DUP6 PUSH2 0xF0D JUMP JUMPDEST SWAP2 POP PUSH2 0x130A DUP3 PUSH2 0xFED JUMP JUMPDEST SWAP2 POP PUSH2 0x1316 DUP3 DUP5 PUSH2 0xF0D JUMP JUMPDEST SWAP2 POP PUSH2 0x1321 DUP3 PUSH2 0x1056 JUMP JUMPDEST SWAP2 POP DUP2 SWAP1 POP SWAP6 SWAP5 POP POP POP POP POP JUMP JUMPDEST PUSH1 0x0 PUSH2 0x133A DUP3 PUSH2 0x1107 JUMP JUMPDEST SWAP2 POP PUSH2 0x1346 DUP3 DUP5 PUSH2 0xF0D JUMP JUMPDEST SWAP2 POP DUP2 SWAP1 POP SWAP3 SWAP2 POP POP JUMP JUMPDEST PUSH1 0x0 PUSH2 0x135C DUP3 PUSH2 0x112A JUMP JUMPDEST SWAP2 POP PUSH2 0x1368 DUP3 DUP7 PUSH2 0xF0D JUMP JUMPDEST SWAP2 POP PUSH2 0x1374 DUP3 DUP6 PUSH2 0xF0D JUMP JUMPDEST SWAP2 POP PUSH2 0x1380 DUP3 DUP5 PUSH2 0xF0D JUMP JUMPDEST SWAP2 POP PUSH2 0x138B DUP3 PUSH2 0x1170 JUMP JUMPDEST SWAP2 POP DUP2 SWAP1 POP SWAP5 SWAP4 POP POP POP POP JUMP JUMPDEST PUSH1 0x0 PUSH2 0x13A3 DUP3 PUSH2 0x1193 JUMP JUMPDEST SWAP2 POP PUSH2 0x13AF DUP3 DUP8 PUSH2 0xF0D JUMP JUMPDEST SWAP2 POP PUSH2 0x13BB DUP3 DUP7 PUSH2 0xF0D JUMP JUMPDEST SWAP2 POP PUSH2 0x13C7 DUP3 DUP6 PUSH2 0xF0D JUMP JUMPDEST SWAP2 POP PUSH2 0x13D3 DUP3 DUP5 PUSH2 0xF0D JUMP JUMPDEST SWAP2 POP DUP2 SWAP1 POP SWAP6 SWAP5 POP POP POP POP POP JUMP JUMPDEST PUSH1 0x0 PUSH1 0x20 DUP3 ADD SWAP1 POP DUP2 DUP2 SUB PUSH1 0x0 DUP4 ADD MSTORE PUSH2 0x13FB DUP2 DUP5 PUSH2 0xE26 JUMP JUMPDEST SWAP1 POP SWAP3 SWAP2 POP POP JUMP JUMPDEST PUSH1 0x0 PUSH1 0x20 DUP3 ADD SWAP1 POP DUP2 DUP2 SUB PUSH1 0x0 DUP4 ADD MSTORE PUSH2 0x141D DUP2 DUP5 PUSH2 0xED4 JUMP JUMPDEST SWAP1 POP SWAP3 SWAP2 POP POP JUMP JUMPDEST PUSH1 0x0 PUSH1 0x20 DUP3 ADD SWAP1 POP PUSH2 0x143A PUSH1 0x0 DUP4 ADD DUP5 PUSH2 0x11C5 JUMP JUMPDEST SWAP3 SWAP2 POP POP JUMP JUMPDEST PUSH1 0x0 PUSH1 0x20 DUP3 ADD SWAP1 POP PUSH2 0x1455 PUSH1 0x0 DUP4 ADD DUP5 PUSH2 0x11B6 JUMP JUMPDEST SWAP3 SWAP2 POP POP JUMP JUMPDEST PUSH1 0x0 PUSH2 0x1465 PUSH2 0x1476 JUMP JUMPDEST SWAP1 POP PUSH2 0x1471 DUP3 DUP3 PUSH2 0x1831 JUMP JUMPDEST SWAP2 SWAP1 POP JUMP JUMPDEST PUSH1 0x0 PUSH1 0x40 MLOAD SWAP1 POP SWAP1 JUMP JUMPDEST PUSH1 0x0 PUSH8 0xFFFFFFFFFFFFFFFF DUP3 GT ISZERO PUSH2 0x149B JUMPI PUSH2 0x149A PUSH2 0x1969 JUMP JUMPDEST JUMPDEST PUSH1 0x20 DUP3 MUL SWAP1 POP SWAP2 SWAP1 POP JUMP JUMPDEST PUSH1 0x0 PUSH8 0xFFFFFFFFFFFFFFFF DUP3 GT ISZERO PUSH2 0x14C1 JUMPI PUSH2 0x14C0 PUSH2 0x1969 JUMP JUMPDEST JUMPDEST PUSH2 0x14CA DUP3 PUSH2 0x1998 JUMP JUMPDEST SWAP1 POP PUSH1 0x20 DUP2 ADD SWAP1 POP SWAP2 SWAP1 POP JUMP JUMPDEST PUSH1 0x0 DUP2 SWAP1 POP SWAP2 SWAP1 POP JUMP JUMPDEST PUSH1 0x0 PUSH1 0x2 SWAP1 POP SWAP2 SWAP1 POP JUMP JUMPDEST PUSH1 0x0 DUP2 MLOAD SWAP1 POP SWAP2 SWAP1 POP JUMP JUMPDEST PUSH1 0x0 PUSH1 0x20 DUP3 ADD SWAP1 POP SWAP2 SWAP1 POP JUMP JUMPDEST PUSH1 0x0 DUP2 SWAP1 POP SWAP3 SWAP2 POP POP JUMP JUMPDEST PUSH1 0x0 DUP3 DUP3 MSTORE PUSH1 0x20 DUP3 ADD SWAP1 POP SWAP3 SWAP2 POP POP JUMP JUMPDEST PUSH1 0x0 DUP3 DUP3 MSTORE PUSH1 0x20 DUP3 ADD SWAP1 POP SWAP3 SWAP2 POP POP JUMP JUMPDEST PUSH1 0x0 DUP2 SWAP1 POP SWAP3 SWAP2 POP POP JUMP JUMPDEST PUSH1 0x0 PUSH2 0x1547 DUP3 PUSH2 0x17C2 JUMP JUMPDEST SWAP2 POP PUSH2 0x1552 DUP4 PUSH2 0x17C2 JUMP JUMPDEST SWAP3 POP DUP3 PUSH32 0xFFFFFFFFFFFFFFFFFFFFFFFFFFFFFFFFFFFFFFFFFFFFFFFFFFFFFFFFFFFFFFFF SUB DUP3 GT ISZERO PUSH2 0x1587 JUMPI PUSH2 0x1586 PUSH2 0x18DC JUMP JUMPDEST JUMPDEST DUP3 DUP3 ADD SWAP1 POP SWAP3 SWAP2 POP POP JUMP JUMPDEST PUSH1 0x0 PUSH2 0x159D DUP3 PUSH2 0x17C2 JUMP JUMPDEST SWAP2 POP PUSH2 0x15A8 DUP4 PUSH2 0x17C2 JUMP JUMPDEST SWAP3 POP DUP3 PUSH2 0x15B8 JUMPI PUSH2 0x15B7 PUSH2 0x190B JUMP JUMPDEST JUMPDEST DUP3 DUP3 DIV SWAP1 POP SWAP3 SWAP2 POP POP JUMP JUMPDEST PUSH1 0x0 DUP1 DUP3 SWAP2 POP DUP4 SWAP1 POP JUMPDEST PUSH1 0x1 DUP6 GT ISZERO PUSH2 0x160D JUMPI DUP1 DUP7 DIV DUP2 GT ISZERO PUSH2 0x15E9 JUMPI PUSH2 0x15E8 PUSH2 0x18DC JUMP JUMPDEST JUMPDEST PUSH1 0x1 DUP6 AND ISZERO PUSH2 0x15F8 JUMPI DUP1 DUP3 MUL SWAP2 POP JUMPDEST DUP1 DUP2 MUL SWAP1 POP PUSH2 0x1606 DUP6 PUSH2 0x19A9 JUMP JUMPDEST SWAP5 POP PUSH2 0x15CD JUMP JUMPDEST SWAP5 POP SWAP5 SWAP3 POP POP POP JUMP JUMPDEST PUSH1 0x0 PUSH2 0x1621 DUP3 PUSH2 0x17C2 JUMP JUMPDEST SWAP2 POP PUSH2 0x162C DUP4 PUSH2 0x17C2 JUMP JUMPDEST SWAP3 POP PUSH2 0x1659 PUSH32 0xFFFFFFFFFFFFFFFFFFFFFFFFFFFFFFFFFFFFFFFFFFFFFFFFFFFFFFFFFFFFFFFF DUP5 DUP5 PUSH2 0x1661 JUMP JUMPDEST SWAP1 POP SWAP3 SWAP2 POP POP JUMP JUMPDEST PUSH1 0x0 DUP3 PUSH2 0x1671 JUMPI PUSH1 0x1 SWAP1 POP PUSH2 0x172D JUMP JUMPDEST DUP2 PUSH2 0x167F JUMPI PUSH1 0x0 SWAP1 POP PUSH2 0x172D JUMP JUMPDEST DUP2 PUSH1 0x1 DUP2 EQ PUSH2 0x1695 JUMPI PUSH1 0x2 DUP2 EQ PUSH2 0x169F JUMPI PUSH2 0x16CE JUMP JUMPDEST PUSH1 0x1 SWAP2 POP POP PUSH2 0x172D JUMP JUMPDEST PUSH1 0xFF DUP5 GT ISZERO PUSH2 0x16B1 JUMPI PUSH2 0x16B0 PUSH2 0x18DC JUMP JUMPDEST JUMPDEST DUP4 PUSH1 0x2 EXP SWAP2 POP DUP5 DUP3 GT ISZERO PUSH2 0x16C8 JUMPI PUSH2 0x16C7 PUSH2 0x18DC JUMP JUMPDEST JUMPDEST POP PUSH2 0x172D JUMP JUMPDEST POP PUSH1 0x20 DUP4 LT PUSH2 0x133 DUP4 LT AND PUSH1 0x4E DUP5 LT PUSH1 0xB DUP5 LT AND OR ISZERO PUSH2 0x1703 JUMPI DUP3 DUP3 EXP SWAP1 POP DUP4 DUP2 GT ISZERO PUSH2 0x16FE JUMPI PUSH2 0x16FD PUSH2 0x18DC JUMP JUMPDEST JUMPDEST PUSH2 0x172D JUMP JUMPDEST PUSH2 0x1710 DUP5 DUP5 DUP5 PUSH1 0x1 PUSH2 0x15C3 JUMP JUMPDEST SWAP3 POP SWAP1 POP DUP2 DUP5 DIV DUP2 GT ISZERO PUSH2 0x1727 JUMPI PUSH2 0x1726 PUSH2 0x18DC JUMP JUMPDEST JUMPDEST DUP2 DUP2 MUL SWAP1 POP JUMPDEST SWAP4 SWAP3 POP POP POP JUMP JUMPDEST PUSH1 0x0 PUSH2 0x173F DUP3 PUSH2 0x17C2 JUMP JUMPDEST SWAP2 POP PUSH2 0x174A DUP4 PUSH2 0x17C2 JUMP JUMPDEST SWAP3 POP DUP2 PUSH32 0xFFFFFFFFFFFFFFFFFFFFFFFFFFFFFFFFFFFFFFFFFFFFFFFFFFFFFFFFFFFFFFFF DIV DUP4 GT DUP3 ISZERO ISZERO AND ISZERO PUSH2 0x1783 JUMPI PUSH2 0x1782 PUSH2 0x18DC JUMP JUMPDEST JUMPDEST DUP3 DUP3 MUL SWAP1 POP SWAP3 SWAP2 POP POP JUMP JUMPDEST PUSH1 0x0 PUSH2 0x1799 DUP3 PUSH2 0x17C2 JUMP JUMPDEST SWAP2 POP PUSH2 0x17A4 DUP4 PUSH2 0x17C2 JUMP JUMPDEST SWAP3 POP DUP3 DUP3 LT ISZERO PUSH2 0x17B7 JUMPI PUSH2 0x17B6 PUSH2 0x18DC JUMP JUMPDEST JUMPDEST DUP3 DUP3 SUB SWAP1 POP SWAP3 SWAP2 POP POP JUMP JUMPDEST PUSH1 0x0 DUP2 SWAP1 POP SWAP2 SWAP1 POP JUMP JUMPDEST PUSH1 0x0 JUMPDEST DUP4 DUP2 LT ISZERO PUSH2 0x17EA JUMPI DUP1 DUP3 ADD MLOAD DUP2 DUP5 ADD MSTORE PUSH1 0x20 DUP2 ADD SWAP1 POP PUSH2 0x17CF JUMP JUMPDEST DUP4 DUP2 GT ISZERO PUSH2 0x17F9 JUMPI PUSH1 0x0 DUP5 DUP5 ADD MSTORE JUMPDEST POP POP POP POP JUMP JUMPDEST PUSH1 0x0 PUSH1 0x2 DUP3 DIV SWAP1 POP PUSH1 0x1 DUP3 AND DUP1 PUSH2 0x1817 JUMPI PUSH1 0x7F DUP3 AND SWAP2 POP JUMPDEST PUSH1 0x20 DUP3 LT DUP2 EQ ISZERO PUSH2 0x182B JUMPI PUSH2 0x182A PUSH2 0x193A JUMP JUMPDEST JUMPDEST POP SWAP2 SWAP1 POP JUMP JUMPDEST PUSH2 0x183A DUP3 PUSH2 0x1998 JUMP JUMPDEST DUP2 ADD DUP2 DUP2 LT PUSH8 0xFFFFFFFFFFFFFFFF DUP3 GT OR ISZERO PUSH2 0x1859 JUMPI PUSH2 0x1858 PUSH2 0x1969 JUMP JUMPDEST JUMPDEST DUP1 PUSH1 0x40 MSTORE POP POP POP JUMP JUMPDEST PUSH1 0x0 PUSH2 0x186D DUP3 PUSH2 0x17C2 JUMP JUMPDEST SWAP2 POP PUSH32 0xFFFFFFFFFFFFFFFFFFFFFFFFFFFFFFFFFFFFFFFFFFFFFFFFFFFFFFFFFFFFFFFF DUP3 EQ ISZERO PUSH2 0x18A0 JUMPI PUSH2 0x189F PUSH2 0x18DC JUMP JUMPDEST JUMPDEST PUSH1 0x1 DUP3 ADD SWAP1 POP SWAP2 SWAP1 POP JUMP JUMPDEST PUSH1 0x0 PUSH2 0x18B6 DUP3 PUSH2 0x17C2 JUMP JUMPDEST SWAP2 POP PUSH2 0x18C1 DUP4 PUSH2 0x17C2 JUMP JUMPDEST SWAP3 POP DUP3 PUSH2 0x18D1 JUMPI PUSH2 0x18D0 PUSH2 0x190B JUMP JUMPDEST JUMPDEST DUP3 DUP3 MOD SWAP1 POP SWAP3 SWAP2 POP POP JUMP JUMPDEST PUSH32 0x4E487B7100000000000000000000000000000000000000000000000000000000 PUSH1 0x0 MSTORE PUSH1 0x11 PUSH1 0x4 MSTORE PUSH1 0x24 PUSH1 0x0 REVERT JUMPDEST PUSH32 0x4E487B7100000000000000000000000000000000000000000000000000000000 PUSH1 0x0 MSTORE PUSH1 0x12 PUSH1 0x4 MSTORE PUSH1 0x24 PUSH1 0x0 REVERT JUMPDEST PUSH32 0x4E487B7100000000000000000000000000000000000000000000000000000000 PUSH1 0x0 MSTORE PUSH1 0x22 PUSH1 0x4 MSTORE PUSH1 0x24 PUSH1 0x0 REVERT JUMPDEST PUSH32 0x4E487B7100000000000000000000000000000000000000000000000000000000 PUSH1 0x0 MSTORE PUSH1 0x41 PUSH1 0x4 MSTORE PUSH1 0x24 PUSH1 0x0 REVERT JUMPDEST PUSH1 0x0 PUSH1 0x1F NOT PUSH1 0x1F DUP4 ADD AND SWAP1 POP SWAP2 SWAP1 POP JUMP JUMPDEST PUSH1 0x0 DUP2 PUSH1 0x1 SHR SWAP1 POP SWAP2 SWAP1 POP JUMP JUMPDEST PUSH32 0x222C202261747472696275746573223A205B7B22646973706C61795F74797065 PUSH1 0x0 DUP3 ADD MSTORE PUSH32 0x223A202264617465222C202274726169745F74797065223A2022466F7274756E PUSH1 0x20 DUP3 ADD MSTORE PUSH32 0x652044617465222C202276616C7565223A202200000000000000000000000000 PUSH1 0x40 DUP3 ADD MSTORE POP JUMP JUMPDEST PUSH32 0x222C20226465736372697074696F6E223A202200000000000000000000000000 PUSH1 0x0 DUP3 ADD MSTORE POP JUMP JUMPDEST PUSH32 0x273E3C616E696D617465206174747269627574654E616D653D276F6666736574 PUSH1 0x0 DUP3 ADD MSTORE PUSH32 0x27206475723D27353073272076616C7565733D27302E33303B302E383B302E33 PUSH1 0x20 DUP3 ADD MSTORE PUSH32 0x302720726570656174436F756E743D27696E646566696E697465272F3E3C2F73 PUSH1 0x40 DUP3 ADD MSTORE PUSH32 0x746F703E3C73746F70206F66667365743D273127207374796C653D2773746F70 PUSH1 0x60 DUP3 ADD MSTORE PUSH32 0x2D636F6C6F723A00000000000000000000000000000000000000000000000000 PUSH1 0x80 DUP3 ADD MSTORE POP JUMP JUMPDEST PUSH32 0x3C72616469616C4772616469656E742069643D2761272063783D273230302720 PUSH1 0x0 DUP3 ADD MSTORE PUSH32 0x63793D272D3130302720723D273239302E30323527206772616469656E745472 PUSH1 0x20 DUP3 ADD MSTORE PUSH32 0x616E73666F726D3D276D6174726978283120302030202D312030203736292720 PUSH1 0x40 DUP3 ADD MSTORE PUSH32 0x6772616469656E74556E6974733D277573657253706163654F6E557365273E3C PUSH1 0x60 DUP3 ADD MSTORE PUSH32 0x73746F70206F66667365743D272E3227207374796C653D2773746F702D636F6C PUSH1 0x80 DUP3 ADD MSTORE PUSH32 0x6F723A0000000000000000000000000000000000000000000000000000000000 PUSH1 0xA0 DUP3 ADD MSTORE POP JUMP JUMPDEST PUSH32 0x3C7465787420783D273438252720793D2735302527207472616E73666F726D3D PUSH1 0x0 DUP3 ADD MSTORE PUSH32 0x27726F74617465282D33292720646F6D696E616E742D626173656C696E653D27 PUSH1 0x20 DUP3 ADD MSTORE PUSH32 0x6D6964646C652720746578742D616E63686F723D276D6964646C65273E000000 PUSH1 0x40 DUP3 ADD MSTORE POP JUMP JUMPDEST PUSH32 0x227D5D2C2022696D616765223A2022646174613A696D6167652F7376672B786D PUSH1 0x0 DUP3 ADD MSTORE PUSH32 0x6C3B6261736536342C0000000000000000000000000000000000000000000000 PUSH1 0x20 DUP3 ADD MSTORE POP JUMP JUMPDEST PUSH32 0x2000000000000000000000000000000000000000000000000000000000000000 PUSH1 0x0 DUP3 ADD MSTORE POP JUMP JUMPDEST PUSH32 0x273E3C616E696D617465206174747269627574654E616D653D276F6666736574 PUSH1 0x0 DUP3 ADD MSTORE PUSH32 0x27206475723D27353073272076616C7565733D27302E30313B302E343B302E30 PUSH1 0x20 DUP3 ADD MSTORE PUSH32 0x312720726570656174436F756E743D27696E646566696E697465272F3E3C2F73 PUSH1 0x40 DUP3 ADD MSTORE PUSH32 0x746F703E3C73746F70206F66667365743D272E3827207374796C653D2773746F PUSH1 0x60 DUP3 ADD MSTORE PUSH32 0x702D636F6C6F723A000000000000000000000000000000000000000000000000 PUSH1 0x80 DUP3 ADD MSTORE POP JUMP JUMPDEST PUSH32 0x227D000000000000000000000000000000000000000000000000000000000000 PUSH1 0x0 DUP3 ADD MSTORE POP JUMP JUMPDEST PUSH32 0x3C2F746578743E00000000000000000000000000000000000000000000000000 PUSH1 0x0 DUP3 ADD MSTORE POP JUMP JUMPDEST PUSH32 0x3C706174682066696C6C3D2775726C282361292720643D274D30203068343030 PUSH1 0x0 DUP3 ADD MSTORE PUSH32 0x7634303048307A272F3E3C7061746820643D274D3338322E313238203233352E PUSH1 0x20 DUP3 ADD MSTORE PUSH32 0x3832367332352E3031332D322E38353920362E3032332D32322E363135633020 PUSH1 0x40 DUP3 ADD MSTORE PUSH32 0x302D34312E3235392D33342E3131332D37302E3238332D35342E32362D31322E PUSH1 0x60 DUP3 ADD MSTORE PUSH32 0x3335362D382E3537362D31332E3334322D31322E35372D31362E3833362D3134 PUSH1 0x80 DUP3 ADD MSTORE PUSH32 0x2E3636366C2E3038352E323534732D2E30342D312E3337382D312E3831342031 PUSH1 0xA0 DUP3 ADD MSTORE PUSH32 0x342E313637632D322E3331352032302E3237332D31302E3533322033372E3434 PUSH1 0xC0 DUP3 ADD MSTORE PUSH32 0x322D32302E3933382036342E3231332D362E3133332031352E3737372D31332E PUSH1 0xE0 DUP3 ADD MSTORE PUSH32 0x3130332032392E3632322D31332E3130332032392E363232732D2E3737322032 PUSH2 0x100 DUP3 ADD MSTORE PUSH32 0x2E32353720312E36303520332E31353863322E3337372E3920362E3838322E30 PUSH2 0x120 DUP3 ADD MSTORE PUSH32 0x393720362E3838322E3039377337302E3531322D362E333539203131302E3531 PUSH2 0x140 DUP3 ADD MSTORE PUSH32 0x362D32302E343436272066696C6C3D2723646538373236272066696C6C2D7275 PUSH2 0x160 DUP3 ADD MSTORE PUSH32 0x6C653D276576656E6F646427207374726F6B653D272364653837323627207374 PUSH2 0x180 DUP3 ADD MSTORE PUSH32 0x726F6B652D77696474683D272E3634342720766563746F726E61746F723A6C61 PUSH2 0x1A0 DUP3 ADD MSTORE PUSH32 0x7965724E616D653D27436F6F6B696520522E272F3E3C672066696C6C2D72756C PUSH2 0x1C0 DUP3 ADD MSTORE PUSH32 0x653D276576656E6F646427207374726F6B652D77696474683D272E3634342720 PUSH2 0x1E0 DUP3 ADD MSTORE PUSH32 0x766563746F726E61746F723A6C617965724E616D653D27526967687420464327 PUSH2 0x200 DUP3 ADD MSTORE PUSH32 0x3E3C7061746820643D274D3236362E3434203235352E3830377333332E303536 PUSH2 0x220 DUP3 ADD MSTORE PUSH32 0x2D31382E3233372033372E3637362D32312E30373863392E3137342D352E3633 PUSH2 0x240 DUP3 ADD MSTORE PUSH32 0x382031392E3533312D31362E3437382033382E3635312D31372E383235203133 PUSH2 0x260 DUP3 ADD MSTORE PUSH32 0x2E3938332D2E3938352034342E35363520372E3239332035302E373539203132 PUSH2 0x280 DUP3 ADD MSTORE PUSH32 0x2E3430382030203020322E38323420322E3834392D392E31353420362E37312D PUSH2 0x2A0 DUP3 ADD MSTORE PUSH32 0x31312E393820332E3836312D33342E37313720382E3730342D35302E30383520 PUSH2 0x2C0 DUP3 ADD MSTORE PUSH32 0x31312E3837392D31382E353420332E3832392D34332E38323520362E3738312D PUSH2 0x2E0 DUP3 ADD MSTORE PUSH32 0x35372E32363520372E3831352D392E3636312E3734342D31302E36322E303535 PUSH2 0x300 DUP3 ADD MSTORE PUSH32 0x2D31302E36322E303535272066696C6C3D272366376235353827206F70616369 PUSH2 0x320 DUP3 ADD MSTORE PUSH32 0x74793D272E363827207374726F6B653D2723663762353538272F3E3C70617468 PUSH2 0x340 DUP3 ADD MSTORE PUSH32 0x20643D274D3331392E323034203233392E383338632D31392E31333520372E37 PUSH2 0x360 DUP3 ADD MSTORE PUSH32 0x37382D32342E36333520312E3130342D32342E36333520312E3130342D31362E PUSH2 0x380 DUP3 ADD MSTORE PUSH32 0x3431382D33352E3731372031352E3939342D38362E3933312031352E3939342D PUSH2 0x3A0 DUP3 ADD MSTORE PUSH32 0x38362E3933312D322E3236312D312E3931342D392E3535362D31302E3333362D PUSH2 0x3C0 DUP3 ADD MSTORE PUSH32 0x392E3535362D31302E333336732D312E3538312032322E3239322D392E323033 PUSH2 0x3E0 DUP3 ADD MSTORE PUSH32 0x2034322E333533632D362E3833362031372E3939312D31322E3131372033352E PUSH2 0x400 DUP3 ADD MSTORE PUSH32 0x3733372D32352E3533352036342E393031203020302D332E3420342E32313520 PUSH2 0x420 DUP3 ADD MSTORE PUSH32 0x312E3720352E343834203020302034312E3533392D332E3235392037312E3335 PUSH2 0x440 DUP3 ADD MSTORE PUSH32 0x2D392E3330322032392E3536352D352E3939322034362E3930352D31322E3231 PUSH2 0x460 DUP3 ADD MSTORE PUSH32 0x352034362E3930352D31322E3231352031352E3335372D332E383620362E3432 PUSH2 0x480 DUP3 ADD MSTORE PUSH32 0x352D31362E31363520362E3432352D31362E3136352D392E30322031332E3333 PUSH2 0x4A0 DUP3 ADD MSTORE PUSH32 0x332D32322E3933362031312E3032332D32322E3933362031312E3032332D3332 PUSH2 0x4C0 DUP3 ADD MSTORE PUSH32 0x2E3936312D312E3438322D35302E3438392031302E3039392D35302E34383920 PUSH2 0x4E0 DUP3 ADD MSTORE PUSH32 0x31302E303939272066696C6C3D272361623664343027206F7061636974793D27 PUSH2 0x500 DUP3 ADD MSTORE PUSH32 0x2E35333127207374726F6B653D2723616236643430272F3E3C2F673E3C706174 PUSH2 0x520 DUP3 ADD MSTORE PUSH32 0x6820643D274D3338362E313031203231312E343033732D31342E39383420312E PUSH2 0x540 DUP3 ADD MSTORE PUSH32 0x3734322D33392E30392D31372E313136632D31322E3139332D392E3533382D33 PUSH2 0x560 DUP3 ADD MSTORE PUSH32 0x392E3437342D33312E3934332D34362E3138322D35302E383936203020302D31 PUSH2 0x580 DUP3 ADD MSTORE PUSH32 0x2E3838362D312E36353420362E34383520362E373820372E32393120372E3334 PUSH2 0x5A0 DUP3 ADD MSTORE PUSH32 0x372032342E3731372031382E3235312033352E38352032372E30363561313836 PUSH2 0x5C0 DUP3 ADD MSTORE PUSH32 0x32302E3236342031383632302E3236342030203020312034322E393133203334 PUSH2 0x5E0 DUP3 ADD MSTORE PUSH32 0x2E313038272066696C6C3D2723666165626365272066696C6C2D72756C653D27 PUSH2 0x600 DUP3 ADD MSTORE PUSH32 0x6576656E6F646427206F7061636974793D272E35303627207374726F6B653D27 PUSH2 0x620 DUP3 ADD MSTORE PUSH32 0x2366616562636527207374726F6B652D77696474683D272E3634342720766563 PUSH2 0x640 DUP3 ADD MSTORE PUSH32 0x746F726E61746F723A6C617965724E616D653D274F6666207768697465206663 PUSH2 0x660 DUP3 ADD MSTORE PUSH32 0x272F3E3C6720766563746F726E61746F723A6C617965724E616D653D2752696D PUSH2 0x680 DUP3 ADD MSTORE PUSH32 0x207269676874206663272066696C6C2D72756C653D276576656E6F6464272073 PUSH2 0x6A0 DUP3 ADD MSTORE PUSH32 0x74726F6B652D77696474683D272E363434273E3C7061746820643D274D323938 PUSH2 0x6C0 DUP3 ADD MSTORE PUSH32 0x2E303632203134322E383132632D2E3638322E3132352D312E3530392E343435 PUSH2 0x6E0 DUP3 ADD MSTORE PUSH32 0x2D322E34363820312E303633203020302D33322E3333362032362E3934382D33 PUSH2 0x700 DUP3 ADD MSTORE PUSH32 0x362E3430362033302E3231392D2E3138382E31352D32362E3831332032372E31 PUSH2 0x720 DUP3 ADD MSTORE PUSH32 0x393220362E3539332038312E3437372E3032392D2E3130372031372E36322D34 PUSH2 0x740 DUP3 ADD MSTORE PUSH32 0x302E3337342032352E3934362D36362E353320382E3430382D32362E34313520 PUSH2 0x760 DUP3 ADD MSTORE PUSH32 0x392E3231312D34352E323620392E3231312D34352E3236732D2E3832392D312E PUSH2 0x780 DUP3 ADD MSTORE PUSH32 0x3334312D322E3837362D2E3936395A272066696C6C3D27236637623535382720 PUSH2 0x7A0 DUP3 ADD MSTORE PUSH32 0x6F7061636974793D272E38323627207374726F6B653D2723663762353538272F PUSH2 0x7C0 DUP3 ADD MSTORE PUSH32 0x3E3C7061746820643D274D3235362E3433203138342E30373163352E3237312D PUSH2 0x7E0 DUP3 ADD MSTORE PUSH32 0x372E3830372034302E3231382D33372E3031322034302E3231382D33372E3031 PUSH2 0x800 DUP3 ADD MSTORE PUSH32 0x32732D312E3132362032332E3833332D31312E3034322034342E383338632D31 PUSH2 0x820 DUP3 ADD MSTORE PUSH32 0x302E3334332032312E3930372D32302E3635322035342E3332382D32302E3635 PUSH2 0x840 DUP3 ADD MSTORE PUSH32 0x322035342E333238732D382E3331322D31352E3236362D31312E3034342D3238 PUSH2 0x860 DUP3 ADD MSTORE PUSH32 0x2E343836632D322E3733312D31332E32322D322E3034372D32372E3337362032 PUSH2 0x880 DUP3 ADD MSTORE PUSH32 0x2E3533392D33332E373139272066696C6C3D272362343738346327206F706163 PUSH2 0x8A0 DUP3 ADD MSTORE PUSH32 0x6974793D272E37313527207374726F6B653D2723623437383463272F3E3C2F67 PUSH2 0x8C0 DUP3 ADD MSTORE PUSH32 0x3E3C672066696C6C2D72756C653D276576656E6F646427207374726F6B653D27 PUSH2 0x8E0 DUP3 ADD MSTORE PUSH32 0x2362633562303827207374726F6B652D77696474683D272E3634342720766563 PUSH2 0x900 DUP3 ADD MSTORE PUSH32 0x746F726E61746F723A6C617965724E616D653D2744657461696C732052273E3C PUSH2 0x920 DUP3 ADD MSTORE PUSH32 0x7061746820643D274D3332332E3938203136372E303131732D312E3034362035 PUSH2 0x940 DUP3 ADD MSTORE PUSH32 0x2E3234352D362E38303520362E3137326D31322E3333372D2E353673312E3632 PUSH2 0x960 DUP3 ADD MSTORE PUSH32 0x3820322E38322D312E373420352E3231316D33312E31352031372E3531367331 PUSH2 0x980 DUP3 ADD MSTORE PUSH32 0x2E39343120342E3230342D352E33303920382E31366D31312E3239362D342E32 PUSH2 0x9A0 DUP3 ADD MSTORE PUSH32 0x3836732E32363620342E3634352D342E35333920362E3238376D372E3932382D PUSH2 0x9C0 DUP3 ADD MSTORE PUSH32 0x332E33313573322E30303420342E3837322D322E34383520382E3335356D2D37 PUSH2 0x9E0 DUP3 ADD MSTORE PUSH32 0x302E3134392032352E33373873352E3738352D312E30353520352E3731382035 PUSH2 0xA00 DUP3 ADD MSTORE PUSH32 0x2E303632272066696C6C3D276E6F6E65272F3E3C7061746820643D274D333332 PUSH2 0xA20 DUP3 ADD MSTORE PUSH32 0x2E323132203139332E34373663302D2E3434332E3239332D2E3830332E363533 PUSH2 0xA40 DUP3 ADD MSTORE PUSH32 0x2D2E3830332E3336312030202E3635332E33362E3635332E3830332030202E34 PUSH2 0xA60 DUP3 ADD MSTORE PUSH32 0x34332D2E3239322E3830332D2E3635332E3830332D2E333620302D2E3635332D PUSH2 0xA80 DUP3 ADD MSTORE PUSH32 0x2E33362D2E3635332D2E3830335A6D31382E3239382D332E39313763302D2E35 PUSH2 0xAA0 DUP3 ADD MSTORE PUSH32 0x39322E3237352D312E3037322E3631342D312E3037322E33342030202E363134 PUSH2 0xAC0 DUP3 ADD MSTORE PUSH32 0x2E34382E36313420312E3037322030202E3539312D2E32373420312E3037312D PUSH2 0xAE0 DUP3 ADD MSTORE PUSH32 0x2E36313420312E3037312D2E33333920302D2E3631342D2E34382D2E3631342D PUSH2 0xB00 DUP3 ADD MSTORE PUSH32 0x312E3037315A6D2D31312E3630382D372E35383263302D2E3638342E3331322D PUSH2 0xB20 DUP3 ADD MSTORE PUSH32 0x312E3233382E3639382D312E3233382E3338362030202E3639382E3535342E36 PUSH2 0xB40 DUP3 ADD MSTORE PUSH32 0x393820312E3233382030202E3638332D2E33313220312E3233372D2E36393820 PUSH2 0xB60 DUP3 ADD MSTORE PUSH32 0x312E3233372D2E33383620302D2E3639382D2E3535342D2E3639382D312E3233 PUSH2 0xB80 DUP3 ADD MSTORE PUSH32 0x375A6D2D32302E3433362D2E36353563302D2E3933322E3339392D312E363837 PUSH2 0xBA0 DUP3 ADD MSTORE PUSH32 0x2E3839312D312E363837732E3839312E3735352E38393120312E363837633020 PUSH2 0xBC0 DUP3 ADD MSTORE PUSH32 0x2E3933312D2E33393920312E3638362D2E38393120312E363836732D2E383931 PUSH2 0xBE0 DUP3 ADD MSTORE PUSH32 0x2D2E3735352D2E3839312D312E3638365A6D2D33352E3535322035392E353637 PUSH2 0xC00 DUP3 ADD MSTORE PUSH32 0x63302D312E3337362E3434322D322E3439322E3938382D322E3439322E353435 PUSH2 0xC20 DUP3 ADD MSTORE PUSH32 0x2030202E39383720312E3131362E39383720322E343932203020312E3337372D PUSH2 0xC40 DUP3 ADD MSTORE PUSH32 0x2E34343220322E3439322D2E39383720322E3439322D2E35343620302D2E3938 PUSH2 0xC60 DUP3 ADD MSTORE PUSH32 0x382D312E3131352D2E3938382D322E3439325A6D2D32332E3731382E36383763 PUSH2 0xC80 DUP3 ADD MSTORE PUSH32 0x302D312E3030332E34362D312E38313620312E3032382D312E3831362E353637 PUSH2 0xCA0 DUP3 ADD MSTORE PUSH32 0x203020312E3032372E38313320312E30323720312E383136203020312E303033 PUSH2 0xCC0 DUP3 ADD MSTORE PUSH32 0x2D2E343620312E3831362D312E30323720312E3831362D2E35363820302D312E PUSH2 0xCE0 DUP3 ADD MSTORE PUSH32 0x3032382D2E3831332D312E3032382D312E3831365A6D31362E3837342D31392E PUSH2 0xD00 DUP3 ADD MSTORE PUSH32 0x35363863302D2E3735362E3038362D312E3336392E3139322D312E3336392E31 PUSH2 0xD20 DUP3 ADD MSTORE PUSH32 0x30362030202E3139322E3631332E31393220312E3336392030202E3735372D2E PUSH2 0xD40 DUP3 ADD MSTORE PUSH32 0x30383620312E33372D2E31393220312E33372D2E31303620302D2E3139322D2E PUSH2 0xD60 DUP3 ADD MSTORE PUSH32 0x3631332D2E3139322D312E33375A272066696C6C3D272362633562303827206F PUSH2 0xD80 DUP3 ADD MSTORE PUSH32 0x7061636974793D272E353331272F3E3C2F673E3C7061746820643D276D31322E PUSH2 0xDA0 DUP3 ADD MSTORE PUSH32 0x343239203231372E3934372D322E35303920322E313635632D31382E34362031 PUSH2 0xDC0 DUP3 ADD MSTORE PUSH32 0x382E38393220372E3238352032312E34363220372E3238352032312E34363220 PUSH2 0xDE0 DUP3 ADD MSTORE PUSH32 0x32322E36383620352E3731322036352E3733342031312E3534372038332E3235 PUSH2 0xE00 DUP3 ADD MSTORE PUSH32 0x2031332E3435392033322E35313320332E3535312033322E35312D2E38333920 PUSH2 0xE20 DUP3 ADD MSTORE PUSH32 0x33322E35312D2E3833396C2E3037372D2E3431332D33372E3034362D3130382E PUSH2 0xE40 DUP3 ADD MSTORE PUSH32 0x3239342D2E3139362D2E323233732D322E32352D312E3539352D392E31333520 PUSH2 0xE60 DUP3 ADD MSTORE PUSH32 0x372E3133316C312E3531342D312E3936374C392E3932203232302E3131322720 PUSH2 0xE80 DUP3 ADD MSTORE PUSH32 0x66696C6C3D2723646538373236272066696C6C2D72756C653D276576656E6F64 PUSH2 0xEA0 DUP3 ADD MSTORE PUSH32 0x6427207374726F6B653D272364653837323627207374726F6B652D7769647468 PUSH2 0xEC0 DUP3 ADD MSTORE PUSH32 0x3D272E3634342720766563746F726E61746F723A6C617965724E616D653D2743 PUSH2 0xEE0 DUP3 ADD MSTORE PUSH32 0x6F6F6B6965204C2E272F3E3C672066696C6C2D72756C653D276576656E6F6464 PUSH2 0xF00 DUP3 ADD MSTORE PUSH32 0x27207374726F6B652D77696474683D272E3634342720766563746F726E61746F PUSH2 0xF20 DUP3 ADD MSTORE PUSH32 0x723A6C617965724E616D653D274C656674204643273E3C7061746820643D274D PUSH2 0xF40 DUP3 ADD MSTORE PUSH32 0x37312E3934203232382E393833632D32362E37362D31332E3631392D34362E38 PUSH2 0xF60 DUP3 ADD MSTORE PUSH32 0x332D312E3533322D34362E38332D312E3533327333362E39303620352E383433 PUSH2 0xF80 DUP3 ADD MSTORE PUSH32 0x2035372E3332362032352E353232633020302032372E36393120342E38313320 PUSH2 0xFA0 DUP3 ADD MSTORE PUSH32 0x34302E36363920332E3636342031322E3533392D312E3131312031312E303132 PUSH2 0xFC0 DUP3 ADD MSTORE PUSH32 0x2D322E35362031312E3031322D322E3536732D33352E35312D362E34362D3632 PUSH2 0xFE0 DUP3 ADD MSTORE PUSH32 0x2E3330312D32352E313134272066696C6C3D272366376235353827206F706163 PUSH2 0x1000 DUP3 ADD MSTORE PUSH32 0x6974793D272E37313527207374726F6B653D2723663762353538272F3E3C7061 PUSH2 0x1020 DUP3 ADD MSTORE PUSH32 0x746820643D274D38382E333937203235332E3639394332372E3533203230372E PUSH2 0x1040 DUP3 ADD MSTORE PUSH32 0x30313620332E333037203233342E37373920342E3236203233352E33632E3234 PUSH2 0x1060 DUP3 ADD MSTORE PUSH32 0x372E3133352D2E34323320332E3739352031342E38303920372E333436203232 PUSH2 0x1080 DUP3 ADD MSTORE PUSH32 0x2E34323820352E32332036392E3536372031312E3037372036392E3536372031 PUSH2 0x10A0 DUP3 ADD MSTORE PUSH32 0x312E303737272066696C6C3D272361623664343027206F7061636974793D272E PUSH2 0x10C0 DUP3 ADD MSTORE PUSH32 0x35323527207374726F6B653D2723623437383463272F3E3C2F673E3C70617468 PUSH2 0x10E0 DUP3 ADD MSTORE PUSH32 0x20643D274D31302E383735203231392E3131356334362E3238332D342E303520 PUSH2 0x1100 DUP3 ADD MSTORE PUSH32 0x38322E3239362D37332E35342038322E3239362D37332E3534682E3034386C2D PUSH2 0x1120 DUP3 ADD MSTORE PUSH32 0x38322E3333352037332E353632272066696C6C3D272366616562636527206669 PUSH2 0x1140 DUP3 ADD MSTORE PUSH32 0x6C6C2D72756C653D276576656E6F646427206F7061636974793D272E35303627 PUSH2 0x1160 DUP3 ADD MSTORE PUSH32 0x207374726F6B653D272366616562636527207374726F6B652D77696474683D27 PUSH2 0x1180 DUP3 ADD MSTORE PUSH32 0x2E3634342720766563746F726E61746F723A6C617965724E616D653D274F6666 PUSH2 0x11A0 DUP3 ADD MSTORE PUSH32 0x207768697465206663204C272F3E3C672066696C6C2D72756C653D276576656E PUSH2 0x11C0 DUP3 ADD MSTORE PUSH32 0x6F646427207374726F6B652D77696474683D272E3634342720766563746F726E PUSH2 0x11E0 DUP3 ADD MSTORE PUSH32 0x61746F723A6C617965724E616D653D274C2066632072696D273E3C7061746820 PUSH2 0x1200 DUP3 ADD MSTORE PUSH32 0x643D276D3130392E343732203135342E3837362D2E3039352D2E323033632D33 PUSH2 0x1220 DUP3 ADD MSTORE PUSH32 0x302E3532382D32362E3838362D392E31392031312E3036332D392E3139203131 PUSH2 0x1240 DUP3 ADD MSTORE PUSH32 0x2E30363373382E39382031372E3230352031362E32392034352E30333963342E PUSH2 0x1260 DUP3 ADD MSTORE PUSH32 0x3830352031382E32393220362E3532322032302E323520372E3432312032362E PUSH2 0x1280 DUP3 ADD MSTORE PUSH32 0x3835372030203020382E3833312034322E3130392031392E3132382D352E3330 PUSH2 0x12A0 DUP3 ADD MSTORE PUSH32 0x366C362E3734342D34302E353333632E3537362D31342E3634372D34302E3435 PUSH2 0x12C0 DUP3 ADD MSTORE PUSH32 0x382D33362E3930372D34302E3435382D33362E393037272066696C6C3D272366 PUSH2 0x12E0 DUP3 ADD MSTORE PUSH32 0x376235353827206F7061636974793D272E38333327207374726F6B653D272366 PUSH2 0x1300 DUP3 ADD MSTORE PUSH32 0x3762353538272F3E3C7061746820643D274D3134362E373735203138382E3430 PUSH2 0x1320 DUP3 ADD MSTORE PUSH32 0x38732D322E3734372032352E3737362D372E3134342033382E373832632D342E PUSH2 0x1340 DUP3 ADD MSTORE PUSH32 0x3539352031332E3538382D352E3430382031392E3335312D352E343038203139 PUSH2 0x1360 DUP3 ADD MSTORE PUSH32 0x2E333531732D352E3932392D32302E3531332D31332E3434332D34352E383531 PUSH2 0x1380 DUP3 ADD MSTORE PUSH32 0x632D372E3236332D32342E3439312D32302E3837372D35302E3339352D32302E PUSH2 0x13A0 DUP3 ADD MSTORE PUSH32 0x3837372D35302E33393573392E393520372E3733392032332E3838362031382E PUSH2 0x13C0 DUP3 ADD MSTORE PUSH32 0x3933396331302E36363920382E3537342032322E3938362031392E3137342032 PUSH2 0x13E0 DUP3 ADD MSTORE PUSH32 0x322E3938362031392E3137345A272066696C6C3D272362343738346327206F70 PUSH2 0x1400 DUP3 ADD MSTORE PUSH32 0x61636974793D272E37313527207374726F6B653D2723623437383463272F3E3C PUSH2 0x1420 DUP3 ADD MSTORE PUSH32 0x2F673E3C672066696C6C2D72756C653D276576656E6F646427207374726F6B65 PUSH2 0x1440 DUP3 ADD MSTORE PUSH32 0x3D272362633562303827207374726F6B652D77696474683D272E363434272076 PUSH2 0x1460 DUP3 ADD MSTORE PUSH32 0x6563746F726E61746F723A6C617965724E616D653D2744657461696C73204C2E PUSH2 0x1480 DUP3 ADD MSTORE PUSH32 0x273E3C7061746820643D274D3131302E343033203232352E35313673382E3539 PUSH2 0x14A0 DUP3 ADD MSTORE PUSH32 0x3620362E3838362E3735322031352E3537366D2D33352E3530382D35392E3233 PUSH2 0x14C0 DUP3 ADD MSTORE PUSH32 0x34732D2E3131332D372E3739342D31302E3434382D362E3635334D34312E3535 PUSH2 0x14E0 DUP3 ADD MSTORE PUSH32 0x203231312E323438732D332E31382D352E3131332D392E3835312D352E333938 PUSH2 0x1500 DUP3 ADD MSTORE PUSH32 0x6D2D362E3231352031352E313731732D322E3032342D342E3931382D372E3833 PUSH2 0x1520 DUP3 ADD MSTORE PUSH32 0x352D342E3334366D38372E39362031322E3173332E3738392E34393620312E37 PUSH2 0x1540 DUP3 ADD MSTORE PUSH32 0x303920342E393334272066696C6C3D276E6F6E65272F3E3C7061746820643D27 PUSH2 0x1560 DUP3 ADD MSTORE PUSH32 0x4D3130322E323736203234382E30353663302D2E3735332E3535362D312E3336 PUSH2 0x1580 DUP3 ADD MSTORE PUSH32 0x3320312E3234332D312E33363373312E3234342E363120312E32343420312E33 PUSH2 0x15A0 DUP3 ADD MSTORE PUSH32 0x36336330202E3735342D2E35353720312E3336342D312E32343420312E333634 PUSH2 0x15C0 DUP3 ADD MSTORE PUSH32 0x2D2E36383720302D312E3234332D2E36312D312E3234332D312E3336345A6D2D PUSH2 0x15E0 DUP3 ADD MSTORE PUSH32 0x34372E3933342D36332E34363363302D312E3036362E3439392D312E39332031 PUSH2 0x1600 DUP3 ADD MSTORE PUSH32 0x2E3131352D312E393373312E3131352E38363420312E31313520312E39336330 PUSH2 0x1620 DUP3 ADD MSTORE PUSH32 0x20312E3036362D2E3520312E39332D312E31313520312E39332D2E3631362030 PUSH2 0x1640 DUP3 ADD MSTORE PUSH32 0x2D312E3131352D2E3836342D312E3131352D312E39335A6D2D392E3838392038 PUSH2 0x1660 DUP3 ADD MSTORE PUSH32 0x2E37303163302D312E3137352E33332D322E3132382E3733362D322E3132382E PUSH2 0x1680 DUP3 ADD MSTORE PUSH32 0x3430372030202E3733362E3935332E37333620322E313238203020312E313735 PUSH2 0x16A0 DUP3 ADD MSTORE PUSH32 0x2D2E333320322E3132372D2E37333620322E3132372D2E34303720302D2E3733 PUSH2 0x16C0 DUP3 ADD MSTORE PUSH32 0x362D2E3935322D2E3733362D322E3132375A6D35312E3035322033372E373038 PUSH2 0x16E0 DUP3 ADD MSTORE PUSH32 0x63302D312E3039322E3339362D312E3937372E3838352D312E393737732E3838 PUSH2 0x1700 DUP3 ADD MSTORE PUSH32 0x352E3838352E38383520312E3937372D2E33393620312E3937372D2E38383520 PUSH2 0x1720 DUP3 ADD MSTORE PUSH32 0x312E3937372D2E3838352D2E3838352D2E3838352D312E3937375A6D2D342E34 PUSH2 0x1740 DUP3 ADD MSTORE PUSH32 0x30342031332E37313963302D312E31352E3239392D322E3038322E3636372D32 PUSH2 0x1760 DUP3 ADD MSTORE PUSH32 0x2E3038322E3336382030202E3636362E3933322E36363620322E303832732D2E PUSH2 0x1780 DUP3 ADD MSTORE PUSH32 0x32393820322E3038322D2E36363620322E303832632D2E33363820302D2E3636 PUSH2 0x17A0 DUP3 ADD MSTORE PUSH32 0x372D2E3933322D2E3636372D322E3038325A4D32352E3831203233302E303338 PUSH2 0x17C0 DUP3 ADD MSTORE PUSH32 0x63302D2E3934362E3331382D312E3731332E3731312D312E3731332E33393320 PUSH2 0x17E0 DUP3 ADD MSTORE PUSH32 0x30202E37312E3736372E373120312E3731332030202E3934362D2E3331372031 PUSH2 0x1800 DUP3 ADD MSTORE PUSH32 0x2E3731332D2E373120312E3731332D2E33393320302D2E3731312D2E3736372D PUSH2 0x1820 DUP3 ADD MSTORE PUSH32 0x2E3731312D312E3731335A6D39302E3331332031342E37333463302D2E393635 PUSH2 0x1840 DUP3 ADD MSTORE PUSH32 0x2E3337352D312E3734372E3833382D312E3734372E3436322030202E3833382E PUSH2 0x1860 DUP3 ADD MSTORE PUSH32 0x3738322E38333820312E3734372030202E3936352D2E33373620312E3734372D PUSH2 0x1880 DUP3 ADD MSTORE PUSH32 0x2E38333820312E3734372D2E34363320302D2E3833382D2E3738322D2E383338 PUSH2 0x18A0 DUP3 ADD MSTORE PUSH32 0x2D312E3734375A6D362E3933322D37372E39303763302D2E3331342E3732342D PUSH2 0x18C0 DUP3 ADD MSTORE PUSH32 0x2E35363820312E3631362D2E3536382E383932203020312E3631352E32353420 PUSH2 0x18E0 DUP3 ADD MSTORE PUSH32 0x312E3631352E3536382030202E3331342D2E3732332E3536382D312E3631352E PUSH2 0x1900 DUP3 ADD MSTORE PUSH32 0x353638732D312E3631362D2E3235342D312E3631362D2E3536385A6D2D362E38 PUSH2 0x1920 DUP3 ADD MSTORE PUSH32 0x32382033332E36323963302D312E3135382E31332D322E3039382E3238392D32 PUSH2 0x1940 DUP3 ADD MSTORE PUSH32 0x2E3039382E31362030202E32392E39342E323920322E303938203020312E3135 PUSH2 0x1960 DUP3 ADD MSTORE PUSH32 0x392D2E313320322E3039382D2E323920322E3039382D2E31353920302D2E3238 PUSH2 0x1980 DUP3 ADD MSTORE PUSH32 0x392D2E3933392D2E3238392D322E3039385A6D382E3533312032362E31373763 PUSH2 0x19A0 DUP3 ADD MSTORE PUSH32 0x302D2E3633382E3136332D312E3135342E3336332D312E3135342E3230312030 PUSH2 0x19C0 DUP3 ADD MSTORE PUSH32 0x202E3336332E3531362E33363320312E3135342030202E3633372D2E31363220 PUSH2 0x19E0 DUP3 ADD MSTORE PUSH32 0x312E3135332D2E33363320312E3135332D2E3220302D2E3336332D2E3531362D PUSH2 0x1A00 DUP3 ADD MSTORE PUSH32 0x2E3336332D312E3135335A6D2D32362E3130342D37312E33303563302D2E3338 PUSH2 0x1A20 DUP3 ADD MSTORE PUSH32 0x382E3039372D2E3730332E3231362D2E373033732E3231352E3331352E323135 PUSH2 0x1A40 DUP3 ADD MSTORE PUSH32 0x2E3730336330202E3338392D2E3039362E3730342D2E3231352E3730342D2E31 PUSH2 0x1A60 DUP3 ADD MSTORE PUSH32 0x3220302D2E3231362D2E3331352D2E3231362D2E3730345A6D2D32372E343332 PUSH2 0x1A80 DUP3 ADD MSTORE PUSH32 0x2037332E36343263302D2E3935382E34372D312E37333420312E30352D312E37 PUSH2 0x1AA0 DUP3 ADD MSTORE PUSH32 0x33342E3538203020312E30352E37373620312E303520312E3733342030202E39 PUSH2 0x1AC0 DUP3 ADD MSTORE PUSH32 0x35372D2E343720312E3733342D312E303520312E3733342D2E353820302D312E PUSH2 0x1AE0 DUP3 ADD MSTORE PUSH32 0x30352D2E3737372D312E30352D312E3733345A272066696C6C3D272362633562 PUSH2 0x1B00 DUP3 ADD MSTORE PUSH32 0x303827206F7061636974793D272E363031272F3E3C2F673E3C7061746820643D PUSH2 0x1B20 DUP3 ADD MSTORE PUSH32 0x274D3239322E323733203137332E333936632D31332E3534392D352E3036322D PUSH2 0x1B40 DUP3 ADD MSTORE PUSH32 0x3137362E3639372031312E3935332D3137362E3639372031312E3935336C3133 PUSH2 0x1B60 DUP3 ADD MSTORE PUSH32 0x2E3037312034322E3137366331322E3430322D332E363035203134372E373332 PUSH2 0x1B80 DUP3 ADD MSTORE PUSH32 0x2D31332E353536203134372E3733322D31332E35353673372E3636382D31372E PUSH2 0x1BA0 DUP3 ADD MSTORE PUSH32 0x3039332031312E3430352D32362E38383463332E3733382D392E37393220342E PUSH2 0x1BC0 DUP3 ADD MSTORE PUSH32 0x3535322D31332E35363720342E3535322D31332E353637272066696C6C3D2723 PUSH2 0x1BE0 DUP3 ADD MSTORE PUSH32 0x666666272066696C6C2D72756C653D276576656E6F646427207374726F6B653D PUSH2 0x1C00 DUP3 ADD MSTORE PUSH32 0x272366336631663927207374726F6B652D77696474683D272E36343427207665 PUSH2 0x1C20 DUP3 ADD MSTORE PUSH32 0x63746F726E61746F723A6C617965724E616D653D274643205061706572272F3E PUSH2 0x1C40 DUP3 ADD MSTORE POP JUMP JUMPDEST PUSH32 0x273E3C616E696D617465206174747269627574654E616D653D276F6666736574 PUSH1 0x0 DUP3 ADD MSTORE PUSH32 0x27206475723D27353073272076616C7565733D27302E36383B313B302E363827 PUSH1 0x20 DUP3 ADD MSTORE PUSH32 0x20726570656174436F756E743D27696E646566696E697465272F3E3C2F73746F PUSH1 0x40 DUP3 ADD MSTORE PUSH32 0x703E3C2F72616469616C4772616469656E743E00000000000000000000000000 PUSH1 0x60 DUP3 ADD MSTORE POP JUMP JUMPDEST PUSH32 0x7B226E616D65223A2022466F7274756E6520436F6F6B79202300000000000000 PUSH1 0x0 DUP3 ADD MSTORE POP JUMP JUMPDEST PUSH32 0x646174613A6170706C69636174696F6E2F6A736F6E3B6261736536342C000000 PUSH1 0x0 DUP3 ADD MSTORE POP JUMP JUMPDEST PUSH32 0x3C737667207374726F6B652D6D697465726C696D69743D27313027207374796C PUSH1 0x0 DUP3 ADD MSTORE PUSH32 0x653D2766696C6C2D72756C653A6E6F6E7A65726F3B636C69702D72756C653A65 PUSH1 0x20 DUP3 ADD MSTORE PUSH32 0x76656E6F64643B7374726F6B652D6C696E656361703A726F756E643B7374726F PUSH1 0x40 DUP3 ADD MSTORE PUSH32 0x6B652D6C696E656A6F696E3A726F756E64272076696577426F783D2730203020 PUSH1 0x60 DUP3 ADD MSTORE PUSH32 0x343030203430302720786D6C3A73706163653D2770726573657276652720786D PUSH1 0x80 DUP3 ADD MSTORE PUSH32 0x6C6E733D27687474703A2F2F7777772E77332E6F72672F323030302F73766727 PUSH1 0xA0 DUP3 ADD MSTORE PUSH32 0x20786D6C6E733A766563746F726E61746F723D27687474703A2F2F766563746F PUSH1 0xC0 DUP3 ADD MSTORE PUSH32 0x726E61746F722E696F273E000000000000000000000000000000000000000000 PUSH1 0xE0 DUP3 ADD MSTORE POP JUMP JUMPDEST PUSH32 0x3C2F746578743E3C7465787420783D273438252720793D273534252720747261 PUSH1 0x0 DUP3 ADD MSTORE PUSH32 0x6E73666F726D3D27726F74617465282D33292720646F6D696E616E742D626173 PUSH1 0x20 DUP3 ADD MSTORE PUSH32 0x656C696E653D276D6964646C652720746578742D616E63686F723D276D696464 PUSH1 0x40 DUP3 ADD MSTORE PUSH32 0x6C65273E00000000000000000000000000000000000000000000000000000000 PUSH1 0x60 DUP3 ADD MSTORE POP JUMP JUMPDEST PUSH32 0x3C2F7376673E0000000000000000000000000000000000000000000000000000 PUSH1 0x0 DUP3 ADD MSTORE POP JUMP JUMPDEST PUSH32 0x4E414E5550414E44415F4C414253000000000000000000000000000000000000 PUSH1 0x0 DUP3 ADD MSTORE POP JUMP JUMPDEST PUSH2 0x43A2 DUP2 PUSH2 0x17C2 JUMP JUMPDEST DUP2 EQ PUSH2 0x43AD JUMPI PUSH1 0x0 DUP1 REVERT JUMPDEST POP JUMP INVALID COINBASE TIMESTAMP NUMBER DIFFICULTY GASLIMIT CHAINID SELFBALANCE 0x48 0x49 0x4A 0x4B 0x4C 0x4D 0x4E 0x4F POP MLOAD MSTORE MSTORE8 SLOAD SSTORE JUMP JUMPI PC MSIZE GAS PUSH2 0x6263 PUSH5 0x6566676869 PUSH11 0x6B6C6D6E6F707172737475 PUSH23 0x7778797A303132333435363738392B2FA2646970667358 0x22 SLT KECCAK256 DUP12 0xBF GAS LT KECCAK256 0xFB SMOD DIFFICULTY PUSH5 0xCD533335F2 0xD6 0xEC DUP6 PUSH12 0x32B785E6A8B914E80C52E00C 0xEA 0xE7 PUSH5 0x736F6C6343 STOP ADDMOD MUL STOP CALLER "
        },
        "methodIdentifiers": {
          "MAX()": "d49d5181",
          "OFFSET()": "ce665dd8",
          "SCALE()": "eced5526",
          "SCALIFIER()": "f4ab1a93",
          "_buildFortuneCooky(uint256,uint256,uint256)": "0a5063d6",
          "_getFortune(uint256,uint256,uint256)": "79dccf8c"
        }
      }
    }
  }
}