{
  "_format": "hh-sol-artifact-1",
  "contractName": "Lines4",
  "sourceName": "contracts/libraries/Lines4.sol",
  "abi": [
    {
      "inputs": [],
      "name": "fortune_61",
      "outputs": [
        {
          "internalType": "string[2]",
          "name": "",
          "type": "string[2]"
        }
      ],
      "stateMutability": "pure",
      "type": "function"
    },
    {
      "inputs": [],
      "name": "fortune_62",
      "outputs": [
        {
          "internalType": "string[2]",
          "name": "",
          "type": "string[2]"
        }
      ],
      "stateMutability": "pure",
      "type": "function"
    },
    {
      "inputs": [],
      "name": "fortune_63",
      "outputs": [
        {
          "internalType": "string[2]",
          "name": "",
          "type": "string[2]"
        }
      ],
      "stateMutability": "pure",
      "type": "function"
    },
    {
      "inputs": [],
      "name": "fortune_64",
      "outputs": [
        {
          "internalType": "string[2]",
          "name": "",
          "type": "string[2]"
        }
      ],
      "stateMutability": "pure",
      "type": "function"
    },
    {
      "inputs": [],
      "name": "fortune_65",
      "outputs": [
        {
          "internalType": "string[2]",
          "name": "",
          "type": "string[2]"
        }
      ],
      "stateMutability": "pure",
      "type": "function"
    },
    {
      "inputs": [],
      "name": "fortune_66",
      "outputs": [
        {
          "internalType": "string[2]",
          "name": "",
          "type": "string[2]"
        }
      ],
      "stateMutability": "pure",
      "type": "function"
    },
    {
      "inputs": [],
      "name": "fortune_67",
      "outputs": [
        {
          "internalType": "string[2]",
          "name": "",
          "type": "string[2]"
        }
      ],
      "stateMutability": "pure",
      "type": "function"
    },
    {
      "inputs": [],
      "name": "fortune_68",
      "outputs": [
        {
          "internalType": "string[2]",
          "name": "",
          "type": "string[2]"
        }
      ],
      "stateMutability": "pure",
      "type": "function"
    },
    {
      "inputs": [],
      "name": "fortune_69",
      "outputs": [
        {
          "internalType": "string[2]",
          "name": "",
          "type": "string[2]"
        }
      ],
      "stateMutability": "pure",
      "type": "function"
    },
    {
      "inputs": [],
      "name": "fortune_70",
      "outputs": [
        {
          "internalType": "string[2]",
          "name": "",
          "type": "string[2]"
        }
      ],
      "stateMutability": "pure",
      "type": "function"
    },
    {
      "inputs": [],
      "name": "fortune_71",
      "outputs": [
        {
          "internalType": "string[2]",
          "name": "",
          "type": "string[2]"
        }
      ],
      "stateMutability": "pure",
      "type": "function"
    },
    {
      "inputs": [],
      "name": "fortune_72",
      "outputs": [
        {
          "internalType": "string[2]",
          "name": "",
          "type": "string[2]"
        }
      ],
      "stateMutability": "pure",
      "type": "function"
    },
    {
      "inputs": [],
      "name": "fortune_73",
      "outputs": [
        {
          "internalType": "string[2]",
          "name": "",
          "type": "string[2]"
        }
      ],
      "stateMutability": "pure",
      "type": "function"
    },
    {
      "inputs": [],
      "name": "fortune_74",
      "outputs": [
        {
          "internalType": "string[2]",
          "name": "",
          "type": "string[2]"
        }
      ],
      "stateMutability": "pure",
      "type": "function"
    },
    {
      "inputs": [],
      "name": "fortune_75",
      "outputs": [
        {
          "internalType": "string[2]",
          "name": "",
          "type": "string[2]"
        }
      ],
      "stateMutability": "pure",
      "type": "function"
    },
    {
      "inputs": [],
      "name": "fortune_76",
      "outputs": [
        {
          "internalType": "string[2]",
          "name": "",
          "type": "string[2]"
        }
      ],
      "stateMutability": "pure",
      "type": "function"
    },
    {
      "inputs": [],
      "name": "fortune_77",
      "outputs": [
        {
          "internalType": "string[2]",
          "name": "",
          "type": "string[2]"
        }
      ],
      "stateMutability": "pure",
      "type": "function"
    },
    {
      "inputs": [],
      "name": "fortune_78",
      "outputs": [
        {
          "internalType": "string[2]",
          "name": "",
          "type": "string[2]"
        }
      ],
      "stateMutability": "pure",
      "type": "function"
    },
    {
      "inputs": [],
      "name": "fortune_79",
      "outputs": [
        {
          "internalType": "string[2]",
          "name": "",
          "type": "string[2]"
        }
      ],
      "stateMutability": "pure",
      "type": "function"
    },
    {
      "inputs": [],
      "name": "fortune_80",
      "outputs": [
        {
          "internalType": "string[2]",
          "name": "",
          "type": "string[2]"
        }
      ],
      "stateMutability": "pure",
      "type": "function"
    },
    {
      "inputs": [
        {
          "internalType": "uint256",
          "name": "rand",
          "type": "uint256"
        }
      ],
      "name": "getFortuneLines",
      "outputs": [
        {
          "internalType": "string[2]",
          "name": "",
          "type": "string[2]"
        }
      ],
      "stateMutability": "pure",
      "type": "function"
    }
  ],
  "bytecode": "0x6112e3610053600b82828239805160001a607314610046577f4e487b7100000000000000000000000000000000000000000000000000000000600052600060045260246000fd5b30600052607381538281f3fe73000000000000000000000000000000000000000030146080604052600436106101415760003560e01c806392d53983116100c2578063b7f6dc4611610086578063b7f6dc461461031a578063d406b0b214610338578063de905a6614610356578063e060490b14610374578063e21f87cf14610392578063e2537daf146103b057610141565b806392d53983146102725780639c8fd095146102a2578063a900fd3f146102c0578063aaa0e08c146102de578063ae97c1b2146102fc57610141565b80635c57641d116101095780635c57641d146101dc57806361e253ea146101fa578063709f9fcb146102185780638003e2601461023657806392646cbf1461025457610141565b806301733bd1146101465780630df69e58146101645780631a87cb92146101825780631c4b676e146101a0578063246fa029146101be575b600080fd5b61014e6103ce565b60405161015b91906111dd565b60405180910390f35b61016c61045a565b60405161017991906111dd565b60405180910390f35b61018a6104e6565b60405161019791906111dd565b60405180910390f35b6101a8610572565b6040516101b591906111dd565b60405180910390f35b6101c66105fe565b6040516101d391906111dd565b60405180910390f35b6101e461068a565b6040516101f191906111dd565b60405180910390f35b610202610716565b60405161020f91906111dd565b60405180910390f35b6102206107a2565b60405161022d91906111dd565b60405180910390f35b61023e61082e565b60405161024b91906111dd565b60405180910390f35b61025c6108ba565b60405161026991906111dd565b60405180910390f35b61028c600480360381019061028791906110f2565b610946565b60405161029991906111dd565b60405180910390f35b6102aa610b3e565b6040516102b791906111dd565b60405180910390f35b6102c8610bca565b6040516102d591906111dd565b60405180910390f35b6102e6610c56565b6040516102f391906111dd565b60405180910390f35b610304610ce2565b60405161031191906111dd565b60405180910390f35b610322610d6e565b60405161032f91906111dd565b60405180910390f35b610340610dfa565b60405161034d91906111dd565b60405180910390f35b61035e610e86565b60405161036b91906111dd565b60405180910390f35b61037c610f12565b60405161038991906111dd565b60405180910390f35b61039a610f9e565b6040516103a791906111dd565b60405180910390f35b6103b861102a565b6040516103c591906111dd565b60405180910390f35b6103d66110b6565b60405180604001604052806040518060400160405280600d81526020017f4d616b652065616368206461790000000000000000000000000000000000000081525081526020016040518060400160405280601181526020017f20796f7572206d61737465727069656365000000000000000000000000000000815250815250905090565b6104626110b6565b60405180604001604052806040518060400160405280600f81526020017f546865726520697320616c77617973000000000000000000000000000000000081525081526020016040518060400160405280600d81526020017f2061206e657874206c6576656c00000000000000000000000000000000000000815250815250905090565b6104ee6110b6565b60405180604001604052806040518060400160405280601381526020017f45766572797468696e672074686174206973200000000000000000000000000081525081526020016040518060400160405280601281526020017f20776173206669727374206120647265616d0000000000000000000000000000815250815250905090565b61057a6110b6565b60405180604001604052806040518060400160405280601181526020017f457468657265756d20697320676f696e6700000000000000000000000000000081525081526020016040518060400160405280600781526020017f20746f2032306b00000000000000000000000000000000000000000000000000815250815250905090565b6106066110b6565b60405180604001604052806040518060400160405280600881526020017f596f75206b6e6f7700000000000000000000000000000000000000000000000081525081526020016040518060400160405280600b81526020017f207768617420746f20646f000000000000000000000000000000000000000000815250815250905090565b6106926110b6565b60405180604001604052806040518060400160405280600981526020017f53617920796573202d000000000000000000000000000000000000000000000081525081526020016040518060400160405280601381526020017f207468656e20666967757265206974206f757400000000000000000000000000815250815250905090565b61071e6110b6565b60405180604001604052806040518060400160405280601281526020017f4974206973206e6f7420796f7572206a6f62000000000000000000000000000081525081526020016040518060400160405280600e81526020017f20746f206669782070656f706c65000000000000000000000000000000000000815250815250905090565b6107aa6110b6565b60405180604001604052806040518060400160405280600d81526020017f4e6f7420616c6c2074686f73650000000000000000000000000000000000000081525081526020016040518060400160405280601581526020017f2077686f2077616e64657220617265206c6f73742e0000000000000000000000815250815250905090565b6108366110b6565b60405180604001604052806040518060400160405280600d81526020017f456e74657220756e6b6e6f776e0000000000000000000000000000000000000081525081526020016040518060400160405280600a81526020017f207465727269746f727900000000000000000000000000000000000000000000815250815250905090565b6108c26110b6565b60405180604001604052806040518060400160405280601081526020017f4265206c657373206d6f7665642062790000000000000000000000000000000081525081526020016040518060400160405280601681526020017f20746865206f70696e696f6e206f66206f746865727300000000000000000000815250815250905090565b61094e6110b6565b603d8214156109665761095f61082e565b9050610b39565b603e82141561097e57610977610bca565b9050610b39565b603f8214156109965761098f6108ba565b9050610b39565b60408214156109ae576109a7610f9e565b9050610b39565b60418214156109c6576109bf61068a565b9050610b39565b60428214156109de576109d7610572565b9050610b39565b60438214156109f6576109ef61045a565b9050610b39565b6044821415610a0e57610a07610d6e565b9050610b39565b6045821415610a2657610a1f610716565b9050610b39565b6046821415610a3e57610a37610dfa565b9050610b39565b6047821415610a5657610a4f61102a565b9050610b39565b6048821415610a6e57610a676104e6565b9050610b39565b6049821415610a8657610a7f6105fe565b9050610b39565b604a821415610a9e57610a976107a2565b9050610b39565b604b821415610ab657610aaf610c56565b9050610b39565b604c821415610ace57610ac7610b3e565b9050610b39565b604d821415610ae657610adf610e86565b9050610b39565b604e821415610afe57610af7610ce2565b9050610b39565b604f821415610b1657610b0f6103ce565b9050610b39565b6050821415610b2e57610b27610f12565b9050610b39565b610b3661082e565b90505b919050565b610b466110b6565b60405180604001604052806040518060400160405280601281526020017f426967206a6f75726e65797320626567696e000000000000000000000000000081525081526020016040518060400160405280601381526020017f207769746820612073696e676c65207374657000000000000000000000000000815250815250905090565b610bd26110b6565b60405180604001604052806040518060400160405280600b81526020017f446f206e6f742074616b6500000000000000000000000000000000000000000081525081526020016040518060400160405280600981526020017f2074686520626169740000000000000000000000000000000000000000000000815250815250905090565b610c5e6110b6565b60405180604001604052806040518060400160405280600d81526020017f57696e20796f7572206d696e640000000000000000000000000000000000000081525081526020016040518060400160405280600e81526020017f2057696e20796f7572206c696665000000000000000000000000000000000000815250815250905090565b610cea6110b6565b60405180604001604052806040518060400160405280600881526020017f54617020696e746f00000000000000000000000000000000000000000000000081525081526020016040518060400160405280600b81526020017f20796f7572206d61676963000000000000000000000000000000000000000000815250815250905090565b610d766110b6565b60405180604001604052806040518060400160405280600a81526020017f49742069732074696d650000000000000000000000000000000000000000000081525081526020016040518060400160405280600981526020017f20746f204275696c640000000000000000000000000000000000000000000000815250815250905090565b610e026110b6565b60405180604001604052806040518060400160405280600881526020017f43504720436c756200000000000000000000000000000000000000000000000081525081526020016040518060400160405280600c81526020017f20746f20746865204d6f6f6e0000000000000000000000000000000000000000815250815250905090565b610e8e6110b6565b60405180604001604052806040518060400160405280601181526020017f546865792063616e2077696e207769746800000000000000000000000000000081525081526020016040518060400160405280601581526020017f20796f75206f7220776163746820796f752077696e0000000000000000000000815250815250905090565b610f1a6110b6565b60405180604001604052806040518060400160405280600a81526020017f537472656e677468656e0000000000000000000000000000000000000000000081525081526020016040518060400160405280600981526020017f20796f757273656c660000000000000000000000000000000000000000000000815250815250905090565b610fa66110b6565b60405180604001604052806040518060400160405280600b81526020017f476574206c6f737420696e00000000000000000000000000000000000000000081525081526020016040518060400160405280601481526020017f2074686520726967687420646972656374696f6e000000000000000000000000815250815250905090565b6110326110b6565b60405180604001604052806040518060400160405280600a81526020017f476976652047726163650000000000000000000000000000000000000000000081525081526020016040518060400160405280600c81526020017f20746f20596f757273656c660000000000000000000000000000000000000000815250815250905090565b60405180604001604052806002905b60608152602001906001900390816110c55790505090565b6000813590506110ec81611296565b92915050565b60006020828403121561110457600080fd5b6000611112848285016110dd565b91505092915050565b600061112783836111a4565b905092915050565b600061113a82611209565b611144818561122c565b935083602082028501611156856111ff565b8060005b858110156111925784840389528151611173858261111b565b945061117e8361121f565b925060208a0199505060018101905061115a565b50829750879550505050505092915050565b60006111af82611214565b6111b98185611237565b93506111c9818560208601611252565b6111d281611285565b840191505092915050565b600060208201905081810360008301526111f7818461112f565b905092915050565b6000819050919050565b600060029050919050565b600081519050919050565b6000602082019050919050565b600081905092915050565b600082825260208201905092915050565b6000819050919050565b60005b83811015611270578082015181840152602081019050611255565b8381111561127f576000848401525b50505050565b6000601f19601f8301169050919050565b61129f81611248565b81146112aa57600080fd5b5056fea2646970667358221220177f39785029ed08876d0ba852f4d6f5883f09a0938dbc3ae30296113ab7c72164736f6c63430008020033",
  "linkReferences": {},
  "deployedLinkReferences": {}
}