{
  "_format": "hh-sol-artifact-1",
  "contractName": "Lines3",
  "sourceName": "contracts/libraries/Lines3.sol",
  "abi": [
    {
      "inputs": [],
      "name": "fortune_41",
      "outputs": [
        {
          "internalType": "string[2]",
          "name": "",
          "type": "string[2]"
        }
      ],
      "stateMutability": "pure",
      "type": "function"
    },
    {
      "inputs": [],
      "name": "fortune_42",
      "outputs": [
        {
          "internalType": "string[2]",
          "name": "",
          "type": "string[2]"
        }
      ],
      "stateMutability": "pure",
      "type": "function"
    },
    {
      "inputs": [],
      "name": "fortune_43",
      "outputs": [
        {
          "internalType": "string[2]",
          "name": "",
          "type": "string[2]"
        }
      ],
      "stateMutability": "pure",
      "type": "function"
    },
    {
      "inputs": [],
      "name": "fortune_44",
      "outputs": [
        {
          "internalType": "string[2]",
          "name": "",
          "type": "string[2]"
        }
      ],
      "stateMutability": "pure",
      "type": "function"
    },
    {
      "inputs": [],
      "name": "fortune_45",
      "outputs": [
        {
          "internalType": "string[2]",
          "name": "",
          "type": "string[2]"
        }
      ],
      "stateMutability": "pure",
      "type": "function"
    },
    {
      "inputs": [],
      "name": "fortune_46",
      "outputs": [
        {
          "internalType": "string[2]",
          "name": "",
          "type": "string[2]"
        }
      ],
      "stateMutability": "pure",
      "type": "function"
    },
    {
      "inputs": [],
      "name": "fortune_47",
      "outputs": [
        {
          "internalType": "string[2]",
          "name": "",
          "type": "string[2]"
        }
      ],
      "stateMutability": "pure",
      "type": "function"
    },
    {
      "inputs": [],
      "name": "fortune_48",
      "outputs": [
        {
          "internalType": "string[2]",
          "name": "",
          "type": "string[2]"
        }
      ],
      "stateMutability": "pure",
      "type": "function"
    },
    {
      "inputs": [],
      "name": "fortune_49",
      "outputs": [
        {
          "internalType": "string[2]",
          "name": "",
          "type": "string[2]"
        }
      ],
      "stateMutability": "pure",
      "type": "function"
    },
    {
      "inputs": [],
      "name": "fortune_50",
      "outputs": [
        {
          "internalType": "string[2]",
          "name": "",
          "type": "string[2]"
        }
      ],
      "stateMutability": "pure",
      "type": "function"
    },
    {
      "inputs": [],
      "name": "fortune_51",
      "outputs": [
        {
          "internalType": "string[2]",
          "name": "",
          "type": "string[2]"
        }
      ],
      "stateMutability": "pure",
      "type": "function"
    },
    {
      "inputs": [],
      "name": "fortune_52",
      "outputs": [
        {
          "internalType": "string[2]",
          "name": "",
          "type": "string[2]"
        }
      ],
      "stateMutability": "pure",
      "type": "function"
    },
    {
      "inputs": [],
      "name": "fortune_53",
      "outputs": [
        {
          "internalType": "string[2]",
          "name": "",
          "type": "string[2]"
        }
      ],
      "stateMutability": "pure",
      "type": "function"
    },
    {
      "inputs": [],
      "name": "fortune_54",
      "outputs": [
        {
          "internalType": "string[2]",
          "name": "",
          "type": "string[2]"
        }
      ],
      "stateMutability": "pure",
      "type": "function"
    },
    {
      "inputs": [],
      "name": "fortune_55",
      "outputs": [
        {
          "internalType": "string[2]",
          "name": "",
          "type": "string[2]"
        }
      ],
      "stateMutability": "pure",
      "type": "function"
    },
    {
      "inputs": [],
      "name": "fortune_56",
      "outputs": [
        {
          "internalType": "string[2]",
          "name": "",
          "type": "string[2]"
        }
      ],
      "stateMutability": "pure",
      "type": "function"
    },
    {
      "inputs": [],
      "name": "fortune_57",
      "outputs": [
        {
          "internalType": "string[2]",
          "name": "",
          "type": "string[2]"
        }
      ],
      "stateMutability": "pure",
      "type": "function"
    },
    {
      "inputs": [],
      "name": "fortune_58",
      "outputs": [
        {
          "internalType": "string[2]",
          "name": "",
          "type": "string[2]"
        }
      ],
      "stateMutability": "pure",
      "type": "function"
    },
    {
      "inputs": [],
      "name": "fortune_59",
      "outputs": [
        {
          "internalType": "string[2]",
          "name": "",
          "type": "string[2]"
        }
      ],
      "stateMutability": "pure",
      "type": "function"
    },
    {
      "inputs": [],
      "name": "fortune_60",
      "outputs": [
        {
          "internalType": "string[2]",
          "name": "",
          "type": "string[2]"
        }
      ],
      "stateMutability": "pure",
      "type": "function"
    },
    {
      "inputs": [
        {
          "internalType": "uint256",
          "name": "rand",
          "type": "uint256"
        }
      ],
      "name": "getFortuneLines",
      "outputs": [
        {
          "internalType": "string[2]",
          "name": "",
          "type": "string[2]"
        }
      ],
      "stateMutability": "pure",
      "type": "function"
    }
  ],
  "bytecode": "0x6112e3610053600b82828239805160001a607314610046577f4e487b7100000000000000000000000000000000000000000000000000000000600052600060045260246000fd5b30600052607381538281f3fe73000000000000000000000000000000000000000030146080604052600436106101415760003560e01c806380072947116100c2578063b495443211610086578063b49544321461031a578063bfea1ed014610338578063d1284d6b14610356578063e5927e5e14610374578063e758044614610392578063ebe6fd99146103b057610141565b80638007294714610272578063820d2da6146102905780638ffdf455146102ae57806392d53983146102cc57806396c245c0146102fc57610141565b806335f647901161010957806335f64790146101dc57806345a3abf2146101fa578063683b30a0146102185780636dc873a0146102365780637cddacb01461025457610141565b806307c4404d146101465780630ff9877414610164578063103f16aa146101825780631db11aad146101a05780632aee20a9146101be575b600080fd5b61014e6103ce565b60405161015b91906111dd565b60405180910390f35b61016c61045a565b60405161017991906111dd565b60405180910390f35b61018a6104e6565b60405161019791906111dd565b60405180910390f35b6101a8610572565b6040516101b591906111dd565b60405180910390f35b6101c66105fe565b6040516101d391906111dd565b60405180910390f35b6101e461068a565b6040516101f191906111dd565b60405180910390f35b610202610716565b60405161020f91906111dd565b60405180910390f35b6102206107a2565b60405161022d91906111dd565b60405180910390f35b61023e61082e565b60405161024b91906111dd565b60405180910390f35b61025c6108ba565b60405161026991906111dd565b60405180910390f35b61027a610946565b60405161028791906111dd565b60405180910390f35b6102986109d2565b6040516102a591906111dd565b60405180910390f35b6102b6610a5e565b6040516102c391906111dd565b60405180910390f35b6102e660048036038101906102e191906110f2565b610aea565b6040516102f391906111dd565b60405180910390f35b610304610ce2565b60405161031191906111dd565b60405180910390f35b610322610d6e565b60405161032f91906111dd565b60405180910390f35b610340610dfa565b60405161034d91906111dd565b60405180910390f35b61035e610e86565b60405161036b91906111dd565b60405180910390f35b61037c610f12565b60405161038991906111dd565b60405180910390f35b61039a610f9e565b6040516103a791906111dd565b60405180910390f35b6103b861102a565b6040516103c591906111dd565b60405180910390f35b6103d66110b6565b60405180604001604052806040518060400160405280600b81526020017f4d616b652070656f706c6500000000000000000000000000000000000000000081525081526020016040518060400160405280600881526020017f2073656520796f75000000000000000000000000000000000000000000000000815250815250905090565b6104626110b6565b60405180604001604052806040518060400160405280600981526020017f546865207175696574000000000000000000000000000000000000000000000081525081526020016040518060400160405280600f81526020017f20737065616b7320766f6c756d65730000000000000000000000000000000000815250815250905090565b6104ee6110b6565b60405180604001604052806040518060400160405280600a81526020017f47697665206c696768740000000000000000000000000000000000000000000081525081526020016040518060400160405280600981526020017f2053746179206c69740000000000000000000000000000000000000000000000815250815250905090565b61057a6110b6565b60405180604001604052806040518060400160405280600d81526020017f546f20626520666f756e64202d0000000000000000000000000000000000000081525081526020016040518060400160405280600c81526020017f2073746f7020686964696e670000000000000000000000000000000000000000815250815250905090565b6106066110b6565b60405180604001604052806040518060400160405280600a81526020017f77656e206c616d626f3f0000000000000000000000000000000000000000000081525081526020016040518060400160405280600581526020017f20736f6f6e000000000000000000000000000000000000000000000000000000815250815250905090565b6106926110b6565b60405180604001604052806040518060400160405280601281526020017f4c6974746c65206279206c6974746c65202d000000000000000000000000000081525081526020016040518060400160405280601081526020017f206f6e652074726176656c732066617200000000000000000000000000000000815250815250905090565b61071e6110b6565b60405180604001604052806040518060400160405280600c81526020017f4775696c7420736572766573000000000000000000000000000000000000000081525081526020016040518060400160405280600b81526020017f206e6f20707572706f7365000000000000000000000000000000000000000000815250815250905090565b6107aa6110b6565b60405180604001604052806040518060400160405280600b81526020017f446f206669727374202d2000000000000000000000000000000000000000000081525081526020016040518060400160405280600c81526020017f2054616c6b207365636f6e640000000000000000000000000000000000000000815250815250905090565b6108366110b6565b60405180604001604052806040518060400160405280600b81526020017f537461792068756e67727900000000000000000000000000000000000000000081525081526020016040518060400160405280600d81526020017f205374617920666f6f6c69736800000000000000000000000000000000000000815250815250905090565b6108c26110b6565b60405180604001604052806040518060400160405280600f81526020017f5265616c204773206d6f766520696e000000000000000000000000000000000081525081526020016040518060400160405280601781526020017f2073696c656e6365202d206c696b65204c617361676e61000000000000000000815250815250905090565b61094e6110b6565b60405180604001604052806040518060400160405280601381526020017f436f6e73697374656e637920637265617465730000000000000000000000000081525081526020016040518060400160405280600e81526020017f204f70706f7274756e6974696573000000000000000000000000000000000000815250815250905090565b6109da6110b6565b60405180604001604052806040518060400160405280601181526020017f446f20746865207468696e67207468617400000000000000000000000000000081525081526020016040518060400160405280601081526020017f2073636172657320796f75206d6f737400000000000000000000000000000000815250815250905090565b610a666110b6565b60405180604001604052806040518060400160405280600f81526020017f54686973207765656b202d20747279000000000000000000000000000000000081525081526020016040518060400160405280600e81526020017f20736f6d657468696e67206e6577000000000000000000000000000000000000815250815250905090565b610af26110b6565b6029821415610b0a57610b03610e86565b9050610cdd565b602a821415610b2257610b1b610ce2565b9050610cdd565b602b821415610b3a57610b33610dfa565b9050610cdd565b602c821415610b5257610b4b610716565b9050610cdd565b602d821415610b6a57610b63610f12565b9050610cdd565b602e821415610b8257610b7b61068a565b9050610cdd565b602f821415610b9a57610b93610946565b9050610cdd565b6030821415610bb257610bab61102a565b9050610cdd565b6031821415610bca57610bc36109d2565b9050610cdd565b6032821415610be257610bdb6103ce565b9050610cdd565b6033821415610bfa57610bf3610f9e565b9050610cdd565b6034821415610c1257610c0b6108ba565b9050610cdd565b6035821415610c2a57610c23610a5e565b9050610cdd565b6036821415610c4257610c3b6105fe565b9050610cdd565b6037821415610c5a57610c5361045a565b9050610cdd565b6038821415610c7257610c6b61082e565b9050610cdd565b6039821415610c8a57610c83610d6e565b9050610cdd565b603a821415610ca257610c9b6104e6565b9050610cdd565b603b821415610cba57610cb3610572565b9050610cdd565b603c821415610cd257610ccb6107a2565b9050610cdd565b610cda610e86565b90505b919050565b610cea6110b6565b60405180604001604052806040518060400160405280600981526020017f456d62726163652061000000000000000000000000000000000000000000000081525081526020016040518060400160405280600e81526020017f206e6577206e6172726174697665000000000000000000000000000000000000815250815250905090565b610d766110b6565b60405180604001604052806040518060400160405280600d81526020017f5374617920487573746c696e670000000000000000000000000000000000000081525081526020016040518060400160405280600c81526020017f20537461792048756d626c650000000000000000000000000000000000000000815250815250905090565b610e026110b6565b60405180604001604052806040518060400160405280600881526020017f427579206d6f726500000000000000000000000000000000000000000000000081525081526020016040518060400160405280600581526020017f204e465473000000000000000000000000000000000000000000000000000000815250815250905090565b610e8e6110b6565b60405180604001604052806040518060400160405280601681526020017f746f2067657420746865206672756974202d206f6e650000000000000000000081525081526020016040518060400160405280601481526020017f206d75737420636c696d62207468652074726565000000000000000000000000815250815250905090565b610f1a6110b6565b60405180604001604052806040518060400160405280600c81526020017f546865207472757468206973000000000000000000000000000000000000000081525081526020016040518060400160405280600e81526020017f206e6f7420636f6e667573696e67000000000000000000000000000000000000815250815250905090565b610fa66110b6565b60405180604001604052806040518060400160405280600f81526020017f53656c662d616363657074616e6365000000000000000000000000000000000081525081526020016040518060400160405280601181526020017f2053656c662d696d70726f76656d656e74000000000000000000000000000000815250815250905090565b6110326110b6565b60405180604001604052806040518060400160405280600c81526020017f54616b65206e6f7468696e67000000000000000000000000000000000000000081525081526020016040518060400160405280600b81526020017f20706572736f6e616c6c79000000000000000000000000000000000000000000815250815250905090565b60405180604001604052806002905b60608152602001906001900390816110c55790505090565b6000813590506110ec81611296565b92915050565b60006020828403121561110457600080fd5b6000611112848285016110dd565b91505092915050565b600061112783836111a4565b905092915050565b600061113a82611209565b611144818561122c565b935083602082028501611156856111ff565b8060005b858110156111925784840389528151611173858261111b565b945061117e8361121f565b925060208a0199505060018101905061115a565b50829750879550505050505092915050565b60006111af82611214565b6111b98185611237565b93506111c9818560208601611252565b6111d281611285565b840191505092915050565b600060208201905081810360008301526111f7818461112f565b905092915050565b6000819050919050565b600060029050919050565b600081519050919050565b6000602082019050919050565b600081905092915050565b600082825260208201905092915050565b6000819050919050565b60005b83811015611270578082015181840152602081019050611255565b8381111561127f576000848401525b50505050565b6000601f19601f8301169050919050565b61129f81611248565b81146112aa57600080fd5b5056fea26469706673582212202db326a5e431941e9adf43337a9bcd551b549221200a7bfdcf4b2907ca9ef73f64736f6c63430008020033",
  "linkReferences": {},
  "deployedLinkReferences": {}
}