{
  "_format": "hh-sol-artifact-1",
  "contractName": "CookyDescriptor",
  "sourceName": "contracts/CookyDescriptor.sol",
  "abi": [
    {
      "inputs": [
        {
          "internalType": "uint256",
          "name": "tokenId",
          "type": "uint256"
        },
        {
          "internalType": "uint256",
          "name": "tseed",
          "type": "uint256"
        },
        {
          "internalType": "uint256",
          "name": "cseed",
          "type": "uint256"
        },
        {
          "internalType": "uint256",
          "name": "nextDate",
          "type": "uint256"
        }
      ],
      "name": "_buildFortuneCooky",
      "outputs": [
        {
          "internalType": "string",
          "name": "",
          "type": "string"
        }
      ],
      "stateMutability": "view",
      "type": "function"
    },
    {
      "inputs": [
        {
          "internalType": "uint256",
          "name": "tokenId",
          "type": "uint256"
        },
        {
          "internalType": "uint256",
          "name": "tseed",
          "type": "uint256"
        },
        {
          "internalType": "uint256",
          "name": "cseed",
          "type": "uint256"
        }
      ],
      "name": "_getFortune",
      "outputs": [
        {
          "internalType": "string[2]",
          "name": "",
          "type": "string[2]"
        }
      ],
      "stateMutability": "pure",
      "type": "function"
    }
  ],
  "bytecode": "0x60806040526040518061014001604052806040518060400160405280600781526020017f234633454343420000000000000000000000000000000000000000000000000081525081526020016040518060400160405280600781526020017f233834444644330000000000000000000000000000000000000000000000000081525081526020016040518060400160405280600781526020017f234143434345340000000000000000000000000000000000000000000000000081525081526020016040518060400160405280600781526020017f234234424344370000000000000000000000000000000000000000000000000081525081526020016040518060400160405280600781526020017f234433423543370000000000000000000000000000000000000000000000000081525081526020016040518060400160405280600781526020017f234342414632450000000000000000000000000000000000000000000000000081525081526020016040518060400160405280600781526020017f233345414442300000000000000000000000000000000000000000000000000081525081526020016040518060400160405280600781526020017f233344383642430000000000000000000000000000000000000000000000000081525081526020016040518060400160405280600781526020017f233536363841320000000000000000000000000000000000000000000000000081525081526020016040518060400160405280600781526020017f2339433544383300000000000000000000000000000000000000000000000000815250815250600090600a6200026e92919062000283565b503480156200027c57600080fd5b506200046d565b828054828255906000526020600020908101928215620002d7579160200282015b82811115620002d6578251829080519060200190620002c5929190620002ea565b5091602001919060010190620002a4565b5b509050620002e691906200037b565b5090565b828054620002f89062000408565b90600052602060002090601f0160209004810192826200031c576000855562000368565b82601f106200033757805160ff191683800117855562000368565b8280016001018555821562000368579182015b82811115620003675782518255916020019190600101906200034a565b5b509050620003779190620003a3565b5090565b5b808211156200039f5760008181620003959190620003c2565b506001016200037c565b5090565b5b80821115620003be576000816000905550600101620003a4565b5090565b508054620003d09062000408565b6000825580601f10620003e4575062000405565b601f016020900490600052602060002090810190620004049190620003a3565b5b50565b600060028204905060018216806200042157607f821691505b602082108114156200043857620004376200043e565b5b50919050565b7f4e487b7100000000000000000000000000000000000000000000000000000000600052602260045260246000fd5b61441a806200047d6000396000f3fe608060405234801561001057600080fd5b50600436106100365760003560e01c806378db7eec1461003b57806379dccf8c1461006b575b600080fd5b61005560048036038101906100509190610dcd565b61009b565b6040516100629190611412565b60405180910390f35b61008560048036038101906100809190610d7e565b610543565b60405161009291906113f0565b60405180910390f35b60606000600a856100ac919061189f565b90506000600a6064876100bf919061189f565b6100c99190611586565b9050600060646103e8886100dd919061189f565b6100e79190611586565b905060006100f6898989610543565b9050600061018082600060028110610137577f4e487b7100000000000000000000000000000000000000000000000000000000600052603260045260246000fd5b602002015183600160028110610176577f4e487b7100000000000000000000000000000000000000000000000000000000600052603260045260246000fd5b6020020151610833565b9050600061018c61085f565b905060006103ff600088815481106101cd577f4e487b7100000000000000000000000000000000000000000000000000000000600052603260045260246000fd5b9060005260206000200180546101e2906117f3565b80601f016020809104026020016040519081016040528092919081815260200182805461020e906117f3565b801561025b5780601f106102305761010080835404028352916020019161025b565b820191906000526020600020905b81548152906001019060200180831161023e57829003601f168201915b50505050506000888154811061029a577f4e487b7100000000000000000000000000000000000000000000000000000000600052603260045260246000fd5b9060005260206000200180546102af906117f3565b80601f01602080910402602001604051908101604052809291908181526020018280546102db906117f3565b80156103285780601f106102fd57610100808354040283529160200191610328565b820191906000526020600020905b81548152906001019060200180831161030b57829003601f168201915b505050505060008881548110610367577f4e487b7100000000000000000000000000000000000000000000000000000000600052603260045260246000fd5b90600052602060002001805461037c906117f3565b80601f01602080910402602001604051908101604052809291908181526020018280546103a8906117f3565b80156103f55780601f106103ca576101008083540402835291602001916103f5565b820191906000526020600020905b8154815290600101906020018083116103d857829003601f168201915b5050505050610884565b9050600081838560405160200161041893929190611360565b6040516020818303038152906040529050600061050e6104378f6108b3565b87600060028110610471577f4e487b7100000000000000000000000000000000000000000000000000000000600052603260045260246000fd5b6020020151886001600281106104b0577f4e487b7100000000000000000000000000000000000000000000000000000000600052603260045260246000fd5b60200201516040516020016104c69291906111e3565b6040516020818303038152906040526104de8e6108b3565b6104e786610a60565b6040516020016104fa94939291906112c9565b604051602081830303815290604052610a60565b905080604051602001610521919061133e565b6040516020818303038152906040529950505050505050505050949350505050565b61054b610c1e565b60008284610559919061160a565b90506000610566826108b3565b61056f866108b3565b610578866108b3565b610581896108b3565b60405160200161059494939291906113a7565b6040516020818303038152906040528051906020012060001c905060006050826105be919061189f565b9050603d811061065e5773__$128b75c452d7bad10fbfe8162ddb9e5117$__6392d53983826040518263ffffffff1660e01b81526004016105ff9190611434565b60006040518083038186803b15801561061757600080fd5b505af415801561062b573d6000803e3d6000fd5b505050506040513d6000823e3d601f19601f820116820180604052508101906106549190610d3d565b935050505061082c565b602981106106fc5773__$311a33a4f51c500c1d2e264737fc097d09$__6392d53983826040518263ffffffff1660e01b815260040161069d9190611434565b60006040518083038186803b1580156106b557600080fd5b505af41580156106c9573d6000803e3d6000fd5b505050506040513d6000823e3d601f19601f820116820180604052508101906106f29190610d3d565b935050505061082c565b6015811061079a5773__$77ea751b95ae1ac05badc06e400d40c7e5$__6392d53983826040518263ffffffff1660e01b815260040161073b9190611434565b60006040518083038186803b15801561075357600080fd5b505af4158015610767573d6000803e3d6000fd5b505050506040513d6000823e3d601f19601f820116820180604052508101906107909190610d3d565b935050505061082c565b73__$0fe5f6d2ef39da8ee0eae391d881aaf10c$__6392d53983826040518263ffffffff1660e01b81526004016107d19190611434565b60006040518083038186803b1580156107e957600080fd5b505af41580156107fd573d6000803e3d6000fd5b505050506040513d6000823e3d601f19601f820116820180604052508101906108269190610d3d565b93505050505b9392505050565b6060828260405160200161084892919061126f565b604051602081830303815290604052905092915050565b6060604051602001610870906112b4565b604051602081830303815290604052905090565b606083838360405160200161089b93929190611212565b60405160208183030381529060405290509392505050565b606060008214156108fb576040518060400160405280600181526020017f30000000000000000000000000000000000000000000000000000000000000008152509050610a5b565b600082905060005b6000821461092d57808061091690611856565b915050600a826109269190611586565b9150610903565b60008167ffffffffffffffff81111561096f577f4e487b7100000000000000000000000000000000000000000000000000000000600052604160045260246000fd5b6040519080825280601f01601f1916602001820160405280156109a15781602001600182028036833780820191505090505b5090505b60008514610a54576001826109ba9190611782565b9150600a856109c9919061189f565b60306109d59190611530565b60f81b818381518110610a11577f4e487b7100000000000000000000000000000000000000000000000000000000600052603260045260246000fd5b60200101907effffffffffffffffffffffffffffffffffffffffffffffffffffffffffffff1916908160001a905350600a85610a4d9190611586565b94506109a5565b8093505050505b919050565b60606000825190506000811415610a895760405180602001604052806000815250915050610c19565b60006003600283610a9a9190611530565b610aa49190611586565b6004610ab09190611728565b90506000602082610ac19190611530565b67ffffffffffffffff811115610b00577f4e487b7100000000000000000000000000000000000000000000000000000000600052604160045260246000fd5b6040519080825280601f01601f191660200182016040528015610b325781602001600182028036833780820191505090505b50905060006040518060600160405280604081526020016143a5604091399050600181016020830160005b86811015610bd65760038101905062ffffff818a015116603f8160121c168401518060081b905060ff603f83600c1c1686015116810190508060081b905060ff603f8360061c1686015116810190508060081b905060ff603f831686015116810190508060e01b90508084526004840193505050610b5d565b506003860660018114610bf05760028114610c0057610c0b565b613d3d60f01b6002830352610c0b565b603d60f81b60018303525b508484525050819450505050505b919050565b60405180604001604052806002905b6060815260200190600190039081610c2d5790505090565b6000610c58610c5384611474565b61144f565b9050808260005b85811015610c8f5781518501610c758882610cfe565b845260208401935060208301925050600181019050610c5f565b5050509392505050565b6000610cac610ca78461149a565b61144f565b905082815260208101848484011115610cc457600080fd5b610ccf8482856117c0565b509392505050565b600082601f830112610ce857600080fd5b6002610cf5848285610c45565b91505092915050565b600082601f830112610d0f57600080fd5b8151610d1f848260208601610c99565b91505092915050565b600081359050610d378161438d565b92915050565b600060208284031215610d4f57600080fd5b600082015167ffffffffffffffff811115610d6957600080fd5b610d7584828501610cd7565b91505092915050565b600080600060608486031215610d9357600080fd5b6000610da186828701610d28565b9350506020610db286828701610d28565b9250506040610dc386828701610d28565b9150509250925092565b60008060008060808587031215610de357600080fd5b6000610df187828801610d28565b9450506020610e0287828801610d28565b9350506040610e1387828801610d28565b9250506060610e2487828801610d28565b91505092959194509250565b6000610e3c8383610eb9565b905092915050565b6000610e4f826114d5565b610e5981856114f8565b935083602082028501610e6b856114cb565b8060005b85811015610ea75784840389528151610e888582610e30565b9450610e93836114eb565b925060208a01995050600181019050610e6f565b50829750879550505050505092915050565b6000610ec4826114e0565b610ece8185611503565b9350610ede8185602086016117c0565b610ee78161198c565b840191505092915050565b6000610efd826114e0565b610f078185611514565b9350610f178185602086016117c0565b610f208161198c565b840191505092915050565b6000610f36826114e0565b610f408185611525565b9350610f508185602086016117c0565b80840191505092915050565b6000610f69601383611525565b9150610f74826119aa565b601382019050919050565b6000610f8c608783611525565b9150610f97826119d3565b608782019050919050565b6000610faf60a383611525565b9150610fba82611a94565b60a382019050919050565b6000610fd2605d83611525565b9150610fdd82611b7b565b605d82019050919050565b6000610ff5605383611525565b915061100082611bf0565b605382019050919050565b6000611018600183611525565b915061102382611c65565b600182019050919050565b600061103b608883611525565b915061104682611c8e565b608882019050919050565b600061105e600283611525565b915061106982611d4f565b600282019050919050565b6000611081600783611525565b915061108c82611d78565b600782019050919050565b60006110a5611c6083611525565b91506110b082611da1565b611c6082019050919050565b60006110c9602883611525565b91506110d482614031565b602882019050919050565b60006110ec607383611525565b91506110f782614080565b607382019050919050565b600061110f601983611525565b915061111a8261411b565b601982019050919050565b6000611132601d83611525565b915061113d82614144565b601d82019050919050565b600061115560eb83611525565b91506111608261416d565b60eb82019050919050565b6000611178606483611525565b9150611183826142a0565b606482019050919050565b600061119b600683611525565b91506111a68261433b565b600682019050919050565b60006111be600e83611525565b91506111c982614364565b600e82019050919050565b6111dd816117b6565b82525050565b60006111ef8285610f2b565b91506111fa8261100b565b91506112068284610f2b565b91508190509392505050565b600061121d82610fa2565b91506112298286610f2b565b91506112348261102e565b91506112408285610f2b565b915061124b82610f7f565b91506112578284610f2b565b9150611262826110df565b9150819050949350505050565b600061127a82610fc5565b91506112868285610f2b565b91506112918261116b565b915061129d8284610f2b565b91506112a882611074565b91508190509392505050565b60006112bf82611097565b9150819050919050565b60006112d482611102565b91506112e08287610f2b565b91506112eb82610f5c565b91506112f78286610f2b565b915061130282610fe8565b915061130e8285610f2b565b9150611319826110bc565b91506113258284610f2b565b915061133082611051565b915081905095945050505050565b600061134982611125565b91506113558284610f2b565b915081905092915050565b600061136b82611148565b91506113778286610f2b565b91506113838285610f2b565b915061138f8284610f2b565b915061139a8261118e565b9150819050949350505050565b60006113b2826111b1565b91506113be8287610f2b565b91506113ca8286610f2b565b91506113d68285610f2b565b91506113e28284610f2b565b915081905095945050505050565b6000602082019050818103600083015261140a8184610e44565b905092915050565b6000602082019050818103600083015261142c8184610ef2565b905092915050565b600060208201905061144960008301846111d4565b92915050565b600061145961146a565b90506114658282611825565b919050565b6000604051905090565b600067ffffffffffffffff82111561148f5761148e61195d565b5b602082029050919050565b600067ffffffffffffffff8211156114b5576114b461195d565b5b6114be8261198c565b9050602081019050919050565b6000819050919050565b600060029050919050565b600081519050919050565b6000602082019050919050565b600081905092915050565b600082825260208201905092915050565b600082825260208201905092915050565b600081905092915050565b600061153b826117b6565b9150611546836117b6565b9250827fffffffffffffffffffffffffffffffffffffffffffffffffffffffffffffffff0382111561157b5761157a6118d0565b5b828201905092915050565b6000611591826117b6565b915061159c836117b6565b9250826115ac576115ab6118ff565b5b828204905092915050565b6000808291508390505b6001851115611601578086048111156115dd576115dc6118d0565b5b60018516156115ec5780820291505b80810290506115fa8561199d565b94506115c1565b94509492505050565b6000611615826117b6565b9150611620836117b6565b925061164d7fffffffffffffffffffffffffffffffffffffffffffffffffffffffffffffffff8484611655565b905092915050565b6000826116655760019050611721565b816116735760009050611721565b81600181146116895760028114611693576116c2565b6001915050611721565b60ff8411156116a5576116a46118d0565b5b8360020a9150848211156116bc576116bb6118d0565b5b50611721565b5060208310610133831016604e8410600b84101617156116f75782820a9050838111156116f2576116f16118d0565b5b611721565b61170484848460016115b7565b9250905081840481111561171b5761171a6118d0565b5b81810290505b9392505050565b6000611733826117b6565b915061173e836117b6565b9250817fffffffffffffffffffffffffffffffffffffffffffffffffffffffffffffffff0483118215151615611777576117766118d0565b5b828202905092915050565b600061178d826117b6565b9150611798836117b6565b9250828210156117ab576117aa6118d0565b5b828203905092915050565b6000819050919050565b60005b838110156117de5780820151818401526020810190506117c3565b838111156117ed576000848401525b50505050565b6000600282049050600182168061180b57607f821691505b6020821081141561181f5761181e61192e565b5b50919050565b61182e8261198c565b810181811067ffffffffffffffff8211171561184d5761184c61195d565b5b80604052505050565b6000611861826117b6565b91507fffffffffffffffffffffffffffffffffffffffffffffffffffffffffffffffff821415611894576118936118d0565b5b600182019050919050565b60006118aa826117b6565b91506118b5836117b6565b9250826118c5576118c46118ff565b5b828206905092915050565b7f4e487b7100000000000000000000000000000000000000000000000000000000600052601160045260246000fd5b7f4e487b7100000000000000000000000000000000000000000000000000000000600052601260045260246000fd5b7f4e487b7100000000000000000000000000000000000000000000000000000000600052602260045260246000fd5b7f4e487b7100000000000000000000000000000000000000000000000000000000600052604160045260246000fd5b6000601f19601f8301169050919050565b60008160011c9050919050565b7f222c20226465736372697074696f6e223a202200000000000000000000000000600082015250565b7f273e3c616e696d617465206174747269627574654e616d653d276f666673657460008201527f27206475723d27353073272076616c7565733d27302e33303b302e383b302e3360208201527f302720726570656174436f756e743d27696e646566696e697465272f3e3c2f7360408201527f746f703e3c73746f70206f66667365743d273127207374796c653d2773746f7060608201527f2d636f6c6f723a00000000000000000000000000000000000000000000000000608082015250565b7f3c72616469616c4772616469656e742069643d2761272063783d27323030272060008201527f63793d272d3130302720723d273239302e30323527206772616469656e74547260208201527f616e73666f726d3d276d6174726978283120302030202d31203020373629272060408201527f6772616469656e74556e6974733d277573657253706163654f6e557365273e3c60608201527f73746f70206f66667365743d272e3227207374796c653d2773746f702d636f6c60808201527f6f723a000000000000000000000000000000000000000000000000000000000060a082015250565b7f3c7465787420783d273438252720793d2735302527207472616e73666f726d3d60008201527f27726f74617465282d33292720646f6d696e616e742d626173656c696e653d2760208201527f6d6964646c652720746578742d616e63686f723d276d6964646c65273e000000604082015250565b7f222c202261747472696275746573223a205b7b22646973706c61795f7479706560008201527f223a202264617465222c202274726169745f74797065223a20224e657874204660208201527f6f7274756e65222c20202276616c7565223a2000000000000000000000000000604082015250565b7f2000000000000000000000000000000000000000000000000000000000000000600082015250565b7f273e3c616e696d617465206174747269627574654e616d653d276f666673657460008201527f27206475723d27353073272076616c7565733d27302e30313b302e343b302e3060208201527f312720726570656174436f756e743d27696e646566696e697465272f3e3c2f7360408201527f746f703e3c73746f70206f66667365743d272e3827207374796c653d2773746f60608201527f702d636f6c6f723a000000000000000000000000000000000000000000000000608082015250565b7f227d000000000000000000000000000000000000000000000000000000000000600082015250565b7f3c2f746578743e00000000000000000000000000000000000000000000000000600082015250565b7f3c706174682066696c6c3d2775726c282361292720643d274d3020306834303060008201527f7634303048307a272f3e3c7061746820643d274d3338322e313238203233352e60208201527f3832367332352e3031332d322e38353920362e3032332d32322e36313563302060408201527f302d34312e3235392d33342e3131332d37302e3238332d35342e32362d31322e60608201527f3335362d382e3537362d31332e3334322d31322e35372d31362e3833362d313460808201527f2e3636366c2e3038352e323534732d2e30342d312e3337382d312e383134203160a08201527f342e313637632d322e3331352032302e3237332d31302e3533322033372e343460c08201527f322d32302e3933382036342e3231332d362e3133332031352e3737372d31332e60e08201527f3130332032392e3632322d31332e3130332032392e363232732d2e37373220326101008201527f2e32353720312e36303520332e31353863322e3337372e3920362e3838322e306101208201527f393720362e3838322e3039377337302e3531322d362e333539203131302e35316101408201527f362d32302e343436272066696c6c3d2723646538373236272066696c6c2d72756101608201527f6c653d276576656e6f646427207374726f6b653d2723646538373236272073746101808201527f726f6b652d77696474683d272e3634342720766563746f726e61746f723a6c616101a08201527f7965724e616d653d27436f6f6b696520522e272f3e3c672066696c6c2d72756c6101c08201527f653d276576656e6f646427207374726f6b652d77696474683d272e36343427206101e08201527f766563746f726e61746f723a6c617965724e616d653d275269676874204643276102008201527f3e3c7061746820643d274d3236362e3434203235352e3830377333332e3035366102208201527f2d31382e3233372033372e3637362d32312e30373863392e3137342d352e36336102408201527f382031392e3533312d31362e3437382033382e3635312d31372e3832352031336102608201527f2e3938332d2e3938352034342e35363520372e3239332035302e3735392031326102808201527f2e3430382030203020322e38323420322e3834392d392e31353420362e37312d6102a08201527f31312e393820332e3836312d33342e37313720382e3730342d35302e303835206102c08201527f31312e3837392d31382e353420332e3832392d34332e38323520362e3738312d6102e08201527f35372e32363520372e3831352d392e3636312e3734342d31302e36322e3035356103008201527f2d31302e36322e303535272066696c6c3d272366376235353827206f706163696103208201527f74793d272e363827207374726f6b653d2723663762353538272f3e3c706174686103408201527f20643d274d3331392e323034203233392e383338632d31392e31333520372e376103608201527f37382d32342e36333520312e3130342d32342e36333520312e3130342d31362e6103808201527f3431382d33352e3731372031352e3939342d38362e3933312031352e3939342d6103a08201527f38362e3933312d322e3236312d312e3931342d392e3535362d31302e3333362d6103c08201527f392e3535362d31302e333336732d312e3538312032322e3239322d392e3230336103e08201527f2034322e333533632d362e3833362031372e3939312d31322e3131372033352e6104008201527f3733372d32352e3533352036342e393031203020302d332e3420342e323135206104208201527f312e3720352e343834203020302034312e3533392d332e3235392037312e33356104408201527f2d392e3330322032392e3536352d352e3939322034362e3930352d31322e32316104608201527f352034362e3930352d31322e3231352031352e3335372d332e383620362e34326104808201527f352d31362e31363520362e3432352d31362e3136352d392e30322031332e33336104a08201527f332d32322e3933362031312e3032332d32322e3933362031312e3032332d33326104c08201527f2e3936312d312e3438322d35302e3438392031302e3039392d35302e343839206104e08201527f31302e303939272066696c6c3d272361623664343027206f7061636974793d276105008201527f2e35333127207374726f6b653d2723616236643430272f3e3c2f673e3c7061746105208201527f6820643d274d3338362e313031203231312e343033732d31342e39383420312e6105408201527f3734322d33392e30392d31372e313136632d31322e3139332d392e3533382d336105608201527f392e3437342d33312e3934332d34362e3138322d35302e383936203020302d316105808201527f2e3838362d312e36353420362e34383520362e373820372e32393120372e33346105a08201527f372032342e3731372031382e3235312033352e38352032372e303635613138366105c08201527f32302e3236342031383632302e3236342030203020312034322e3931332033346105e08201527f2e313038272066696c6c3d2723666165626365272066696c6c2d72756c653d276106008201527f6576656e6f646427206f7061636974793d272e35303627207374726f6b653d276106208201527f2366616562636527207374726f6b652d77696474683d272e36343427207665636106408201527f746f726e61746f723a6c617965724e616d653d274f66662077686974652066636106608201527f272f3e3c6720766563746f726e61746f723a6c617965724e616d653d2752696d6106808201527f207269676874206663272066696c6c2d72756c653d276576656e6f64642720736106a08201527f74726f6b652d77696474683d272e363434273e3c7061746820643d274d3239386106c08201527f2e303632203134322e383132632d2e3638322e3132352d312e3530392e3434356106e08201527f2d322e34363820312e303633203020302d33322e3333362032362e3934382d336107008201527f362e3430362033302e3231392d2e3138382e31352d32362e3831332032372e316107208201527f393220362e3539332038312e3437372e3032392d2e3130372031372e36322d346107408201527f302e3337342032352e3934362d36362e353320382e3430382d32362e343135206107608201527f392e3231312d34352e323620392e3231312d34352e3236732d2e3832392d312e6107808201527f3334312d322e3837362d2e3936395a272066696c6c3d272366376235353827206107a08201527f6f7061636974793d272e38323627207374726f6b653d2723663762353538272f6107c08201527f3e3c7061746820643d274d3235362e3433203138342e30373163352e3237312d6107e08201527f372e3830372034302e3231382d33372e3031322034302e3231382d33372e30316108008201527f32732d312e3132362032332e3833332d31312e3034322034342e383338632d316108208201527f302e3334332032312e3930372d32302e3635322035342e3332382d32302e36356108408201527f322035342e333238732d382e3331322d31352e3236362d31312e3034342d32386108608201527f2e343836632d322e3733312d31332e32322d322e3034372d32372e33373620326108808201527f2e3533392d33332e373139272066696c6c3d272362343738346327206f7061636108a08201527f6974793d272e37313527207374726f6b653d2723623437383463272f3e3c2f676108c08201527f3e3c672066696c6c2d72756c653d276576656e6f646427207374726f6b653d276108e08201527f2362633562303827207374726f6b652d77696474683d272e36343427207665636109008201527f746f726e61746f723a6c617965724e616d653d2744657461696c732052273e3c6109208201527f7061746820643d274d3332332e3938203136372e303131732d312e30343620356109408201527f2e3234352d362e38303520362e3137326d31322e3333372d2e353673312e36326109608201527f3820322e38322d312e373420352e3231316d33312e31352031372e35313673316109808201527f2e39343120342e3230342d352e33303920382e31366d31312e3239362d342e326109a08201527f3836732e32363620342e3634352d342e35333920362e3238376d372e3932382d6109c08201527f332e33313573322e30303420342e3837322d322e34383520382e3335356d2d376109e08201527f302e3134392032352e33373873352e3738352d312e30353520352e3731382035610a008201527f2e303632272066696c6c3d276e6f6e65272f3e3c7061746820643d274d333332610a208201527f2e323132203139332e34373663302d2e3434332e3239332d2e3830332e363533610a408201527f2d2e3830332e3336312030202e3635332e33362e3635332e3830332030202e34610a608201527f34332d2e3239322e3830332d2e3635332e3830332d2e333620302d2e3635332d610a808201527f2e33362d2e3635332d2e3830335a6d31382e3239382d332e39313763302d2e35610aa08201527f39322e3237352d312e3037322e3631342d312e3037322e33342030202e363134610ac08201527f2e34382e36313420312e3037322030202e3539312d2e32373420312e3037312d610ae08201527f2e36313420312e3037312d2e33333920302d2e3631342d2e34382d2e3631342d610b008201527f312e3037315a6d2d31312e3630382d372e35383263302d2e3638342e3331322d610b208201527f312e3233382e3639382d312e3233382e3338362030202e3639382e3535342e36610b408201527f393820312e3233382030202e3638332d2e33313220312e3233372d2e36393820610b608201527f312e3233372d2e33383620302d2e3639382d2e3535342d2e3639382d312e3233610b808201527f375a6d2d32302e3433362d2e36353563302d2e3933322e3339392d312e363837610ba08201527f2e3839312d312e363837732e3839312e3735352e38393120312e363837633020610bc08201527f2e3933312d2e33393920312e3638362d2e38393120312e363836732d2e383931610be08201527f2d2e3735352d2e3839312d312e3638365a6d2d33352e3535322035392e353637610c008201527f63302d312e3337362e3434322d322e3439322e3938382d322e3439322e353435610c208201527f2030202e39383720312e3131362e39383720322e343932203020312e3337372d610c408201527f2e34343220322e3439322d2e39383720322e3439322d2e35343620302d2e3938610c608201527f382d312e3131352d2e3938382d322e3439325a6d2d32332e3731382e36383763610c808201527f302d312e3030332e34362d312e38313620312e3032382d312e3831362e353637610ca08201527f203020312e3032372e38313320312e30323720312e383136203020312e303033610cc08201527f2d2e343620312e3831362d312e30323720312e3831362d2e35363820302d312e610ce08201527f3032382d2e3831332d312e3032382d312e3831365a6d31362e3837342d31392e610d008201527f35363863302d2e3735362e3038362d312e3336392e3139322d312e3336392e31610d208201527f30362030202e3139322e3631332e31393220312e3336392030202e3735372d2e610d408201527f30383620312e33372d2e31393220312e33372d2e31303620302d2e3139322d2e610d608201527f3631332d2e3139322d312e33375a272066696c6c3d272362633562303827206f610d808201527f7061636974793d272e353331272f3e3c2f673e3c7061746820643d276d31322e610da08201527f343239203231372e3934372d322e35303920322e313635632d31382e34362031610dc08201527f382e38393220372e3238352032312e34363220372e3238352032312e34363220610de08201527f32322e36383620352e3731322036352e3733342031312e3534372038332e3235610e008201527f2031332e3435392033322e35313320332e3535312033322e35312d2e38333920610e208201527f33322e35312d2e3833396c2e3037372d2e3431332d33372e3034362d3130382e610e408201527f3239342d2e3139362d2e323233732d322e32352d312e3539352d392e31333520610e608201527f372e3133316c312e3531342d312e3936374c392e3932203232302e3131322720610e808201527f66696c6c3d2723646538373236272066696c6c2d72756c653d276576656e6f64610ea08201527f6427207374726f6b653d272364653837323627207374726f6b652d7769647468610ec08201527f3d272e3634342720766563746f726e61746f723a6c617965724e616d653d2743610ee08201527f6f6f6b6965204c2e272f3e3c672066696c6c2d72756c653d276576656e6f6464610f008201527f27207374726f6b652d77696474683d272e3634342720766563746f726e61746f610f208201527f723a6c617965724e616d653d274c656674204643273e3c7061746820643d274d610f408201527f37312e3934203232382e393833632d32362e37362d31332e3631392d34362e38610f608201527f332d312e3533322d34362e38332d312e3533327333362e39303620352e383433610f808201527f2035372e3332362032352e353232633020302032372e36393120342e38313320610fa08201527f34302e36363920332e3636342031322e3533392d312e3131312031312e303132610fc08201527f2d322e35362031312e3031322d322e3536732d33352e35312d362e34362d3632610fe08201527f2e3330312d32352e313134272066696c6c3d272366376235353827206f7061636110008201527f6974793d272e37313527207374726f6b653d2723663762353538272f3e3c70616110208201527f746820643d274d38382e333937203235332e3639394332372e3533203230372e6110408201527f30313620332e333037203233342e37373920342e3236203233352e33632e32346110608201527f372e3133352d2e34323320332e3739352031342e38303920372e3334362032326110808201527f2e34323820352e32332036392e3536372031312e3037372036392e35363720316110a08201527f312e303737272066696c6c3d272361623664343027206f7061636974793d272e6110c08201527f35323527207374726f6b653d2723623437383463272f3e3c2f673e3c706174686110e08201527f20643d274d31302e383735203231392e3131356334362e3238332d342e3035206111008201527f38322e3239362d37332e35342038322e3239362d37332e3534682e3034386c2d6111208201527f38322e3333352037332e353632272066696c6c3d2723666165626365272066696111408201527f6c6c2d72756c653d276576656e6f646427206f7061636974793d272e353036276111608201527f207374726f6b653d272366616562636527207374726f6b652d77696474683d276111808201527f2e3634342720766563746f726e61746f723a6c617965724e616d653d274f66666111a08201527f207768697465206663204c272f3e3c672066696c6c2d72756c653d276576656e6111c08201527f6f646427207374726f6b652d77696474683d272e3634342720766563746f726e6111e08201527f61746f723a6c617965724e616d653d274c2066632072696d273e3c70617468206112008201527f643d276d3130392e343732203135342e3837362d2e3039352d2e323033632d336112208201527f302e3532382d32362e3838362d392e31392031312e3036332d392e31392031316112408201527f2e30363373382e39382031372e3230352031362e32392034352e30333963342e6112608201527f3830352031382e32393220362e3532322032302e323520372e3432312032362e6112808201527f3835372030203020382e3833312034322e3130392031392e3132382d352e33306112a08201527f366c362e3734342d34302e353333632e3537362d31342e3634372d34302e34356112c08201527f382d33362e3930372d34302e3435382d33362e393037272066696c6c3d2723666112e08201527f376235353827206f7061636974793d272e38333327207374726f6b653d2723666113008201527f3762353538272f3e3c7061746820643d274d3134362e373735203138382e34306113208201527f38732d322e3734372032352e3737362d372e3134342033382e373832632d342e6113408201527f3539352031332e3538382d352e3430382031392e3335312d352e3430382031396113608201527f2e333531732d352e3932392d32302e3531332d31332e3434332d34352e3835316113808201527f632d372e3236332d32342e3439312d32302e3837372d35302e3339352d32302e6113a08201527f3837372d35302e33393573392e393520372e3733392032332e3838362031382e6113c08201527f3933396331302e36363920382e3537342032322e3938362031392e31373420326113e08201527f322e3938362031392e3137345a272066696c6c3d272362343738346327206f706114008201527f61636974793d272e37313527207374726f6b653d2723623437383463272f3e3c6114208201527f2f673e3c672066696c6c2d72756c653d276576656e6f646427207374726f6b656114408201527f3d272362633562303827207374726f6b652d77696474683d272e3634342720766114608201527f6563746f726e61746f723a6c617965724e616d653d2744657461696c73204c2e6114808201527f273e3c7061746820643d274d3131302e343033203232352e35313673382e35396114a08201527f3620362e3838362e3735322031352e3537366d2d33352e3530382d35392e32336114c08201527f34732d2e3131332d372e3739342d31302e3434382d362e3635334d34312e35356114e08201527f203231312e323438732d332e31382d352e3131332d392e3835312d352e3339386115008201527f6d2d362e3231352031352e313731732d322e3032342d342e3931382d372e38336115208201527f352d342e3334366d38372e39362031322e3173332e3738392e34393620312e376115408201527f303920342e393334272066696c6c3d276e6f6e65272f3e3c7061746820643d276115608201527f4d3130322e323736203234382e30353663302d2e3735332e3535362d312e33366115808201527f3320312e3234332d312e33363373312e3234342e363120312e32343420312e336115a08201527f36336330202e3735342d2e35353720312e3336342d312e32343420312e3336346115c08201527f2d2e36383720302d312e3234332d2e36312d312e3234332d312e3336345a6d2d6115e08201527f34372e3933342d36332e34363363302d312e3036362e3439392d312e393320316116008201527f2e3131352d312e393373312e3131352e38363420312e31313520312e393363306116208201527f20312e3036362d2e3520312e39332d312e31313520312e39332d2e36313620306116408201527f2d312e3131352d2e3836342d312e3131352d312e39335a6d2d392e38383920386116608201527f2e37303163302d312e3137352e33332d322e3132382e3733362d322e3132382e6116808201527f3430372030202e3733362e3935332e37333620322e313238203020312e3137356116a08201527f2d2e333320322e3132372d2e37333620322e3132372d2e34303720302d2e37336116c08201527f362d2e3935322d2e3733362d322e3132375a6d35312e3035322033372e3730386116e08201527f63302d312e3039322e3339362d312e3937372e3838352d312e393737732e38386117008201527f352e3838352e38383520312e3937372d2e33393620312e3937372d2e383835206117208201527f312e3937372d2e3838352d2e3838352d2e3838352d312e3937375a6d2d342e346117408201527f30342031332e37313963302d312e31352e3239392d322e3038322e3636372d326117608201527f2e3038322e3336382030202e3636362e3933322e36363620322e303832732d2e6117808201527f32393820322e3038322d2e36363620322e303832632d2e33363820302d2e36366117a08201527f372d2e3933322d2e3636372d322e3038325a4d32352e3831203233302e3033386117c08201527f63302d2e3934362e3331382d312e3731332e3731312d312e3731332e333933206117e08201527f30202e37312e3736372e373120312e3731332030202e3934362d2e33313720316118008201527f2e3731332d2e373120312e3731332d2e33393320302d2e3731312d2e3736372d6118208201527f2e3731312d312e3731335a6d39302e3331332031342e37333463302d2e3936356118408201527f2e3337352d312e3734372e3833382d312e3734372e3436322030202e3833382e6118608201527f3738322e38333820312e3734372030202e3936352d2e33373620312e3734372d6118808201527f2e38333820312e3734372d2e34363320302d2e3833382d2e3738322d2e3833386118a08201527f2d312e3734375a6d362e3933322d37372e39303763302d2e3331342e3732342d6118c08201527f2e35363820312e3631362d2e3536382e383932203020312e3631352e323534206118e08201527f312e3631352e3536382030202e3331342d2e3732332e3536382d312e3631352e6119008201527f353638732d312e3631362d2e3235342d312e3631362d2e3536385a6d2d362e386119208201527f32382033332e36323963302d312e3135382e31332d322e3039382e3238392d326119408201527f2e3039382e31362030202e32392e39342e323920322e303938203020312e31356119608201527f392d2e313320322e3039382d2e323920322e3039382d2e31353920302d2e32386119808201527f392d2e3933392d2e3238392d322e3039385a6d382e3533312032362e313737636119a08201527f302d2e3633382e3136332d312e3135342e3336332d312e3135342e32303120306119c08201527f202e3336332e3531362e33363320312e3135342030202e3633372d2e313632206119e08201527f312e3135332d2e33363320312e3135332d2e3220302d2e3336332d2e3531362d611a008201527f2e3336332d312e3135335a6d2d32362e3130342d37312e33303563302d2e3338611a208201527f382e3039372d2e3730332e3231362d2e373033732e3231352e3331352e323135611a408201527f2e3730336330202e3338392d2e3039362e3730342d2e3231352e3730342d2e31611a608201527f3220302d2e3231362d2e3331352d2e3231362d2e3730345a6d2d32372e343332611a808201527f2037332e36343263302d2e3935382e34372d312e37333420312e30352d312e37611aa08201527f33342e3538203020312e30352e37373620312e303520312e3733342030202e39611ac08201527f35372d2e343720312e3733342d312e303520312e3733342d2e353820302d312e611ae08201527f30352d2e3737372d312e30352d312e3733345a272066696c6c3d272362633562611b008201527f303827206f7061636974793d272e363031272f3e3c2f673e3c7061746820643d611b208201527f274d3239322e323733203137332e333936632d31332e3534392d352e3036322d611b408201527f3137362e3639372031312e3935332d3137362e3639372031312e3935336c3133611b608201527f2e3037312034322e3137366331322e3430322d332e363035203134372e373332611b808201527f2d31332e353536203134372e3733322d31332e35353673372e3636382d31372e611ba08201527f3039332031312e3430352d32362e38383463332e3733382d392e37393220342e611bc08201527f3535322d31332e35363720342e3535322d31332e353637272066696c6c3d2723611be08201527f666666272066696c6c2d72756c653d276576656e6f646427207374726f6b653d611c008201527f272366336631663927207374726f6b652d77696474683d272e36343427207665611c208201527f63746f726e61746f723a6c617965724e616d653d274643205061706572272f3e611c4082015250565b7f7d5d2c2022696d616765223a2022646174613a696d6167652f7376672b786d6c60008201527f3b6261736536342c000000000000000000000000000000000000000000000000602082015250565b7f273e3c616e696d617465206174747269627574654e616d653d276f666673657460008201527f27206475723d27353073272076616c7565733d27302e36383b313b302e36382760208201527f20726570656174436f756e743d27696e646566696e697465272f3e3c2f73746f60408201527f703e3c2f72616469616c4772616469656e743e00000000000000000000000000606082015250565b7f7b226e616d65223a2022466f7274756e6520436f6f6b79202300000000000000600082015250565b7f646174613a6170706c69636174696f6e2f6a736f6e3b6261736536342c000000600082015250565b7f3c737667207374726f6b652d6d697465726c696d69743d27313027207374796c60008201527f653d2766696c6c2d72756c653a6e6f6e7a65726f3b636c69702d72756c653a6560208201527f76656e6f64643b7374726f6b652d6c696e656361703a726f756e643b7374726f60408201527f6b652d6c696e656a6f696e3a726f756e64272076696577426f783d273020302060608201527f343030203430302720786d6c3a73706163653d2770726573657276652720786d60808201527f6c6e733d27687474703a2f2f7777772e77332e6f72672f323030302f7376672760a08201527f20786d6c6e733a766563746f726e61746f723d27687474703a2f2f766563746f60c08201527f726e61746f722e696f273e00000000000000000000000000000000000000000060e082015250565b7f3c2f746578743e3c7465787420783d273438252720793d27353425272074726160008201527f6e73666f726d3d27726f74617465282d33292720646f6d696e616e742d62617360208201527f656c696e653d276d6964646c652720746578742d616e63686f723d276d69646460408201527f6c65273e00000000000000000000000000000000000000000000000000000000606082015250565b7f3c2f7376673e0000000000000000000000000000000000000000000000000000600082015250565b7f4e414e5550414e44415f4c414253000000000000000000000000000000000000600082015250565b614396816117b6565b81146143a157600080fd5b5056fe4142434445464748494a4b4c4d4e4f505152535455565758595a6162636465666768696a6b6c6d6e6f707172737475767778797a303132333435363738392b2fa264697066735822122028761fa4001a0be28a5335e801f08e79f3ed97090a4f53b314a05d0f27b341cf64736f6c63430008020033",
  "linkReferences": {
    "contracts/libraries/Lines1.sol": {
      "Lines1": [
        {
          "length": 20,
          "start": 3097
        }
      ]
    },
    "contracts/libraries/Lines2.sol": {
      "Lines2": [
        {
          "length": 20,
          "start": 2947
        }
      ]
    },
    "contracts/libraries/Lines3.sol": {
      "Lines3": [
        {
          "length": 20,
          "start": 2789
        }
      ]
    },
    "contracts/libraries/Lines4.sol": {
      "Lines4": [
        {
          "length": 20,
          "start": 2631
        }
      ]
    }
  },
  "deployedLinkReferences": {
    "contracts/libraries/Lines1.sol": {
      "Lines1": [
        {
          "length": 20,
          "start": 1948
        }
      ]
    },
    "contracts/libraries/Lines2.sol": {
      "Lines2": [
        {
          "length": 20,
          "start": 1798
        }
      ]
    },
    "contracts/libraries/Lines3.sol": {
      "Lines3": [
        {
          "length": 20,
          "start": 1640
        }
      ]
    },
    "contracts/libraries/Lines4.sol": {
      "Lines4": [
        {
          "length": 20,
          "start": 1482
        }
      ]
    }
  }
}