{
  "_format": "hh-sol-artifact-1",
  "contractName": "CookyDescriptor",
  "sourceName": "contracts/CookyDescriptor.sol",
  "abi": [
    {
      "inputs": [],
      "name": "MAX",
      "outputs": [
        {
          "internalType": "uint256",
          "name": "",
          "type": "uint256"
        }
      ],
      "stateMutability": "view",
      "type": "function"
    },
    {
      "inputs": [],
      "name": "OFFSET",
      "outputs": [
        {
          "internalType": "uint256",
          "name": "",
          "type": "uint256"
        }
      ],
      "stateMutability": "view",
      "type": "function"
    },
    {
      "inputs": [],
      "name": "SCALE",
      "outputs": [
        {
          "internalType": "uint256",
          "name": "",
          "type": "uint256"
        }
      ],
      "stateMutability": "view",
      "type": "function"
    },
    {
      "inputs": [],
      "name": "SCALIFIER",
      "outputs": [
        {
          "internalType": "uint256",
          "name": "",
          "type": "uint256"
        }
      ],
      "stateMutability": "view",
      "type": "function"
    },
    {
      "inputs": [
        {
          "internalType": "uint256",
          "name": "tokenId",
          "type": "uint256"
        },
        {
          "internalType": "uint256",
          "name": "tseed",
          "type": "uint256"
        },
        {
          "internalType": "uint256",
          "name": "cseed",
          "type": "uint256"
        }
      ],
      "name": "_buildFortuneCooky",
      "outputs": [
        {
          "internalType": "string",
          "name": "",
          "type": "string"
        }
      ],
      "stateMutability": "view",
      "type": "function"
    },
    {
      "inputs": [
        {
          "internalType": "uint256",
          "name": "tokenId",
          "type": "uint256"
        },
        {
          "internalType": "uint256",
          "name": "tseed",
          "type": "uint256"
        },
        {
          "internalType": "uint256",
          "name": "cseed",
          "type": "uint256"
        }
      ],
      "name": "_getFortune",
      "outputs": [
        {
          "internalType": "string[2]",
          "name": "",
          "type": "string[2]"
        }
      ],
      "stateMutability": "pure",
      "type": "function"
    }
  ],
  "bytecode": "0x60806040526040518061014001604052806040518060400160405280600781526020017f236633656363620000000000000000000000000000000000000000000000000081525081526020016040518060400160405280600781526020017f236666643339390000000000000000000000000000000000000000000000000081525081526020016040518060400160405280600781526020017f236163636365340000000000000000000000000000000000000000000000000081525081526020016040518060400160405280600781526020017f236234626364370000000000000000000000000000000000000000000000000081525081526020016040518060400160405280600781526020017f236362616632650000000000000000000000000000000000000000000000000081525081526020016040518060400160405280600781526020017f236639386530300000000000000000000000000000000000000000000000000081525081526020016040518060400160405280600781526020017f233364383662630000000000000000000000000000000000000000000000000081525081526020016040518060400160405280600781526020017f233536363861320000000000000000000000000000000000000000000000000081525081526020016040518060400160405280600781526020017f236336633363320000000000000000000000000000000000000000000000000081525081526020016040518060400160405280600781526020017f2362356230616600000000000000000000000000000000000000000000000000815250815250600090600a6200026e92919062000759565b506040518061014001604052806040518060400160405280600781526020017f236633656363620000000000000000000000000000000000000000000000000081525081526020016040518060400160405280600781526020017f236666643339390000000000000000000000000000000000000000000000000081525081526020016040518060400160405280600781526020017f236163636365340000000000000000000000000000000000000000000000000081525081526020016040518060400160405280600781526020017f236234626364370000000000000000000000000000000000000000000000000081525081526020016040518060400160405280600781526020017f236362616632650000000000000000000000000000000000000000000000000081525081526020016040518060400160405280600781526020017f236639386530300000000000000000000000000000000000000000000000000081525081526020016040518060400160405280600781526020017f233364383662630000000000000000000000000000000000000000000000000081525081526020016040518060400160405280600781526020017f233536363861320000000000000000000000000000000000000000000000000081525081526020016040518060400160405280600781526020017f236336633363320000000000000000000000000000000000000000000000000081525081526020016040518060400160405280600781526020017f2362356230616600000000000000000000000000000000000000000000000000815250815250600190600a620004d992919062000759565b506040518061014001604052806040518060400160405280600781526020017f236633656363620000000000000000000000000000000000000000000000000081525081526020016040518060400160405280600781526020017f236666643339390000000000000000000000000000000000000000000000000081525081526020016040518060400160405280600781526020017f236163636365340000000000000000000000000000000000000000000000000081525081526020016040518060400160405280600781526020017f236234626364370000000000000000000000000000000000000000000000000081525081526020016040518060400160405280600781526020017f236362616632650000000000000000000000000000000000000000000000000081525081526020016040518060400160405280600781526020017f236639386530300000000000000000000000000000000000000000000000000081525081526020016040518060400160405280600781526020017f233364383662630000000000000000000000000000000000000000000000000081525081526020016040518060400160405280600781526020017f233536363861320000000000000000000000000000000000000000000000000081525081526020016040518060400160405280600781526020017f236336633363320000000000000000000000000000000000000000000000000081525081526020016040518060400160405280600781526020017f2362356230616600000000000000000000000000000000000000000000000000815250815250600290600a6200074492919062000759565b503480156200075257600080fd5b5062000943565b828054828255906000526020600020908101928215620007ad579160200282015b82811115620007ac5782518290805190602001906200079b929190620007c0565b50916020019190600101906200077a565b5b509050620007bc919062000851565b5090565b828054620007ce90620008de565b90600052602060002090601f016020900481019282620007f257600085556200083e565b82601f106200080d57805160ff19168380011785556200083e565b828001600101855582156200083e579182015b828111156200083d57825182559160200191906001019062000820565b5b5090506200084d919062000879565b5090565b5b808211156200087557600081816200086b919062000898565b5060010162000852565b5090565b5b80821115620008945760008160009055506001016200087a565b5090565b508054620008a690620008de565b6000825580601f10620008ba5750620008db565b601f016020900490600052602060002090810190620008da919062000879565b5b50565b60006002820490506001821680620008f757607f821691505b602082108114156200090e576200090d62000914565b5b50919050565b7f4e487b7100000000000000000000000000000000000000000000000000000000600052602260045260246000fd5b61442680620009536000396000f3fe608060405234801561001057600080fd5b50600436106100625760003560e01c80630a5063d61461006757806379dccf8c14610097578063ce665dd8146100c7578063d49d5181146100e5578063eced552614610103578063f4ab1a9314610121575b600080fd5b610081600480360381019061007c9190610dc3565b61013f565b60405161008e9190611403565b60405180910390f35b6100b160048036038101906100ac9190610dc3565b6105ec565b6040516100be91906113e1565b60405180910390f35b6100cf61083e565b6040516100dc9190611440565b60405180910390f35b6100ed610843565b6040516100fa9190611440565b60405180910390f35b61010b610854565b6040516101189190611440565b60405180910390f35b61012961085a565b6040516101369190611440565b60405180910390f35b60606000600a8461015091906118ab565b90506000600a60648661016391906118ab565b61016d9190611592565b9050600060646103e88761018191906118ab565b61018b9190611592565b9050600061019a8888886105ec565b90506000610224826000600281106101db577f4e487b7100000000000000000000000000000000000000000000000000000000600052603260045260246000fd5b60200201518360016002811061021a577f4e487b7100000000000000000000000000000000000000000000000000000000600052603260045260246000fd5b6020020151610878565b9050600082600060028110610262577f4e487b7100000000000000000000000000000000000000000000000000000000600052603260045260246000fd5b6020020151836001600281106102a1577f4e487b7100000000000000000000000000000000000000000000000000000000600052603260045260246000fd5b60200201516040516020016102b79291906111d4565b604051602081830303815290604052905060006102d26108a4565b9050600061054560008981548110610313577f4e487b7100000000000000000000000000000000000000000000000000000000600052603260045260246000fd5b906000526020600020018054610328906117ff565b80601f0160208091040260200160405190810160405280929190818152602001828054610354906117ff565b80156103a15780601f10610376576101008083540402835291602001916103a1565b820191906000526020600020905b81548152906001019060200180831161038457829003601f168201915b5050505050600189815481106103e0577f4e487b7100000000000000000000000000000000000000000000000000000000600052603260045260246000fd5b9060005260206000200180546103f5906117ff565b80601f0160208091040260200160405190810160405280929190818152602001828054610421906117ff565b801561046e5780601f106104435761010080835404028352916020019161046e565b820191906000526020600020905b81548152906001019060200180831161045157829003601f168201915b5050505050600289815481106104ad577f4e487b7100000000000000000000000000000000000000000000000000000000600052603260045260246000fd5b9060005260206000200180546104c2906117ff565b80601f01602080910402602001604051908101604052809291908181526020018280546104ee906117ff565b801561053b5780601f106105105761010080835404028352916020019161053b565b820191906000526020600020905b81548152906001019060200180831161051e57829003601f168201915b50505050506108c9565b9050600081838660405160200161055e93929190611351565b604051602081830303815290604052905060006105b761057d8f6108f8565b86610587426108f8565b61059086610aa5565b6040516020016105a394939291906112ba565b604051602081830303815290604052610aa5565b9050806040516020016105ca919061132f565b6040516020818303038152906040529a50505050505050505050509392505050565b6105f4610c63565b600082846106029190611616565b9050600061060f826108f8565b610618866108f8565b610621866108f8565b61062a896108f8565b60405160200161063d9493929190611398565b6040516020818303038152906040528051906020012060001c90506000603c8261066791906118ab565b9050602981106107075773__$311a33a4f51c500c1d2e264737fc097d09$__6392d53983826040518263ffffffff1660e01b81526004016106a89190611425565b60006040518083038186803b1580156106c057600080fd5b505af41580156106d4573d6000803e3d6000fd5b505050506040513d6000823e3d601f19601f820116820180604052508101906106fd9190610d82565b9350505050610837565b601581106107a55773__$77ea751b95ae1ac05badc06e400d40c7e5$__6392d53983826040518263ffffffff1660e01b81526004016107469190611425565b60006040518083038186803b15801561075e57600080fd5b505af4158015610772573d6000803e3d6000fd5b505050506040513d6000823e3d601f19601f8201168201806040525081019061079b9190610d82565b9350505050610837565b73__$0fe5f6d2ef39da8ee0eae391d881aaf10c$__6392d53983826040518263ffffffff1660e01b81526004016107dc9190611425565b60006040518083038186803b1580156107f457600080fd5b505af4158015610808573d6000803e3d6000fd5b505050506040513d6000823e3d601f19601f820116820180604052508101906108319190610d82565b93505050505b9392505050565b606481565b60016000610851919061178e565b81565b6103e781565b6103e76001600061086b919061178e565b6108759190611592565b81565b6060828260405160200161088d929190611260565b604051602081830303815290604052905092915050565b60606040516020016108b5906112a5565b604051602081830303815290604052905090565b60608383836040516020016108e093929190611203565b60405160208183030381529060405290509392505050565b60606000821415610940576040518060400160405280600181526020017f30000000000000000000000000000000000000000000000000000000000000008152509050610aa0565b600082905060005b6000821461097257808061095b90611862565b915050600a8261096b9190611592565b9150610948565b60008167ffffffffffffffff8111156109b4577f4e487b7100000000000000000000000000000000000000000000000000000000600052604160045260246000fd5b6040519080825280601f01601f1916602001820160405280156109e65781602001600182028036833780820191505090505b5090505b60008514610a99576001826109ff919061178e565b9150600a85610a0e91906118ab565b6030610a1a919061153c565b60f81b818381518110610a56577f4e487b7100000000000000000000000000000000000000000000000000000000600052603260045260246000fd5b60200101907effffffffffffffffffffffffffffffffffffffffffffffffffffffffffffff1916908160001a905350600a85610a929190611592565b94506109ea565b8093505050505b919050565b60606000825190506000811415610ace5760405180602001604052806000815250915050610c5e565b60006003600283610adf919061153c565b610ae99190611592565b6004610af59190611734565b90506000602082610b06919061153c565b67ffffffffffffffff811115610b45577f4e487b7100000000000000000000000000000000000000000000000000000000600052604160045260246000fd5b6040519080825280601f01601f191660200182016040528015610b775781602001600182028036833780820191505090505b50905060006040518060600160405280604081526020016143b1604091399050600181016020830160005b86811015610c1b5760038101905062ffffff818a015116603f8160121c168401518060081b905060ff603f83600c1c1686015116810190508060081b905060ff603f8360061c1686015116810190508060081b905060ff603f831686015116810190508060e01b90508084526004840193505050610ba2565b506003860660018114610c355760028114610c4557610c50565b613d3d60f01b6002830352610c50565b603d60f81b60018303525b508484525050819450505050505b919050565b60405180604001604052806002905b6060815260200190600190039081610c725790505090565b6000610c9d610c9884611480565b61145b565b9050808260005b85811015610cd45781518501610cba8882610d43565b845260208401935060208301925050600181019050610ca4565b5050509392505050565b6000610cf1610cec846114a6565b61145b565b905082815260208101848484011115610d0957600080fd5b610d148482856117cc565b509392505050565b600082601f830112610d2d57600080fd5b6002610d3a848285610c8a565b91505092915050565b600082601f830112610d5457600080fd5b8151610d64848260208601610cde565b91505092915050565b600081359050610d7c81614399565b92915050565b600060208284031215610d9457600080fd5b600082015167ffffffffffffffff811115610dae57600080fd5b610dba84828501610d1c565b91505092915050565b600080600060608486031215610dd857600080fd5b6000610de686828701610d6d565b9350506020610df786828701610d6d565b9250506040610e0886828701610d6d565b9150509250925092565b6000610e1e8383610e9b565b905092915050565b6000610e31826114e1565b610e3b8185611504565b935083602082028501610e4d856114d7565b8060005b85811015610e895784840389528151610e6a8582610e12565b9450610e75836114f7565b925060208a01995050600181019050610e51565b50829750879550505050505092915050565b6000610ea6826114ec565b610eb0818561150f565b9350610ec08185602086016117cc565b610ec981611998565b840191505092915050565b6000610edf826114ec565b610ee98185611520565b9350610ef98185602086016117cc565b610f0281611998565b840191505092915050565b6000610f18826114ec565b610f228185611531565b9350610f328185602086016117cc565b80840191505092915050565b6000610f4b605383611531565b9150610f56826119b6565b605382019050919050565b6000610f6e601383611531565b9150610f7982611a2b565b601382019050919050565b6000610f91608783611531565b9150610f9c82611a54565b608782019050919050565b6000610fb460a383611531565b9150610fbf82611b15565b60a382019050919050565b6000610fd7605d83611531565b9150610fe282611bfc565b605d82019050919050565b6000610ffa602983611531565b915061100582611c71565b602982019050919050565b600061101d600183611531565b915061102882611cc0565b600182019050919050565b6000611040608883611531565b915061104b82611ce9565b608882019050919050565b6000611063600283611531565b915061106e82611daa565b600282019050919050565b6000611086600783611531565b915061109182611dd3565b600782019050919050565b60006110aa611c6083611531565b91506110b582611dfc565b611c6082019050919050565b60006110ce607383611531565b91506110d98261408c565b607382019050919050565b60006110f1601983611531565b91506110fc82614127565b601982019050919050565b6000611114601d83611531565b915061111f82614150565b601d82019050919050565b600061113760eb83611531565b915061114282614179565b60eb82019050919050565b600061115a606483611531565b9150611165826142ac565b606482019050919050565b600061117d600683611531565b915061118882614347565b600682019050919050565b60006111a0600e83611531565b91506111ab82614370565b600e82019050919050565b6111bf816117c2565b82525050565b6111ce816117c2565b82525050565b60006111e08285610f0d565b91506111eb82611010565b91506111f78284610f0d565b91508190509392505050565b600061120e82610fa7565b915061121a8286610f0d565b915061122582611033565b91506112318285610f0d565b915061123c82610f84565b91506112488284610f0d565b9150611253826110c1565b9150819050949350505050565b600061126b82610fca565b91506112778285610f0d565b91506112828261114d565b915061128e8284610f0d565b915061129982611079565b91508190509392505050565b60006112b08261109c565b9150819050919050565b60006112c5826110e4565b91506112d18287610f0d565b91506112dc82610f61565b91506112e88286610f0d565b91506112f382610f3e565b91506112ff8285610f0d565b915061130a82610fed565b91506113168284610f0d565b915061132182611056565b915081905095945050505050565b600061133a82611107565b91506113468284610f0d565b915081905092915050565b600061135c8261112a565b91506113688286610f0d565b91506113748285610f0d565b91506113808284610f0d565b915061138b82611170565b9150819050949350505050565b60006113a382611193565b91506113af8287610f0d565b91506113bb8286610f0d565b91506113c78285610f0d565b91506113d38284610f0d565b915081905095945050505050565b600060208201905081810360008301526113fb8184610e26565b905092915050565b6000602082019050818103600083015261141d8184610ed4565b905092915050565b600060208201905061143a60008301846111c5565b92915050565b600060208201905061145560008301846111b6565b92915050565b6000611465611476565b90506114718282611831565b919050565b6000604051905090565b600067ffffffffffffffff82111561149b5761149a611969565b5b602082029050919050565b600067ffffffffffffffff8211156114c1576114c0611969565b5b6114ca82611998565b9050602081019050919050565b6000819050919050565b600060029050919050565b600081519050919050565b6000602082019050919050565b600081905092915050565b600082825260208201905092915050565b600082825260208201905092915050565b600081905092915050565b6000611547826117c2565b9150611552836117c2565b9250827fffffffffffffffffffffffffffffffffffffffffffffffffffffffffffffffff03821115611587576115866118dc565b5b828201905092915050565b600061159d826117c2565b91506115a8836117c2565b9250826115b8576115b761190b565b5b828204905092915050565b6000808291508390505b600185111561160d578086048111156115e9576115e86118dc565b5b60018516156115f85780820291505b8081029050611606856119a9565b94506115cd565b94509492505050565b6000611621826117c2565b915061162c836117c2565b92506116597fffffffffffffffffffffffffffffffffffffffffffffffffffffffffffffffff8484611661565b905092915050565b600082611671576001905061172d565b8161167f576000905061172d565b8160018114611695576002811461169f576116ce565b600191505061172d565b60ff8411156116b1576116b06118dc565b5b8360020a9150848211156116c8576116c76118dc565b5b5061172d565b5060208310610133831016604e8410600b84101617156117035782820a9050838111156116fe576116fd6118dc565b5b61172d565b61171084848460016115c3565b92509050818404811115611727576117266118dc565b5b81810290505b9392505050565b600061173f826117c2565b915061174a836117c2565b9250817fffffffffffffffffffffffffffffffffffffffffffffffffffffffffffffffff0483118215151615611783576117826118dc565b5b828202905092915050565b6000611799826117c2565b91506117a4836117c2565b9250828210156117b7576117b66118dc565b5b828203905092915050565b6000819050919050565b60005b838110156117ea5780820151818401526020810190506117cf565b838111156117f9576000848401525b50505050565b6000600282049050600182168061181757607f821691505b6020821081141561182b5761182a61193a565b5b50919050565b61183a82611998565b810181811067ffffffffffffffff8211171561185957611858611969565b5b80604052505050565b600061186d826117c2565b91507fffffffffffffffffffffffffffffffffffffffffffffffffffffffffffffffff8214156118a05761189f6118dc565b5b600182019050919050565b60006118b6826117c2565b91506118c1836117c2565b9250826118d1576118d061190b565b5b828206905092915050565b7f4e487b7100000000000000000000000000000000000000000000000000000000600052601160045260246000fd5b7f4e487b7100000000000000000000000000000000000000000000000000000000600052601260045260246000fd5b7f4e487b7100000000000000000000000000000000000000000000000000000000600052602260045260246000fd5b7f4e487b7100000000000000000000000000000000000000000000000000000000600052604160045260246000fd5b6000601f19601f8301169050919050565b60008160011c9050919050565b7f222c202261747472696275746573223a205b7b22646973706c61795f7479706560008201527f223a202264617465222c202274726169745f74797065223a2022466f7274756e60208201527f652044617465222c202276616c7565223a202200000000000000000000000000604082015250565b7f222c20226465736372697074696f6e223a202200000000000000000000000000600082015250565b7f273e3c616e696d617465206174747269627574654e616d653d276f666673657460008201527f27206475723d27353073272076616c7565733d27302e33303b302e383b302e3360208201527f302720726570656174436f756e743d27696e646566696e697465272f3e3c2f7360408201527f746f703e3c73746f70206f66667365743d273127207374796c653d2773746f7060608201527f2d636f6c6f723a00000000000000000000000000000000000000000000000000608082015250565b7f3c72616469616c4772616469656e742069643d2761272063783d27323030272060008201527f63793d272d3130302720723d273239302e30323527206772616469656e74547260208201527f616e73666f726d3d276d6174726978283120302030202d31203020373629272060408201527f6772616469656e74556e6974733d277573657253706163654f6e557365273e3c60608201527f73746f70206f66667365743d272e3227207374796c653d2773746f702d636f6c60808201527f6f723a000000000000000000000000000000000000000000000000000000000060a082015250565b7f3c7465787420783d273438252720793d2735302527207472616e73666f726d3d60008201527f27726f74617465282d33292720646f6d696e616e742d626173656c696e653d2760208201527f6d6964646c652720746578742d616e63686f723d276d6964646c65273e000000604082015250565b7f227d5d2c2022696d616765223a2022646174613a696d6167652f7376672b786d60008201527f6c3b6261736536342c0000000000000000000000000000000000000000000000602082015250565b7f2000000000000000000000000000000000000000000000000000000000000000600082015250565b7f273e3c616e696d617465206174747269627574654e616d653d276f666673657460008201527f27206475723d27353073272076616c7565733d27302e30313b302e343b302e3060208201527f312720726570656174436f756e743d27696e646566696e697465272f3e3c2f7360408201527f746f703e3c73746f70206f66667365743d272e3827207374796c653d2773746f60608201527f702d636f6c6f723a000000000000000000000000000000000000000000000000608082015250565b7f227d000000000000000000000000000000000000000000000000000000000000600082015250565b7f3c2f746578743e00000000000000000000000000000000000000000000000000600082015250565b7f3c706174682066696c6c3d2775726c282361292720643d274d3020306834303060008201527f7634303048307a272f3e3c7061746820643d274d3338322e313238203233352e60208201527f3832367332352e3031332d322e38353920362e3032332d32322e36313563302060408201527f302d34312e3235392d33342e3131332d37302e3238332d35342e32362d31322e60608201527f3335362d382e3537362d31332e3334322d31322e35372d31362e3833362d313460808201527f2e3636366c2e3038352e323534732d2e30342d312e3337382d312e383134203160a08201527f342e313637632d322e3331352032302e3237332d31302e3533322033372e343460c08201527f322d32302e3933382036342e3231332d362e3133332031352e3737372d31332e60e08201527f3130332032392e3632322d31332e3130332032392e363232732d2e37373220326101008201527f2e32353720312e36303520332e31353863322e3337372e3920362e3838322e306101208201527f393720362e3838322e3039377337302e3531322d362e333539203131302e35316101408201527f362d32302e343436272066696c6c3d2723646538373236272066696c6c2d72756101608201527f6c653d276576656e6f646427207374726f6b653d2723646538373236272073746101808201527f726f6b652d77696474683d272e3634342720766563746f726e61746f723a6c616101a08201527f7965724e616d653d27436f6f6b696520522e272f3e3c672066696c6c2d72756c6101c08201527f653d276576656e6f646427207374726f6b652d77696474683d272e36343427206101e08201527f766563746f726e61746f723a6c617965724e616d653d275269676874204643276102008201527f3e3c7061746820643d274d3236362e3434203235352e3830377333332e3035366102208201527f2d31382e3233372033372e3637362d32312e30373863392e3137342d352e36336102408201527f382031392e3533312d31362e3437382033382e3635312d31372e3832352031336102608201527f2e3938332d2e3938352034342e35363520372e3239332035302e3735392031326102808201527f2e3430382030203020322e38323420322e3834392d392e31353420362e37312d6102a08201527f31312e393820332e3836312d33342e37313720382e3730342d35302e303835206102c08201527f31312e3837392d31382e353420332e3832392d34332e38323520362e3738312d6102e08201527f35372e32363520372e3831352d392e3636312e3734342d31302e36322e3035356103008201527f2d31302e36322e303535272066696c6c3d272366376235353827206f706163696103208201527f74793d272e363827207374726f6b653d2723663762353538272f3e3c706174686103408201527f20643d274d3331392e323034203233392e383338632d31392e31333520372e376103608201527f37382d32342e36333520312e3130342d32342e36333520312e3130342d31362e6103808201527f3431382d33352e3731372031352e3939342d38362e3933312031352e3939342d6103a08201527f38362e3933312d322e3236312d312e3931342d392e3535362d31302e3333362d6103c08201527f392e3535362d31302e333336732d312e3538312032322e3239322d392e3230336103e08201527f2034322e333533632d362e3833362031372e3939312d31322e3131372033352e6104008201527f3733372d32352e3533352036342e393031203020302d332e3420342e323135206104208201527f312e3720352e343834203020302034312e3533392d332e3235392037312e33356104408201527f2d392e3330322032392e3536352d352e3939322034362e3930352d31322e32316104608201527f352034362e3930352d31322e3231352031352e3335372d332e383620362e34326104808201527f352d31362e31363520362e3432352d31362e3136352d392e30322031332e33336104a08201527f332d32322e3933362031312e3032332d32322e3933362031312e3032332d33326104c08201527f2e3936312d312e3438322d35302e3438392031302e3039392d35302e343839206104e08201527f31302e303939272066696c6c3d272361623664343027206f7061636974793d276105008201527f2e35333127207374726f6b653d2723616236643430272f3e3c2f673e3c7061746105208201527f6820643d274d3338362e313031203231312e343033732d31342e39383420312e6105408201527f3734322d33392e30392d31372e313136632d31322e3139332d392e3533382d336105608201527f392e3437342d33312e3934332d34362e3138322d35302e383936203020302d316105808201527f2e3838362d312e36353420362e34383520362e373820372e32393120372e33346105a08201527f372032342e3731372031382e3235312033352e38352032372e303635613138366105c08201527f32302e3236342031383632302e3236342030203020312034322e3931332033346105e08201527f2e313038272066696c6c3d2723666165626365272066696c6c2d72756c653d276106008201527f6576656e6f646427206f7061636974793d272e35303627207374726f6b653d276106208201527f2366616562636527207374726f6b652d77696474683d272e36343427207665636106408201527f746f726e61746f723a6c617965724e616d653d274f66662077686974652066636106608201527f272f3e3c6720766563746f726e61746f723a6c617965724e616d653d2752696d6106808201527f207269676874206663272066696c6c2d72756c653d276576656e6f64642720736106a08201527f74726f6b652d77696474683d272e363434273e3c7061746820643d274d3239386106c08201527f2e303632203134322e383132632d2e3638322e3132352d312e3530392e3434356106e08201527f2d322e34363820312e303633203020302d33322e3333362032362e3934382d336107008201527f362e3430362033302e3231392d2e3138382e31352d32362e3831332032372e316107208201527f393220362e3539332038312e3437372e3032392d2e3130372031372e36322d346107408201527f302e3337342032352e3934362d36362e353320382e3430382d32362e343135206107608201527f392e3231312d34352e323620392e3231312d34352e3236732d2e3832392d312e6107808201527f3334312d322e3837362d2e3936395a272066696c6c3d272366376235353827206107a08201527f6f7061636974793d272e38323627207374726f6b653d2723663762353538272f6107c08201527f3e3c7061746820643d274d3235362e3433203138342e30373163352e3237312d6107e08201527f372e3830372034302e3231382d33372e3031322034302e3231382d33372e30316108008201527f32732d312e3132362032332e3833332d31312e3034322034342e383338632d316108208201527f302e3334332032312e3930372d32302e3635322035342e3332382d32302e36356108408201527f322035342e333238732d382e3331322d31352e3236362d31312e3034342d32386108608201527f2e343836632d322e3733312d31332e32322d322e3034372d32372e33373620326108808201527f2e3533392d33332e373139272066696c6c3d272362343738346327206f7061636108a08201527f6974793d272e37313527207374726f6b653d2723623437383463272f3e3c2f676108c08201527f3e3c672066696c6c2d72756c653d276576656e6f646427207374726f6b653d276108e08201527f2362633562303827207374726f6b652d77696474683d272e36343427207665636109008201527f746f726e61746f723a6c617965724e616d653d2744657461696c732052273e3c6109208201527f7061746820643d274d3332332e3938203136372e303131732d312e30343620356109408201527f2e3234352d362e38303520362e3137326d31322e3333372d2e353673312e36326109608201527f3820322e38322d312e373420352e3231316d33312e31352031372e35313673316109808201527f2e39343120342e3230342d352e33303920382e31366d31312e3239362d342e326109a08201527f3836732e32363620342e3634352d342e35333920362e3238376d372e3932382d6109c08201527f332e33313573322e30303420342e3837322d322e34383520382e3335356d2d376109e08201527f302e3134392032352e33373873352e3738352d312e30353520352e3731382035610a008201527f2e303632272066696c6c3d276e6f6e65272f3e3c7061746820643d274d333332610a208201527f2e323132203139332e34373663302d2e3434332e3239332d2e3830332e363533610a408201527f2d2e3830332e3336312030202e3635332e33362e3635332e3830332030202e34610a608201527f34332d2e3239322e3830332d2e3635332e3830332d2e333620302d2e3635332d610a808201527f2e33362d2e3635332d2e3830335a6d31382e3239382d332e39313763302d2e35610aa08201527f39322e3237352d312e3037322e3631342d312e3037322e33342030202e363134610ac08201527f2e34382e36313420312e3037322030202e3539312d2e32373420312e3037312d610ae08201527f2e36313420312e3037312d2e33333920302d2e3631342d2e34382d2e3631342d610b008201527f312e3037315a6d2d31312e3630382d372e35383263302d2e3638342e3331322d610b208201527f312e3233382e3639382d312e3233382e3338362030202e3639382e3535342e36610b408201527f393820312e3233382030202e3638332d2e33313220312e3233372d2e36393820610b608201527f312e3233372d2e33383620302d2e3639382d2e3535342d2e3639382d312e3233610b808201527f375a6d2d32302e3433362d2e36353563302d2e3933322e3339392d312e363837610ba08201527f2e3839312d312e363837732e3839312e3735352e38393120312e363837633020610bc08201527f2e3933312d2e33393920312e3638362d2e38393120312e363836732d2e383931610be08201527f2d2e3735352d2e3839312d312e3638365a6d2d33352e3535322035392e353637610c008201527f63302d312e3337362e3434322d322e3439322e3938382d322e3439322e353435610c208201527f2030202e39383720312e3131362e39383720322e343932203020312e3337372d610c408201527f2e34343220322e3439322d2e39383720322e3439322d2e35343620302d2e3938610c608201527f382d312e3131352d2e3938382d322e3439325a6d2d32332e3731382e36383763610c808201527f302d312e3030332e34362d312e38313620312e3032382d312e3831362e353637610ca08201527f203020312e3032372e38313320312e30323720312e383136203020312e303033610cc08201527f2d2e343620312e3831362d312e30323720312e3831362d2e35363820302d312e610ce08201527f3032382d2e3831332d312e3032382d312e3831365a6d31362e3837342d31392e610d008201527f35363863302d2e3735362e3038362d312e3336392e3139322d312e3336392e31610d208201527f30362030202e3139322e3631332e31393220312e3336392030202e3735372d2e610d408201527f30383620312e33372d2e31393220312e33372d2e31303620302d2e3139322d2e610d608201527f3631332d2e3139322d312e33375a272066696c6c3d272362633562303827206f610d808201527f7061636974793d272e353331272f3e3c2f673e3c7061746820643d276d31322e610da08201527f343239203231372e3934372d322e35303920322e313635632d31382e34362031610dc08201527f382e38393220372e3238352032312e34363220372e3238352032312e34363220610de08201527f32322e36383620352e3731322036352e3733342031312e3534372038332e3235610e008201527f2031332e3435392033322e35313320332e3535312033322e35312d2e38333920610e208201527f33322e35312d2e3833396c2e3037372d2e3431332d33372e3034362d3130382e610e408201527f3239342d2e3139362d2e323233732d322e32352d312e3539352d392e31333520610e608201527f372e3133316c312e3531342d312e3936374c392e3932203232302e3131322720610e808201527f66696c6c3d2723646538373236272066696c6c2d72756c653d276576656e6f64610ea08201527f6427207374726f6b653d272364653837323627207374726f6b652d7769647468610ec08201527f3d272e3634342720766563746f726e61746f723a6c617965724e616d653d2743610ee08201527f6f6f6b6965204c2e272f3e3c672066696c6c2d72756c653d276576656e6f6464610f008201527f27207374726f6b652d77696474683d272e3634342720766563746f726e61746f610f208201527f723a6c617965724e616d653d274c656674204643273e3c7061746820643d274d610f408201527f37312e3934203232382e393833632d32362e37362d31332e3631392d34362e38610f608201527f332d312e3533322d34362e38332d312e3533327333362e39303620352e383433610f808201527f2035372e3332362032352e353232633020302032372e36393120342e38313320610fa08201527f34302e36363920332e3636342031322e3533392d312e3131312031312e303132610fc08201527f2d322e35362031312e3031322d322e3536732d33352e35312d362e34362d3632610fe08201527f2e3330312d32352e313134272066696c6c3d272366376235353827206f7061636110008201527f6974793d272e37313527207374726f6b653d2723663762353538272f3e3c70616110208201527f746820643d274d38382e333937203235332e3639394332372e3533203230372e6110408201527f30313620332e333037203233342e37373920342e3236203233352e33632e32346110608201527f372e3133352d2e34323320332e3739352031342e38303920372e3334362032326110808201527f2e34323820352e32332036392e3536372031312e3037372036392e35363720316110a08201527f312e303737272066696c6c3d272361623664343027206f7061636974793d272e6110c08201527f35323527207374726f6b653d2723623437383463272f3e3c2f673e3c706174686110e08201527f20643d274d31302e383735203231392e3131356334362e3238332d342e3035206111008201527f38322e3239362d37332e35342038322e3239362d37332e3534682e3034386c2d6111208201527f38322e3333352037332e353632272066696c6c3d2723666165626365272066696111408201527f6c6c2d72756c653d276576656e6f646427206f7061636974793d272e353036276111608201527f207374726f6b653d272366616562636527207374726f6b652d77696474683d276111808201527f2e3634342720766563746f726e61746f723a6c617965724e616d653d274f66666111a08201527f207768697465206663204c272f3e3c672066696c6c2d72756c653d276576656e6111c08201527f6f646427207374726f6b652d77696474683d272e3634342720766563746f726e6111e08201527f61746f723a6c617965724e616d653d274c2066632072696d273e3c70617468206112008201527f643d276d3130392e343732203135342e3837362d2e3039352d2e323033632d336112208201527f302e3532382d32362e3838362d392e31392031312e3036332d392e31392031316112408201527f2e30363373382e39382031372e3230352031362e32392034352e30333963342e6112608201527f3830352031382e32393220362e3532322032302e323520372e3432312032362e6112808201527f3835372030203020382e3833312034322e3130392031392e3132382d352e33306112a08201527f366c362e3734342d34302e353333632e3537362d31342e3634372d34302e34356112c08201527f382d33362e3930372d34302e3435382d33362e393037272066696c6c3d2723666112e08201527f376235353827206f7061636974793d272e38333327207374726f6b653d2723666113008201527f3762353538272f3e3c7061746820643d274d3134362e373735203138382e34306113208201527f38732d322e3734372032352e3737362d372e3134342033382e373832632d342e6113408201527f3539352031332e3538382d352e3430382031392e3335312d352e3430382031396113608201527f2e333531732d352e3932392d32302e3531332d31332e3434332d34352e3835316113808201527f632d372e3236332d32342e3439312d32302e3837372d35302e3339352d32302e6113a08201527f3837372d35302e33393573392e393520372e3733392032332e3838362031382e6113c08201527f3933396331302e36363920382e3537342032322e3938362031392e31373420326113e08201527f322e3938362031392e3137345a272066696c6c3d272362343738346327206f706114008201527f61636974793d272e37313527207374726f6b653d2723623437383463272f3e3c6114208201527f2f673e3c672066696c6c2d72756c653d276576656e6f646427207374726f6b656114408201527f3d272362633562303827207374726f6b652d77696474683d272e3634342720766114608201527f6563746f726e61746f723a6c617965724e616d653d2744657461696c73204c2e6114808201527f273e3c7061746820643d274d3131302e343033203232352e35313673382e35396114a08201527f3620362e3838362e3735322031352e3537366d2d33352e3530382d35392e32336114c08201527f34732d2e3131332d372e3739342d31302e3434382d362e3635334d34312e35356114e08201527f203231312e323438732d332e31382d352e3131332d392e3835312d352e3339386115008201527f6d2d362e3231352031352e313731732d322e3032342d342e3931382d372e38336115208201527f352d342e3334366d38372e39362031322e3173332e3738392e34393620312e376115408201527f303920342e393334272066696c6c3d276e6f6e65272f3e3c7061746820643d276115608201527f4d3130322e323736203234382e30353663302d2e3735332e3535362d312e33366115808201527f3320312e3234332d312e33363373312e3234342e363120312e32343420312e336115a08201527f36336330202e3735342d2e35353720312e3336342d312e32343420312e3336346115c08201527f2d2e36383720302d312e3234332d2e36312d312e3234332d312e3336345a6d2d6115e08201527f34372e3933342d36332e34363363302d312e3036362e3439392d312e393320316116008201527f2e3131352d312e393373312e3131352e38363420312e31313520312e393363306116208201527f20312e3036362d2e3520312e39332d312e31313520312e39332d2e36313620306116408201527f2d312e3131352d2e3836342d312e3131352d312e39335a6d2d392e38383920386116608201527f2e37303163302d312e3137352e33332d322e3132382e3733362d322e3132382e6116808201527f3430372030202e3733362e3935332e37333620322e313238203020312e3137356116a08201527f2d2e333320322e3132372d2e37333620322e3132372d2e34303720302d2e37336116c08201527f362d2e3935322d2e3733362d322e3132375a6d35312e3035322033372e3730386116e08201527f63302d312e3039322e3339362d312e3937372e3838352d312e393737732e38386117008201527f352e3838352e38383520312e3937372d2e33393620312e3937372d2e383835206117208201527f312e3937372d2e3838352d2e3838352d2e3838352d312e3937375a6d2d342e346117408201527f30342031332e37313963302d312e31352e3239392d322e3038322e3636372d326117608201527f2e3038322e3336382030202e3636362e3933322e36363620322e303832732d2e6117808201527f32393820322e3038322d2e36363620322e303832632d2e33363820302d2e36366117a08201527f372d2e3933322d2e3636372d322e3038325a4d32352e3831203233302e3033386117c08201527f63302d2e3934362e3331382d312e3731332e3731312d312e3731332e333933206117e08201527f30202e37312e3736372e373120312e3731332030202e3934362d2e33313720316118008201527f2e3731332d2e373120312e3731332d2e33393320302d2e3731312d2e3736372d6118208201527f2e3731312d312e3731335a6d39302e3331332031342e37333463302d2e3936356118408201527f2e3337352d312e3734372e3833382d312e3734372e3436322030202e3833382e6118608201527f3738322e38333820312e3734372030202e3936352d2e33373620312e3734372d6118808201527f2e38333820312e3734372d2e34363320302d2e3833382d2e3738322d2e3833386118a08201527f2d312e3734375a6d362e3933322d37372e39303763302d2e3331342e3732342d6118c08201527f2e35363820312e3631362d2e3536382e383932203020312e3631352e323534206118e08201527f312e3631352e3536382030202e3331342d2e3732332e3536382d312e3631352e6119008201527f353638732d312e3631362d2e3235342d312e3631362d2e3536385a6d2d362e386119208201527f32382033332e36323963302d312e3135382e31332d322e3039382e3238392d326119408201527f2e3039382e31362030202e32392e39342e323920322e303938203020312e31356119608201527f392d2e313320322e3039382d2e323920322e3039382d2e31353920302d2e32386119808201527f392d2e3933392d2e3238392d322e3039385a6d382e3533312032362e313737636119a08201527f302d2e3633382e3136332d312e3135342e3336332d312e3135342e32303120306119c08201527f202e3336332e3531362e33363320312e3135342030202e3633372d2e313632206119e08201527f312e3135332d2e33363320312e3135332d2e3220302d2e3336332d2e3531362d611a008201527f2e3336332d312e3135335a6d2d32362e3130342d37312e33303563302d2e3338611a208201527f382e3039372d2e3730332e3231362d2e373033732e3231352e3331352e323135611a408201527f2e3730336330202e3338392d2e3039362e3730342d2e3231352e3730342d2e31611a608201527f3220302d2e3231362d2e3331352d2e3231362d2e3730345a6d2d32372e343332611a808201527f2037332e36343263302d2e3935382e34372d312e37333420312e30352d312e37611aa08201527f33342e3538203020312e30352e37373620312e303520312e3733342030202e39611ac08201527f35372d2e343720312e3733342d312e303520312e3733342d2e353820302d312e611ae08201527f30352d2e3737372d312e30352d312e3733345a272066696c6c3d272362633562611b008201527f303827206f7061636974793d272e363031272f3e3c2f673e3c7061746820643d611b208201527f274d3239322e323733203137332e333936632d31332e3534392d352e3036322d611b408201527f3137362e3639372031312e3935332d3137362e3639372031312e3935336c3133611b608201527f2e3037312034322e3137366331322e3430322d332e363035203134372e373332611b808201527f2d31332e353536203134372e3733322d31332e35353673372e3636382d31372e611ba08201527f3039332031312e3430352d32362e38383463332e3733382d392e37393220342e611bc08201527f3535322d31332e35363720342e3535322d31332e353637272066696c6c3d2723611be08201527f666666272066696c6c2d72756c653d276576656e6f646427207374726f6b653d611c008201527f272366336631663927207374726f6b652d77696474683d272e36343427207665611c208201527f63746f726e61746f723a6c617965724e616d653d274643205061706572272f3e611c4082015250565b7f273e3c616e696d617465206174747269627574654e616d653d276f666673657460008201527f27206475723d27353073272076616c7565733d27302e36383b313b302e36382760208201527f20726570656174436f756e743d27696e646566696e697465272f3e3c2f73746f60408201527f703e3c2f72616469616c4772616469656e743e00000000000000000000000000606082015250565b7f7b226e616d65223a2022466f7274756e6520436f6f6b79202300000000000000600082015250565b7f646174613a6170706c69636174696f6e2f6a736f6e3b6261736536342c000000600082015250565b7f3c737667207374726f6b652d6d697465726c696d69743d27313027207374796c60008201527f653d2766696c6c2d72756c653a6e6f6e7a65726f3b636c69702d72756c653a6560208201527f76656e6f64643b7374726f6b652d6c696e656361703a726f756e643b7374726f60408201527f6b652d6c696e656a6f696e3a726f756e64272076696577426f783d273020302060608201527f343030203430302720786d6c3a73706163653d2770726573657276652720786d60808201527f6c6e733d27687474703a2f2f7777772e77332e6f72672f323030302f7376672760a08201527f20786d6c6e733a766563746f726e61746f723d27687474703a2f2f766563746f60c08201527f726e61746f722e696f273e00000000000000000000000000000000000000000060e082015250565b7f3c2f746578743e3c7465787420783d273438252720793d27353425272074726160008201527f6e73666f726d3d27726f74617465282d33292720646f6d696e616e742d62617360208201527f656c696e653d276d6964646c652720746578742d616e63686f723d276d69646460408201527f6c65273e00000000000000000000000000000000000000000000000000000000606082015250565b7f3c2f7376673e0000000000000000000000000000000000000000000000000000600082015250565b7f4e414e5550414e44415f4c414253000000000000000000000000000000000000600082015250565b6143a2816117c2565b81146143ad57600080fd5b5056fe4142434445464748494a4b4c4d4e4f505152535455565758595a6162636465666768696a6b6c6d6e6f707172737475767778797a303132333435363738392b2fa26469706673582212208bbf5a1020fb074464cd533335f2d6ec856b32b785e6a8b914e80c52e00ceae764736f6c63430008020033",
  "linkReferences": {
    "contracts/libraries/Lines1.sol": {
      "Lines1": [
        {
          "length": 20,
          "start": 4346
        }
      ]
    },
    "contracts/libraries/Lines2.sol": {
      "Lines2": [
        {
          "length": 20,
          "start": 4196
        }
      ]
    },
    "contracts/libraries/Lines3.sol": {
      "Lines3": [
        {
          "length": 20,
          "start": 4038
        }
      ]
    }
  },
  "deployedLinkReferences": {
    "contracts/libraries/Lines1.sol": {
      "Lines1": [
        {
          "length": 20,
          "start": 1959
        }
      ]
    },
    "contracts/libraries/Lines2.sol": {
      "Lines2": [
        {
          "length": 20,
          "start": 1809
        }
      ]
    },
    "contracts/libraries/Lines3.sol": {
      "Lines3": [
        {
          "length": 20,
          "start": 1651
        }
      ]
    }
  }
}