{
  "_format": "hh-sol-artifact-1",
  "contractName": "FortuneCooky",
  "sourceName": "contracts/FortuneCooky.sol",
  "abi": [
    {
      "inputs": [
        {
          "internalType": "address",
          "name": "_transferWallet",
          "type": "address"
        },
        {
          "internalType": "address",
          "name": "_buildCooky",
          "type": "address"
        }
      ],
      "stateMutability": "nonpayable",
      "type": "constructor"
    },
    {
      "anonymous": false,
      "inputs": [
        {
          "indexed": true,
          "internalType": "address",
          "name": "owner",
          "type": "address"
        },
        {
          "indexed": true,
          "internalType": "address",
          "name": "approved",
          "type": "address"
        },
        {
          "indexed": true,
          "internalType": "uint256",
          "name": "tokenId",
          "type": "uint256"
        }
      ],
      "name": "Approval",
      "type": "event"
    },
    {
      "anonymous": false,
      "inputs": [
        {
          "indexed": true,
          "internalType": "address",
          "name": "owner",
          "type": "address"
        },
        {
          "indexed": true,
          "internalType": "address",
          "name": "operator",
          "type": "address"
        },
        {
          "indexed": false,
          "internalType": "bool",
          "name": "approved",
          "type": "bool"
        }
      ],
      "name": "ApprovalForAll",
      "type": "event"
    },
    {
      "anonymous": false,
      "inputs": [
        {
          "indexed": true,
          "internalType": "uint256",
          "name": "id",
          "type": "uint256"
        }
      ],
      "name": "NewFortune",
      "type": "event"
    },
    {
      "anonymous": false,
      "inputs": [
        {
          "indexed": true,
          "internalType": "uint256",
          "name": "id",
          "type": "uint256"
        }
      ],
      "name": "NewFortuneCooky",
      "type": "event"
    },
    {
      "anonymous": false,
      "inputs": [
        {
          "indexed": true,
          "internalType": "address",
          "name": "previousOwner",
          "type": "address"
        },
        {
          "indexed": true,
          "internalType": "address",
          "name": "newOwner",
          "type": "address"
        }
      ],
      "name": "OwnershipTransferred",
      "type": "event"
    },
    {
      "anonymous": false,
      "inputs": [
        {
          "indexed": true,
          "internalType": "address",
          "name": "from",
          "type": "address"
        },
        {
          "indexed": true,
          "internalType": "address",
          "name": "to",
          "type": "address"
        },
        {
          "indexed": true,
          "internalType": "uint256",
          "name": "tokenId",
          "type": "uint256"
        }
      ],
      "name": "Transfer",
      "type": "event"
    },
    {
      "inputs": [],
      "name": "MAX_MINT",
      "outputs": [
        {
          "internalType": "uint256",
          "name": "",
          "type": "uint256"
        }
      ],
      "stateMutability": "view",
      "type": "function"
    },
    {
      "inputs": [],
      "name": "MAX_TOKENS",
      "outputs": [
        {
          "internalType": "uint256",
          "name": "",
          "type": "uint256"
        }
      ],
      "stateMutability": "view",
      "type": "function"
    },
    {
      "inputs": [],
      "name": "TOTAL_PAID",
      "outputs": [
        {
          "internalType": "uint256",
          "name": "",
          "type": "uint256"
        }
      ],
      "stateMutability": "view",
      "type": "function"
    },
    {
      "inputs": [
        {
          "internalType": "address",
          "name": "to",
          "type": "address"
        },
        {
          "internalType": "uint256",
          "name": "tokenId",
          "type": "uint256"
        }
      ],
      "name": "approve",
      "outputs": [],
      "stateMutability": "nonpayable",
      "type": "function"
    },
    {
      "inputs": [
        {
          "internalType": "address",
          "name": "owner",
          "type": "address"
        }
      ],
      "name": "balanceOf",
      "outputs": [
        {
          "internalType": "uint256",
          "name": "",
          "type": "uint256"
        }
      ],
      "stateMutability": "view",
      "type": "function"
    },
    {
      "inputs": [
        {
          "internalType": "uint256",
          "name": "tokenId",
          "type": "uint256"
        }
      ],
      "name": "getApproved",
      "outputs": [
        {
          "internalType": "address",
          "name": "",
          "type": "address"
        }
      ],
      "stateMutability": "view",
      "type": "function"
    },
    {
      "inputs": [],
      "name": "getContractSeed",
      "outputs": [
        {
          "internalType": "uint256",
          "name": "",
          "type": "uint256"
        }
      ],
      "stateMutability": "view",
      "type": "function"
    },
    {
      "inputs": [],
      "name": "getCurrentPriceAvg",
      "outputs": [
        {
          "internalType": "uint256",
          "name": "",
          "type": "uint256"
        }
      ],
      "stateMutability": "view",
      "type": "function"
    },
    {
      "inputs": [
        {
          "internalType": "uint256",
          "name": "tokenId",
          "type": "uint256"
        }
      ],
      "name": "getFortuneLines",
      "outputs": [
        {
          "internalType": "string[2]",
          "name": "",
          "type": "string[2]"
        }
      ],
      "stateMutability": "view",
      "type": "function"
    },
    {
      "inputs": [],
      "name": "getPrice",
      "outputs": [
        {
          "internalType": "uint256",
          "name": "",
          "type": "uint256"
        }
      ],
      "stateMutability": "view",
      "type": "function"
    },
    {
      "inputs": [
        {
          "internalType": "uint256",
          "name": "tokenId",
          "type": "uint256"
        }
      ],
      "name": "getTokenSeed",
      "outputs": [
        {
          "internalType": "uint256",
          "name": "",
          "type": "uint256"
        }
      ],
      "stateMutability": "view",
      "type": "function"
    },
    {
      "inputs": [
        {
          "internalType": "address",
          "name": "owner",
          "type": "address"
        },
        {
          "internalType": "address",
          "name": "operator",
          "type": "address"
        }
      ],
      "name": "isApprovedForAll",
      "outputs": [
        {
          "internalType": "bool",
          "name": "",
          "type": "bool"
        }
      ],
      "stateMutability": "view",
      "type": "function"
    },
    {
      "inputs": [
        {
          "internalType": "address",
          "name": "_to",
          "type": "address"
        },
        {
          "internalType": "uint256",
          "name": "_count",
          "type": "uint256"
        }
      ],
      "name": "mint",
      "outputs": [],
      "stateMutability": "payable",
      "type": "function"
    },
    {
      "inputs": [],
      "name": "name",
      "outputs": [
        {
          "internalType": "string",
          "name": "",
          "type": "string"
        }
      ],
      "stateMutability": "view",
      "type": "function"
    },
    {
      "inputs": [],
      "name": "owner",
      "outputs": [
        {
          "internalType": "address",
          "name": "",
          "type": "address"
        }
      ],
      "stateMutability": "view",
      "type": "function"
    },
    {
      "inputs": [
        {
          "internalType": "address",
          "name": "_to",
          "type": "address"
        },
        {
          "internalType": "uint256",
          "name": "_count",
          "type": "uint256"
        }
      ],
      "name": "ownerMintTransfer",
      "outputs": [],
      "stateMutability": "nonpayable",
      "type": "function"
    },
    {
      "inputs": [
        {
          "internalType": "uint256",
          "name": "tokenId",
          "type": "uint256"
        }
      ],
      "name": "ownerOf",
      "outputs": [
        {
          "internalType": "address",
          "name": "",
          "type": "address"
        }
      ],
      "stateMutability": "view",
      "type": "function"
    },
    {
      "inputs": [],
      "name": "renounceOwnership",
      "outputs": [],
      "stateMutability": "nonpayable",
      "type": "function"
    },
    {
      "inputs": [
        {
          "internalType": "address",
          "name": "from",
          "type": "address"
        },
        {
          "internalType": "address",
          "name": "to",
          "type": "address"
        },
        {
          "internalType": "uint256",
          "name": "tokenId",
          "type": "uint256"
        }
      ],
      "name": "safeTransferFrom",
      "outputs": [],
      "stateMutability": "nonpayable",
      "type": "function"
    },
    {
      "inputs": [
        {
          "internalType": "address",
          "name": "from",
          "type": "address"
        },
        {
          "internalType": "address",
          "name": "to",
          "type": "address"
        },
        {
          "internalType": "uint256",
          "name": "tokenId",
          "type": "uint256"
        },
        {
          "internalType": "bytes",
          "name": "_data",
          "type": "bytes"
        }
      ],
      "name": "safeTransferFrom",
      "outputs": [],
      "stateMutability": "nonpayable",
      "type": "function"
    },
    {
      "inputs": [
        {
          "internalType": "address",
          "name": "operator",
          "type": "address"
        },
        {
          "internalType": "bool",
          "name": "approved",
          "type": "bool"
        }
      ],
      "name": "setApprovalForAll",
      "outputs": [],
      "stateMutability": "nonpayable",
      "type": "function"
    },
    {
      "inputs": [
        {
          "internalType": "bytes4",
          "name": "interfaceId",
          "type": "bytes4"
        }
      ],
      "name": "supportsInterface",
      "outputs": [
        {
          "internalType": "bool",
          "name": "",
          "type": "bool"
        }
      ],
      "stateMutability": "view",
      "type": "function"
    },
    {
      "inputs": [],
      "name": "symbol",
      "outputs": [
        {
          "internalType": "string",
          "name": "",
          "type": "string"
        }
      ],
      "stateMutability": "view",
      "type": "function"
    },
    {
      "inputs": [
        {
          "internalType": "uint256",
          "name": "",
          "type": "uint256"
        }
      ],
      "name": "tSeeds",
      "outputs": [
        {
          "internalType": "uint256",
          "name": "",
          "type": "uint256"
        }
      ],
      "stateMutability": "view",
      "type": "function"
    },
    {
      "inputs": [
        {
          "internalType": "uint256",
          "name": "tokenId",
          "type": "uint256"
        }
      ],
      "name": "tokenURI",
      "outputs": [
        {
          "internalType": "string",
          "name": "",
          "type": "string"
        }
      ],
      "stateMutability": "view",
      "type": "function"
    },
    {
      "inputs": [],
      "name": "totalSupply",
      "outputs": [
        {
          "internalType": "uint256",
          "name": "",
          "type": "uint256"
        }
      ],
      "stateMutability": "view",
      "type": "function"
    },
    {
      "inputs": [
        {
          "internalType": "address",
          "name": "from",
          "type": "address"
        },
        {
          "internalType": "address",
          "name": "to",
          "type": "address"
        },
        {
          "internalType": "uint256",
          "name": "tokenId",
          "type": "uint256"
        }
      ],
      "name": "transferFrom",
      "outputs": [],
      "stateMutability": "nonpayable",
      "type": "function"
    },
    {
      "inputs": [
        {
          "internalType": "address",
          "name": "newOwner",
          "type": "address"
        }
      ],
      "name": "transferOwnership",
      "outputs": [],
      "stateMutability": "nonpayable",
      "type": "function"
    },
    {
      "inputs": [],
      "name": "withdrawAll",
      "outputs": [],
      "stateMutability": "payable",
      "type": "function"
    }
  ],
  "bytecode": "0x60806040523480156200001157600080fd5b50604051620040fc380380620040fc83398181016040528101906200003791906200031d565b6040518060400160405280600c81526020017f466f7274756e65436f6f6b7900000000000000000000000000000000000000008152506040518060400160405280600581526020017f434f4f4b590000000000000000000000000000000000000000000000000000008152508160009080519060200190620000bb92919062000256565b508060019080519060200190620000d492919062000256565b505050620000f7620000eb6200018860201b60201c565b6200019060201b60201c565b81600a60006101000a81548173ffffffffffffffffffffffffffffffffffffffff021916908373ffffffffffffffffffffffffffffffffffffffff1602179055504260098190555080600c60006101000a81548173ffffffffffffffffffffffffffffffffffffffff021916908373ffffffffffffffffffffffffffffffffffffffff160217905550505062000411565b600033905090565b6000600760009054906101000a900473ffffffffffffffffffffffffffffffffffffffff16905081600760006101000a81548173ffffffffffffffffffffffffffffffffffffffff021916908373ffffffffffffffffffffffffffffffffffffffff1602179055508173ffffffffffffffffffffffffffffffffffffffff168173ffffffffffffffffffffffffffffffffffffffff167f8be0079c531659141344cd1fd0a4f28419497f9722a3daafe3b4186f6b6457e060405160405180910390a35050565b828054620002649062000392565b90600052602060002090601f016020900481019282620002885760008555620002d4565b82601f10620002a357805160ff1916838001178555620002d4565b82800160010185558215620002d4579182015b82811115620002d3578251825591602001919060010190620002b6565b5b509050620002e39190620002e7565b5090565b5b8082111562000302576000816000905550600101620002e8565b5090565b6000815190506200031781620003f7565b92915050565b600080604083850312156200033157600080fd5b6000620003418582860162000306565b9250506020620003548582860162000306565b9150509250929050565b60006200036b8262000372565b9050919050565b600073ffffffffffffffffffffffffffffffffffffffff82169050919050565b60006002820490506001821680620003ab57607f821691505b60208210811415620003c257620003c1620003c8565b5b50919050565b7f4e487b7100000000000000000000000000000000000000000000000000000000600052602260045260246000fd5b62000402816200035e565b81146200040e57600080fd5b50565b613cdb80620004216000396000f3fe6080604052600436106101c25760003560e01c8063715018a6116100f75780639d88dfff11610095578063e985e9c511610064578063e985e9c51461063a578063f0292a0314610677578063f2fde38b146106a2578063f47c84c5146106cb576101c2565b80639d88dfff14610580578063a22cb465146105ab578063b88d4fde146105d4578063c87b56dd146105fd576101c2565b806392d53983116100d157806392d53983146104b057806395d89b41146104ed57806398d5fdca14610518578063995a882114610543576101c2565b8063715018a614610464578063853828b61461047b5780638da5cb5b14610485576101c2565b806340c10f19116101645780635a4c16241161013e5780635a4c1624146103825780635ffa7c3e146103bf5780636352211e146103ea57806370a0823114610427576101c2565b806340c10f191461031457806342842e0e146103305780635792887c14610359576101c2565b8063081812fc116101a0578063081812fc1461025a578063095ea7b31461029757806318160ddd146102c057806323b872dd146102eb576101c2565b806301ffc9a7146101c757806306fdde031461020457806307cfe2e51461022f575b600080fd5b3480156101d357600080fd5b506101ee60048036038101906101e991906127fb565b6106f6565b6040516101fb9190612ea6565b60405180910390f35b34801561021057600080fd5b506102196107d8565b6040516102269190612ec1565b60405180910390f35b34801561023b57600080fd5b5061024461086a565b6040516102519190613183565b60405180910390f35b34801561026657600080fd5b50610281600480360381019061027c919061288e565b610888565b60405161028e9190612e1d565b60405180910390f35b3480156102a357600080fd5b506102be60048036038101906102b9919061277e565b61090d565b005b3480156102cc57600080fd5b506102d5610a25565b6040516102e29190613183565b60405180910390f35b3480156102f757600080fd5b50610312600480360381019061030d9190612678565b610a36565b005b61032e6004803603810190610329919061277e565b610a96565b005b34801561033c57600080fd5b5061035760048036038101906103529190612678565b610c28565b005b34801561036557600080fd5b50610380600480360381019061037b919061277e565b610c48565b005b34801561038e57600080fd5b506103a960048036038101906103a4919061288e565b610dd0565b6040516103b69190613183565b60405180910390f35b3480156103cb57600080fd5b506103d4610ded565b6040516103e19190613183565b60405180910390f35b3480156103f657600080fd5b50610411600480360381019061040c919061288e565b610df3565b60405161041e9190612e1d565b60405180910390f35b34801561043357600080fd5b5061044e60048036038101906104499190612613565b610ea5565b60405161045b9190613183565b60405180910390f35b34801561047057600080fd5b50610479610f5d565b005b610483610fe5565b005b34801561049157600080fd5b5061049a6110a2565b6040516104a79190612e1d565b60405180910390f35b3480156104bc57600080fd5b506104d760048036038101906104d2919061288e565b6110cc565b6040516104e49190612e84565b60405180910390f35b3480156104f957600080fd5b506105026111e6565b60405161050f9190612ec1565b60405180910390f35b34801561052457600080fd5b5061052d611278565b60405161053a9190613183565b60405180910390f35b34801561054f57600080fd5b5061056a6004803603810190610565919061288e565b61128e565b6040516105779190613183565b60405180910390f35b34801561058c57600080fd5b506105956112a6565b6040516105a29190613183565b60405180910390f35b3480156105b757600080fd5b506105d260048036038101906105cd9190612742565b6112da565b005b3480156105e057600080fd5b506105fb60048036038101906105f691906126c7565b6112f0565b005b34801561060957600080fd5b50610624600480360381019061061f919061288e565b611352565b6040516106319190612ec1565b60405180910390f35b34801561064657600080fd5b50610661600480360381019061065c919061263c565b611466565b60405161066e9190612ea6565b60405180910390f35b34801561068357600080fd5b5061068c6114fa565b6040516106999190613183565b60405180910390f35b3480156106ae57600080fd5b506106c960048036038101906106c49190612613565b6114ff565b005b3480156106d757600080fd5b506106e06115f7565b6040516106ed9190613183565b60405180910390f35b60007f80ac58cd000000000000000000000000000000000000000000000000000000007bffffffffffffffffffffffffffffffffffffffffffffffffffffffff1916827bffffffffffffffffffffffffffffffffffffffffffffffffffffffff191614806107c157507f5b5e139f000000000000000000000000000000000000000000000000000000007bffffffffffffffffffffffffffffffffffffffffffffffffffffffff1916827bffffffffffffffffffffffffffffffffffffffffffffffffffffffff1916145b806107d157506107d0826115fd565b5b9050919050565b6060600080546107e7906134e3565b80601f0160208091040260200160405190810160405280929190818152602001828054610813906134e3565b80156108605780601f1061083557610100808354040283529160200191610860565b820191906000526020600020905b81548152906001019060200180831161084357829003601f168201915b5050505050905090565b60006108766008611667565b600b546108839190613364565b905090565b600061089382611675565b6108d2576040517f08c379a00000000000000000000000000000000000000000000000000000000081526004016108c990613083565b60405180910390fd5b6004600083815260200190815260200160002060009054906101000a900473ffffffffffffffffffffffffffffffffffffffff169050919050565b600061091882610df3565b90508073ffffffffffffffffffffffffffffffffffffffff168373ffffffffffffffffffffffffffffffffffffffff161415610989576040517f08c379a0000000000000000000000000000000000000000000000000000000008152600401610980906130e3565b60405180910390fd5b8073ffffffffffffffffffffffffffffffffffffffff166109a86116e1565b73ffffffffffffffffffffffffffffffffffffffff1614806109d757506109d6816109d16116e1565b611466565b5b610a16576040517f08c379a0000000000000000000000000000000000000000000000000000000008152600401610a0d90613003565b60405180910390fd5b610a2083836116e9565b505050565b6000610a316008611667565b905090565b610a47610a416116e1565b826117a2565b610a86576040517f08c379a0000000000000000000000000000000000000000000000000000000008152600401610a7d90613163565b60405180910390fd5b610a91838383611880565b505050565b60008111610ad9576040517f08c379a0000000000000000000000000000000000000000000000000000000008152600401610ad090613123565b60405180910390fd5b600a811115610b1d576040517f08c379a0000000000000000000000000000000000000000000000000000000008152600401610b1490613103565b60405180910390fd5b61138881610b2b6008611667565b610b35919061330e565b1115610b76576040517f08c379a0000000000000000000000000000000000000000000000000000000008152600401610b6d90612fa3565b60405180910390fd5b60c9610b826008611667565b1015610ba65734600b6000828254610b9a919061330e565b92505081905550610bfc565b80610baf611278565b610bb99190613395565b341015610bfb576040517f08c379a0000000000000000000000000000000000000000000000000000000008152600401610bf290612fe3565b60405180910390fd5b5b60005b81811015610c2357610c1083611adc565b8080610c1b90613546565b915050610bff565b505050565b610c43838383604051806020016040528060008152506112f0565b505050565b610c506116e1565b73ffffffffffffffffffffffffffffffffffffffff16610c6e6110a2565b73ffffffffffffffffffffffffffffffffffffffff1614610cc4576040517f08c379a0000000000000000000000000000000000000000000000000000000008152600401610cbb906130a3565b60405180910390fd5b60008111610d07576040517f08c379a0000000000000000000000000000000000000000000000000000000008152600401610cfe90613123565b60405180910390fd5b600a811115610d4b576040517f08c379a0000000000000000000000000000000000000000000000000000000008152600401610d4290613103565b60405180910390fd5b61138881610d596008611667565b610d63919061330e565b1115610da4576040517f08c379a0000000000000000000000000000000000000000000000000000000008152600401610d9b90612fa3565b60405180910390fd5b60005b81811015610dcb57610db883611adc565b8080610dc390613546565b915050610da7565b505050565b6000600d6000838152602001908152602001600020549050919050565b600b5481565b6000806002600084815260200190815260200160002060009054906101000a900473ffffffffffffffffffffffffffffffffffffffff169050600073ffffffffffffffffffffffffffffffffffffffff168173ffffffffffffffffffffffffffffffffffffffff161415610e9c576040517f08c379a0000000000000000000000000000000000000000000000000000000008152600401610e9390613043565b60405180910390fd5b80915050919050565b60008073ffffffffffffffffffffffffffffffffffffffff168273ffffffffffffffffffffffffffffffffffffffff161415610f16576040517f08c379a0000000000000000000000000000000000000000000000000000000008152600401610f0d90613023565b60405180910390fd5b600360008373ffffffffffffffffffffffffffffffffffffffff1673ffffffffffffffffffffffffffffffffffffffff168152602001908152602001600020549050919050565b610f656116e1565b73ffffffffffffffffffffffffffffffffffffffff16610f836110a2565b73ffffffffffffffffffffffffffffffffffffffff1614610fd9576040517f08c379a0000000000000000000000000000000000000000000000000000000008152600401610fd0906130a3565b60405180910390fd5b610fe36000611b0c565b565b610fed6116e1565b73ffffffffffffffffffffffffffffffffffffffff1661100b6110a2565b73ffffffffffffffffffffffffffffffffffffffff1614611061576040517f08c379a0000000000000000000000000000000000000000000000000000000008152600401611058906130a3565b60405180910390fd5b60004790506000811161107357600080fd5b61109f600a60009054906101000a900473ffffffffffffffffffffffffffffffffffffffff1682611bd2565b50565b6000600760009054906101000a900473ffffffffffffffffffffffffffffffffffffffff16905090565b6110d4612438565b6110dd82611675565b61111c576040517f08c379a000000000000000000000000000000000000000000000000000000000815260040161111390612f83565b60405180910390fd5b600c60009054906101000a900473ffffffffffffffffffffffffffffffffffffffff1673ffffffffffffffffffffffffffffffffffffffff166379dccf8c8361116485610dd0565b61116c6112a6565b6040518463ffffffff1660e01b815260040161118a9392919061319e565b60006040518083038186803b1580156111a257600080fd5b505afa1580156111b6573d6000803e3d6000fd5b505050506040513d6000823e3d601f19601f820116820180604052508101906111df91906127ba565b9050919050565b6060600180546111f5906134e3565b80601f0160208091040260200160405190810160405280929190818152602001828054611221906134e3565b801561126e5780601f106112435761010080835404028352916020019161126e565b820191906000526020600020905b81548152906001019060200180831161125157829003601f168201915b5050505050905090565b600060c8600b546112899190613364565b905090565b600d6020528060005260406000206000915090505481565b600080600954426112b791906133ef565b9050600162093a80826112ca9190613364565b6112d4919061330e565b91505090565b6112ec6112e56116e1565b8383611c83565b5050565b6113016112fb6116e1565b836117a2565b611340576040517f08c379a000000000000000000000000000000000000000000000000000000000815260040161133790613163565b60405180910390fd5b61134c84848484611df0565b50505050565b606061135d82611675565b61139c576040517f08c379a000000000000000000000000000000000000000000000000000000000815260040161139390612f83565b60405180910390fd5b600c60009054906101000a900473ffffffffffffffffffffffffffffffffffffffff1673ffffffffffffffffffffffffffffffffffffffff16630a5063d6836113e485610dd0565b6113ec6112a6565b6040518463ffffffff1660e01b815260040161140a9392919061319e565b60006040518083038186803b15801561142257600080fd5b505afa158015611436573d6000803e3d6000fd5b505050506040513d6000823e3d601f19601f8201168201806040525081019061145f919061284d565b9050919050565b6000600560008473ffffffffffffffffffffffffffffffffffffffff1673ffffffffffffffffffffffffffffffffffffffff16815260200190815260200160002060008373ffffffffffffffffffffffffffffffffffffffff1673ffffffffffffffffffffffffffffffffffffffff16815260200190815260200160002060009054906101000a900460ff16905092915050565b600a81565b6115076116e1565b73ffffffffffffffffffffffffffffffffffffffff166115256110a2565b73ffffffffffffffffffffffffffffffffffffffff161461157b576040517f08c379a0000000000000000000000000000000000000000000000000000000008152600401611572906130a3565b60405180910390fd5b600073ffffffffffffffffffffffffffffffffffffffff168173ffffffffffffffffffffffffffffffffffffffff1614156115eb576040517f08c379a00000000000000000000000000000000000000000000000000000000081526004016115e290612f03565b60405180910390fd5b6115f481611b0c565b50565b61138881565b60007f01ffc9a7000000000000000000000000000000000000000000000000000000007bffffffffffffffffffffffffffffffffffffffffffffffffffffffff1916827bffffffffffffffffffffffffffffffffffffffffffffffffffffffff1916149050919050565b600081600001549050919050565b60008073ffffffffffffffffffffffffffffffffffffffff166002600084815260200190815260200160002060009054906101000a900473ffffffffffffffffffffffffffffffffffffffff1673ffffffffffffffffffffffffffffffffffffffff1614159050919050565b600033905090565b816004600083815260200190815260200160002060006101000a81548173ffffffffffffffffffffffffffffffffffffffff021916908373ffffffffffffffffffffffffffffffffffffffff160217905550808273ffffffffffffffffffffffffffffffffffffffff1661175c83610df3565b73ffffffffffffffffffffffffffffffffffffffff167f8c5be1e5ebec7d5bd14f71427d1e84f3dd0314c0f7b2291e5b200ac8c7c3b92560405160405180910390a45050565b60006117ad82611675565b6117ec576040517f08c379a00000000000000000000000000000000000000000000000000000000081526004016117e390612fc3565b60405180910390fd5b60006117f783610df3565b90508073ffffffffffffffffffffffffffffffffffffffff168473ffffffffffffffffffffffffffffffffffffffff16148061186657508373ffffffffffffffffffffffffffffffffffffffff1661184e84610888565b73ffffffffffffffffffffffffffffffffffffffff16145b8061187757506118768185611466565b5b91505092915050565b8273ffffffffffffffffffffffffffffffffffffffff166118a082610df3565b73ffffffffffffffffffffffffffffffffffffffff16146118f6576040517f08c379a00000000000000000000000000000000000000000000000000000000081526004016118ed906130c3565b60405180910390fd5b600073ffffffffffffffffffffffffffffffffffffffff168273ffffffffffffffffffffffffffffffffffffffff161415611966576040517f08c379a000000000000000000000000000000000000000000000000000000000815260040161195d90612f43565b60405180910390fd5b611971838383611e4c565b61197c6000826116e9565b6001600360008573ffffffffffffffffffffffffffffffffffffffff1673ffffffffffffffffffffffffffffffffffffffff16815260200190815260200160002060008282546119cc91906133ef565b925050819055506001600360008473ffffffffffffffffffffffffffffffffffffffff1673ffffffffffffffffffffffffffffffffffffffff1681526020019081526020016000206000828254611a23919061330e565b92505081905550816002600083815260200190815260200160002060006101000a81548173ffffffffffffffffffffffffffffffffffffffff021916908373ffffffffffffffffffffffffffffffffffffffff160217905550808273ffffffffffffffffffffffffffffffffffffffff168473ffffffffffffffffffffffffffffffffffffffff167fddf252ad1be2c89b69c2b068fc378daa952ba7f163c4a11628f55a4df523b3ef60405160405180910390a4505050565b611ae66008611e51565b6000611af26008611667565b9050611afe8282611e67565b611b088282611f13565b5050565b6000600760009054906101000a900473ffffffffffffffffffffffffffffffffffffffff16905081600760006101000a81548173ffffffffffffffffffffffffffffffffffffffff021916908373ffffffffffffffffffffffffffffffffffffffff1602179055508173ffffffffffffffffffffffffffffffffffffffff168173ffffffffffffffffffffffffffffffffffffffff167f8be0079c531659141344cd1fd0a4f28419497f9722a3daafe3b4186f6b6457e060405160405180910390a35050565b60008273ffffffffffffffffffffffffffffffffffffffff1682604051611bf890612db3565b60006040518083038185875af1925050503d8060008114611c35576040519150601f19603f3d011682016040523d82523d6000602084013e611c3a565b606091505b5050905080611c7e576040517f08c379a0000000000000000000000000000000000000000000000000000000008152600401611c7590613143565b60405180910390fd5b505050565b8173ffffffffffffffffffffffffffffffffffffffff168373ffffffffffffffffffffffffffffffffffffffff161415611cf2576040517f08c379a0000000000000000000000000000000000000000000000000000000008152600401611ce990612f63565b60405180910390fd5b80600560008573ffffffffffffffffffffffffffffffffffffffff1673ffffffffffffffffffffffffffffffffffffffff16815260200190815260200160002060008473ffffffffffffffffffffffffffffffffffffffff1673ffffffffffffffffffffffffffffffffffffffff16815260200190815260200160002060006101000a81548160ff0219169083151502179055508173ffffffffffffffffffffffffffffffffffffffff168373ffffffffffffffffffffffffffffffffffffffff167f17307eab39ab6107e8899845ad3d59bd9653f200f220920489ca2b5937696c3183604051611de39190612ea6565b60405180910390a3505050565b611dfb848484611880565b611e07848484846120e1565b611e46576040517f08c379a0000000000000000000000000000000000000000000000000000000008152600401611e3d90612ee3565b60405180910390fd5b50505050565b505050565b6001816000016000828254019250508190555050565b600082600143611e7791906133ef565b4042611e8285612278565b604051602001611e959493929190612dc8565b6040516020818303038152906040528051906020012060001c905060006103e782611ec091906135c7565b90508060641115611ef457606481611ed8919061330e565b600d600085815260200190815260200160002081905550611f0d565b80600d6000858152602001908152602001600020819055505b50505050565b600073ffffffffffffffffffffffffffffffffffffffff168273ffffffffffffffffffffffffffffffffffffffff161415611f83576040517f08c379a0000000000000000000000000000000000000000000000000000000008152600401611f7a90613063565b60405180910390fd5b611f8c81611675565b15611fcc576040517f08c379a0000000000000000000000000000000000000000000000000000000008152600401611fc390612f23565b60405180910390fd5b611fd860008383611e4c565b6001600360008473ffffffffffffffffffffffffffffffffffffffff1673ffffffffffffffffffffffffffffffffffffffff1681526020019081526020016000206000828254612028919061330e565b92505081905550816002600083815260200190815260200160002060006101000a81548173ffffffffffffffffffffffffffffffffffffffff021916908373ffffffffffffffffffffffffffffffffffffffff160217905550808273ffffffffffffffffffffffffffffffffffffffff16600073ffffffffffffffffffffffffffffffffffffffff167fddf252ad1be2c89b69c2b068fc378daa952ba7f163c4a11628f55a4df523b3ef60405160405180910390a45050565b60006121028473ffffffffffffffffffffffffffffffffffffffff16612425565b1561226b578373ffffffffffffffffffffffffffffffffffffffff1663150b7a0261212b6116e1565b8786866040518563ffffffff1660e01b815260040161214d9493929190612e38565b602060405180830381600087803b15801561216757600080fd5b505af192505050801561219857506040513d601f19601f820116820180604052508101906121959190612824565b60015b61221b573d80600081146121c8576040519150601f19603f3d011682016040523d82523d6000602084013e6121cd565b606091505b50600081511415612213576040517f08c379a000000000000000000000000000000000000000000000000000000000815260040161220a90612ee3565b60405180910390fd5b805181602001fd5b63150b7a0260e01b7bffffffffffffffffffffffffffffffffffffffffffffffffffffffff1916817bffffffffffffffffffffffffffffffffffffffffffffffffffffffff191614915050612270565b600190505b949350505050565b606060008214156122c0576040518060400160405280600181526020017f30000000000000000000000000000000000000000000000000000000000000008152509050612420565b600082905060005b600082146122f25780806122db90613546565b915050600a826122eb9190613364565b91506122c8565b60008167ffffffffffffffff811115612334577f4e487b7100000000000000000000000000000000000000000000000000000000600052604160045260246000fd5b6040519080825280601f01601f1916602001820160405280156123665781602001600182028036833780820191505090505b5090505b600085146124195760018261237f91906133ef565b9150600a8561238e91906135c7565b603061239a919061330e565b60f81b8183815181106123d6577f4e487b7100000000000000000000000000000000000000000000000000000000600052603260045260246000fd5b60200101907effffffffffffffffffffffffffffffffffffffffffffffffffffffffffffff1916908160001a905350600a856124129190613364565b945061236a565b8093505050505b919050565b600080823b905060008111915050919050565b60405180604001604052806002905b60608152602001906001900390816124475790505090565b600061247261246d846131fa565b6131d5565b9050808260005b858110156124a9578151850161248f88826125d4565b845260208401935060208301925050600181019050612479565b5050509392505050565b60006124c66124c184613220565b6131d5565b9050828152602081018484840111156124de57600080fd5b6124e98482856134a1565b509392505050565b60006125046124ff84613251565b6131d5565b90508281526020810184848401111561251c57600080fd5b6125278482856134b0565b509392505050565b60008135905061253e81613c49565b92915050565b600082601f83011261255557600080fd5b600261256284828561245f565b91505092915050565b60008135905061257a81613c60565b92915050565b60008135905061258f81613c77565b92915050565b6000815190506125a481613c77565b92915050565b600082601f8301126125bb57600080fd5b81356125cb8482602086016124b3565b91505092915050565b600082601f8301126125e557600080fd5b81516125f58482602086016124f1565b91505092915050565b60008135905061260d81613c8e565b92915050565b60006020828403121561262557600080fd5b60006126338482850161252f565b91505092915050565b6000806040838503121561264f57600080fd5b600061265d8582860161252f565b925050602061266e8582860161252f565b9150509250929050565b60008060006060848603121561268d57600080fd5b600061269b8682870161252f565b93505060206126ac8682870161252f565b92505060406126bd868287016125fe565b9150509250925092565b600080600080608085870312156126dd57600080fd5b60006126eb8782880161252f565b94505060206126fc8782880161252f565b935050604061270d878288016125fe565b925050606085013567ffffffffffffffff81111561272a57600080fd5b612736878288016125aa565b91505092959194509250565b6000806040838503121561275557600080fd5b60006127638582860161252f565b92505060206127748582860161256b565b9150509250929050565b6000806040838503121561279157600080fd5b600061279f8582860161252f565b92505060206127b0858286016125fe565b9150509250929050565b6000602082840312156127cc57600080fd5b600082015167ffffffffffffffff8111156127e657600080fd5b6127f284828501612544565b91505092915050565b60006020828403121561280d57600080fd5b600061281b84828501612580565b91505092915050565b60006020828403121561283657600080fd5b600061284484828501612595565b91505092915050565b60006020828403121561285f57600080fd5b600082015167ffffffffffffffff81111561287957600080fd5b612885848285016125d4565b91505092915050565b6000602082840312156128a057600080fd5b60006128ae848285016125fe565b91505092915050565b60006128c383836129c5565b905092915050565b6128d481613423565b82525050565b6128eb6128e682613423565b61358f565b82525050565b60006128fc8261328c565b61290681856132ba565b93508360208202850161291885613282565b8060005b85811015612954578484038952815161293585826128b7565b9450612940836132ad565b925060208a0199505060018101905061291c565b50829750879550505050505092915050565b61296f81613435565b82525050565b61298661298182613441565b6135a1565b82525050565b600061299782613297565b6129a181856132c5565b93506129b18185602086016134b0565b6129ba816136b4565b840191505092915050565b60006129d0826132a2565b6129da81856132e1565b93506129ea8185602086016134b0565b6129f3816136b4565b840191505092915050565b6000612a09826132a2565b612a1381856132f2565b9350612a238185602086016134b0565b612a2c816136b4565b840191505092915050565b6000612a42826132a2565b612a4c8185613303565b9350612a5c8185602086016134b0565b80840191505092915050565b6000612a756032836132f2565b9150612a80826136d2565b604082019050919050565b6000612a986026836132f2565b9150612aa382613721565b604082019050919050565b6000612abb601c836132f2565b9150612ac682613770565b602082019050919050565b6000612ade6024836132f2565b9150612ae982613799565b604082019050919050565b6000612b016019836132f2565b9150612b0c826137e8565b602082019050919050565b6000612b246026836132f2565b9150612b2f82613811565b604082019050919050565b6000612b476009836132f2565b9150612b5282613860565b602082019050919050565b6000612b6a602c836132f2565b9150612b7582613889565b604082019050919050565b6000612b8d6012836132f2565b9150612b98826138d8565b602082019050919050565b6000612bb06038836132f2565b9150612bbb82613901565b604082019050919050565b6000612bd3602a836132f2565b9150612bde82613950565b604082019050919050565b6000612bf66029836132f2565b9150612c018261399f565b604082019050919050565b6000612c196020836132f2565b9150612c24826139ee565b602082019050919050565b6000612c3c602c836132f2565b9150612c4782613a17565b604082019050919050565b6000612c5f6020836132f2565b9150612c6a82613a66565b602082019050919050565b6000612c826029836132f2565b9150612c8d82613a8f565b604082019050919050565b6000612ca56021836132f2565b9150612cb082613ade565b604082019050919050565b6000612cc86011836132f2565b9150612cd382613b2d565b602082019050919050565b6000612ceb6026836132f2565b9150612cf682613b56565b604082019050919050565b6000612d0e6000836132d6565b9150612d1982613ba5565b600082019050919050565b6000612d316010836132f2565b9150612d3c82613ba8565b602082019050919050565b6000612d546031836132f2565b9150612d5f82613bd1565b604082019050919050565b6000612d77600e83613303565b9150612d8282613c20565b600e82019050919050565b612d9681613497565b82525050565b612dad612da882613497565b6135bd565b82525050565b6000612dbe82612d01565b9150819050919050565b6000612dd382612d6a565b9150612ddf82876128da565b601482019150612def8286612975565b602082019150612dff8285612d9c565b602082019150612e0f8284612a37565b915081905095945050505050565b6000602082019050612e3260008301846128cb565b92915050565b6000608082019050612e4d60008301876128cb565b612e5a60208301866128cb565b612e676040830185612d8d565b8181036060830152612e79818461298c565b905095945050505050565b60006020820190508181036000830152612e9e81846128f1565b905092915050565b6000602082019050612ebb6000830184612966565b92915050565b60006020820190508181036000830152612edb81846129fe565b905092915050565b60006020820190508181036000830152612efc81612a68565b9050919050565b60006020820190508181036000830152612f1c81612a8b565b9050919050565b60006020820190508181036000830152612f3c81612aae565b9050919050565b60006020820190508181036000830152612f5c81612ad1565b9050919050565b60006020820190508181036000830152612f7c81612af4565b9050919050565b60006020820190508181036000830152612f9c81612b17565b9050919050565b60006020820190508181036000830152612fbc81612b3a565b9050919050565b60006020820190508181036000830152612fdc81612b5d565b9050919050565b60006020820190508181036000830152612ffc81612b80565b9050919050565b6000602082019050818103600083015261301c81612ba3565b9050919050565b6000602082019050818103600083015261303c81612bc6565b9050919050565b6000602082019050818103600083015261305c81612be9565b9050919050565b6000602082019050818103600083015261307c81612c0c565b9050919050565b6000602082019050818103600083015261309c81612c2f565b9050919050565b600060208201905081810360008301526130bc81612c52565b9050919050565b600060208201905081810360008301526130dc81612c75565b9050919050565b600060208201905081810360008301526130fc81612c98565b9050919050565b6000602082019050818103600083015261311c81612cbb565b9050919050565b6000602082019050818103600083015261313c81612cde565b9050919050565b6000602082019050818103600083015261315c81612d24565b9050919050565b6000602082019050818103600083015261317c81612d47565b9050919050565b60006020820190506131986000830184612d8d565b92915050565b60006060820190506131b36000830186612d8d565b6131c06020830185612d8d565b6131cd6040830184612d8d565b949350505050565b60006131df6131f0565b90506131eb8282613515565b919050565b6000604051905090565b600067ffffffffffffffff82111561321557613214613685565b5b602082029050919050565b600067ffffffffffffffff82111561323b5761323a613685565b5b613244826136b4565b9050602081019050919050565b600067ffffffffffffffff82111561326c5761326b613685565b5b613275826136b4565b9050602081019050919050565b6000819050919050565b600060029050919050565b600081519050919050565b600081519050919050565b6000602082019050919050565b600081905092915050565b600082825260208201905092915050565b600081905092915050565b600082825260208201905092915050565b600082825260208201905092915050565b600081905092915050565b600061331982613497565b915061332483613497565b9250827fffffffffffffffffffffffffffffffffffffffffffffffffffffffffffffffff03821115613359576133586135f8565b5b828201905092915050565b600061336f82613497565b915061337a83613497565b92508261338a57613389613627565b5b828204905092915050565b60006133a082613497565b91506133ab83613497565b9250817fffffffffffffffffffffffffffffffffffffffffffffffffffffffffffffffff04831182151516156133e4576133e36135f8565b5b828202905092915050565b60006133fa82613497565b915061340583613497565b925082821015613418576134176135f8565b5b828203905092915050565b600061342e82613477565b9050919050565b60008115159050919050565b6000819050919050565b60007fffffffff0000000000000000000000000000000000000000000000000000000082169050919050565b600073ffffffffffffffffffffffffffffffffffffffff82169050919050565b6000819050919050565b82818337600083830152505050565b60005b838110156134ce5780820151818401526020810190506134b3565b838111156134dd576000848401525b50505050565b600060028204905060018216806134fb57607f821691505b6020821081141561350f5761350e613656565b5b50919050565b61351e826136b4565b810181811067ffffffffffffffff8211171561353d5761353c613685565b5b80604052505050565b600061355182613497565b91507fffffffffffffffffffffffffffffffffffffffffffffffffffffffffffffffff821415613584576135836135f8565b5b600182019050919050565b600061359a826135ab565b9050919050565b6000819050919050565b60006135b6826136c5565b9050919050565b6000819050919050565b60006135d282613497565b91506135dd83613497565b9250826135ed576135ec613627565b5b828206905092915050565b7f4e487b7100000000000000000000000000000000000000000000000000000000600052601160045260246000fd5b7f4e487b7100000000000000000000000000000000000000000000000000000000600052601260045260246000fd5b7f4e487b7100000000000000000000000000000000000000000000000000000000600052602260045260246000fd5b7f4e487b7100000000000000000000000000000000000000000000000000000000600052604160045260246000fd5b6000601f19601f8301169050919050565b60008160601b9050919050565b7f4552433732313a207472616e7366657220746f206e6f6e20455243373231526560008201527f63656976657220696d706c656d656e7465720000000000000000000000000000602082015250565b7f4f776e61626c653a206e6577206f776e657220697320746865207a65726f206160008201527f6464726573730000000000000000000000000000000000000000000000000000602082015250565b7f4552433732313a20746f6b656e20616c7265616479206d696e74656400000000600082015250565b7f4552433732313a207472616e7366657220746f20746865207a65726f2061646460008201527f7265737300000000000000000000000000000000000000000000000000000000602082015250565b7f4552433732313a20617070726f766520746f2063616c6c657200000000000000600082015250565b7f436f6f6b793a2055524920717565727920666f72206e6f6e6578697374656e7460008201527f20746f6b656e0000000000000000000000000000000000000000000000000000602082015250565b7f4d6178206c696d69740000000000000000000000000000000000000000000000600082015250565b7f4552433732313a206f70657261746f7220717565727920666f72206e6f6e657860008201527f697374656e7420746f6b656e0000000000000000000000000000000000000000602082015250565b7f496e73756666696369656e742066756e64730000000000000000000000000000600082015250565b7f4552433732313a20617070726f76652063616c6c6572206973206e6f74206f7760008201527f6e6572206e6f7220617070726f76656420666f7220616c6c0000000000000000602082015250565b7f4552433732313a2062616c616e636520717565727920666f7220746865207a6560008201527f726f206164647265737300000000000000000000000000000000000000000000602082015250565b7f4552433732313a206f776e657220717565727920666f72206e6f6e657869737460008201527f656e7420746f6b656e0000000000000000000000000000000000000000000000602082015250565b7f4552433732313a206d696e7420746f20746865207a65726f2061646472657373600082015250565b7f4552433732313a20617070726f76656420717565727920666f72206e6f6e657860008201527f697374656e7420746f6b656e0000000000000000000000000000000000000000602082015250565b7f4f776e61626c653a2063616c6c6572206973206e6f7420746865206f776e6572600082015250565b7f4552433732313a207472616e73666572206f6620746f6b656e2074686174206960008201527f73206e6f74206f776e0000000000000000000000000000000000000000000000602082015250565b7f4552433732313a20617070726f76616c20746f2063757272656e74206f776e6560008201527f7200000000000000000000000000000000000000000000000000000000000000602082015250565b7f45786365656473206d6178206974656d73000000000000000000000000000000600082015250565b7f4d696e7420636f756e742073686f756c6420626520677265617465722074686160008201527f6e207a65726f0000000000000000000000000000000000000000000000000000602082015250565b50565b7f5472616e73666572206661696c65642e00000000000000000000000000000000600082015250565b7f4552433732313a207472616e736665722063616c6c6572206973206e6f74206f60008201527f776e6572206e6f7220617070726f766564000000000000000000000000000000602082015250565b7f4e414e5550414e44415f4c414253000000000000000000000000000000000000600082015250565b613c5281613423565b8114613c5d57600080fd5b50565b613c6981613435565b8114613c7457600080fd5b50565b613c808161344b565b8114613c8b57600080fd5b50565b613c9781613497565b8114613ca257600080fd5b5056fea26469706673582212203e4c2e1d4ddf17c553bdc9046ecc4ee66a320fde7b52338c285b6864b218ed3564736f6c63430008020033",
  "linkReferences": {},
  "deployedLinkReferences": {}
}